{
  "contractName": "CallerContract",
  "abi": [
    {
      "anonymous": false,
      "inputs": [
        {
          "indexed": false,
          "internalType": "string",
          "name": "txId",
          "type": "string"
        },
        {
          "indexed": false,
          "internalType": "bytes",
          "name": "data",
          "type": "bytes"
        }
      ],
      "name": "Result",
      "type": "event"
    },
    {
      "inputs": [
        {
          "internalType": "address",
          "name": "crossChainAddress",
          "type": "address"
        },
        {
          "internalType": "string",
          "name": "txId",
          "type": "string"
        },
        {
          "internalType": "string",
          "name": "primaryNetworkId",
          "type": "string"
        },
        {
          "internalType": "string",
          "name": "networkId",
          "type": "string"
        },
        {
          "internalType": "string",
          "name": "invocationId",
          "type": "string"
        },
        {
          "internalType": "bytes",
          "name": "args",
          "type": "bytes"
        }
      ],
      "name": "call",
      "outputs": [],
      "stateMutability": "nonpayable",
      "type": "function"
    },
    {
      "inputs": [
        {
          "internalType": "string",
          "name": "txId",
          "type": "string"
        },
        {
          "internalType": "bytes",
          "name": "data",
          "type": "bytes"
        }
      ],
      "name": "_callback",
      "outputs": [],
      "stateMutability": "nonpayable",
      "type": "function"
    }
  ],
  "bytecode": "0x608060405234801561001057600080fd5b5061047f806100206000396000f3fe608060405234801561001057600080fd5b50600436106100365760003560e01c8063c995eed91461003b578063fd80643e14610050575b600080fd5b61004e6100493660046101f3565b610063565b005b61004e61005e366004610280565b6100a0565b7f7412ea5ea987758c9501d16f39c47b1b1c6464c8f82b7eab8abeaf73e732a13982826040516100949291906103ae565b60405180910390a15050565b6040517fe48ba7a2000000000000000000000000000000000000000000000000000000008152869073ffffffffffffffffffffffffffffffffffffffff82169063e48ba7a2906100fc90899089908990899089906004016103dc565b600060405180830381600087803b15801561011657600080fd5b505af115801561012a573d6000803e3d6000fd5b5050505050505050505050565b7f4e487b7100000000000000000000000000000000000000000000000000000000600052604160045260246000fd5b600082601f83011261017757600080fd5b813567ffffffffffffffff8082111561019257610192610137565b604051601f8301601f19908116603f011681019082821181831017156101ba576101ba610137565b816040528381528660208588010111156101d357600080fd5b836020870160208301376000602085830101528094505050505092915050565b6000806040838503121561020657600080fd5b823567ffffffffffffffff8082111561021e57600080fd5b61022a86838701610166565b9350602085013591508082111561024057600080fd5b5061024d85828601610166565b9150509250929050565b803573ffffffffffffffffffffffffffffffffffffffff8116811461027b57600080fd5b919050565b60008060008060008060c0878903121561029957600080fd5b6102a287610257565b9550602087013567ffffffffffffffff808211156102bf57600080fd5b6102cb8a838b01610166565b965060408901359150808211156102e157600080fd5b6102ed8a838b01610166565b9550606089013591508082111561030357600080fd5b61030f8a838b01610166565b9450608089013591508082111561032557600080fd5b6103318a838b01610166565b935060a089013591508082111561034757600080fd5b5061035489828a01610166565b9150509295509295509295565b6000815180845260005b818110156103875760208185018101518683018201520161036b565b81811115610399576000602083870101525b50601f01601f19169290920160200192915050565b6040815260006103c16040830185610361565b82810360208401526103d38185610361565b95945050505050565b60a0815260006103ef60a0830188610361565b82810360208401526104018188610361565b905082810360408401526104158187610361565b905082810360608401526104298186610361565b9050828103608084015261043d8185610361565b9897505050505050505056fea26469706673582212201126abd34890c67812db63e247e85fea4f584634f4d14523a2f6c62cdc4099fc64736f6c63430008090033",
  "immutableReferences": {},
  "source": "// SPDX-License-Identifier: Apache-2.0\npragma solidity >=0.7.0 <0.9.0;\n\nimport \"./CrossChain.sol\";\n// Declares a new contract\ncontract CallerContract {\n    \n    event Result(\n        string txId,\n        bytes data\n    );\n    \n    function call(\n        address crossChainAddress,\n        string memory txId,\n        string memory primaryNetworkId,\n        string memory networkId,\n        string memory invocationId,\n        bytes memory args)\n        public {\n            CrossChain crossChain = CrossChain(crossChainAddress);\n            crossChain.doCross(txId, primaryNetworkId, networkId, invocationId, args);\n    }\n    function _callback(string memory txId, bytes memory data) public{\n        emit Result(txId, data);\n    }\n}",
  "sourcePath": "/Users/shri99/WebProjects/sidecar-contract-kit/sidemesh-solidity/contracts/CallerContract.sol",
  "compiler": {
    "name": "solc",
    "version": "0.8.9+commit.e5eed63a.Emscripten.clang"
  },
  "schemaVersion": "3.4.11",
  "updatedAt": "2023-07-13T12:29:02.045Z",
  "devdoc": {
    "kind": "dev",
    "methods": {},
    "version": 1
  },
  "userdoc": {
    "kind": "user",
    "methods": {},
    "version": 1
  }
}