{
  "contractName": "CallerContract",
  "abi": [
    {
      "anonymous": false,
      "inputs": [
        {
          "indexed": false,
          "internalType": "string",
          "name": "txId",
          "type": "string"
        },
        {
          "indexed": false,
          "internalType": "bytes",
          "name": "data",
          "type": "bytes"
        }
      ],
      "name": "Result",
      "type": "event"
    },
    {
      "inputs": [
        {
          "internalType": "address",
          "name": "crossChainAddress",
          "type": "address"
        },
        {
          "internalType": "string",
          "name": "txId",
          "type": "string"
        },
        {
          "internalType": "string",
          "name": "primaryNetworkId",
          "type": "string"
        },
        {
          "internalType": "string",
          "name": "networkId",
          "type": "string"
        },
        {
          "internalType": "string",
          "name": "invocationId",
          "type": "string"
        },
        {
          "internalType": "bytes[]",
          "name": "args",
          "type": "bytes[]"
        }
      ],
      "name": "call",
      "outputs": [],
      "stateMutability": "nonpayable",
      "type": "function"
    },
    {
      "inputs": [
        {
          "internalType": "string",
          "name": "txId",
          "type": "string"
        },
        {
          "internalType": "bytes",
          "name": "data",
          "type": "bytes"
        }
      ],
      "name": "_callback",
      "outputs": [],
      "stateMutability": "nonpayable",
      "type": "function"
    }
  ],
  "bytecode": "0x608060405234801561001057600080fd5b50610576806100206000396000f3fe608060405234801561001057600080fd5b50600436106100365760003560e01c8063c995eed91461003b578063db41a7c514610050575b600080fd5b61004e610049366004610207565b610063565b005b61004e61005e366004610333565b6100a0565b7f7412ea5ea987758c9501d16f39c47b1b1c6464c8f82b7eab8abeaf73e732a1398282604051610094929190610461565b60405180910390a15050565b6040517fcb179b2e000000000000000000000000000000000000000000000000000000008152869073ffffffffffffffffffffffffffffffffffffffff82169063cb179b2e906100fc908990899089908990899060040161048f565b600060405180830381600087803b15801561011657600080fd5b505af115801561012a573d6000803e3d6000fd5b5050505050505050505050565b7f4e487b7100000000000000000000000000000000000000000000000000000000600052604160045260246000fd5b604051601f8201601f1916810167ffffffffffffffff8111828210171561018f5761018f610137565b604052919050565b600082601f8301126101a857600080fd5b813567ffffffffffffffff8111156101c2576101c2610137565b6101d5601f8201601f1916602001610166565b8181528460208386010111156101ea57600080fd5b816020850160208301376000918101602001919091529392505050565b6000806040838503121561021a57600080fd5b823567ffffffffffffffff8082111561023257600080fd5b61023e86838701610197565b9350602085013591508082111561025457600080fd5b5061026185828601610197565b9150509250929050565b803573ffffffffffffffffffffffffffffffffffffffff8116811461028f57600080fd5b919050565b600082601f8301126102a557600080fd5b8135602067ffffffffffffffff808311156102c2576102c2610137565b8260051b6102d1838201610166565b93845285810183019383810190888611156102eb57600080fd5b84880192505b85831015610327578235848111156103095760008081fd5b6103178a87838c0101610197565b83525091840191908401906102f1565b98975050505050505050565b60008060008060008060c0878903121561034c57600080fd5b6103558761026b565b9550602087013567ffffffffffffffff8082111561037257600080fd5b61037e8a838b01610197565b9650604089013591508082111561039457600080fd5b6103a08a838b01610197565b955060608901359150808211156103b657600080fd5b6103c28a838b01610197565b945060808901359150808211156103d857600080fd5b6103e48a838b01610197565b935060a08901359150808211156103fa57600080fd5b5061040789828a01610294565b9150509295509295509295565b6000815180845260005b8181101561043a5760208185018101518683018201520161041e565b8181111561044c576000602083870101525b50601f01601f19169290920160200192915050565b6040815260006104746040830185610414565b82810360208401526104868185610414565b95945050505050565b60a0815260006104a260a0830188610414565b6020838203818501526104b58289610414565b915083820360408501526104c98288610414565b915083820360608501526104dd8287610414565b915083820360808501528185518084528284019150828160051b85010183880160005b8381101561052e57601f1987840301855261051c838351610414565b94860194925090850190600101610500565b50909c9b50505050505050505050505056fea2646970667358221220d9f79f8cdba2c8ad1500df7e9c27d2195b8ad4201e50f934caf6c2c55774af8364736f6c63430008090033",
  "immutableReferences": {},
  "source": "// SPDX-License-Identifier: Apache-2.0\npragma solidity >=0.7.0 <0.9.0;\n\nimport \"./CrossChain.sol\";\n// Declares a new contract\ncontract CallerContract {\n    \n    event Result(\n        string txId,\n        bytes data\n    );\n    \n    function call(\n        address crossChainAddress,\n        string memory txId,\n        string memory primaryNetworkId,\n        string memory networkId,\n        string memory invocationId,\n        bytes[] memory args)\n        public {\n            CrossChain crossChain = CrossChain(crossChainAddress);\n            crossChain.doCross(txId, primaryNetworkId, networkId, invocationId, args);\n    }\n    function _callback(string memory txId, bytes memory data) public{\n        emit Result(txId, data);\n    }\n}",
  "sourcePath": "/Users/rxshri99/Projects/Research/sidecar-contract-kit/sidemesh-solidity/contracts/CallerContract.sol",
  "compiler": {
    "name": "solc",
    "version": "0.8.9+commit.e5eed63a.Emscripten.clang"
  },
  "schemaVersion": "3.4.16",
  "updatedAt": "2025-12-15T19:41:36.445Z",
  "devdoc": {
    "kind": "dev",
    "methods": {},
    "version": 1
  },
  "userdoc": {
    "kind": "user",
    "methods": {},
    "version": 1
  }
}