{
  "contractName": "CommonChain",
  "abi": [
    {
      "inputs": [
        {
          "internalType": "address",
          "name": "_register",
          "type": "address"
        }
      ],
      "stateMutability": "nonpayable",
      "type": "constructor"
    },
    {
      "inputs": [],
      "name": "getChainId",
      "outputs": [
        {
          "internalType": "uint256",
          "name": "",
          "type": "uint256"
        }
      ],
      "stateMutability": "view",
      "type": "function"
    },
    {
      "inputs": [
        {
          "internalType": "string",
          "name": "id",
          "type": "string"
        },
        {
          "internalType": "string",
          "name": "name",
          "type": "string"
        },
        {
          "internalType": "string",
          "name": "url",
          "type": "string"
        }
      ],
      "name": "registerPrimaryNetwork",
      "outputs": [],
      "stateMutability": "nonpayable",
      "type": "function"
    },
    {
      "inputs": [
        {
          "internalType": "string",
          "name": "networkId",
          "type": "string"
        },
        {
          "internalType": "string",
          "name": "name",
          "type": "string"
        },
        {
          "internalType": "string",
          "name": "url",
          "type": "string"
        },
        {
          "internalType": "string",
          "name": "invocationId",
          "type": "string"
        },
        {
          "internalType": "address",
          "name": "contractAddress",
          "type": "address"
        },
        {
          "internalType": "string",
          "name": "functionSignature",
          "type": "string"
        }
      ],
      "name": "registerNetwork",
      "outputs": [],
      "stateMutability": "nonpayable",
      "type": "function"
    }
  ],
  "bytecode": "0x608060405234801561001057600080fd5b506040516105c83803806105c883398101604081905261002f91610054565b600080546001600160a01b0319166001600160a01b0392909216919091179055610084565b60006020828403121561006657600080fd5b81516001600160a01b038116811461007d57600080fd5b9392505050565b610535806100936000396000f3fe608060405234801561001057600080fd5b50600436106100415760003560e01c80633408e470146100465780639c3535e114610059578063e13108841461006e575b600080fd5b4660405190815260200160405180910390f35b61006c6100673660046102b3565b610081565b005b61006c61007c366004610394565b610170565b60005460405163991b53bf60e01b81526001600160a01b039091169063991b53bf906100b590899089908990600401610469565b600060405180830381600087803b1580156100cf57600080fd5b505af11580156100e3573d6000803e3d6000fd5b50506000546040517f487b91270000000000000000000000000000000000000000000000000000000081526001600160a01b03909116925063487b912791506101369089908790879087906004016104ac565b600060405180830381600087803b15801561015057600080fd5b505af1158015610164573d6000803e3d6000fd5b50505050505050505050565b60005460405163991b53bf60e01b81526001600160a01b039091169063991b53bf906101a490869086908690600401610469565b600060405180830381600087803b1580156101be57600080fd5b505af11580156101d2573d6000803e3d6000fd5b50505050505050565b7f4e487b7100000000000000000000000000000000000000000000000000000000600052604160045260246000fd5b600082601f83011261021b57600080fd5b813567ffffffffffffffff80821115610236576102366101db565b604051601f8301601f19908116603f0116810190828211818310171561025e5761025e6101db565b8160405283815286602085880101111561027757600080fd5b836020870160208301376000602085830101528094505050505092915050565b80356001600160a01b03811681146102ae57600080fd5b919050565b60008060008060008060c087890312156102cc57600080fd5b863567ffffffffffffffff808211156102e457600080fd5b6102f08a838b0161020a565b9750602089013591508082111561030657600080fd5b6103128a838b0161020a565b9650604089013591508082111561032857600080fd5b6103348a838b0161020a565b9550606089013591508082111561034a57600080fd5b6103568a838b0161020a565b945061036460808a01610297565b935060a089013591508082111561037a57600080fd5b5061038789828a0161020a565b9150509295509295509295565b6000806000606084860312156103a957600080fd5b833567ffffffffffffffff808211156103c157600080fd5b6103cd8783880161020a565b945060208601359150808211156103e357600080fd5b6103ef8783880161020a565b9350604086013591508082111561040557600080fd5b506104128682870161020a565b9150509250925092565b6000815180845260005b8181101561044257602081850181015186830182015201610426565b81811115610454576000602083870101525b50601f01601f19169290920160200192915050565b60608152600061047c606083018661041c565b828103602084015261048e818661041c565b905082810360408401526104a2818561041c565b9695505050505050565b6080815260006104bf608083018761041c565b82810360208401526104d1818761041c565b90506001600160a01b038516604084015282810360608401526104f4818561041c565b97965050505050505056fea2646970667358221220aca27c73e364c2c665117d2c7d04f2c9350046aeab83e653f7b1f66ed78c240864736f6c63430008090033",
  "immutableReferences": {},
  "source": "// SPDX-License-Identifier: GPL-3.0\npragma solidity >=0.7.0 <0.9.0;\n\nimport \"./resource/Register.sol\";\n\ncontract CommonChain{\n\n    Register register;\n\n    constructor(address _register){\n        register = Register(_register);\n    }\n\n    function getChainId()public view returns(uint) {\n        return block.chainid;\n    }\n    function registerPrimaryNetwork(\n        string memory id,\n        string memory name,\n        string memory url) public {\n            register.registerNetwork(id, name, url);\n    }\n    function registerNetwork(\n        string memory networkId,\n        string memory name,\n        string memory url,\n        string memory invocationId,\n        address contractAddress,\n        string memory functionSignature\n            ) public{\n                register.registerNetwork(networkId, name, url);\n                register.registerInvocation(networkId, invocationId, contractAddress, functionSignature);\n    }\n}",
  "sourcePath": "/Users/shri99/WebProjects/sidecar-contract-kit/sidemesh-solidity/contracts/CommonChain.sol",
  "compiler": {
    "name": "solc",
    "version": "0.8.9+commit.e5eed63a.Emscripten.clang"
  },
  "schemaVersion": "3.4.11",
  "updatedAt": "2023-01-26T14:41:53.815Z",
  "devdoc": {
    "kind": "dev",
    "methods": {},
    "version": 1
  },
  "userdoc": {
    "kind": "user",
    "methods": {},
    "version": 1
  }
}