{
  "contractName": "CommonChain",
  "abi": [
    {
      "inputs": [
        {
          "internalType": "address",
          "name": "_register",
          "type": "address"
        }
      ],
      "stateMutability": "nonpayable",
      "type": "constructor"
    },
    {
      "inputs": [],
      "name": "getChainId",
      "outputs": [
        {
          "internalType": "uint256",
          "name": "",
          "type": "uint256"
        }
      ],
      "stateMutability": "view",
      "type": "function"
    },
    {
      "inputs": [
        {
          "internalType": "string",
          "name": "id",
          "type": "string"
        },
        {
          "internalType": "string",
          "name": "name",
          "type": "string"
        },
        {
          "internalType": "string",
          "name": "url",
          "type": "string"
        }
      ],
      "name": "registerPrimaryNetwork",
      "outputs": [],
      "stateMutability": "nonpayable",
      "type": "function"
    },
    {
      "inputs": [
        {
          "internalType": "string",
          "name": "networkId",
          "type": "string"
        },
        {
          "internalType": "string",
          "name": "name",
          "type": "string"
        },
        {
          "internalType": "string",
          "name": "url",
          "type": "string"
        }
      ],
      "name": "registerNetwork",
      "outputs": [],
      "stateMutability": "nonpayable",
      "type": "function"
    },
    {
      "inputs": [
        {
          "internalType": "string",
          "name": "networkId",
          "type": "string"
        },
        {
          "internalType": "string",
          "name": "invocationId",
          "type": "string"
        },
        {
          "internalType": "address",
          "name": "contractAddress",
          "type": "address"
        },
        {
          "internalType": "string",
          "name": "functionSignature",
          "type": "string"
        }
      ],
      "name": "registerInvocation",
      "outputs": [],
      "stateMutability": "nonpayable",
      "type": "function"
    }
  ],
  "bytecode": "0x608060405234801561001057600080fd5b5060405161056438038061056483398101604081905261002f91610054565b600080546001600160a01b0319166001600160a01b0392909216919091179055610084565b60006020828403121561006657600080fd5b81516001600160a01b038116811461007d57600080fd5b9392505050565b6104d1806100936000396000f3fe608060405234801561001057600080fd5b506004361061004c5760003560e01c80633408e47014610051578063487b912714610064578063991b53bf14610079578063e131088414610079575b600080fd5b4660405190815260200160405180910390f35b61007761007236600461026d565b61008c565b005b610077610087366004610323565b610120565b6000546040517f487b912700000000000000000000000000000000000000000000000000000000815273ffffffffffffffffffffffffffffffffffffffff9091169063487b9127906100e89087908790879087906004016103f8565b600060405180830381600087803b15801561010257600080fd5b505af1158015610116573d6000803e3d6000fd5b5050505050505050565b6000546040517f991b53bf00000000000000000000000000000000000000000000000000000000815273ffffffffffffffffffffffffffffffffffffffff9091169063991b53bf9061017a90869086908690600401610458565b600060405180830381600087803b15801561019457600080fd5b505af11580156101a8573d6000803e3d6000fd5b50505050505050565b7f4e487b7100000000000000000000000000000000000000000000000000000000600052604160045260246000fd5b600082601f8301126101f157600080fd5b813567ffffffffffffffff8082111561020c5761020c6101b1565b604051601f8301601f19908116603f01168101908282118183101715610234576102346101b1565b8160405283815286602085880101111561024d57600080fd5b836020870160208301376000602085830101528094505050505092915050565b6000806000806080858703121561028357600080fd5b843567ffffffffffffffff8082111561029b57600080fd5b6102a7888389016101e0565b955060208701359150808211156102bd57600080fd5b6102c9888389016101e0565b94506040870135915073ffffffffffffffffffffffffffffffffffffffff821682146102f457600080fd5b9092506060860135908082111561030a57600080fd5b50610317878288016101e0565b91505092959194509250565b60008060006060848603121561033857600080fd5b833567ffffffffffffffff8082111561035057600080fd5b61035c878388016101e0565b9450602086013591508082111561037257600080fd5b61037e878388016101e0565b9350604086013591508082111561039457600080fd5b506103a1868287016101e0565b9150509250925092565b6000815180845260005b818110156103d1576020818501810151868301820152016103b5565b818111156103e3576000602083870101525b50601f01601f19169290920160200192915050565b60808152600061040b60808301876103ab565b828103602084015261041d81876103ab565b905073ffffffffffffffffffffffffffffffffffffffff85166040840152828103606084015261044d81856103ab565b979650505050505050565b60608152600061046b60608301866103ab565b828103602084015261047d81866103ab565b9050828103604084015261049181856103ab565b969550505050505056fea26469706673582212205321d221ce79be39142ccad012490f023fc33718618eacf78464325a9b38faa464736f6c63430008090033",
  "immutableReferences": {},
  "source": "// SPDX-License-Identifier: GPL-3.0\npragma solidity >=0.7.0 <0.9.0;\n\nimport \"./resource/Register.sol\";\n\ncontract CommonChain{\n\n    Register register;\n\n    constructor(address _register){\n        register = Register(_register);\n    }\n\n    function getChainId()public view returns(uint) {\n        return block.chainid;\n    }\n    function registerPrimaryNetwork(\n        string memory id,\n        string memory name,\n        string memory url) public {\n            register.registerNetwork(id, name, url);\n    }\n    function registerNetwork(\n        string memory networkId,\n        string memory name,\n        string memory url\n            ) public{\n                register.registerNetwork(networkId, name, url);\n    }\n    function registerInvocation(\n        string memory networkId,\n        string memory invocationId,\n        address contractAddress,\n        string memory functionSignature\n        )public{\n            register.registerInvocation(networkId, invocationId, contractAddress, functionSignature);\n    }\n}",
  "sourcePath": "/Users/rxshri99/Projects/Research/sidecar-contract-kit/sidemesh-solidity/contracts/CommonChain.sol",
  "compiler": {
    "name": "solc",
    "version": "0.8.9+commit.e5eed63a.Emscripten.clang"
  },
  "schemaVersion": "3.4.16",
  "updatedAt": "2025-12-15T19:41:36.447Z",
  "devdoc": {
    "kind": "dev",
    "methods": {},
    "version": 1
  },
  "userdoc": {
    "kind": "user",
    "methods": {},
    "version": 1
  }
}