{
  "contractName": "CrossChain",
  "abi": [
    {
      "inputs": [
        {
          "internalType": "address",
          "name": "_register",
          "type": "address"
        },
        {
          "internalType": "address",
          "name": "_primaryTransactionManager",
          "type": "address"
        }
      ],
      "stateMutability": "nonpayable",
      "type": "constructor"
    },
    {
      "inputs": [],
      "name": "getChainId",
      "outputs": [
        {
          "internalType": "uint256",
          "name": "",
          "type": "uint256"
        }
      ],
      "stateMutability": "view",
      "type": "function"
    },
    {
      "inputs": [
        {
          "internalType": "string",
          "name": "networkId",
          "type": "string"
        },
        {
          "internalType": "string",
          "name": "name",
          "type": "string"
        },
        {
          "internalType": "string",
          "name": "url",
          "type": "string"
        },
        {
          "internalType": "string",
          "name": "invocationId",
          "type": "string"
        },
        {
          "internalType": "address",
          "name": "contractAddress",
          "type": "address"
        },
        {
          "internalType": "string",
          "name": "functionSignature",
          "type": "string"
        }
      ],
      "name": "registerNetwork",
      "outputs": [],
      "stateMutability": "nonpayable",
      "type": "function"
    },
    {
      "inputs": [
        {
          "internalType": "string",
          "name": "id",
          "type": "string"
        },
        {
          "internalType": "string",
          "name": "name",
          "type": "string"
        },
        {
          "internalType": "string",
          "name": "url",
          "type": "string"
        }
      ],
      "name": "registerPrimaryNetwork",
      "outputs": [],
      "stateMutability": "nonpayable",
      "type": "function"
    },
    {
      "inputs": [
        {
          "internalType": "string",
          "name": "txId",
          "type": "string"
        },
        {
          "internalType": "string",
          "name": "primaryNetworkId",
          "type": "string"
        },
        {
          "internalType": "string",
          "name": "networkId",
          "type": "string"
        },
        {
          "internalType": "string",
          "name": "invocationId",
          "type": "string"
        },
        {
          "internalType": "bytes",
          "name": "args",
          "type": "bytes"
        }
      ],
      "name": "doCross",
      "outputs": [],
      "stateMutability": "nonpayable",
      "type": "function"
    },
    {
      "inputs": [
        {
          "internalType": "string",
          "name": "txId",
          "type": "string"
        }
      ],
      "name": "confirmDoCross",
      "outputs": [],
      "stateMutability": "nonpayable",
      "type": "function"
    },
    {
      "inputs": [
        {
          "internalType": "string",
          "name": "txId",
          "type": "string"
        },
        {
          "internalType": "uint256",
          "name": "_status",
          "type": "uint256"
        }
      ],
      "name": "changeStatus",
      "outputs": [],
      "stateMutability": "nonpayable",
      "type": "function"
    }
  ],
  "bytecode": "0x608060405234801561001057600080fd5b50604051610ae7380380610ae783398101604081905261002f9161007c565b600080546001600160a01b039384166001600160a01b031991821617909155600180549290931691161790556100af565b80516001600160a01b038116811461007757600080fd5b919050565b6000806040838503121561008f57600080fd5b61009883610060565b91506100a660208401610060565b90509250929050565b610a29806100be6000396000f3fe608060405234801561001057600080fd5b50600436106100725760003560e01c8063e131088411610050578063e1310884146100b2578063e48ba7a2146100c5578063f3bf64aa146100d857600080fd5b80633408e4701461007757806360e4b1c51461008a5780639c3535e11461009f575b600080fd5b4660405190815260200160405180910390f35b61009d610098366004610580565b6100eb565b005b61009d6100ad3660046105d9565b610169565b61009d6100c03660046106ba565b610258565b61009d6100d3366004610742565b6102c3565b61009d6100e6366004610814565b610443565b6001546040517f3cd58dc90000000000000000000000000000000000000000000000000000000081526001600160a01b0390911690633cd58dc9906101349084906004016108a6565b600060405180830381600087803b15801561014e57600080fd5b505af1158015610162573d6000803e3d6000fd5b5050505050565b60005460405163991b53bf60e01b81526001600160a01b039091169063991b53bf9061019d908990899089906004016108c0565b600060405180830381600087803b1580156101b757600080fd5b505af11580156101cb573d6000803e3d6000fd5b50506000546040517f487b91270000000000000000000000000000000000000000000000000000000081526001600160a01b03909116925063487b9127915061021e908990879087908790600401610903565b600060405180830381600087803b15801561023857600080fd5b505af115801561024c573d6000803e3d6000fd5b50505050505050505050565b60005460405163991b53bf60e01b81526001600160a01b039091169063991b53bf9061028c908690869086906004016108c0565b600060405180830381600087803b1580156102a657600080fd5b505af11580156102ba573d6000803e3d6000fd5b50505050505050565b6001546040517fc4abb0910000000000000000000000000000000000000000000000000000000081526001600160a01b039091169063c4abb0919061030e9088908890600401610956565b600060405180830381600087803b15801561032857600080fd5b505af115801561033c573d6000803e3d6000fd5b50506001546040517f515d400a0000000000000000000000000000000000000000000000000000000081526001600160a01b03909116925063515d400a915061038f908890879087908790600401610984565b600060405180830381600087803b1580156103a957600080fd5b505af11580156103bd573d6000803e3d6000fd5b50506001546040517f9ce275420000000000000000000000000000000000000000000000000000000081526001600160a01b039091169250639ce27542915061040a9088906004016108a6565b600060405180830381600087803b15801561042457600080fd5b505af1158015610438573d6000803e3d6000fd5b505050505050505050565b6001546040517ff3bf64aa0000000000000000000000000000000000000000000000000000000081526001600160a01b039091169063f3bf64aa9061048e90859085906004016109d1565b600060405180830381600087803b1580156104a857600080fd5b505af11580156104bc573d6000803e3d6000fd5b505050505050565b7f4e487b7100000000000000000000000000000000000000000000000000000000600052604160045260246000fd5b600082601f83011261050457600080fd5b813567ffffffffffffffff8082111561051f5761051f6104c4565b604051601f8301601f19908116603f01168101908282118183101715610547576105476104c4565b8160405283815286602085880101111561056057600080fd5b836020870160208301376000602085830101528094505050505092915050565b60006020828403121561059257600080fd5b813567ffffffffffffffff8111156105a957600080fd5b6105b5848285016104f3565b949350505050565b80356001600160a01b03811681146105d457600080fd5b919050565b60008060008060008060c087890312156105f257600080fd5b863567ffffffffffffffff8082111561060a57600080fd5b6106168a838b016104f3565b9750602089013591508082111561062c57600080fd5b6106388a838b016104f3565b9650604089013591508082111561064e57600080fd5b61065a8a838b016104f3565b9550606089013591508082111561067057600080fd5b61067c8a838b016104f3565b945061068a60808a016105bd565b935060a08901359150808211156106a057600080fd5b506106ad89828a016104f3565b9150509295509295509295565b6000806000606084860312156106cf57600080fd5b833567ffffffffffffffff808211156106e757600080fd5b6106f3878388016104f3565b9450602086013591508082111561070957600080fd5b610715878388016104f3565b9350604086013591508082111561072b57600080fd5b50610738868287016104f3565b9150509250925092565b600080600080600060a0868803121561075a57600080fd5b853567ffffffffffffffff8082111561077257600080fd5b61077e89838a016104f3565b9650602088013591508082111561079457600080fd5b6107a089838a016104f3565b955060408801359150808211156107b657600080fd5b6107c289838a016104f3565b945060608801359150808211156107d857600080fd5b6107e489838a016104f3565b935060808801359150808211156107fa57600080fd5b50610807888289016104f3565b9150509295509295909350565b6000806040838503121561082757600080fd5b823567ffffffffffffffff81111561083e57600080fd5b61084a858286016104f3565b95602094909401359450505050565b6000815180845260005b8181101561087f57602081850181015186830182015201610863565b81811115610891576000602083870101525b50601f01601f19169290920160200192915050565b6020815260006108b96020830184610859565b9392505050565b6060815260006108d36060830186610859565b82810360208401526108e58186610859565b905082810360408401526108f98185610859565b9695505050505050565b6080815260006109166080830187610859565b82810360208401526109288187610859565b90506001600160a01b0385166040840152828103606084015261094b8185610859565b979650505050505050565b6040815260006109696040830185610859565b828103602084015261097b8185610859565b95945050505050565b6080815260006109976080830187610859565b82810360208401526109a98187610859565b905082810360408401526109bd8186610859565b9050828103606084015261094b8185610859565b6040815260006109e46040830185610859565b9050826020830152939250505056fea26469706673582212205553f1fc032bb7483f04bd361e9debbece3d4d3b0b67fdb8596cb7a1fb7ee55a64736f6c63430008090033",
  "immutableReferences": {},
  "source": "// SPDX-License-Identifier: GPL-3.0\npragma solidity >=0.7.0 <0.9.0;\n\nimport \"./CommonChain.sol\";\nimport \"./transaction/PrimaryTransactionManager.sol\";\n\ncontract CrossChain is CommonChain{\n\n    PrimaryTransactionManager primaryTransactionManager;\n\n    constructor(address _register, address _primaryTransactionManager) CommonChain(_register) {\n        primaryTransactionManager = PrimaryTransactionManager(_primaryTransactionManager);\n    }\n\n    function doCross(\n        string memory txId,\n        string memory primaryNetworkId,\n        string memory networkId,\n        string memory invocationId,\n        bytes memory args)\n            public{\n                primaryTransactionManager.startPrimaryTransaction(txId, primaryNetworkId);\n                primaryTransactionManager.registerNetworkTransaction(txId, networkId, invocationId, args);\n                primaryTransactionManager.preparePrimaryTransaction(txId);\n    }\n    function confirmDoCross(string memory txId) public{\n        primaryTransactionManager.confirmPrimaryTransaction(txId);\n    }\n\n    function changeStatus(string memory txId, uint _status)public{\n        primaryTransactionManager.changeStatus(txId, _status);\n    }\n}",
  "sourcePath": "/Users/shri99/WebProjects/sidecar-contract-kit/sidemesh-solidity/contracts/CrossChain.sol",
  "compiler": {
    "name": "solc",
    "version": "0.8.9+commit.e5eed63a.Emscripten.clang"
  },
  "schemaVersion": "3.4.11",
  "updatedAt": "2023-07-05T23:32:12.001Z",
  "devdoc": {
    "kind": "dev",
    "methods": {},
    "version": 1
  },
  "userdoc": {
    "kind": "user",
    "methods": {},
    "version": 1
  }
}