{
  "contractName": "CrossNetwork",
  "abi": [
    {
      "inputs": [
        {
          "internalType": "address",
          "name": "_register",
          "type": "address"
        },
        {
          "internalType": "address",
          "name": "_networkTransactionManager",
          "type": "address"
        }
      ],
      "stateMutability": "nonpayable",
      "type": "constructor"
    },
    {
      "inputs": [],
      "name": "getChainId",
      "outputs": [
        {
          "internalType": "uint256",
          "name": "",
          "type": "uint256"
        }
      ],
      "stateMutability": "view",
      "type": "function"
    },
    {
      "inputs": [
        {
          "internalType": "string",
          "name": "networkId",
          "type": "string"
        },
        {
          "internalType": "string",
          "name": "invocationId",
          "type": "string"
        },
        {
          "internalType": "address",
          "name": "contractAddress",
          "type": "address"
        },
        {
          "internalType": "string",
          "name": "functionSignature",
          "type": "string"
        }
      ],
      "name": "registerInvocation",
      "outputs": [],
      "stateMutability": "nonpayable",
      "type": "function"
    },
    {
      "inputs": [
        {
          "internalType": "string",
          "name": "networkId",
          "type": "string"
        },
        {
          "internalType": "string",
          "name": "name",
          "type": "string"
        },
        {
          "internalType": "string",
          "name": "url",
          "type": "string"
        }
      ],
      "name": "registerNetwork",
      "outputs": [],
      "stateMutability": "nonpayable",
      "type": "function"
    },
    {
      "inputs": [
        {
          "internalType": "string",
          "name": "id",
          "type": "string"
        },
        {
          "internalType": "string",
          "name": "name",
          "type": "string"
        },
        {
          "internalType": "string",
          "name": "url",
          "type": "string"
        }
      ],
      "name": "registerPrimaryNetwork",
      "outputs": [],
      "stateMutability": "nonpayable",
      "type": "function"
    },
    {
      "inputs": [
        {
          "internalType": "string",
          "name": "txId",
          "type": "string"
        },
        {
          "internalType": "string",
          "name": "primaryNetworkId",
          "type": "string"
        },
        {
          "internalType": "string",
          "name": "networkId",
          "type": "string"
        },
        {
          "internalType": "string",
          "name": "invocationId",
          "type": "string"
        },
        {
          "internalType": "bytes",
          "name": "args",
          "type": "bytes"
        }
      ],
      "name": "doNetwork",
      "outputs": [],
      "stateMutability": "nonpayable",
      "type": "function"
    },
    {
      "inputs": [
        {
          "internalType": "string",
          "name": "txId",
          "type": "string"
        }
      ],
      "name": "confirmDoNetwork",
      "outputs": [],
      "stateMutability": "nonpayable",
      "type": "function"
    },
    {
      "inputs": [
        {
          "internalType": "string",
          "name": "txId",
          "type": "string"
        },
        {
          "internalType": "uint256",
          "name": "_status",
          "type": "uint256"
        }
      ],
      "name": "changeStatus",
      "outputs": [],
      "stateMutability": "nonpayable",
      "type": "function"
    }
  ],
  "bytecode": "0x608060405234801561001057600080fd5b506040516109c63803806109c683398101604081905261002f9161007c565b600080546001600160a01b039384166001600160a01b031991821617909155600180549290931691161790556100af565b80516001600160a01b038116811461007757600080fd5b919050565b6000806040838503121561008f57600080fd5b61009883610060565b91506100a660208401610060565b90509250929050565b610908806100be6000396000f3fe608060405234801561001057600080fd5b506004361061007d5760003560e01c8063991b53bf1161005b578063991b53bf146100bd578063a8d9c86d146100d0578063e1310884146100bd578063f3bf64aa146100e357600080fd5b80633408e47014610082578063484b7bf214610095578063487b9127146100aa575b600080fd5b4660405190815260200160405180910390f35b6100a86100a33660046104c1565b6100f6565b005b6100a86100b8366004610593565b6101fb565b6100a86100cb36600461063c565b610282565b6100a86100de3660046106c4565b610306565b6100a86100f1366004610701565b610384565b6001546040517f3e5ea75b0000000000000000000000000000000000000000000000000000000081526001600160a01b0390911690633e5ea75b906101479088908890889088908890600401610793565b600060405180830381600087803b15801561016157600080fd5b505af1158015610175573d6000803e3d6000fd5b50506001546040517fee24e36a0000000000000000000000000000000000000000000000000000000081526001600160a01b03909116925063ee24e36a91506101c2908890600401610800565b600060405180830381600087803b1580156101dc57600080fd5b505af11580156101f0573d6000803e3d6000fd5b505050505050505050565b6000546040517f487b91270000000000000000000000000000000000000000000000000000000081526001600160a01b039091169063487b91279061024a90879087908790879060040161081a565b600060405180830381600087803b15801561026457600080fd5b505af1158015610278573d6000803e3d6000fd5b5050505050505050565b6000546040517f991b53bf0000000000000000000000000000000000000000000000000000000081526001600160a01b039091169063991b53bf906102cf9086908690869060040161086d565b600060405180830381600087803b1580156102e957600080fd5b505af11580156102fd573d6000803e3d6000fd5b50505050505050565b6001546040517f3d832f5f0000000000000000000000000000000000000000000000000000000081526001600160a01b0390911690633d832f5f9061034f908490600401610800565b600060405180830381600087803b15801561036957600080fd5b505af115801561037d573d6000803e3d6000fd5b5050505050565b6001546040517ff3bf64aa0000000000000000000000000000000000000000000000000000000081526001600160a01b039091169063f3bf64aa906103cf90859085906004016108b0565b600060405180830381600087803b1580156103e957600080fd5b505af11580156103fd573d6000803e3d6000fd5b505050505050565b7f4e487b7100000000000000000000000000000000000000000000000000000000600052604160045260246000fd5b600082601f83011261044557600080fd5b813567ffffffffffffffff8082111561046057610460610405565b604051601f8301601f19908116603f0116810190828211818310171561048857610488610405565b816040528381528660208588010111156104a157600080fd5b836020870160208301376000602085830101528094505050505092915050565b600080600080600060a086880312156104d957600080fd5b853567ffffffffffffffff808211156104f157600080fd5b6104fd89838a01610434565b9650602088013591508082111561051357600080fd5b61051f89838a01610434565b9550604088013591508082111561053557600080fd5b61054189838a01610434565b9450606088013591508082111561055757600080fd5b61056389838a01610434565b9350608088013591508082111561057957600080fd5b5061058688828901610434565b9150509295509295909350565b600080600080608085870312156105a957600080fd5b843567ffffffffffffffff808211156105c157600080fd5b6105cd88838901610434565b955060208701359150808211156105e357600080fd5b6105ef88838901610434565b9450604087013591506001600160a01b038216821461060d57600080fd5b9092506060860135908082111561062357600080fd5b5061063087828801610434565b91505092959194509250565b60008060006060848603121561065157600080fd5b833567ffffffffffffffff8082111561066957600080fd5b61067587838801610434565b9450602086013591508082111561068b57600080fd5b61069787838801610434565b935060408601359150808211156106ad57600080fd5b506106ba86828701610434565b9150509250925092565b6000602082840312156106d657600080fd5b813567ffffffffffffffff8111156106ed57600080fd5b6106f984828501610434565b949350505050565b6000806040838503121561071457600080fd5b823567ffffffffffffffff81111561072b57600080fd5b61073785828601610434565b95602094909401359450505050565b6000815180845260005b8181101561076c57602081850181015186830182015201610750565b8181111561077e576000602083870101525b50601f01601f19169290920160200192915050565b60a0815260006107a660a0830188610746565b82810360208401526107b88188610746565b905082810360408401526107cc8187610746565b905082810360608401526107e08186610746565b905082810360808401526107f48185610746565b98975050505050505050565b6020815260006108136020830184610746565b9392505050565b60808152600061082d6080830187610746565b828103602084015261083f8187610746565b90506001600160a01b038516604084015282810360608401526108628185610746565b979650505050505050565b6060815260006108806060830186610746565b82810360208401526108928186610746565b905082810360408401526108a68185610746565b9695505050505050565b6040815260006108c36040830185610746565b9050826020830152939250505056fea2646970667358221220a01af26f6783fed53ad4ab48eb28a82d6292891cc44cb7da0c8d4d2134b01cd964736f6c63430008090033",
  "immutableReferences": {},
  "source": "// SPDX-License-Identifier: GPL-3.0\npragma solidity >=0.7.0 <0.9.0;\n\nimport \"./CommonChain.sol\";\nimport \"./transaction/NetworkTransactionManager.sol\";\n\ncontract CrossNetwork is CommonChain {\n\n    NetworkTransactionManager networkTransactionManager;\n    constructor(address _register, address _networkTransactionManager) CommonChain(_register){\n        networkTransactionManager = NetworkTransactionManager(_networkTransactionManager);\n    }\n\n    function doNetwork(\n        string memory txId,\n        string memory primaryNetworkId,\n        string memory networkId,\n        string memory invocationId,\n        bytes memory args) \n            public{\n                networkTransactionManager.startNetworkTransaction(txId, primaryNetworkId, networkId, invocationId, args);\n                networkTransactionManager.prepareNetworkTransaction(txId);\n    }\n    function confirmDoNetwork(string memory txId) public{\n        networkTransactionManager.confirmNetworkTransaction(txId);\n    }\n    function changeStatus(string memory txId, uint _status)public{\n        networkTransactionManager.changeStatus(txId, _status);\n    }\n}",
  "sourcePath": "/Users/shri99/WebProjects/sidecar-contract-kit/sidemesh-solidity/contracts/CrossNetwork.sol",
  "compiler": {
    "name": "solc",
    "version": "0.8.9+commit.e5eed63a.Emscripten.clang"
  },
  "schemaVersion": "3.4.11",
  "updatedAt": "2023-07-13T12:29:02.058Z",
  "devdoc": {
    "kind": "dev",
    "methods": {},
    "version": 1
  },
  "userdoc": {
    "kind": "user",
    "methods": {},
    "version": 1
  }
}