{
  "contractName": "CrossChain",
  "abi": [
    {
      "inputs": [
        {
          "internalType": "address",
          "name": "_register",
          "type": "address"
        },
        {
          "internalType": "address",
          "name": "_primaryTransactionManager",
          "type": "address"
        }
      ],
      "stateMutability": "nonpayable",
      "type": "constructor"
    },
    {
      "inputs": [],
      "name": "getChainId",
      "outputs": [
        {
          "internalType": "uint256",
          "name": "",
          "type": "uint256"
        }
      ],
      "stateMutability": "view",
      "type": "function",
      "constant": true
    },
    {
      "inputs": [
        {
          "internalType": "string",
          "name": "networkId",
          "type": "string"
        },
        {
          "internalType": "string",
          "name": "name",
          "type": "string"
        },
        {
          "internalType": "string",
          "name": "url",
          "type": "string"
        },
        {
          "internalType": "string",
          "name": "invocationId",
          "type": "string"
        },
        {
          "internalType": "address",
          "name": "contractAddress",
          "type": "address"
        },
        {
          "internalType": "string",
          "name": "functionSignature",
          "type": "string"
        }
      ],
      "name": "registerNetwork",
      "outputs": [],
      "stateMutability": "nonpayable",
      "type": "function"
    },
    {
      "inputs": [
        {
          "internalType": "string",
          "name": "id",
          "type": "string"
        },
        {
          "internalType": "string",
          "name": "name",
          "type": "string"
        },
        {
          "internalType": "string",
          "name": "url",
          "type": "string"
        }
      ],
      "name": "registerPrimaryNetwork",
      "outputs": [],
      "stateMutability": "nonpayable",
      "type": "function"
    },
    {
      "inputs": [
        {
          "internalType": "string",
          "name": "txId",
          "type": "string"
        },
        {
          "internalType": "string",
          "name": "networkId",
          "type": "string"
        },
        {
          "internalType": "string",
          "name": "invocationId",
          "type": "string"
        },
        {
          "internalType": "bytes",
          "name": "args",
          "type": "bytes"
        }
      ],
      "name": "doCross",
      "outputs": [],
      "stateMutability": "nonpayable",
      "type": "function"
    },
    {
      "inputs": [
        {
          "internalType": "string",
          "name": "txId",
          "type": "string"
        }
      ],
      "name": "confirmDoCross",
      "outputs": [],
      "stateMutability": "nonpayable",
      "type": "function"
    },
    {
      "inputs": [
        {
          "internalType": "string",
          "name": "txId",
          "type": "string"
        },
        {
          "internalType": "uint256",
          "name": "_status",
          "type": "uint256"
        }
      ],
      "name": "changeStatus",
      "outputs": [],
      "stateMutability": "nonpayable",
      "type": "function"
    }
  ],
  "bytecode": "0x608060405234801561001057600080fd5b50604051610aae380380610aae83398101604081905261002f9161007c565b600080546001600160a01b039384166001600160a01b031991821617909155600180549290931691161790556100af565b80516001600160a01b038116811461007757600080fd5b919050565b6000806040838503121561008f57600080fd5b61009883610060565b91506100a660208401610060565b90509250929050565b6109f0806100be6000396000f3fe608060405234801561001057600080fd5b50600436106100725760003560e01c80639c3535e1116100505780639c3535e1146100b2578063e1310884146100c5578063f3bf64aa146100d857600080fd5b80633408e4701461007757806360e4b1c51461008a5780636e3261dc1461009f575b600080fd5b4660405190815260200160405180910390f35b61009d61009836600461058d565b6100eb565b005b61009d6100ad3660046105ca565b610169565b61009d6100c03660046106a7565b6102e6565b61009d6100d3366004610788565b6103d5565b61009d6100e6366004610810565b610440565b6001546040517f3cd58dc90000000000000000000000000000000000000000000000000000000081526001600160a01b0390911690633cd58dc9906101349084906004016108a2565b600060405180830381600087803b15801561014e57600080fd5b505af1158015610162573d6000803e3d6000fd5b5050505050565b6001546040517f821bf7b70000000000000000000000000000000000000000000000000000000081526001600160a01b039091169063821bf7b7906101b29087906004016108a2565b600060405180830381600087803b1580156101cc57600080fd5b505af11580156101e0573d6000803e3d6000fd5b50506001546040517f515d400a0000000000000000000000000000000000000000000000000000000081526001600160a01b03909116925063515d400a91506102339087908790879087906004016108b5565b600060405180830381600087803b15801561024d57600080fd5b505af1158015610261573d6000803e3d6000fd5b50506001546040517f9ce275420000000000000000000000000000000000000000000000000000000081526001600160a01b039091169250639ce2754291506102ae9087906004016108a2565b600060405180830381600087803b1580156102c857600080fd5b505af11580156102dc573d6000803e3d6000fd5b5050505050505050565b60005460405163991b53bf60e01b81526001600160a01b039091169063991b53bf9061031a9089908990899060040161090d565b600060405180830381600087803b15801561033457600080fd5b505af1158015610348573d6000803e3d6000fd5b50506000546040517f487b91270000000000000000000000000000000000000000000000000000000081526001600160a01b03909116925063487b9127915061039b908990879087908790600401610950565b600060405180830381600087803b1580156103b557600080fd5b505af11580156103c9573d6000803e3d6000fd5b50505050505050505050565b60005460405163991b53bf60e01b81526001600160a01b039091169063991b53bf906104099086908690869060040161090d565b600060405180830381600087803b15801561042357600080fd5b505af1158015610437573d6000803e3d6000fd5b50505050505050565b6001546040517ff3bf64aa0000000000000000000000000000000000000000000000000000000081526001600160a01b039091169063f3bf64aa9061048b9085908590600401610998565b600060405180830381600087803b1580156104a557600080fd5b505af11580156104b9573d6000803e3d6000fd5b505050505050565b7f4e487b7100000000000000000000000000000000000000000000000000000000600052604160045260246000fd5b600067ffffffffffffffff8084111561050b5761050b6104c1565b604051601f8501601f19908116603f01168101908282118183101715610533576105336104c1565b8160405280935085815286868601111561054c57600080fd5b858560208301376000602087830101525050509392505050565b600082601f83011261057757600080fd5b610586838335602085016104f0565b9392505050565b60006020828403121561059f57600080fd5b813567ffffffffffffffff8111156105b657600080fd5b6105c284828501610566565b949350505050565b600080600080608085870312156105e057600080fd5b843567ffffffffffffffff808211156105f857600080fd5b61060488838901610566565b9550602087013591508082111561061a57600080fd5b61062688838901610566565b9450604087013591508082111561063c57600080fd5b61064888838901610566565b9350606087013591508082111561065e57600080fd5b508501601f8101871361067057600080fd5b61067f878235602084016104f0565b91505092959194509250565b80356001600160a01b03811681146106a257600080fd5b919050565b60008060008060008060c087890312156106c057600080fd5b863567ffffffffffffffff808211156106d857600080fd5b6106e48a838b01610566565b975060208901359150808211156106fa57600080fd5b6107068a838b01610566565b9650604089013591508082111561071c57600080fd5b6107288a838b01610566565b9550606089013591508082111561073e57600080fd5b61074a8a838b01610566565b945061075860808a0161068b565b935060a089013591508082111561076e57600080fd5b5061077b89828a01610566565b9150509295509295509295565b60008060006060848603121561079d57600080fd5b833567ffffffffffffffff808211156107b557600080fd5b6107c187838801610566565b945060208601359150808211156107d757600080fd5b6107e387838801610566565b935060408601359150808211156107f957600080fd5b5061080686828701610566565b9150509250925092565b6000806040838503121561082357600080fd5b823567ffffffffffffffff81111561083a57600080fd5b61084685828601610566565b95602094909401359450505050565b6000815180845260005b8181101561087b5760208185018101518683018201520161085f565b8181111561088d576000602083870101525b50601f01601f19169290920160200192915050565b6020815260006105866020830184610855565b6080815260006108c86080830187610855565b82810360208401526108da8187610855565b905082810360408401526108ee8186610855565b905082810360608401526109028185610855565b979650505050505050565b6060815260006109206060830186610855565b82810360208401526109328186610855565b905082810360408401526109468185610855565b9695505050505050565b6080815260006109636080830187610855565b82810360208401526109758187610855565b90506001600160a01b038516604084015282810360608401526109028185610855565b6040815260006109ab6040830185610855565b9050826020830152939250505056fea2646970667358221220746dbcffe96b2629c43c1b99f8a4e5b5738e66d0453bdaf20fa00b7a371bbc2c64736f6c63430008090033",
  "immutableReferences": {},
  "source": "// SPDX-License-Identifier: GPL-3.0\npragma solidity >=0.7.0 <0.9.0;\n\nimport \"./CommonChain.sol\";\nimport \"./transaction/PrimaryTransactionManager.sol\";\n\ncontract CrossChain is CommonChain{\n\n    PrimaryTransactionManager primaryTransactionManager;\n\n    constructor(address _register, address _primaryTransactionManager) CommonChain(_register) {\n        primaryTransactionManager = PrimaryTransactionManager(_primaryTransactionManager);\n    }\n\n    function doCross(\n        string memory txId,\n        string memory networkId,\n        string memory invocationId,\n        bytes memory args)\n            public{\n                primaryTransactionManager.startPrimaryTransaction(txId);\n                primaryTransactionManager.registerNetworkTransaction(txId, networkId, invocationId, args);\n                primaryTransactionManager.preparePrimaryTransaction(txId);\n    }\n    function confirmDoCross(string memory txId) public{\n        primaryTransactionManager.confirmPrimaryTransaction(txId);\n    }\n\n    function changeStatus(string memory txId, uint _status)public{\n        primaryTransactionManager.changeStatus(txId, _status);\n    }\n}",
  "sourcePath": "/Users/shri99/WebProjects/sidecar-contract-kit/sidemesh-solidity/contracts/CrossChain.sol",
  "compiler": {
    "name": "solc",
    "version": "0.8.9+commit.e5eed63a.Emscripten.clang"
  },
  "schemaVersion": "3.4.11",
  "updatedAt": "2023-01-26T14:42:12.116Z",
  "networkType": "ethereum",
  "devdoc": {
    "kind": "dev",
    "methods": {},
    "version": 1
  },
  "userdoc": {
    "kind": "user",
    "methods": {},
    "version": 1
  }
}