{
  "contractName": "CrossChain",
  "abi": [
    {
      "inputs": [
        {
          "internalType": "address",
          "name": "_register",
          "type": "address"
        },
        {
          "internalType": "address",
          "name": "_primaryTransactionManager",
          "type": "address"
        }
      ],
      "stateMutability": "nonpayable",
      "type": "constructor"
    },
    {
      "inputs": [],
      "name": "getChainId",
      "outputs": [
        {
          "internalType": "uint256",
          "name": "",
          "type": "uint256"
        }
      ],
      "stateMutability": "view",
      "type": "function"
    },
    {
      "inputs": [
        {
          "internalType": "string",
          "name": "networkId",
          "type": "string"
        },
        {
          "internalType": "string",
          "name": "name",
          "type": "string"
        },
        {
          "internalType": "string",
          "name": "url",
          "type": "string"
        },
        {
          "internalType": "string",
          "name": "invocationId",
          "type": "string"
        },
        {
          "internalType": "address",
          "name": "contractAddress",
          "type": "address"
        },
        {
          "internalType": "string",
          "name": "functionSignature",
          "type": "string"
        }
      ],
      "name": "registerNetwork",
      "outputs": [],
      "stateMutability": "nonpayable",
      "type": "function"
    },
    {
      "inputs": [
        {
          "internalType": "string",
          "name": "id",
          "type": "string"
        },
        {
          "internalType": "string",
          "name": "name",
          "type": "string"
        },
        {
          "internalType": "string",
          "name": "url",
          "type": "string"
        }
      ],
      "name": "registerPrimaryNetwork",
      "outputs": [],
      "stateMutability": "nonpayable",
      "type": "function"
    },
    {
      "inputs": [
        {
          "internalType": "string",
          "name": "txId",
          "type": "string"
        },
        {
          "internalType": "string",
          "name": "primaryNetworkId",
          "type": "string"
        },
        {
          "internalType": "string",
          "name": "networkId",
          "type": "string"
        },
        {
          "internalType": "string",
          "name": "invocationId",
          "type": "string"
        },
        {
          "internalType": "bytes",
          "name": "args",
          "type": "bytes"
        }
      ],
      "name": "doCross",
      "outputs": [],
      "stateMutability": "nonpayable",
      "type": "function"
    },
    {
      "inputs": [
        {
          "internalType": "string",
          "name": "txId",
          "type": "string"
        }
      ],
      "name": "confirmDoCross",
      "outputs": [],
      "stateMutability": "nonpayable",
      "type": "function"
    },
    {
      "inputs": [
        {
          "internalType": "string",
          "name": "txId",
          "type": "string"
        },
        {
          "internalType": "bytes",
          "name": "data",
          "type": "bytes"
        }
      ],
      "name": "finishPrimaryTransaction",
      "outputs": [],
      "stateMutability": "nonpayable",
      "type": "function"
    },
    {
      "inputs": [
        {
          "internalType": "string",
          "name": "txId",
          "type": "string"
        },
        {
          "internalType": "uint256",
          "name": "_status",
          "type": "uint256"
        }
      ],
      "name": "changeStatus",
      "outputs": [],
      "stateMutability": "nonpayable",
      "type": "function"
    }
  ],
  "bytecode": "0x608060405234801561001057600080fd5b50604051610bfd380380610bfd83398101604081905261002f9161007c565b600080546001600160a01b039384166001600160a01b031991821617909155600180549290931691161790556100af565b80516001600160a01b038116811461007757600080fd5b919050565b6000806040838503121561008f57600080fd5b61009883610060565b91506100a660208401610060565b90509250929050565b610b3f806100be6000396000f3fe608060405234801561001057600080fd5b506004361061007d5760003560e01c80639c3535e11161005b5780639c3535e1146100bd578063e1310884146100d0578063e48ba7a2146100e3578063f3bf64aa146100f657600080fd5b80630e76ba06146100825780633408e4701461009757806360e4b1c5146100aa575b600080fd5b610095610090366004610616565b610109565b005b4660405190815260200160405180910390f35b6100956100b836600461067a565b61018a565b6100956100cb3660046106d3565b610208565b6100956100de3660046107b4565b6102f7565b6100956100f136600461083c565b610362565b61009561010436600461090e565b61050f565b6001546040517f0e76ba060000000000000000000000000000000000000000000000000000000081526001600160a01b0390911690630e76ba069061015490859085906004016109a0565b600060405180830381600087803b15801561016e57600080fd5b505af1158015610182573d6000803e3d6000fd5b505050505050565b6001546040517f3cd58dc90000000000000000000000000000000000000000000000000000000081526001600160a01b0390911690633cd58dc9906101d39084906004016109ce565b600060405180830381600087803b1580156101ed57600080fd5b505af1158015610201573d6000803e3d6000fd5b5050505050565b60005460405163991b53bf60e01b81526001600160a01b039091169063991b53bf9061023c908990899089906004016109e8565b600060405180830381600087803b15801561025657600080fd5b505af115801561026a573d6000803e3d6000fd5b50506000546040517f487b91270000000000000000000000000000000000000000000000000000000081526001600160a01b03909116925063487b912791506102bd908990879087908790600401610a2b565b600060405180830381600087803b1580156102d757600080fd5b505af11580156102eb573d6000803e3d6000fd5b50505050505050505050565b60005460405163991b53bf60e01b81526001600160a01b039091169063991b53bf9061032b908690869086906004016109e8565b600060405180830381600087803b15801561034557600080fd5b505af1158015610359573d6000803e3d6000fd5b50505050505050565b600280547fffffffffffffffffffffffff000000000000000000000000000000000000000016331790556001546040517fc4abb0910000000000000000000000000000000000000000000000000000000081526001600160a01b03919091169063c4abb091906103d890889088906004016109a0565b600060405180830381600087803b1580156103f257600080fd5b505af1158015610406573d6000803e3d6000fd5b50506001546040517f6c66f8420000000000000000000000000000000000000000000000000000000081526001600160a01b039091169250636c66f842915061045b9088908790879087903390600401610a7e565b600060405180830381600087803b15801561047557600080fd5b505af1158015610489573d6000803e3d6000fd5b50506001546040517f9ce275420000000000000000000000000000000000000000000000000000000081526001600160a01b039091169250639ce2754291506104d69088906004016109ce565b600060405180830381600087803b1580156104f057600080fd5b505af1158015610504573d6000803e3d6000fd5b505050505050505050565b6001546040517ff3bf64aa0000000000000000000000000000000000000000000000000000000081526001600160a01b039091169063f3bf64aa906101549085908590600401610ae7565b7f4e487b7100000000000000000000000000000000000000000000000000000000600052604160045260246000fd5b600082601f83011261059a57600080fd5b813567ffffffffffffffff808211156105b5576105b561055a565b604051601f8301601f19908116603f011681019082821181831017156105dd576105dd61055a565b816040528381528660208588010111156105f657600080fd5b836020870160208301376000602085830101528094505050505092915050565b6000806040838503121561062957600080fd5b823567ffffffffffffffff8082111561064157600080fd5b61064d86838701610589565b9350602085013591508082111561066357600080fd5b5061067085828601610589565b9150509250929050565b60006020828403121561068c57600080fd5b813567ffffffffffffffff8111156106a357600080fd5b6106af84828501610589565b949350505050565b80356001600160a01b03811681146106ce57600080fd5b919050565b60008060008060008060c087890312156106ec57600080fd5b863567ffffffffffffffff8082111561070457600080fd5b6107108a838b01610589565b9750602089013591508082111561072657600080fd5b6107328a838b01610589565b9650604089013591508082111561074857600080fd5b6107548a838b01610589565b9550606089013591508082111561076a57600080fd5b6107768a838b01610589565b945061078460808a016106b7565b935060a089013591508082111561079a57600080fd5b506107a789828a01610589565b9150509295509295509295565b6000806000606084860312156107c957600080fd5b833567ffffffffffffffff808211156107e157600080fd5b6107ed87838801610589565b9450602086013591508082111561080357600080fd5b61080f87838801610589565b9350604086013591508082111561082557600080fd5b5061083286828701610589565b9150509250925092565b600080600080600060a0868803121561085457600080fd5b853567ffffffffffffffff8082111561086c57600080fd5b61087889838a01610589565b9650602088013591508082111561088e57600080fd5b61089a89838a01610589565b955060408801359150808211156108b057600080fd5b6108bc89838a01610589565b945060608801359150808211156108d257600080fd5b6108de89838a01610589565b935060808801359150808211156108f457600080fd5b5061090188828901610589565b9150509295509295909350565b6000806040838503121561092157600080fd5b823567ffffffffffffffff81111561093857600080fd5b61094485828601610589565b95602094909401359450505050565b6000815180845260005b818110156109795760208185018101518683018201520161095d565b8181111561098b576000602083870101525b50601f01601f19169290920160200192915050565b6040815260006109b36040830185610953565b82810360208401526109c58185610953565b95945050505050565b6020815260006109e16020830184610953565b9392505050565b6060815260006109fb6060830186610953565b8281036020840152610a0d8186610953565b90508281036040840152610a218185610953565b9695505050505050565b608081526000610a3e6080830187610953565b8281036020840152610a508187610953565b90506001600160a01b03851660408401528281036060840152610a738185610953565b979650505050505050565b60a081526000610a9160a0830188610953565b8281036020840152610aa38188610953565b90508281036040840152610ab78187610953565b90508281036060840152610acb8186610953565b9150506001600160a01b03831660808301529695505050505050565b604081526000610afa6040830185610953565b9050826020830152939250505056fea2646970667358221220f99cf8d781e4b29d8e0dbacfd7628b0edd9f9a8e6ff00be94e50e6bcdfd36d2164736f6c63430008090033",
  "immutableReferences": {},
  "source": "// SPDX-License-Identifier: GPL-3.0\npragma solidity >=0.7.0 <0.9.0;\n\nimport \"./CommonChain.sol\";\nimport \"./transaction/PrimaryTransactionManager.sol\";\n\ncontract CrossChain is CommonChain{\n\n    PrimaryTransactionManager primaryTransactionManager;\n    address private callbackContract;\n\n    constructor(address _register, address _primaryTransactionManager) CommonChain(_register) {\n        primaryTransactionManager = PrimaryTransactionManager(_primaryTransactionManager);\n    }\n\n    function doCross(\n        string memory txId,\n        string memory primaryNetworkId,\n        string memory networkId,\n        string memory invocationId,\n        bytes memory args)\n            public{\n                callbackContract = msg.sender;\n                primaryTransactionManager.startPrimaryTransaction(txId, primaryNetworkId);\n                primaryTransactionManager.registerNetworkTransaction(txId, networkId, invocationId, args, msg.sender);\n                primaryTransactionManager.preparePrimaryTransaction(txId);\n    }\n    function confirmDoCross(string memory txId) public{\n        primaryTransactionManager.confirmPrimaryTransaction(txId);\n    }\n\n    function finishPrimaryTransaction(string memory txId, bytes memory data)public{\n        primaryTransactionManager.finishPrimaryTransaction(txId, data);\n    }\n\n    function changeStatus(string memory txId, uint _status)public{\n        primaryTransactionManager.changeStatus(txId, _status);\n    }\n}",
  "sourcePath": "/Users/shri99/WebProjects/sidecar-contract-kit/sidemesh-solidity/contracts/CrossChain.sol",
  "compiler": {
    "name": "solc",
    "version": "0.8.9+commit.e5eed63a.Emscripten.clang"
  },
  "schemaVersion": "3.4.11",
  "updatedAt": "2023-07-13T02:29:27.698Z",
  "devdoc": {
    "kind": "dev",
    "methods": {},
    "version": 1
  },
  "userdoc": {
    "kind": "user",
    "methods": {},
    "version": 1
  }
}