{
  "contractName": "CrossChain",
  "abi": [
    {
      "inputs": [
        {
          "internalType": "address",
          "name": "_register",
          "type": "address"
        },
        {
          "internalType": "address",
          "name": "_primaryTransactionManager",
          "type": "address"
        }
      ],
      "stateMutability": "nonpayable",
      "type": "constructor"
    },
    {
      "inputs": [],
      "name": "getChainId",
      "outputs": [
        {
          "internalType": "uint256",
          "name": "",
          "type": "uint256"
        }
      ],
      "stateMutability": "view",
      "type": "function"
    },
    {
      "inputs": [
        {
          "internalType": "string",
          "name": "networkId",
          "type": "string"
        },
        {
          "internalType": "string",
          "name": "invocationId",
          "type": "string"
        },
        {
          "internalType": "address",
          "name": "contractAddress",
          "type": "address"
        },
        {
          "internalType": "string",
          "name": "functionSignature",
          "type": "string"
        }
      ],
      "name": "registerInvocation",
      "outputs": [],
      "stateMutability": "nonpayable",
      "type": "function"
    },
    {
      "inputs": [
        {
          "internalType": "string",
          "name": "networkId",
          "type": "string"
        },
        {
          "internalType": "string",
          "name": "name",
          "type": "string"
        },
        {
          "internalType": "string",
          "name": "url",
          "type": "string"
        }
      ],
      "name": "registerNetwork",
      "outputs": [],
      "stateMutability": "nonpayable",
      "type": "function"
    },
    {
      "inputs": [
        {
          "internalType": "string",
          "name": "id",
          "type": "string"
        },
        {
          "internalType": "string",
          "name": "name",
          "type": "string"
        },
        {
          "internalType": "string",
          "name": "url",
          "type": "string"
        }
      ],
      "name": "registerPrimaryNetwork",
      "outputs": [],
      "stateMutability": "nonpayable",
      "type": "function"
    },
    {
      "inputs": [
        {
          "internalType": "string",
          "name": "txId",
          "type": "string"
        },
        {
          "internalType": "string",
          "name": "primaryNetworkId",
          "type": "string"
        },
        {
          "internalType": "string",
          "name": "networkId",
          "type": "string"
        },
        {
          "internalType": "string",
          "name": "invocationId",
          "type": "string"
        },
        {
          "internalType": "bytes[]",
          "name": "args",
          "type": "bytes[]"
        }
      ],
      "name": "doCross",
      "outputs": [],
      "stateMutability": "nonpayable",
      "type": "function"
    },
    {
      "inputs": [
        {
          "internalType": "string",
          "name": "txId",
          "type": "string"
        }
      ],
      "name": "confirmDoCross",
      "outputs": [],
      "stateMutability": "nonpayable",
      "type": "function"
    },
    {
      "inputs": [
        {
          "internalType": "string",
          "name": "txId",
          "type": "string"
        },
        {
          "internalType": "bytes",
          "name": "data",
          "type": "bytes"
        }
      ],
      "name": "finishPrimaryTransaction",
      "outputs": [],
      "stateMutability": "nonpayable",
      "type": "function"
    },
    {
      "inputs": [
        {
          "internalType": "string",
          "name": "txId",
          "type": "string"
        },
        {
          "internalType": "uint256",
          "name": "_status",
          "type": "uint256"
        }
      ],
      "name": "changeStatus",
      "outputs": [],
      "stateMutability": "nonpayable",
      "type": "function"
    }
  ],
  "bytecode": "0x608060405234801561001057600080fd5b50604051610c57380380610c5783398101604081905261002f9161007c565b600080546001600160a01b039384166001600160a01b031991821617909155600180549290931691161790556100af565b80516001600160a01b038116811461007757600080fd5b919050565b6000806040838503121561008f57600080fd5b61009883610060565b91506100a660208401610060565b90509250929050565b610b99806100be6000396000f3fe608060405234801561001057600080fd5b50600436106100885760003560e01c8063991b53bf1161005b578063991b53bf146100db578063cb179b2e146100ee578063e1310884146100db578063f3bf64aa1461010157600080fd5b80630e76ba061461008d5780633408e470146100a2578063487b9127146100b557806360e4b1c5146100c8575b600080fd5b6100a061009b3660046105e6565b610114565b005b4660405190815260200160405180910390f35b6100a06100c336600461064a565b610195565b6100a06100d63660046106f3565b61021c565b6100a06100e9366004610730565b61029a565b6100a06100fc366004610857565b61031e565b6100a061010f366004610929565b6104cb565b6001546040517f0e76ba060000000000000000000000000000000000000000000000000000000081526001600160a01b0390911690630e76ba069061015f90859085906004016109bb565b600060405180830381600087803b15801561017957600080fd5b505af115801561018d573d6000803e3d6000fd5b505050505050565b6000546040517f487b91270000000000000000000000000000000000000000000000000000000081526001600160a01b039091169063487b9127906101e49087908790879087906004016109e9565b600060405180830381600087803b1580156101fe57600080fd5b505af1158015610212573d6000803e3d6000fd5b5050505050505050565b6001546040517f3cd58dc90000000000000000000000000000000000000000000000000000000081526001600160a01b0390911690633cd58dc990610265908490600401610a3c565b600060405180830381600087803b15801561027f57600080fd5b505af1158015610293573d6000803e3d6000fd5b5050505050565b6000546040517f991b53bf0000000000000000000000000000000000000000000000000000000081526001600160a01b039091169063991b53bf906102e790869086908690600401610a56565b600060405180830381600087803b15801561030157600080fd5b505af1158015610315573d6000803e3d6000fd5b50505050505050565b600280547fffffffffffffffffffffffff000000000000000000000000000000000000000016331790556001546040517fc4abb0910000000000000000000000000000000000000000000000000000000081526001600160a01b03919091169063c4abb0919061039490889088906004016109bb565b600060405180830381600087803b1580156103ae57600080fd5b505af11580156103c2573d6000803e3d6000fd5b50506001546040517f6d681f110000000000000000000000000000000000000000000000000000000081526001600160a01b039091169250636d681f1191506104179088908790879087903390600401610a99565b600060405180830381600087803b15801561043157600080fd5b505af1158015610445573d6000803e3d6000fd5b50506001546040517f9ce275420000000000000000000000000000000000000000000000000000000081526001600160a01b039091169250639ce275429150610492908890600401610a3c565b600060405180830381600087803b1580156104ac57600080fd5b505af11580156104c0573d6000803e3d6000fd5b505050505050505050565b6001546040517ff3bf64aa0000000000000000000000000000000000000000000000000000000081526001600160a01b039091169063f3bf64aa9061015f9085908590600401610b41565b7f4e487b7100000000000000000000000000000000000000000000000000000000600052604160045260246000fd5b604051601f8201601f1916810167ffffffffffffffff8111828210171561056e5761056e610516565b604052919050565b600082601f83011261058757600080fd5b813567ffffffffffffffff8111156105a1576105a1610516565b6105b4601f8201601f1916602001610545565b8181528460208386010111156105c957600080fd5b816020850160208301376000918101602001919091529392505050565b600080604083850312156105f957600080fd5b823567ffffffffffffffff8082111561061157600080fd5b61061d86838701610576565b9350602085013591508082111561063357600080fd5b5061064085828601610576565b9150509250929050565b6000806000806080858703121561066057600080fd5b843567ffffffffffffffff8082111561067857600080fd5b61068488838901610576565b9550602087013591508082111561069a57600080fd5b6106a688838901610576565b9450604087013591506001600160a01b03821682146106c457600080fd5b909250606086013590808211156106da57600080fd5b506106e787828801610576565b91505092959194509250565b60006020828403121561070557600080fd5b813567ffffffffffffffff81111561071c57600080fd5b61072884828501610576565b949350505050565b60008060006060848603121561074557600080fd5b833567ffffffffffffffff8082111561075d57600080fd5b61076987838801610576565b9450602086013591508082111561077f57600080fd5b61078b87838801610576565b935060408601359150808211156107a157600080fd5b506107ae86828701610576565b9150509250925092565b600082601f8301126107c957600080fd5b8135602067ffffffffffffffff808311156107e6576107e6610516565b8260051b6107f5838201610545565b938452858101830193838101908886111561080f57600080fd5b84880192505b8583101561084b5782358481111561082d5760008081fd5b61083b8a87838c0101610576565b8352509184019190840190610815565b98975050505050505050565b600080600080600060a0868803121561086f57600080fd5b853567ffffffffffffffff8082111561088757600080fd5b61089389838a01610576565b965060208801359150808211156108a957600080fd5b6108b589838a01610576565b955060408801359150808211156108cb57600080fd5b6108d789838a01610576565b945060608801359150808211156108ed57600080fd5b6108f989838a01610576565b9350608088013591508082111561090f57600080fd5b5061091c888289016107b8565b9150509295509295909350565b6000806040838503121561093c57600080fd5b823567ffffffffffffffff81111561095357600080fd5b61095f85828601610576565b95602094909401359450505050565b6000815180845260005b8181101561099457602081850181015186830182015201610978565b818111156109a6576000602083870101525b50601f01601f19169290920160200192915050565b6040815260006109ce604083018561096e565b82810360208401526109e0818561096e565b95945050505050565b6080815260006109fc608083018761096e565b8281036020840152610a0e818761096e565b90506001600160a01b03851660408401528281036060840152610a31818561096e565b979650505050505050565b602081526000610a4f602083018461096e565b9392505050565b606081526000610a69606083018661096e565b8281036020840152610a7b818661096e565b90508281036040840152610a8f818561096e565b9695505050505050565b60a081526000610aac60a083018861096e565b602083820381850152610abf828961096e565b91508382036040850152610ad3828861096e565b915083820360608501528186518084528284019150828160051b85010183890160005b83811015610b2457601f19878403018552610b1283835161096e565b94860194925090850190600101610af6565b50506001600160a01b03881660808801529450610a8f9350505050565b604081526000610b54604083018561096e565b9050826020830152939250505056fea26469706673582212205f0dfb47fcf56a4c9acbd5b9f3c0c695297dae55677c28fc4a49265b8b30ead764736f6c63430008090033",
  "immutableReferences": {},
  "source": "// SPDX-License-Identifier: GPL-3.0\npragma solidity >=0.7.0 <0.9.0;\n\nimport \"./CommonChain.sol\";\nimport \"./transaction/PrimaryTransactionManager.sol\";\n\ncontract CrossChain is CommonChain{\n\n    PrimaryTransactionManager primaryTransactionManager;\n    address private callbackContract;\n\n    constructor(address _register, address _primaryTransactionManager) CommonChain(_register) {\n        primaryTransactionManager = PrimaryTransactionManager(_primaryTransactionManager);\n    }\n\n    function doCross(\n        string memory txId,\n        string memory primaryNetworkId,\n        string memory networkId,\n        string memory invocationId,\n        bytes[] memory args)\n            public{\n                callbackContract = msg.sender;\n                primaryTransactionManager.startPrimaryTransaction(txId, primaryNetworkId);\n                primaryTransactionManager.registerNetworkTransaction(txId, networkId, invocationId, args, msg.sender);\n                primaryTransactionManager.preparePrimaryTransaction(txId);\n    }\n    function confirmDoCross(string memory txId) public{\n        primaryTransactionManager.confirmPrimaryTransaction(txId);\n    }\n\n    function finishPrimaryTransaction(string memory txId, bytes memory data)public{\n        primaryTransactionManager.finishPrimaryTransaction(txId, data);\n    }\n\n    function changeStatus(string memory txId, uint _status)public{\n        primaryTransactionManager.changeStatus(txId, _status);\n    }\n}",
  "sourcePath": "/Users/rxshri99/Projects/Research/sidecar-contract-kit/sidemesh-solidity/contracts/CrossChain.sol",
  "compiler": {
    "name": "solc",
    "version": "0.8.9+commit.e5eed63a.Emscripten.clang"
  },
  "schemaVersion": "3.4.16",
  "updatedAt": "2025-12-15T19:41:36.448Z",
  "devdoc": {
    "kind": "dev",
    "methods": {},
    "version": 1
  },
  "userdoc": {
    "kind": "user",
    "methods": {},
    "version": 1
  }
}