{
  "contractName": "CrossChain",
  "abi": [
    {
      "inputs": [
        {
          "internalType": "address",
          "name": "_register",
          "type": "address"
        },
        {
          "internalType": "address",
          "name": "_primaryTransactionManager",
          "type": "address"
        }
      ],
      "stateMutability": "nonpayable",
      "type": "constructor"
    },
    {
      "inputs": [],
      "name": "getChainId",
      "outputs": [
        {
          "internalType": "uint256",
          "name": "",
          "type": "uint256"
        }
      ],
      "stateMutability": "view",
      "type": "function"
    },
    {
      "inputs": [
        {
          "internalType": "string",
          "name": "networkId",
          "type": "string"
        },
        {
          "internalType": "string",
          "name": "invocationId",
          "type": "string"
        },
        {
          "internalType": "address",
          "name": "contractAddress",
          "type": "address"
        },
        {
          "internalType": "string",
          "name": "functionSignature",
          "type": "string"
        }
      ],
      "name": "registerInvocation",
      "outputs": [],
      "stateMutability": "nonpayable",
      "type": "function"
    },
    {
      "inputs": [
        {
          "internalType": "string",
          "name": "networkId",
          "type": "string"
        },
        {
          "internalType": "string",
          "name": "name",
          "type": "string"
        },
        {
          "internalType": "string",
          "name": "url",
          "type": "string"
        }
      ],
      "name": "registerNetwork",
      "outputs": [],
      "stateMutability": "nonpayable",
      "type": "function"
    },
    {
      "inputs": [
        {
          "internalType": "string",
          "name": "id",
          "type": "string"
        },
        {
          "internalType": "string",
          "name": "name",
          "type": "string"
        },
        {
          "internalType": "string",
          "name": "url",
          "type": "string"
        }
      ],
      "name": "registerPrimaryNetwork",
      "outputs": [],
      "stateMutability": "nonpayable",
      "type": "function"
    },
    {
      "inputs": [
        {
          "internalType": "string",
          "name": "txId",
          "type": "string"
        },
        {
          "internalType": "string",
          "name": "primaryNetworkId",
          "type": "string"
        },
        {
          "internalType": "string",
          "name": "networkId",
          "type": "string"
        },
        {
          "internalType": "string",
          "name": "invocationId",
          "type": "string"
        },
        {
          "internalType": "bytes",
          "name": "args",
          "type": "bytes"
        }
      ],
      "name": "doCross",
      "outputs": [],
      "stateMutability": "nonpayable",
      "type": "function"
    },
    {
      "inputs": [
        {
          "internalType": "string",
          "name": "txId",
          "type": "string"
        }
      ],
      "name": "confirmDoCross",
      "outputs": [],
      "stateMutability": "nonpayable",
      "type": "function"
    },
    {
      "inputs": [
        {
          "internalType": "string",
          "name": "txId",
          "type": "string"
        },
        {
          "internalType": "bytes",
          "name": "data",
          "type": "bytes"
        }
      ],
      "name": "finishPrimaryTransaction",
      "outputs": [],
      "stateMutability": "nonpayable",
      "type": "function"
    },
    {
      "inputs": [
        {
          "internalType": "string",
          "name": "txId",
          "type": "string"
        },
        {
          "internalType": "uint256",
          "name": "_status",
          "type": "uint256"
        }
      ],
      "name": "changeStatus",
      "outputs": [],
      "stateMutability": "nonpayable",
      "type": "function"
    }
  ],
  "bytecode": "0x608060405234801561001057600080fd5b50604051610b65380380610b6583398101604081905261002f9161007c565b600080546001600160a01b039384166001600160a01b031991821617909155600180549290931691161790556100af565b80516001600160a01b038116811461007757600080fd5b919050565b6000806040838503121561008f57600080fd5b61009883610060565b91506100a660208401610060565b90509250929050565b610aa7806100be6000396000f3fe608060405234801561001057600080fd5b50600436106100885760003560e01c8063991b53bf1161005b578063991b53bf146100db578063e1310884146100db578063e48ba7a2146100ee578063f3bf64aa1461010157600080fd5b80630e76ba061461008d5780633408e470146100a2578063487b9127146100b557806360e4b1c5146100c8575b600080fd5b6100a061009b3660046105d2565b610114565b005b4660405190815260200160405180910390f35b6100a06100c3366004610636565b610195565b6100a06100d63660046106df565b61021c565b6100a06100e936600461071c565b61029a565b6100a06100fc3660046107a4565b61031e565b6100a061010f366004610876565b6104cb565b6001546040517f0e76ba060000000000000000000000000000000000000000000000000000000081526001600160a01b0390911690630e76ba069061015f9085908590600401610908565b600060405180830381600087803b15801561017957600080fd5b505af115801561018d573d6000803e3d6000fd5b505050505050565b6000546040517f487b91270000000000000000000000000000000000000000000000000000000081526001600160a01b039091169063487b9127906101e4908790879087908790600401610936565b600060405180830381600087803b1580156101fe57600080fd5b505af1158015610212573d6000803e3d6000fd5b5050505050505050565b6001546040517f3cd58dc90000000000000000000000000000000000000000000000000000000081526001600160a01b0390911690633cd58dc990610265908490600401610989565b600060405180830381600087803b15801561027f57600080fd5b505af1158015610293573d6000803e3d6000fd5b5050505050565b6000546040517f991b53bf0000000000000000000000000000000000000000000000000000000081526001600160a01b039091169063991b53bf906102e7908690869086906004016109a3565b600060405180830381600087803b15801561030157600080fd5b505af1158015610315573d6000803e3d6000fd5b50505050505050565b600280547fffffffffffffffffffffffff000000000000000000000000000000000000000016331790556001546040517fc4abb0910000000000000000000000000000000000000000000000000000000081526001600160a01b03919091169063c4abb091906103949088908890600401610908565b600060405180830381600087803b1580156103ae57600080fd5b505af11580156103c2573d6000803e3d6000fd5b50506001546040517f6c66f8420000000000000000000000000000000000000000000000000000000081526001600160a01b039091169250636c66f842915061041790889087908790879033906004016109e6565b600060405180830381600087803b15801561043157600080fd5b505af1158015610445573d6000803e3d6000fd5b50506001546040517f9ce275420000000000000000000000000000000000000000000000000000000081526001600160a01b039091169250639ce275429150610492908890600401610989565b600060405180830381600087803b1580156104ac57600080fd5b505af11580156104c0573d6000803e3d6000fd5b505050505050505050565b6001546040517ff3bf64aa0000000000000000000000000000000000000000000000000000000081526001600160a01b039091169063f3bf64aa9061015f9085908590600401610a4f565b7f4e487b7100000000000000000000000000000000000000000000000000000000600052604160045260246000fd5b600082601f83011261055657600080fd5b813567ffffffffffffffff8082111561057157610571610516565b604051601f8301601f19908116603f0116810190828211818310171561059957610599610516565b816040528381528660208588010111156105b257600080fd5b836020870160208301376000602085830101528094505050505092915050565b600080604083850312156105e557600080fd5b823567ffffffffffffffff808211156105fd57600080fd5b61060986838701610545565b9350602085013591508082111561061f57600080fd5b5061062c85828601610545565b9150509250929050565b6000806000806080858703121561064c57600080fd5b843567ffffffffffffffff8082111561066457600080fd5b61067088838901610545565b9550602087013591508082111561068657600080fd5b61069288838901610545565b9450604087013591506001600160a01b03821682146106b057600080fd5b909250606086013590808211156106c657600080fd5b506106d387828801610545565b91505092959194509250565b6000602082840312156106f157600080fd5b813567ffffffffffffffff81111561070857600080fd5b61071484828501610545565b949350505050565b60008060006060848603121561073157600080fd5b833567ffffffffffffffff8082111561074957600080fd5b61075587838801610545565b9450602086013591508082111561076b57600080fd5b61077787838801610545565b9350604086013591508082111561078d57600080fd5b5061079a86828701610545565b9150509250925092565b600080600080600060a086880312156107bc57600080fd5b853567ffffffffffffffff808211156107d457600080fd5b6107e089838a01610545565b965060208801359150808211156107f657600080fd5b61080289838a01610545565b9550604088013591508082111561081857600080fd5b61082489838a01610545565b9450606088013591508082111561083a57600080fd5b61084689838a01610545565b9350608088013591508082111561085c57600080fd5b5061086988828901610545565b9150509295509295909350565b6000806040838503121561088957600080fd5b823567ffffffffffffffff8111156108a057600080fd5b6108ac85828601610545565b95602094909401359450505050565b6000815180845260005b818110156108e1576020818501810151868301820152016108c5565b818111156108f3576000602083870101525b50601f01601f19169290920160200192915050565b60408152600061091b60408301856108bb565b828103602084015261092d81856108bb565b95945050505050565b60808152600061094960808301876108bb565b828103602084015261095b81876108bb565b90506001600160a01b0385166040840152828103606084015261097e81856108bb565b979650505050505050565b60208152600061099c60208301846108bb565b9392505050565b6060815260006109b660608301866108bb565b82810360208401526109c881866108bb565b905082810360408401526109dc81856108bb565b9695505050505050565b60a0815260006109f960a08301886108bb565b8281036020840152610a0b81886108bb565b90508281036040840152610a1f81876108bb565b90508281036060840152610a3381866108bb565b9150506001600160a01b03831660808301529695505050505050565b604081526000610a6260408301856108bb565b9050826020830152939250505056fea26469706673582212208c82f1efa76af5358c52c85c8352c6335465ace8778e38aa212bcebf78414f8b64736f6c63430008090033",
  "immutableReferences": {},
  "source": "// SPDX-License-Identifier: GPL-3.0\npragma solidity >=0.7.0 <0.9.0;\n\nimport \"./CommonChain.sol\";\nimport \"./transaction/PrimaryTransactionManager.sol\";\n\ncontract CrossChain is CommonChain{\n\n    PrimaryTransactionManager primaryTransactionManager;\n    address private callbackContract;\n\n    constructor(address _register, address _primaryTransactionManager) CommonChain(_register) {\n        primaryTransactionManager = PrimaryTransactionManager(_primaryTransactionManager);\n    }\n\n    function doCross(\n        string memory txId,\n        string memory primaryNetworkId,\n        string memory networkId,\n        string memory invocationId,\n        bytes memory args)\n            public{\n                callbackContract = msg.sender;\n                primaryTransactionManager.startPrimaryTransaction(txId, primaryNetworkId);\n                primaryTransactionManager.registerNetworkTransaction(txId, networkId, invocationId, args, msg.sender);\n                primaryTransactionManager.preparePrimaryTransaction(txId);\n    }\n    function confirmDoCross(string memory txId) public{\n        primaryTransactionManager.confirmPrimaryTransaction(txId);\n    }\n\n    function finishPrimaryTransaction(string memory txId, bytes memory data)public{\n        primaryTransactionManager.finishPrimaryTransaction(txId, data);\n    }\n\n    function changeStatus(string memory txId, uint _status)public{\n        primaryTransactionManager.changeStatus(txId, _status);\n    }\n}",
  "sourcePath": "/Users/shri99/WebProjects/sidecar-contract-kit/sidemesh-solidity/contracts/CrossChain.sol",
  "compiler": {
    "name": "solc",
    "version": "0.8.9+commit.e5eed63a.Emscripten.clang"
  },
  "schemaVersion": "3.4.11",
  "updatedAt": "2023-07-13T12:29:02.053Z",
  "devdoc": {
    "kind": "dev",
    "methods": {},
    "version": 1
  },
  "userdoc": {
    "kind": "user",
    "methods": {},
    "version": 1
  }
}