{
  "contractName": "CrossNetwork",
  "abi": [
    {
      "inputs": [
        {
          "internalType": "address",
          "name": "_register",
          "type": "address"
        },
        {
          "internalType": "address",
          "name": "_networkTransactionManager",
          "type": "address"
        }
      ],
      "stateMutability": "nonpayable",
      "type": "constructor"
    },
    {
      "inputs": [],
      "name": "getChainId",
      "outputs": [
        {
          "internalType": "uint256",
          "name": "",
          "type": "uint256"
        }
      ],
      "stateMutability": "view",
      "type": "function"
    },
    {
      "inputs": [
        {
          "internalType": "string",
          "name": "networkId",
          "type": "string"
        },
        {
          "internalType": "string",
          "name": "invocationId",
          "type": "string"
        },
        {
          "internalType": "address",
          "name": "contractAddress",
          "type": "address"
        },
        {
          "internalType": "string",
          "name": "functionSignature",
          "type": "string"
        }
      ],
      "name": "registerInvocation",
      "outputs": [],
      "stateMutability": "nonpayable",
      "type": "function"
    },
    {
      "inputs": [
        {
          "internalType": "string",
          "name": "networkId",
          "type": "string"
        },
        {
          "internalType": "string",
          "name": "name",
          "type": "string"
        },
        {
          "internalType": "string",
          "name": "url",
          "type": "string"
        }
      ],
      "name": "registerNetwork",
      "outputs": [],
      "stateMutability": "nonpayable",
      "type": "function"
    },
    {
      "inputs": [
        {
          "internalType": "string",
          "name": "id",
          "type": "string"
        },
        {
          "internalType": "string",
          "name": "name",
          "type": "string"
        },
        {
          "internalType": "string",
          "name": "url",
          "type": "string"
        }
      ],
      "name": "registerPrimaryNetwork",
      "outputs": [],
      "stateMutability": "nonpayable",
      "type": "function"
    },
    {
      "inputs": [
        {
          "internalType": "string",
          "name": "txId",
          "type": "string"
        },
        {
          "internalType": "string",
          "name": "primaryNetworkId",
          "type": "string"
        },
        {
          "internalType": "string",
          "name": "networkId",
          "type": "string"
        },
        {
          "internalType": "string",
          "name": "invocationId",
          "type": "string"
        },
        {
          "internalType": "bytes[]",
          "name": "args",
          "type": "bytes[]"
        }
      ],
      "name": "doNetwork",
      "outputs": [],
      "stateMutability": "nonpayable",
      "type": "function"
    },
    {
      "inputs": [
        {
          "internalType": "string",
          "name": "txId",
          "type": "string"
        }
      ],
      "name": "confirmDoNetwork",
      "outputs": [],
      "stateMutability": "nonpayable",
      "type": "function"
    },
    {
      "inputs": [
        {
          "internalType": "string",
          "name": "txId",
          "type": "string"
        },
        {
          "internalType": "uint256",
          "name": "_status",
          "type": "uint256"
        }
      ],
      "name": "changeStatus",
      "outputs": [],
      "stateMutability": "nonpayable",
      "type": "function"
    }
  ],
  "bytecode": "0x608060405234801561001057600080fd5b50604051610ada380380610ada83398101604081905261002f9161007c565b600080546001600160a01b039384166001600160a01b031991821617909155600180549290931691161790556100af565b80516001600160a01b038116811461007757600080fd5b919050565b6000806040838503121561008f57600080fd5b61009883610060565b91506100a660208401610060565b90509250929050565b610a1c806100be6000396000f3fe608060405234801561001057600080fd5b506004361061007d5760003560e01c8063991b53bf1161005b578063991b53bf146100bd578063a8d9c86d146100d0578063e1310884146100bd578063f3bf64aa146100e357600080fd5b80633408e47014610082578063487b91271461009557806375eb2bb7146100aa575b600080fd5b4660405190815260200160405180910390f35b6100a86100a33660046104e4565b6100f6565b005b6100a86100b8366004610641565b61017d565b6100a86100cb366004610713565b610282565b6100a86100de36600461079b565b610306565b6100a86100f13660046107d8565b610384565b6000546040517f487b91270000000000000000000000000000000000000000000000000000000081526001600160a01b039091169063487b91279061014590879087908790879060040161086a565b600060405180830381600087803b15801561015f57600080fd5b505af1158015610173573d6000803e3d6000fd5b5050505050505050565b6001546040517f315ef9aa0000000000000000000000000000000000000000000000000000000081526001600160a01b039091169063315ef9aa906101ce90889088908890889088906004016108bd565b600060405180830381600087803b1580156101e857600080fd5b505af11580156101fc573d6000803e3d6000fd5b50506001546040517fee24e36a0000000000000000000000000000000000000000000000000000000081526001600160a01b03909116925063ee24e36a915061024990889060040161096e565b600060405180830381600087803b15801561026357600080fd5b505af1158015610277573d6000803e3d6000fd5b505050505050505050565b6000546040517f991b53bf0000000000000000000000000000000000000000000000000000000081526001600160a01b039091169063991b53bf906102cf90869086908690600401610981565b600060405180830381600087803b1580156102e957600080fd5b505af11580156102fd573d6000803e3d6000fd5b50505050505050565b6001546040517f3d832f5f0000000000000000000000000000000000000000000000000000000081526001600160a01b0390911690633d832f5f9061034f90849060040161096e565b600060405180830381600087803b15801561036957600080fd5b505af115801561037d573d6000803e3d6000fd5b5050505050565b6001546040517ff3bf64aa0000000000000000000000000000000000000000000000000000000081526001600160a01b039091169063f3bf64aa906103cf90859085906004016109c4565b600060405180830381600087803b1580156103e957600080fd5b505af11580156103fd573d6000803e3d6000fd5b505050505050565b7f4e487b7100000000000000000000000000000000000000000000000000000000600052604160045260246000fd5b604051601f8201601f1916810167ffffffffffffffff8111828210171561045d5761045d610405565b604052919050565b600067ffffffffffffffff83111561047f5761047f610405565b610492601f8401601f1916602001610434565b90508281528383830111156104a657600080fd5b828260208301376000602084830101529392505050565b600082601f8301126104ce57600080fd5b6104dd83833560208501610465565b9392505050565b600080600080608085870312156104fa57600080fd5b843567ffffffffffffffff8082111561051257600080fd5b61051e888389016104bd565b9550602087013591508082111561053457600080fd5b610540888389016104bd565b9450604087013591506001600160a01b038216821461055e57600080fd5b9092506060860135908082111561057457600080fd5b50610581878288016104bd565b91505092959194509250565b600082601f83011261059e57600080fd5b8135602067ffffffffffffffff808311156105bb576105bb610405565b8260051b6105ca838201610434565b93845285810183019383810190888611156105e457600080fd5b84880192505b85831015610635578235848111156106025760008081fd5b8801603f81018a136106145760008081fd5b6106258a8783013560408401610465565b83525091840191908401906105ea565b98975050505050505050565b600080600080600060a0868803121561065957600080fd5b853567ffffffffffffffff8082111561067157600080fd5b61067d89838a016104bd565b9650602088013591508082111561069357600080fd5b61069f89838a016104bd565b955060408801359150808211156106b557600080fd5b6106c189838a016104bd565b945060608801359150808211156106d757600080fd5b6106e389838a016104bd565b935060808801359150808211156106f957600080fd5b506107068882890161058d565b9150509295509295909350565b60008060006060848603121561072857600080fd5b833567ffffffffffffffff8082111561074057600080fd5b61074c878388016104bd565b9450602086013591508082111561076257600080fd5b61076e878388016104bd565b9350604086013591508082111561078457600080fd5b50610791868287016104bd565b9150509250925092565b6000602082840312156107ad57600080fd5b813567ffffffffffffffff8111156107c457600080fd5b6107d0848285016104bd565b949350505050565b600080604083850312156107eb57600080fd5b823567ffffffffffffffff81111561080257600080fd5b61080e858286016104bd565b95602094909401359450505050565b6000815180845260005b8181101561084357602081850181015186830182015201610827565b81811115610855576000602083870101525b50601f01601f19169290920160200192915050565b60808152600061087d608083018761081d565b828103602084015261088f818761081d565b90506001600160a01b038516604084015282810360608401526108b2818561081d565b979650505050505050565b60a0815260006108d060a083018861081d565b6020838203818501526108e3828961081d565b915083820360408501526108f7828861081d565b9150838203606085015261090b828761081d565b915083820360808501528185518084528284019150828160051b85010183880160005b8381101561095c57601f1987840301855261094a83835161081d565b9486019492509085019060010161092e565b50909c9b505050505050505050505050565b6020815260006104dd602083018461081d565b606081526000610994606083018661081d565b82810360208401526109a6818661081d565b905082810360408401526109ba818561081d565b9695505050505050565b6040815260006109d7604083018561081d565b9050826020830152939250505056fea264697066735822122056e78815892c4cb045b8559d4f3314eb95fc97375323bad0be0eb66f7f22a8c364736f6c63430008090033",
  "immutableReferences": {},
  "source": "// SPDX-License-Identifier: GPL-3.0\npragma solidity >=0.7.0 <0.9.0;\n\nimport \"./CommonChain.sol\";\nimport \"./transaction/NetworkTransactionManager.sol\";\n\ncontract CrossNetwork is CommonChain {\n\n    NetworkTransactionManager networkTransactionManager;\n    constructor(address _register, address _networkTransactionManager) CommonChain(_register){\n        networkTransactionManager = NetworkTransactionManager(_networkTransactionManager);\n    }\n\n    function doNetwork(\n        string memory txId,\n        string memory primaryNetworkId,\n        string memory networkId,\n        string memory invocationId,\n        bytes[] memory args) \n            public{\n                networkTransactionManager.startNetworkTransaction(txId, primaryNetworkId, networkId, invocationId, args);\n                networkTransactionManager.prepareNetworkTransaction(txId);\n    }\n    function confirmDoNetwork(string memory txId) public{\n        networkTransactionManager.confirmNetworkTransaction(txId);\n    }\n    function changeStatus(string memory txId, uint _status)public{\n        networkTransactionManager.changeStatus(txId, _status);\n    }\n}",
  "sourcePath": "/Users/rxshri99/Projects/Research/sidecar-contract-kit/sidemesh-solidity/contracts/CrossNetwork.sol",
  "compiler": {
    "name": "solc",
    "version": "0.8.9+commit.e5eed63a.Emscripten.clang"
  },
  "schemaVersion": "3.4.16",
  "updatedAt": "2025-12-15T19:41:36.450Z",
  "devdoc": {
    "kind": "dev",
    "methods": {},
    "version": 1
  },
  "userdoc": {
    "kind": "user",
    "methods": {},
    "version": 1
  }
}