{
  "contractName": "CrossNetwork",
  "abi": [
    {
      "inputs": [
        {
          "internalType": "address",
          "name": "_register",
          "type": "address"
        },
        {
          "internalType": "address",
          "name": "_networkTransactionManager",
          "type": "address"
        }
      ],
      "stateMutability": "nonpayable",
      "type": "constructor"
    },
    {
      "inputs": [],
      "name": "getChainId",
      "outputs": [
        {
          "internalType": "uint256",
          "name": "",
          "type": "uint256"
        }
      ],
      "stateMutability": "view",
      "type": "function",
      "constant": true
    },
    {
      "inputs": [
        {
          "internalType": "string",
          "name": "networkId",
          "type": "string"
        },
        {
          "internalType": "string",
          "name": "name",
          "type": "string"
        },
        {
          "internalType": "string",
          "name": "url",
          "type": "string"
        },
        {
          "internalType": "string",
          "name": "invocationId",
          "type": "string"
        },
        {
          "internalType": "address",
          "name": "contractAddress",
          "type": "address"
        },
        {
          "internalType": "string",
          "name": "functionSignature",
          "type": "string"
        }
      ],
      "name": "registerNetwork",
      "outputs": [],
      "stateMutability": "nonpayable",
      "type": "function"
    },
    {
      "inputs": [
        {
          "internalType": "string",
          "name": "id",
          "type": "string"
        },
        {
          "internalType": "string",
          "name": "name",
          "type": "string"
        },
        {
          "internalType": "string",
          "name": "url",
          "type": "string"
        }
      ],
      "name": "registerPrimaryNetwork",
      "outputs": [],
      "stateMutability": "nonpayable",
      "type": "function"
    },
    {
      "inputs": [
        {
          "internalType": "string",
          "name": "txId",
          "type": "string"
        },
        {
          "internalType": "string",
          "name": "primaryNetworkId",
          "type": "string"
        },
        {
          "internalType": "string",
          "name": "networkId",
          "type": "string"
        },
        {
          "internalType": "string",
          "name": "invocationId",
          "type": "string"
        },
        {
          "internalType": "bytes",
          "name": "args",
          "type": "bytes"
        }
      ],
      "name": "doNetwork",
      "outputs": [],
      "stateMutability": "nonpayable",
      "type": "function"
    },
    {
      "inputs": [
        {
          "internalType": "string",
          "name": "txId",
          "type": "string"
        }
      ],
      "name": "confirmDoNetwork",
      "outputs": [],
      "stateMutability": "nonpayable",
      "type": "function"
    },
    {
      "inputs": [
        {
          "internalType": "string",
          "name": "txId",
          "type": "string"
        },
        {
          "internalType": "uint256",
          "name": "_status",
          "type": "uint256"
        }
      ],
      "name": "changeStatus",
      "outputs": [],
      "stateMutability": "nonpayable",
      "type": "function"
    }
  ],
  "bytecode": "0x608060405234801561001057600080fd5b50604051610a5e380380610a5e83398101604081905261002f9161007c565b600080546001600160a01b039384166001600160a01b031991821617909155600180549290931691161790556100af565b80516001600160a01b038116811461007757600080fd5b919050565b6000806040838503121561008f57600080fd5b61009883610060565b91506100a660208401610060565b90509250929050565b6109a0806100be6000396000f3fe608060405234801561001057600080fd5b50600436106100725760003560e01c8063a8d9c86d11610050578063a8d9c86d146100b2578063e1310884146100c5578063f3bf64aa146100d857600080fd5b80633408e47014610077578063484b7bf21461008a5780639c3535e11461009f575b600080fd5b4660405190815260200160405180910390f35b61009d610098366004610505565b6100eb565b005b61009d6100ad3660046105f3565b6101f0565b61009d6100c03660046106d4565b6102df565b61009d6100d3366004610711565b61035d565b61009d6100e6366004610799565b6103c8565b6001546040517f3e5ea75b0000000000000000000000000000000000000000000000000000000081526001600160a01b0390911690633e5ea75b9061013c908890889088908890889060040161082b565b600060405180830381600087803b15801561015657600080fd5b505af115801561016a573d6000803e3d6000fd5b50506001546040517fee24e36a0000000000000000000000000000000000000000000000000000000081526001600160a01b03909116925063ee24e36a91506101b7908890600401610898565b600060405180830381600087803b1580156101d157600080fd5b505af11580156101e5573d6000803e3d6000fd5b505050505050505050565b60005460405163991b53bf60e01b81526001600160a01b039091169063991b53bf90610224908990899089906004016108b2565b600060405180830381600087803b15801561023e57600080fd5b505af1158015610252573d6000803e3d6000fd5b50506000546040517f487b91270000000000000000000000000000000000000000000000000000000081526001600160a01b03909116925063487b912791506102a59089908790879087906004016108f5565b600060405180830381600087803b1580156102bf57600080fd5b505af11580156102d3573d6000803e3d6000fd5b50505050505050505050565b6001546040517f3d832f5f0000000000000000000000000000000000000000000000000000000081526001600160a01b0390911690633d832f5f90610328908490600401610898565b600060405180830381600087803b15801561034257600080fd5b505af1158015610356573d6000803e3d6000fd5b5050505050565b60005460405163991b53bf60e01b81526001600160a01b039091169063991b53bf90610391908690869086906004016108b2565b600060405180830381600087803b1580156103ab57600080fd5b505af11580156103bf573d6000803e3d6000fd5b50505050505050565b6001546040517ff3bf64aa0000000000000000000000000000000000000000000000000000000081526001600160a01b039091169063f3bf64aa906104139085908590600401610948565b600060405180830381600087803b15801561042d57600080fd5b505af1158015610441573d6000803e3d6000fd5b505050505050565b7f4e487b7100000000000000000000000000000000000000000000000000000000600052604160045260246000fd5b600082601f83011261048957600080fd5b813567ffffffffffffffff808211156104a4576104a4610449565b604051601f8301601f19908116603f011681019082821181831017156104cc576104cc610449565b816040528381528660208588010111156104e557600080fd5b836020870160208301376000602085830101528094505050505092915050565b600080600080600060a0868803121561051d57600080fd5b853567ffffffffffffffff8082111561053557600080fd5b61054189838a01610478565b9650602088013591508082111561055757600080fd5b61056389838a01610478565b9550604088013591508082111561057957600080fd5b61058589838a01610478565b9450606088013591508082111561059b57600080fd5b6105a789838a01610478565b935060808801359150808211156105bd57600080fd5b506105ca88828901610478565b9150509295509295909350565b80356001600160a01b03811681146105ee57600080fd5b919050565b60008060008060008060c0878903121561060c57600080fd5b863567ffffffffffffffff8082111561062457600080fd5b6106308a838b01610478565b9750602089013591508082111561064657600080fd5b6106528a838b01610478565b9650604089013591508082111561066857600080fd5b6106748a838b01610478565b9550606089013591508082111561068a57600080fd5b6106968a838b01610478565b94506106a460808a016105d7565b935060a08901359150808211156106ba57600080fd5b506106c789828a01610478565b9150509295509295509295565b6000602082840312156106e657600080fd5b813567ffffffffffffffff8111156106fd57600080fd5b61070984828501610478565b949350505050565b60008060006060848603121561072657600080fd5b833567ffffffffffffffff8082111561073e57600080fd5b61074a87838801610478565b9450602086013591508082111561076057600080fd5b61076c87838801610478565b9350604086013591508082111561078257600080fd5b5061078f86828701610478565b9150509250925092565b600080604083850312156107ac57600080fd5b823567ffffffffffffffff8111156107c357600080fd5b6107cf85828601610478565b95602094909401359450505050565b6000815180845260005b81811015610804576020818501810151868301820152016107e8565b81811115610816576000602083870101525b50601f01601f19169290920160200192915050565b60a08152600061083e60a08301886107de565b828103602084015261085081886107de565b9050828103604084015261086481876107de565b9050828103606084015261087881866107de565b9050828103608084015261088c81856107de565b98975050505050505050565b6020815260006108ab60208301846107de565b9392505050565b6060815260006108c560608301866107de565b82810360208401526108d781866107de565b905082810360408401526108eb81856107de565b9695505050505050565b60808152600061090860808301876107de565b828103602084015261091a81876107de565b90506001600160a01b0385166040840152828103606084015261093d81856107de565b979650505050505050565b60408152600061095b60408301856107de565b9050826020830152939250505056fea2646970667358221220b52af0c7268db1684036e4fb61985e3ddc79a708f525c24d073b81028fb5bc2264736f6c63430008090033",
  "immutableReferences": {},
  "source": "// SPDX-License-Identifier: GPL-3.0\npragma solidity >=0.7.0 <0.9.0;\n\nimport \"./CommonChain.sol\";\nimport \"./transaction/NetworkTransactionManager.sol\";\n\ncontract CrossNetwork is CommonChain {\n\n    NetworkTransactionManager networkTransactionManager;\n    constructor(address _register, address _networkTransactionManager) CommonChain(_register){\n        networkTransactionManager = NetworkTransactionManager(_networkTransactionManager);\n    }\n\n    function doNetwork(\n        string memory txId,\n        string memory primaryNetworkId,\n        string memory networkId,\n        string memory invocationId,\n        bytes memory args) \n            public{\n                networkTransactionManager.startNetworkTransaction(txId, primaryNetworkId, networkId, invocationId, args);\n                networkTransactionManager.prepareNetworkTransaction(txId);\n    }\n    function confirmDoNetwork(string memory txId) public{\n        networkTransactionManager.confirmNetworkTransaction(txId);\n    }\n    function changeStatus(string memory txId, uint _status)public{\n        networkTransactionManager.changeStatus(txId, _status);\n    }\n}",
  "sourcePath": "/home/rxshri99/WebProjects/sidecar-contract-kit/sidemesh-solidity/contracts/CrossNetwork.sol",
  "compiler": {
    "name": "solc",
    "version": "0.8.9+commit.e5eed63a.Emscripten.clang"
  },
  "schemaVersion": "3.4.11",
  "updatedAt": "2023-02-02T01:16:38.483Z",
  "networkType": "ethereum",
  "devdoc": {
    "kind": "dev",
    "methods": {},
    "version": 1
  },
  "userdoc": {
    "kind": "user",
    "methods": {},
    "version": 1
  }
}