{
  "contractName": "LockManager",
  "abi": [
    {
      "inputs": [
        {
          "internalType": "address",
          "name": "_register",
          "type": "address"
        }
      ],
      "stateMutability": "nonpayable",
      "type": "constructor"
    },
    {
      "inputs": [],
      "name": "ERROR_INO_ID_FOUND",
      "outputs": [
        {
          "internalType": "string",
          "name": "",
          "type": "string"
        }
      ],
      "stateMutability": "view",
      "type": "function",
      "constant": true
    },
    {
      "inputs": [],
      "name": "ERROR_INO_ID_NOT_FOUND",
      "outputs": [
        {
          "internalType": "string",
          "name": "",
          "type": "string"
        }
      ],
      "stateMutability": "view",
      "type": "function",
      "constant": true
    },
    {
      "inputs": [],
      "name": "ERROR_INVALID_STATUS",
      "outputs": [
        {
          "internalType": "string",
          "name": "",
          "type": "string"
        }
      ],
      "stateMutability": "view",
      "type": "function",
      "constant": true
    },
    {
      "inputs": [],
      "name": "ERROR_LOCK_EXIST",
      "outputs": [
        {
          "internalType": "string",
          "name": "",
          "type": "string"
        }
      ],
      "stateMutability": "view",
      "type": "function",
      "constant": true
    },
    {
      "inputs": [],
      "name": "ERROR_LOCK_NOT_EXIST",
      "outputs": [
        {
          "internalType": "string",
          "name": "",
          "type": "string"
        }
      ],
      "stateMutability": "view",
      "type": "function",
      "constant": true
    },
    {
      "inputs": [],
      "name": "ERROR_LOCK_NOT_VALID",
      "outputs": [
        {
          "internalType": "string",
          "name": "",
          "type": "string"
        }
      ],
      "stateMutability": "view",
      "type": "function",
      "constant": true
    },
    {
      "inputs": [],
      "name": "ERROR_REG_ID_FOUND",
      "outputs": [
        {
          "internalType": "string",
          "name": "",
          "type": "string"
        }
      ],
      "stateMutability": "view",
      "type": "function",
      "constant": true
    },
    {
      "inputs": [],
      "name": "ERROR_REG_ID_NOT_FOUND",
      "outputs": [
        {
          "internalType": "string",
          "name": "",
          "type": "string"
        }
      ],
      "stateMutability": "view",
      "type": "function",
      "constant": true
    },
    {
      "inputs": [],
      "name": "ERROR_TX_EXIST",
      "outputs": [
        {
          "internalType": "string",
          "name": "",
          "type": "string"
        }
      ],
      "stateMutability": "view",
      "type": "function",
      "constant": true
    },
    {
      "inputs": [],
      "name": "ERROR_TX_NOT_EXIST",
      "outputs": [
        {
          "internalType": "string",
          "name": "",
          "type": "string"
        }
      ],
      "stateMutability": "view",
      "type": "function",
      "constant": true
    },
    {
      "inputs": [
        {
          "internalType": "string",
          "name": "txId",
          "type": "string"
        }
      ],
      "name": "putLock",
      "outputs": [],
      "stateMutability": "nonpayable",
      "type": "function"
    },
    {
      "inputs": [
        {
          "internalType": "string",
          "name": "txId",
          "type": "string"
        }
      ],
      "name": "checkLock",
      "outputs": [
        {
          "internalType": "bool",
          "name": "",
          "type": "bool"
        },
        {
          "internalType": "uint256",
          "name": "",
          "type": "uint256"
        }
      ],
      "stateMutability": "view",
      "type": "function",
      "constant": true
    },
    {
      "inputs": [
        {
          "internalType": "string",
          "name": "txId",
          "type": "string"
        }
      ],
      "name": "releaseLock",
      "outputs": [],
      "stateMutability": "nonpayable",
      "type": "function"
    }
  ],
  "bytecode": "0x608060405234801561001057600080fd5b5060405161098b38038061098b83398101604081905261002f91610054565b600180546001600160a01b0319166001600160a01b0392909216919091179055610084565b60006020828403121561006657600080fd5b81516001600160a01b038116811461007d57600080fd5b9392505050565b6108f8806100936000396000f3fe608060405234801561001057600080fd5b50600436106100df5760003560e01c806380152de81161008c578063b916419c11610066578063b916419c14610274578063bab89cb11461027c578063c7fa89cb14610284578063e034eb2f146102c057600080fd5b806380152de8146101f557806383ebc8b414610231578063a075cd6b1461026157600080fd5b80632919b486116100bd5780632919b4861461017a5780633723f7671461018f5780636da0d921146101b957600080fd5b80630d000764146100e45780631ea1238214610136578063232b60c91461013e575b600080fd5b6101206040518060400160405280600e81526020017f4c6f636b206e6f7420657869737400000000000000000000000000000000000081525081565b60405161012d91906106de565b60405180910390f35b6101206102fc565b6101206040518060400160405280600c81526020017f5478206e6f74206578697374000000000000000000000000000000000000000081525081565b61018d610188366004610727565b610318565b005b6101a261019d366004610727565b61042e565b60408051921515835260208301919091520161012d565b6101206040518060400160405280601e81526020017f5b496e766f636174696f6e5d2043616e742061626c652066696e64206964000081525081565b6101206040518060400160405280601081526020017f547820616c72656164792065786973740000000000000000000000000000000081525081565b61012060405180604001604052806011815260200170131bd8dac81a5cc81b9bdd081d985b1a59607a1b81525081565b61018d61026f366004610727565b6104e0565b6101206105dd565b6101206105f9565b6101206040518060400160405280600e81526020017f496e76616c69642073746174757300000000000000000000000000000000000081525081565b6101206040518060400160405280601c81526020017f5b52656769737465725d2043616e742061626c652066696e642069640000000081525081565b6040518060600160405280603881526020016108516038913981565b60008160405160200161032b91906107d8565b60408051808303601f1901815282825280516020918201206000818152808352839020600101548484019093526011845270131bd8dac81a5cc81b9bdd081d985b1a59607a1b918401919091529250610100900460ff166103a85760405162461bcd60e51b815260040161039f91906106de565b60405180910390fd5b5060008181526020818152604091829020600101548251808401909352600e83527f4c6f636b206e6f742065786973740000000000000000000000000000000000009183019190915260ff166104115760405162461bcd60e51b815260040161039f91906106de565b506000908152602081905260409020600101805460ff1916905550565b60008060008360405160200161044491906107d8565b60408051808303601f1901815282825280516020918201206000818152808352839020600101548484019093526011845270131bd8dac81a5cc81b9bdd081d985b1a59607a1b918401919091529250610100900460ff166104b85760405162461bcd60e51b815260040161039f91906106de565b506000908152602081905260409020600181015460029091015460ff90911694909350915050565b6000816040516020016104f391906107d8565b60408051601f19818403018152828252805160209182012060008181528083528390206001015460608501909352602180855290945060ff9092161592919061083090830139906105575760405162461bcd60e51b815260040161039f91906106de565b50604080516080810182528381526001602080830182905282840191909152426060830152600084815280825292909220815180519293919261059d9284920190610615565b506020820151600182018054604085015115156101000261ff00199315159390931661ffff19909116179190911790556060909101516002909101555050565b6040518060600160405280603a8152602001610889603a913981565b6040518060600160405280602181526020016108306021913981565b828054610621906107f4565b90600052602060002090601f0160209004810192826106435760008555610689565b82601f1061065c57805160ff1916838001178555610689565b82800160010185558215610689579182015b8281111561068957825182559160200191906001019061066e565b50610695929150610699565b5090565b5b80821115610695576000815560010161069a565b60005b838110156106c95781810151838201526020016106b1565b838111156106d8576000848401525b50505050565b60208152600082518060208401526106fd8160408501602087016106ae565b601f01601f19169190910160400192915050565b634e487b7160e01b600052604160045260246000fd5b60006020828403121561073957600080fd5b813567ffffffffffffffff8082111561075157600080fd5b818401915084601f83011261076557600080fd5b81358181111561077757610777610711565b604051601f8201601f19908116603f0116810190838211818310171561079f5761079f610711565b816040528281528760208487010111156107b857600080fd5b826020860160208301376000928101602001929092525095945050505050565b600082516107ea8184602087016106ae565b9190910192915050565b600181811c9082168061080857607f821691505b6020821081141561082957634e487b7160e01b600052602260045260246000fd5b5091905056fe4c6f636b20616c72656164792065786973742061742074696d657374616d703a205b52656769737465725d20494420616c72656164792065786973742c20706c656173652073656e64206120646966666572656e74206f6e655b496e766f636174696f6e5d20494420616c72656164792065786973742c20706c656173652073656e64206120646966666572656e74206f6e65a2646970667358221220efb679dd1790bc1296a94e7f0c09c976cf2e35b600fd5754eaebb9ec8021d98364736f6c63430008090033",
  "immutableReferences": {},
  "source": "// SPDX-License-Identifier: GPL-3.0\npragma solidity >=0.7.0 <0.9.0;\n\nimport \"../resource/Register.sol\";\n\ncontract LockManager{\n\n    string constant public ERROR_REG_ID_NOT_FOUND = \"[Register] Cant able find id\";\n    string constant public ERROR_REG_ID_FOUND = \"[Register] ID already exist, please send a different one\";\n    string constant public ERROR_INO_ID_NOT_FOUND = \"[Invocation] Cant able find id\";\n    string constant public ERROR_INO_ID_FOUND = \"[Invocation] ID already exist, please send a different one\";\n    string constant public ERROR_LOCK_NOT_VALID = \"Lock is not valid\";\n    string constant public ERROR_LOCK_EXIST = \"Lock already exist at timestamp: \";\n    string constant public ERROR_LOCK_NOT_EXIST = \"Lock not exist\";\n    string constant public ERROR_TX_EXIST = \"Tx already exist\";\n    string constant public ERROR_TX_NOT_EXIST = \"Tx not exist\";\n    string constant public ERROR_INVALID_STATUS = \"Invalid status\";\n    \n    struct Lock{\n        string txId;\n        bool isLocked;\n        bool isValid;\n        uint timestamp;\n    }\n\n    mapping(bytes32 => Lock) locks;\n\n    Register register;\n\n    constructor(address _register){\n        register = Register(_register);\n    }\n\n    function putLock(string memory txId) external{\n        bytes32 hash = keccak256(abi.encodePacked(txId));\n        require(!locks[hash].isLocked, ERROR_LOCK_EXIST);\n        \n        locks[hash] = Lock(txId, true, true, block.timestamp);\n    }\n\n    function checkLock(string memory txId) external view returns(bool, uint){\n        bytes32 hash = keccak256(abi.encodePacked(txId));\n        require(locks[hash].isValid, ERROR_LOCK_NOT_VALID);\n        \n        return (locks[hash].isLocked, locks[hash].timestamp);\n    }\n\n    function releaseLock(string memory txId) external{\n        bytes32 hash = keccak256(abi.encodePacked(txId));\n\n        require(locks[hash].isValid, ERROR_LOCK_NOT_VALID);\n        require(locks[hash].isLocked, ERROR_LOCK_NOT_EXIST);\n\n        locks[hash].isLocked = false;\n    }\n}",
  "sourcePath": "/home/rxshri99/WebProjects/sidecar-contract-kit/sidemesh-solidity/contracts/lock/LockManager.sol",
  "compiler": {
    "name": "solc",
    "version": "0.8.9+commit.e5eed63a.Emscripten.clang"
  },
  "schemaVersion": "3.4.11",
  "updatedAt": "2023-02-04T19:49:58.851Z",
  "networkType": "ethereum",
  "devdoc": {
    "kind": "dev",
    "methods": {},
    "version": 1
  },
  "userdoc": {
    "kind": "user",
    "methods": {},
    "version": 1
  }
}