{
  "contractName": "LockManager",
  "abi": [
    {
      "inputs": [
        {
          "internalType": "address",
          "name": "_register",
          "type": "address"
        }
      ],
      "stateMutability": "nonpayable",
      "type": "constructor"
    },
    {
      "inputs": [
        {
          "internalType": "string",
          "name": "txId",
          "type": "string"
        }
      ],
      "name": "putLock",
      "outputs": [],
      "stateMutability": "nonpayable",
      "type": "function"
    },
    {
      "inputs": [
        {
          "internalType": "string",
          "name": "txId",
          "type": "string"
        }
      ],
      "name": "checkLock",
      "outputs": [
        {
          "internalType": "bool",
          "name": "",
          "type": "bool"
        },
        {
          "internalType": "uint256",
          "name": "",
          "type": "uint256"
        }
      ],
      "stateMutability": "view",
      "type": "function",
      "constant": true
    },
    {
      "inputs": [
        {
          "internalType": "string",
          "name": "txId",
          "type": "string"
        }
      ],
      "name": "releaseLock",
      "outputs": [],
      "stateMutability": "nonpayable",
      "type": "function"
    }
  ],
  "bytecode": "0x608060405234801561001057600080fd5b5060405161066e38038061066e83398101604081905261002f91610054565b600180546001600160a01b0319166001600160a01b0392909216919091179055610084565b60006020828403121561006657600080fd5b81516001600160a01b038116811461007d57600080fd5b9392505050565b6105db806100936000396000f3fe608060405234801561001057600080fd5b50600436106100415760003560e01c80632919b486146100465780633723f7671461005b578063a075cd6b14610089575b600080fd5b610059610054366004610419565b61009c565b005b61006e610069366004610419565b6101cc565b60408051921515835260208301919091520160405180910390f35b610059610097366004610419565b61027e565b60006100cc826040516020016100b291906104fa565b604051602081830303815290604052805160209091012090565b60008181526020818152604091829020600101548251808401909352601183527f4c6f636b206973206e6f742076616c69640000000000000000000000000000009183019190915291925090610100900460ff166101465760405162461bcd60e51b815260040161013d9190610516565b60405180910390fd5b5060008181526020818152604091829020600101548251808401909352600e83527f4c6f636b206e6f742065786973740000000000000000000000000000000000009183019190915260ff166101af5760405162461bcd60e51b815260040161013d9190610516565b506000908152602081905260409020600101805460ff1916905550565b60008060006101e5846040516020016100b291906104fa565b60008181526020818152604091829020600101548251808401909352601183527f4c6f636b206973206e6f742076616c69640000000000000000000000000000009183019190915291925090610100900460ff166102565760405162461bcd60e51b815260040161013d9190610516565b506000908152602081905260409020600181015460029091015460ff90911694909350915050565b6000610294826040516020016100b291906104fa565b6000818152602081815260409182902060010154825160608101909352602180845293945060ff1615929061058590830139906102e45760405162461bcd60e51b815260040161013d9190610516565b50604080516080810182528381526001602080830182905282840191909152426060830152600084815280825292909220815180519293919261032a928492019061036a565b506020820151600182018054604085015115156101000261ff00199315159390931661ffff19909116179190911790556060909101516002909101555050565b82805461037690610549565b90600052602060002090601f01602090048101928261039857600085556103de565b82601f106103b157805160ff19168380011785556103de565b828001600101855582156103de579182015b828111156103de5782518255916020019190600101906103c3565b506103ea9291506103ee565b5090565b5b808211156103ea57600081556001016103ef565b634e487b7160e01b600052604160045260246000fd5b60006020828403121561042b57600080fd5b813567ffffffffffffffff8082111561044357600080fd5b818401915084601f83011261045757600080fd5b81358181111561046957610469610403565b604051601f8201601f19908116603f0116810190838211818310171561049157610491610403565b816040528281528760208487010111156104aa57600080fd5b826020860160208301376000928101602001929092525095945050505050565b60005b838110156104e55781810151838201526020016104cd565b838111156104f4576000848401525b50505050565b6000825161050c8184602087016104ca565b9190910192915050565b60208152600082518060208401526105358160408501602087016104ca565b601f01601f19169190910160400192915050565b600181811c9082168061055d57607f821691505b6020821081141561057e57634e487b7160e01b600052602260045260246000fd5b5091905056fe4c6f636b20616c72656164792065786973742061742074696d657374616d703a20a2646970667358221220c3a0291d74c2d468a6eb53dc4e34982db1f15f260ff5c6feee61f023ef0d655164736f6c63430008090033",
  "immutableReferences": {},
  "source": "// SPDX-License-Identifier: GPL-3.0\npragma solidity >=0.7.0 <0.9.0;\n\nimport \"../lib/Utils.sol\";\nimport \"../lib/Constants.sol\";\nimport \"../resource/Register.sol\";\n\ncontract LockManager{\n    \n    struct Lock{\n        string txId;\n        bool isLocked;\n        bool isValid;\n        uint timestamp;\n    }\n\n    mapping(bytes32 => Lock) locks;\n\n    Register register;\n\n    constructor(address _register){\n        register = Register(_register);\n    }\n\n    function putLock(string memory txId) external{\n        bytes32 hash = Utils.hash(abi.encodePacked(txId));\n        require(!locks[hash].isLocked, Constants.ERROR_LOCK_EXIST);\n        \n        locks[hash] = Lock(txId, true, true, block.timestamp);\n    }\n\n    function checkLock(string memory txId) external view returns(bool, uint){\n        bytes32 hash = Utils.hash(abi.encodePacked(txId));\n        require(locks[hash].isValid, Constants.ERROR_LOCK_NOT_VALID);\n        \n        return (locks[hash].isLocked, locks[hash].timestamp);\n    }\n\n    function releaseLock(string memory txId) external{\n        bytes32 hash = Utils.hash(abi.encodePacked(txId));\n\n        require(locks[hash].isValid, Constants.ERROR_LOCK_NOT_VALID);\n        require(locks[hash].isLocked, Constants.ERROR_LOCK_NOT_EXIST);\n\n        locks[hash].isLocked = false;\n    }\n}",
  "sourcePath": "/Users/shri99/WebProjects/sidecar-contract-kit/sidemesh-solidity/contracts/lock/LockManager.sol",
  "compiler": {
    "name": "solc",
    "version": "0.8.9+commit.e5eed63a.Emscripten.clang"
  },
  "schemaVersion": "3.4.11",
  "updatedAt": "2023-01-26T14:42:19.299Z",
  "networkType": "ethereum",
  "devdoc": {
    "kind": "dev",
    "methods": {},
    "version": 1
  },
  "userdoc": {
    "kind": "user",
    "methods": {},
    "version": 1
  }
}