{
  "contractName": "NetworkTransactionManager",
  "abi": [
    {
      "inputs": [
        {
          "internalType": "address",
          "name": "_register",
          "type": "address"
        },
        {
          "internalType": "address",
          "name": "_lockManager",
          "type": "address"
        }
      ],
      "stateMutability": "nonpayable",
      "type": "constructor"
    },
    {
      "anonymous": false,
      "inputs": [
        {
          "indexed": false,
          "internalType": "string",
          "name": "txId",
          "type": "string"
        },
        {
          "indexed": false,
          "internalType": "bool",
          "name": "success",
          "type": "bool"
        }
      ],
      "name": "ConfirmNetworkTransaction",
      "type": "event"
    },
    {
      "anonymous": false,
      "inputs": [
        {
          "indexed": false,
          "internalType": "string",
          "name": "txId",
          "type": "string"
        },
        {
          "indexed": false,
          "internalType": "enum NetworkTransactionManager.NetworkTransactionStatusType",
          "name": "status",
          "type": "uint8"
        }
      ],
      "name": "NetworkTxStatus",
      "type": "event"
    },
    {
      "inputs": [
        {
          "internalType": "string",
          "name": "txId",
          "type": "string"
        }
      ],
      "name": "checkTxExist",
      "outputs": [
        {
          "internalType": "bool",
          "name": "",
          "type": "bool"
        }
      ],
      "stateMutability": "view",
      "type": "function",
      "constant": true
    },
    {
      "inputs": [
        {
          "internalType": "string",
          "name": "txId",
          "type": "string"
        },
        {
          "internalType": "uint256",
          "name": "_status",
          "type": "uint256"
        }
      ],
      "name": "changeStatus",
      "outputs": [],
      "stateMutability": "nonpayable",
      "type": "function"
    },
    {
      "inputs": [
        {
          "internalType": "string",
          "name": "txId",
          "type": "string"
        },
        {
          "internalType": "string",
          "name": "primaryNetworkId",
          "type": "string"
        },
        {
          "internalType": "string",
          "name": "networkId",
          "type": "string"
        },
        {
          "internalType": "string",
          "name": "invocationId",
          "type": "string"
        },
        {
          "internalType": "bytes",
          "name": "args",
          "type": "bytes"
        }
      ],
      "name": "startNetworkTransaction",
      "outputs": [],
      "stateMutability": "nonpayable",
      "type": "function"
    },
    {
      "inputs": [
        {
          "internalType": "string",
          "name": "txId",
          "type": "string"
        }
      ],
      "name": "prepareNetworkTransaction",
      "outputs": [],
      "stateMutability": "nonpayable",
      "type": "function"
    },
    {
      "inputs": [
        {
          "internalType": "string",
          "name": "txId",
          "type": "string"
        }
      ],
      "name": "confirmNetworkTransaction",
      "outputs": [],
      "stateMutability": "nonpayable",
      "type": "function"
    }
  ],
  "bytecode": "0x608060405234801561001057600080fd5b506040516111f73803806111f783398101604081905261002f9161007c565b600180546001600160a01b039384166001600160a01b031991821617909155600280549290931691161790556100af565b80516001600160a01b038116811461007757600080fd5b919050565b6000806040838503121561008f57600080fd5b61009883610060565b91506100a660208401610060565b90509250929050565b611139806100be6000396000f3fe608060405234801561001057600080fd5b50600436106100675760003560e01c806369746cae1161005057806369746cae14610094578063ee24e36a146100da578063f3bf64aa146100ed57600080fd5b80633d832f5f1461006c5780633e5ea75b14610081575b600080fd5b61007f61007a366004610c04565b610100565b005b61007f61008f366004610c41565b6104cc565b6100c66100a2366004610c04565b80516020918201206000908152908190526040902060040154610100900460ff1690565b604051901515815260200160405180910390f35b61007f6100e8366004610c04565b61078d565b61007f6100fb366004610d13565b610955565b8060016040518060400160405280600c81526020016b151e081b9bdd08195e1a5cdd60a21b8152508161015c57610156838051602091820120600090815290819052604090206004015460ff6101009091041690565b15610185565b610185838051602091820120600090815290819052604090206004015460ff6101009091041690565b81906101ad5760405162461bcd60e51b81526004016101a49190610db4565b60405180910390fd5b5060006101de856040516020016101c49190610dce565b604051602081830303815290604052805160209091012090565b9050600360008281526020819052604090206004015460ff16600581111561020857610208610dea565b146040518060400160405280600e81526020017f496e76616c6964207374617475730000000000000000000000000000000000008152509061025d5760405162461bcd60e51b81526004016101a49190610db4565b5060015460008281526020819052604080822090517fd8d5796e0000000000000000000000000000000000000000000000000000000081529192839283926001600160a01b039092169163d8d5796e916102c4916002810191600390910190600401610edb565b60006040518083038186803b1580156102dc57600080fd5b505afa1580156102f0573d6000803e3d6000fd5b505050506040513d6000823e601f3d908101601f191682016040526103189190810190610f59565b935093509350506000836001600160a01b0316838360405160240161033d9190610db4565b60408051601f19818403018152908290529161035891610dce565b60408051918290039091206020830180517bffffffffffffffffffffffffffffffffffffffffffffffffffffffff167fffffffff00000000000000000000000000000000000000000000000000000000909216919091179052516103bc9190610dce565b6000604051808303816000865af19150503d80600081146103f9576040519150601f19603f3d011682016040523d82523d6000602084013e6103fe565b606091505b505090507f9f0e7a2d3cd22150fa994306cca99a3b5ebeac574d7ac2cba0124a7256c26b828982604051610433929190611015565b60405180910390a16002546040517f2919b4860000000000000000000000000000000000000000000000000000000081526001600160a01b0390911690632919b48690610484908c90600401610db4565b600060405180830381600087803b15801561049e57600080fd5b505af11580156104b2573d6000803e3d6000fd5b505050506104c1896005610955565b505050505050505050565b6001546040517f09865a48000000000000000000000000000000000000000000000000000000008152849184916001600160a01b03909116906309865a489061051b9085908590600401611039565b60206040518083038186803b15801561053357600080fd5b505afa158015610547573d6000803e3d6000fd5b505050506040513d601f19601f8201168201806040525081019061056b919061105e565b6040518060400160405280601e81526020017f5b496e766f636174696f6e5d2043616e742061626c652066696e642069640000815250906105bf5760405162461bcd60e51b81526004016101a49190610db4565b50604080518082018252601081527f547820616c72656164792065786973740000000000000000000000000000000060208083019190915289518a8201206000908152908190529182206004015489929190610100900460ff161581906106395760405162461bcd60e51b81526004016101a49190610db4565b5060006106508b6040516020016101c49190610dce565b6001546040517f5bdbb3ba0000000000000000000000000000000000000000000000000000000081529192506001600160a01b031690635bdbb3ba9061069e908c908c908c90600401611080565b600060405180830381600087803b1580156106b857600080fd5b505af11580156106cc573d6000803e3d6000fd5b5050506000828152602081815260409091208d519092506106f5916001840191908f0190610aa6565b508a5161070890829060208e0190610aa6565b5060048101805461ff0019166101001790556000828152602081815260409091208b5161073d926002909201918d0190610aa6565b506000828152602081815260409091208a51610761926003909201918c0190610aa6565b5060048101805460ff1916600290811790915561077f908d90610955565b505050505050505050505050565b8060016040518060400160405280600c81526020016b151e081b9bdd08195e1a5cdd60a21b815250816107e9576107e3838051602091820120600090815290819052604090206004015460ff6101009091041690565b15610812565b610812838051602091820120600090815290819052604090206004015460ff6101009091041690565b81906108315760405162461bcd60e51b81526004016101a49190610db4565b506000610848856040516020016101c49190610dce565b9050600260008281526020819052604090206004015460ff16600581111561087257610872610dea565b146040518060400160405280600e81526020017f496e76616c696420737461747573000000000000000000000000000000000000815250906108c75760405162461bcd60e51b81526004016101a49190610db4565b506002546040517fa075cd6b0000000000000000000000000000000000000000000000000000000081526001600160a01b039091169063a075cd6b90610911908890600401610db4565b600060405180830381600087803b15801561092b57600080fd5b505af115801561093f573d6000803e3d6000fd5b5050505061094e856003610955565b5050505050565b8160016040518060400160405280600c81526020016b151e081b9bdd08195e1a5cdd60a21b815250816109b1576109ab838051602091820120600090815290819052604090206004015460ff6101009091041690565b156109da565b6109da838051602091820120600090815290819052604090206004015460ff6101009091041690565b81906109f95760405162461bcd60e51b81526004016101a49190610db4565b506000610a10866040516020016101c49190610dce565b9050846005811115610a2457610a24610dea565b6000828152602081905260409020600401805460ff19166001836005811115610a4f57610a4f610dea565b02179055507fe668831f63d2e3d64642d42da47a3c1a714afb5cbd01306d09a712b5dd7d435a86866005811115610a8857610a88610dea565b604051610a969291906110c3565b60405180910390a1505050505050565b828054610ab290610e00565b90600052602060002090601f016020900481019282610ad45760008555610b1a565b82601f10610aed57805160ff1916838001178555610b1a565b82800160010185558215610b1a579182015b82811115610b1a578251825591602001919060010190610aff565b50610b26929150610b2a565b5090565b5b80821115610b265760008155600101610b2b565b634e487b7160e01b600052604160045260246000fd5b604051601f8201601f1916810167ffffffffffffffff81118282101715610b7e57610b7e610b3f565b604052919050565b600067ffffffffffffffff821115610ba057610ba0610b3f565b50601f01601f191660200190565b600082601f830112610bbf57600080fd5b8135610bd2610bcd82610b86565b610b55565b818152846020838601011115610be757600080fd5b816020850160208301376000918101602001919091529392505050565b600060208284031215610c1657600080fd5b813567ffffffffffffffff811115610c2d57600080fd5b610c3984828501610bae565b949350505050565b600080600080600060a08688031215610c5957600080fd5b853567ffffffffffffffff80821115610c7157600080fd5b610c7d89838a01610bae565b96506020880135915080821115610c9357600080fd5b610c9f89838a01610bae565b95506040880135915080821115610cb557600080fd5b610cc189838a01610bae565b94506060880135915080821115610cd757600080fd5b610ce389838a01610bae565b93506080880135915080821115610cf957600080fd5b50610d0688828901610bae565b9150509295509295909350565b60008060408385031215610d2657600080fd5b823567ffffffffffffffff811115610d3d57600080fd5b610d4985828601610bae565b95602094909401359450505050565b60005b83811015610d73578181015183820152602001610d5b565b83811115610d82576000848401525b50505050565b60008151808452610da0816020860160208601610d58565b601f01601f19169290920160200192915050565b602081526000610dc76020830184610d88565b9392505050565b60008251610de0818460208701610d58565b9190910192915050565b634e487b7160e01b600052602160045260246000fd5b600181811c90821680610e1457607f821691505b60208210811415610e3557634e487b7160e01b600052602260045260246000fd5b50919050565b8054600090600181811c9080831680610e5557607f831692505b6020808410821415610e7757634e487b7160e01b600052602260045260246000fd5b83885260208801828015610e925760018114610ea357610ece565b60ff19871682528282019750610ece565b60008981526020902060005b87811015610ec857815484820152908601908401610eaf565b83019850505b5050505050505092915050565b604081526000610eee6040830185610e3b565b8281036020840152610f008185610e3b565b95945050505050565b6000610f17610bcd84610b86565b9050828152838383011115610f2b57600080fd5b610dc7836020830184610d58565b600082601f830112610f4a57600080fd5b610dc783835160208501610f09565b60008060008060808587031215610f6f57600080fd5b845167ffffffffffffffff80821115610f8757600080fd5b610f9388838901610f39565b9550602087015191506001600160a01b0382168214610fb157600080fd5b604087015191945080821115610fc657600080fd5b610fd288838901610f39565b93506060870151915080821115610fe857600080fd5b508501601f81018713610ffa57600080fd5b61100987825160208401610f09565b91505092959194509250565b6040815260006110286040830185610d88565b905082151560208301529392505050565b60408152600061104c6040830185610d88565b8281036020840152610f008185610d88565b60006020828403121561107057600080fd5b81518015158114610dc757600080fd5b6060815260006110936060830186610d88565b82810360208401526110a58186610d88565b905082810360408401526110b98185610d88565b9695505050505050565b6040815260006110d66040830185610d88565b9050600683106110f657634e487b7160e01b600052602160045260246000fd5b826020830152939250505056fea26469706673582212201db6dd3cb9b01067cf82e8969c63dbe9ad1242fce336abc6e431d5deb118e21464736f6c63430008090033",
  "immutableReferences": {},
  "source": "// SPDX-License-Identifier: GPL-3.0\npragma solidity >=0.7.0 <0.9.0;\n\nimport \"../lib/Utils.sol\";\nimport \"../lib/Constants.sol\";\n\nimport \"../resource/Register.sol\";\nimport \"../lock/LockManager.sol\";\n\ncontract NetworkTransactionManager {\n\n    enum NetworkTransactionStatusType{\n        PRIMARY_TRANSACTION_STARTED, // 0\n        PRIMARY_TRANSACTION_PREPARED, // 1\n        NETWORK_TRANSACTION_STARTED, // 2\n        NETWORK_TRANSACTION_PREPARED, // 3\n        PRIMARY_TRANSACTION_COMMITTED, // 4\n        NETWORK_TRANSACTION_COMMITTED // 5\n    }\n\n    struct Transaction{\n        string primaryNetworkId;\n        string txId;\n        string networkId;\n        string invocationId;\n        // string txProof;\n        NetworkTransactionStatusType status;\n        bool isValid;\n    }\n\n    event ConfirmNetworkTransaction(\n        string txId,\n        bool success\n    );\n\n    event NetworkTxStatus(\n        string txId,\n        NetworkTransactionStatusType status\n    );\n\n    mapping(bytes32 => Transaction) transactions;\n    \n    Register register;\n    LockManager lockManager;\n\n    constructor(address _register, address _lockManager){\n        register = Register(_register);\n        lockManager = LockManager(_lockManager);\n    }\n\n    modifier checkInvocationID(string memory networkID, string memory id){\n        require(register.checkInvocationIDExist(networkID, id), Constants.ERROR_INO_ID_NOT_FOUND);\n        _;\n    }\n\n    modifier checkTx(string memory txId, bool ifExist, string memory errMsg){\n        require((ifExist) ? checkTxExist(txId): !checkTxExist(txId), errMsg);\n        _;\n    }\n\n    function checkTxExist(string memory txId) public view returns(bool){\n        bytes32 hash = Utils.hash(bytes(txId));\n        return transactions[hash].isValid;\n    }\n\n    function changeStatus(string memory txId, uint _status) public checkTx(txId, true, Constants.ERROR_TX_NOT_EXIST){\n        bytes32 hash = Utils.hash(abi.encodePacked(txId));\n        \n        transactions[hash].status = NetworkTransactionStatusType(_status);\n        emit NetworkTxStatus(txId, NetworkTransactionStatusType(_status));\n    }\n\n    function startNetworkTransaction(\n        string memory txId,\n        string memory primaryNetworkId,\n        string memory networkId,\n        string memory invocationId,\n        bytes memory args)\n        external checkInvocationID(networkId, invocationId) checkTx(txId, false, Constants.ERROR_TX_EXIST) {            \n            bytes32 hash = Utils.hash(abi.encodePacked(txId));\n            // require(transactions[hash].status == NetworkTransactionStatusType.PRIMARY_TRANSACTION_PREPARED, Constants.ERROR_INVALID_STATUS);\n\n            register.addArgs(networkId, invocationId, args);\n\n            Transaction storage tsx = transactions[hash];\n            tsx.txId = txId;\n            tsx.primaryNetworkId = primaryNetworkId;\n            tsx.isValid = true;\n            transactions[hash].networkId = networkId;\n            transactions[hash].invocationId = invocationId;\n            tsx.status = NetworkTransactionStatusType.NETWORK_TRANSACTION_STARTED;\n            \n            changeStatus(txId, 2);\n    }\n\n    function prepareNetworkTransaction(string memory txId) \n        external checkTx(txId, true, Constants.ERROR_TX_NOT_EXIST){\n            bytes32 hash = Utils.hash(abi.encodePacked(txId));\n            require(transactions[hash].status == NetworkTransactionStatusType.NETWORK_TRANSACTION_STARTED, Constants.ERROR_INVALID_STATUS);\n\n            lockManager.putLock(txId);\n            changeStatus(txId, 3);\n    }\n\n    function confirmNetworkTransaction(string memory txId)\n        external checkTx(txId, true, Constants.ERROR_TX_NOT_EXIST){\n            bytes32 hash = Utils.hash(abi.encodePacked(txId));\n            require(transactions[hash].status == NetworkTransactionStatusType.NETWORK_TRANSACTION_PREPARED, Constants.ERROR_INVALID_STATUS);\n\n            (, address contractAddress, string memory functionSignature, bytes memory args) = register.resolveInvocation(transactions[hash].networkId, transactions[hash].invocationId);\n            \n            (bool success,) = contractAddress.call(abi.encodeWithSignature(functionSignature, args));\n            \n            emit ConfirmNetworkTransaction(txId, success);\n            \n            lockManager.releaseLock(txId);\n            changeStatus(txId, 5);\n    }\n}",
  "sourcePath": "/home/rxshri99/WebProjects/sidecar-contract-kit/sidemesh-solidity/contracts/transaction/NetworkTransactionManager.sol",
  "compiler": {
    "name": "solc",
    "version": "0.8.9+commit.e5eed63a.Emscripten.clang"
  },
  "schemaVersion": "3.4.11",
  "updatedAt": "2023-01-30T23:01:44.211Z",
  "networkType": "ethereum",
  "devdoc": {
    "kind": "dev",
    "methods": {},
    "version": 1
  },
  "userdoc": {
    "kind": "user",
    "methods": {},
    "version": 1
  }
}