{
  "contractName": "NetworkTransactionManager",
  "abi": [
    {
      "inputs": [
        {
          "internalType": "address",
          "name": "_register",
          "type": "address"
        },
        {
          "internalType": "address",
          "name": "_lockManager",
          "type": "address"
        }
      ],
      "stateMutability": "nonpayable",
      "type": "constructor"
    },
    {
      "anonymous": false,
      "inputs": [
        {
          "indexed": false,
          "internalType": "string",
          "name": "txId",
          "type": "string"
        },
        {
          "indexed": false,
          "internalType": "bool",
          "name": "success",
          "type": "bool"
        }
      ],
      "name": "ConfirmNetworkTransaction",
      "type": "event"
    },
    {
      "anonymous": false,
      "inputs": [
        {
          "indexed": false,
          "internalType": "string",
          "name": "txId",
          "type": "string"
        },
        {
          "indexed": false,
          "internalType": "enum NetworkTransactionManager.NetworkTransactionStatusType",
          "name": "status",
          "type": "uint8"
        },
        {
          "indexed": false,
          "internalType": "string",
          "name": "primaryNetworkUrl",
          "type": "string"
        }
      ],
      "name": "NetworkTxStatus",
      "type": "event"
    },
    {
      "inputs": [],
      "name": "ERROR_INO_ID_FOUND",
      "outputs": [
        {
          "internalType": "string",
          "name": "",
          "type": "string"
        }
      ],
      "stateMutability": "view",
      "type": "function"
    },
    {
      "inputs": [],
      "name": "ERROR_INO_ID_NOT_FOUND",
      "outputs": [
        {
          "internalType": "string",
          "name": "",
          "type": "string"
        }
      ],
      "stateMutability": "view",
      "type": "function"
    },
    {
      "inputs": [],
      "name": "ERROR_INVALID_STATUS",
      "outputs": [
        {
          "internalType": "string",
          "name": "",
          "type": "string"
        }
      ],
      "stateMutability": "view",
      "type": "function"
    },
    {
      "inputs": [],
      "name": "ERROR_LOCK_EXIST",
      "outputs": [
        {
          "internalType": "string",
          "name": "",
          "type": "string"
        }
      ],
      "stateMutability": "view",
      "type": "function"
    },
    {
      "inputs": [],
      "name": "ERROR_LOCK_NOT_EXIST",
      "outputs": [
        {
          "internalType": "string",
          "name": "",
          "type": "string"
        }
      ],
      "stateMutability": "view",
      "type": "function"
    },
    {
      "inputs": [],
      "name": "ERROR_LOCK_NOT_VALID",
      "outputs": [
        {
          "internalType": "string",
          "name": "",
          "type": "string"
        }
      ],
      "stateMutability": "view",
      "type": "function"
    },
    {
      "inputs": [],
      "name": "ERROR_REG_ID_FOUND",
      "outputs": [
        {
          "internalType": "string",
          "name": "",
          "type": "string"
        }
      ],
      "stateMutability": "view",
      "type": "function"
    },
    {
      "inputs": [],
      "name": "ERROR_REG_ID_NOT_FOUND",
      "outputs": [
        {
          "internalType": "string",
          "name": "",
          "type": "string"
        }
      ],
      "stateMutability": "view",
      "type": "function"
    },
    {
      "inputs": [],
      "name": "ERROR_TX_EXIST",
      "outputs": [
        {
          "internalType": "string",
          "name": "",
          "type": "string"
        }
      ],
      "stateMutability": "view",
      "type": "function"
    },
    {
      "inputs": [],
      "name": "ERROR_TX_NOT_EXIST",
      "outputs": [
        {
          "internalType": "string",
          "name": "",
          "type": "string"
        }
      ],
      "stateMutability": "view",
      "type": "function"
    },
    {
      "inputs": [
        {
          "internalType": "string",
          "name": "txId",
          "type": "string"
        }
      ],
      "name": "checkTxExist",
      "outputs": [
        {
          "internalType": "bool",
          "name": "",
          "type": "bool"
        }
      ],
      "stateMutability": "view",
      "type": "function"
    },
    {
      "inputs": [
        {
          "internalType": "string",
          "name": "txId",
          "type": "string"
        },
        {
          "internalType": "uint256",
          "name": "_status",
          "type": "uint256"
        }
      ],
      "name": "changeStatus",
      "outputs": [],
      "stateMutability": "nonpayable",
      "type": "function"
    },
    {
      "inputs": [
        {
          "internalType": "string",
          "name": "txId",
          "type": "string"
        },
        {
          "internalType": "string",
          "name": "primaryNetworkId",
          "type": "string"
        },
        {
          "internalType": "string",
          "name": "networkId",
          "type": "string"
        },
        {
          "internalType": "string",
          "name": "invocationId",
          "type": "string"
        },
        {
          "internalType": "bytes",
          "name": "args",
          "type": "bytes"
        }
      ],
      "name": "startNetworkTransaction",
      "outputs": [],
      "stateMutability": "nonpayable",
      "type": "function"
    },
    {
      "inputs": [
        {
          "internalType": "string",
          "name": "txId",
          "type": "string"
        }
      ],
      "name": "prepareNetworkTransaction",
      "outputs": [],
      "stateMutability": "nonpayable",
      "type": "function"
    },
    {
      "inputs": [
        {
          "internalType": "string",
          "name": "txId",
          "type": "string"
        }
      ],
      "name": "confirmNetworkTransaction",
      "outputs": [],
      "stateMutability": "nonpayable",
      "type": "function"
    }
  ],
  "bytecode": "0x608060405234801561001057600080fd5b5060405161168638038061168683398101604081905261002f9161007c565b600180546001600160a01b039384166001600160a01b031991821617909155600280549290931691161790556100af565b80516001600160a01b038116811461007757600080fd5b919050565b6000806040838503121561008f57600080fd5b61009883610060565b91506100a660208401610060565b90509250929050565b6115c8806100be6000396000f3fe608060405234801561001057600080fd5b50600436106100f55760003560e01c806380152de811610097578063c7fa89cb11610066578063c7fa89cb146102ad578063e034eb2f146102da578063ee24e36a14610316578063f3bf64aa1461032957600080fd5b806380152de81461022557806383ebc8b414610261578063b916419c1461029d578063bab89cb1146102a557600080fd5b80633d832f5f116100d35780633d832f5f1461017f5780633e5ea75b1461019457806369746cae146101a75780636da0d921146101e957600080fd5b80630d000764146100fa5780631ea123821461014c578063232b60c914610154575b600080fd5b6101366040518060400160405280600e81526020017f4c6f636b206e6f7420657869737400000000000000000000000000000000000081525081565b6040516101439190610ef3565b60405180910390f35b61013661033c565b6101366040518060400160405280600c81526020016b151e081b9bdd08195e1a5cdd60a21b81525081565b61019261018d366004610fd2565b610358565b005b6101926101a236600461100f565b610710565b6101d96101b5366004610fd2565b80516020918201206000908152908190526040902060040154610100900460ff1690565b6040519015158152602001610143565b6101366040518060400160405280601e81526020017f5b496e766f636174696f6e5d2043616e742061626c652066696e64206964000081525081565b6101366040518060400160405280601081526020017f547820616c72656164792065786973740000000000000000000000000000000081525081565b6101366040518060400160405280601181526020017f4c6f636b206973206e6f742076616c696400000000000000000000000000000081525081565b6101366109e4565b610136610a00565b6101366040518060400160405280600e81526020016d496e76616c69642073746174757360901b81525081565b6101366040518060400160405280601c81526020017f5b52656769737465725d2043616e742061626c652066696e642069640000000081525081565b610192610324366004610fd2565b610a1c565b6101926103373660046110e1565b610bea565b6040518060600160405280603881526020016115216038913981565b8060016040518060400160405280600c81526020016b151e081b9bdd08195e1a5cdd60a21b815250816103b4576103ae838051602091820120600090815290819052604090206004015460ff6101009091041690565b156103dd565b6103dd838051602091820120600090815290819052604090206004015460ff6101009091041690565b81906104055760405162461bcd60e51b81526004016103fc9190610ef3565b60405180910390fd5b506000846040516020016104199190611126565b60408051601f1981840301815291905280516020909101209050600460008281526020819052604090206004015460ff16600581111561045b5761045b611142565b146040518060400160405280600e81526020016d496e76616c69642073746174757360901b815250906104a15760405162461bcd60e51b81526004016103fc9190610ef3565b5060015460008281526020819052604080822090517fd8d5796e0000000000000000000000000000000000000000000000000000000081529192839283926001600160a01b039092169163d8d5796e91610508916002810191600390910190600401611233565b60006040518083038186803b15801561052057600080fd5b505afa158015610534573d6000803e3d6000fd5b505050506040513d6000823e601f3d908101601f1916820160405261055c91908101906112b1565b935093509350506000836001600160a01b031683836040516024016105819190610ef3565b60408051601f19818403018152908290529161059c91611126565b60408051918290039091206020830180517bffffffffffffffffffffffffffffffffffffffffffffffffffffffff167fffffffff00000000000000000000000000000000000000000000000000000000909216919091179052516106009190611126565b6000604051808303816000865af19150503d806000811461063d576040519150601f19603f3d011682016040523d82523d6000602084013e610642565b606091505b505090507f9f0e7a2d3cd22150fa994306cca99a3b5ebeac574d7ac2cba0124a7256c26b82898260405161067792919061136d565b60405180910390a16002546040517f2919b4860000000000000000000000000000000000000000000000000000000081526001600160a01b0390911690632919b486906106c8908c90600401610ef3565b600060405180830381600087803b1580156106e257600080fd5b505af11580156106f6573d6000803e3d6000fd5b50505050610705896005610bea565b505050505050505050565b6001546040517f09865a48000000000000000000000000000000000000000000000000000000008152849184916001600160a01b03909116906309865a489061075f9085908590600401611391565b60206040518083038186803b15801561077757600080fd5b505afa15801561078b573d6000803e3d6000fd5b505050506040513d601f19601f820116820180604052508101906107af91906113b6565b6040518060400160405280601e81526020017f5b496e766f636174696f6e5d2043616e742061626c652066696e642069640000815250906108035760405162461bcd60e51b81526004016103fc9190610ef3565b50604080518082018252601081527f547820616c72656164792065786973740000000000000000000000000000000060208083019190915289518a8201206000908152908190529182206004015489929190610100900460ff1615819061087d5760405162461bcd60e51b81526004016103fc9190610ef3565b5060008a6040516020016108919190611126565b60408051601f198184030181529082905280516020909101206001547f5bdbb3ba0000000000000000000000000000000000000000000000000000000083529092506001600160a01b031690635bdbb3ba906108f5908c908c908c906004016113d8565b600060405180830381600087803b15801561090f57600080fd5b505af1158015610923573d6000803e3d6000fd5b5050506000828152602081815260409091208d5190925061094c916001840191908f0190610dfe565b508a5161095f90829060208e0190610dfe565b5060048101805461ff0019166101001790556000828152602081815260409091208b51610994926002909201918d0190610dfe565b506000828152602081815260409091208a516109b8926003909201918c0190610dfe565b5060048101805460ff191660029081179091556109d6908d90610bea565b505050505050505050505050565b6040518060600160405280603a8152602001611559603a913981565b6040518060600160405280602181526020016115006021913981565b8060016040518060400160405280600c81526020016b151e081b9bdd08195e1a5cdd60a21b81525081610a7857610a72838051602091820120600090815290819052604090206004015460ff6101009091041690565b15610aa1565b610aa1838051602091820120600090815290819052604090206004015460ff6101009091041690565b8190610ac05760405162461bcd60e51b81526004016103fc9190610ef3565b50600084604051602001610ad49190611126565b60408051601f1981840301815291905280516020909101209050600260008281526020819052604090206004015460ff166005811115610b1657610b16611142565b146040518060400160405280600e81526020016d496e76616c69642073746174757360901b81525090610b5c5760405162461bcd60e51b81526004016103fc9190610ef3565b506002546040517fa075cd6b0000000000000000000000000000000000000000000000000000000081526001600160a01b039091169063a075cd6b90610ba6908890600401610ef3565b600060405180830381600087803b158015610bc057600080fd5b505af1158015610bd4573d6000803e3d6000fd5b50505050610be3856003610bea565b5050505050565b8160016040518060400160405280600c81526020016b151e081b9bdd08195e1a5cdd60a21b81525081610c4657610c40838051602091820120600090815290819052604090206004015460ff6101009091041690565b15610c6f565b610c6f838051602091820120600090815290819052604090206004015460ff6101009091041690565b8190610c8e5760405162461bcd60e51b81526004016103fc9190610ef3565b50600085604051602001610ca29190611126565b604051602081830303815290604052805190602001209050846005811115610ccc57610ccc611142565b6000828152602081905260409020600401805460ff19166001836005811115610cf757610cf7611142565b021790555060015460008281526020819052604080822090517fa3d4cd6900000000000000000000000000000000000000000000000000000000815291926001600160a01b03169163a3d4cd6991610d519160040161141b565b60006040518083038186803b158015610d6957600080fd5b505afa158015610d7d573d6000803e3d6000fd5b505050506040513d6000823e601f3d908101601f19168201604052610da5919081019061142e565b925050507f45d790e4df1e79d5c63c08fe9e7e674cba1d8724647adbca308a9a887a3feaa987876005811115610ddd57610ddd611142565b83604051610ded939291906114b6565b60405180910390a150505050505050565b828054610e0a90611158565b90600052602060002090601f016020900481019282610e2c5760008555610e72565b82601f10610e4557805160ff1916838001178555610e72565b82800160010185558215610e72579182015b82811115610e72578251825591602001919060010190610e57565b50610e7e929150610e82565b5090565b5b80821115610e7e5760008155600101610e83565b60005b83811015610eb2578181015183820152602001610e9a565b83811115610ec1576000848401525b50505050565b60008151808452610edf816020860160208601610e97565b601f01601f19169290920160200192915050565b602081526000610f066020830184610ec7565b9392505050565b634e487b7160e01b600052604160045260246000fd5b604051601f8201601f1916810167ffffffffffffffff81118282101715610f4c57610f4c610f0d565b604052919050565b600067ffffffffffffffff821115610f6e57610f6e610f0d565b50601f01601f191660200190565b600082601f830112610f8d57600080fd5b8135610fa0610f9b82610f54565b610f23565b818152846020838601011115610fb557600080fd5b816020850160208301376000918101602001919091529392505050565b600060208284031215610fe457600080fd5b813567ffffffffffffffff811115610ffb57600080fd5b61100784828501610f7c565b949350505050565b600080600080600060a0868803121561102757600080fd5b853567ffffffffffffffff8082111561103f57600080fd5b61104b89838a01610f7c565b9650602088013591508082111561106157600080fd5b61106d89838a01610f7c565b9550604088013591508082111561108357600080fd5b61108f89838a01610f7c565b945060608801359150808211156110a557600080fd5b6110b189838a01610f7c565b935060808801359150808211156110c757600080fd5b506110d488828901610f7c565b9150509295509295909350565b600080604083850312156110f457600080fd5b823567ffffffffffffffff81111561110b57600080fd5b61111785828601610f7c565b95602094909401359450505050565b60008251611138818460208701610e97565b9190910192915050565b634e487b7160e01b600052602160045260246000fd5b600181811c9082168061116c57607f821691505b6020821081141561118d57634e487b7160e01b600052602260045260246000fd5b50919050565b8054600090600181811c90808316806111ad57607f831692505b60208084108214156111cf57634e487b7160e01b600052602260045260246000fd5b838852602088018280156111ea57600181146111fb57611226565b60ff19871682528282019750611226565b60008981526020902060005b8781101561122057815484820152908601908401611207565b83019850505b5050505050505092915050565b6040815260006112466040830185611193565b82810360208401526112588185611193565b95945050505050565b600061126f610f9b84610f54565b905082815283838301111561128357600080fd5b610f06836020830184610e97565b600082601f8301126112a257600080fd5b610f0683835160208501611261565b600080600080608085870312156112c757600080fd5b845167ffffffffffffffff808211156112df57600080fd5b6112eb88838901611291565b9550602087015191506001600160a01b038216821461130957600080fd5b60408701519194508082111561131e57600080fd5b61132a88838901611291565b9350606087015191508082111561134057600080fd5b508501601f8101871361135257600080fd5b61136187825160208401611261565b91505092959194509250565b6040815260006113806040830185610ec7565b905082151560208301529392505050565b6040815260006113a46040830185610ec7565b82810360208401526112588185610ec7565b6000602082840312156113c857600080fd5b81518015158114610f0657600080fd5b6060815260006113eb6060830186610ec7565b82810360208401526113fd8186610ec7565b905082810360408401526114118185610ec7565b9695505050505050565b602081526000610f066020830184611193565b60008060006060848603121561144357600080fd5b835167ffffffffffffffff8082111561145b57600080fd5b61146787838801611291565b9450602086015191508082111561147d57600080fd5b61148987838801611291565b9350604086015191508082111561149f57600080fd5b506114ac86828701611291565b9150509250925092565b6060815260006114c96060830186610ec7565b600685106114e757634e487b7160e01b600052602160045260246000fd5b84602084015282810360408401526114118185610ec756fe4c6f636b20616c72656164792065786973742061742074696d657374616d703a205b52656769737465725d20494420616c72656164792065786973742c20706c656173652073656e64206120646966666572656e74206f6e655b496e766f636174696f6e5d20494420616c72656164792065786973742c20706c656173652073656e64206120646966666572656e74206f6e65a26469706673582212204dae791e4b7bc308d03b820560fa5dcbad63f1d01a9ac3374b727dc32c2e7ca964736f6c63430008090033",
  "immutableReferences": {},
  "source": "// SPDX-License-Identifier: GPL-3.0\npragma solidity >=0.7.0 <0.9.0;\n\nimport \"../resource/Register.sol\";\nimport \"../lock/LockManager.sol\";\n\ncontract NetworkTransactionManager {\n\n    string constant public ERROR_REG_ID_NOT_FOUND = \"[Register] Cant able find id\";\n    string constant public ERROR_REG_ID_FOUND = \"[Register] ID already exist, please send a different one\";\n    string constant public ERROR_INO_ID_NOT_FOUND = \"[Invocation] Cant able find id\";\n    string constant public ERROR_INO_ID_FOUND = \"[Invocation] ID already exist, please send a different one\";\n    string constant public ERROR_LOCK_NOT_VALID = \"Lock is not valid\";\n    string constant public ERROR_LOCK_EXIST = \"Lock already exist at timestamp: \";\n    string constant public ERROR_LOCK_NOT_EXIST = \"Lock not exist\";\n    string constant public ERROR_TX_EXIST = \"Tx already exist\";\n    string constant public ERROR_TX_NOT_EXIST = \"Tx not exist\";\n    string constant public ERROR_INVALID_STATUS = \"Invalid status\";\n\n    enum NetworkTransactionStatusType{\n        PRIMARY_TRANSACTION_STARTED, // 0\n        PRIMARY_TRANSACTION_PREPARED, // 1\n        NETWORK_TRANSACTION_STARTED, // 2\n        NETWORK_TRANSACTION_PREPARED, // 3\n        PRIMARY_TRANSACTION_COMMITTED, // 4\n        NETWORK_TRANSACTION_COMMITTED // 5\n    }\n\n    struct Transaction{\n        string primaryNetworkId;\n        string txId;\n        string networkId;\n        string invocationId;\n        // string txProof;\n        NetworkTransactionStatusType status;\n        bool isValid;\n    }\n\n    event ConfirmNetworkTransaction(\n        string txId,\n        bool success\n    );\n\n    event NetworkTxStatus(\n        string txId,\n        NetworkTransactionStatusType status,\n        string primaryNetworkUrl\n    );\n\n    mapping(bytes32 => Transaction) transactions;\n    \n    Register register;\n    LockManager lockManager;\n\n    constructor(address _register, address _lockManager){\n        register = Register(_register);\n        lockManager = LockManager(_lockManager);\n    }\n\n    modifier checkInvocationID(string memory networkID, string memory id){\n        require(register.checkInvocationIDExist(networkID, id), ERROR_INO_ID_NOT_FOUND);\n        _;\n    }\n\n    modifier checkTx(string memory txId, bool ifExist, string memory errMsg){\n        require((ifExist) ? checkTxExist(txId): !checkTxExist(txId), errMsg);\n        _;\n    }\n\n    function checkTxExist(string memory txId) public view returns(bool){\n        bytes32 hash = keccak256(bytes(txId));\n        return transactions[hash].isValid;\n    }\n\n    function changeStatus(string memory txId, uint _status) public checkTx(txId, true, ERROR_TX_NOT_EXIST){\n        bytes32 hash = keccak256(abi.encodePacked(txId));\n        \n        transactions[hash].status = NetworkTransactionStatusType(_status);\n\n        (, , string memory url) = register.resolveNetwork(transactions[hash].primaryNetworkId);\n        emit NetworkTxStatus(txId, NetworkTransactionStatusType(_status), url);\n    }\n\n    function startNetworkTransaction(\n        string memory txId,\n        string memory primaryNetworkId,\n        string memory networkId,\n        string memory invocationId,\n        bytes memory args)\n        external checkInvocationID(networkId, invocationId) checkTx(txId, false, ERROR_TX_EXIST) {            \n            bytes32 hash = keccak256(abi.encodePacked(txId));\n            // require(transactions[hash].status == NetworkTransactionStatusType.PRIMARY_TRANSACTION_PREPARED, Constants.ERROR_INVALID_STATUS);\n\n            register.addArgs(networkId, invocationId, args);\n\n            Transaction storage tsx = transactions[hash];\n            tsx.txId = txId;\n            tsx.primaryNetworkId = primaryNetworkId;\n            tsx.isValid = true;\n            transactions[hash].networkId = networkId;\n            transactions[hash].invocationId = invocationId;\n            tsx.status = NetworkTransactionStatusType.NETWORK_TRANSACTION_STARTED;\n            \n            changeStatus(txId, 2);\n    }\n\n    function prepareNetworkTransaction(string memory txId) \n        external checkTx(txId, true, ERROR_TX_NOT_EXIST){\n            bytes32 hash = keccak256(abi.encodePacked(txId));\n            require(transactions[hash].status == NetworkTransactionStatusType.NETWORK_TRANSACTION_STARTED, ERROR_INVALID_STATUS);\n\n            lockManager.putLock(txId);\n            changeStatus(txId, 3);\n    }\n\n    function confirmNetworkTransaction(string memory txId)\n        external checkTx(txId, true, ERROR_TX_NOT_EXIST){\n            bytes32 hash = keccak256(abi.encodePacked(txId));\n            require(transactions[hash].status == NetworkTransactionStatusType.PRIMARY_TRANSACTION_COMMITTED, ERROR_INVALID_STATUS);\n\n            (, address contractAddress, string memory functionSignature, bytes memory args) = register.resolveInvocation(transactions[hash].networkId, transactions[hash].invocationId);\n            \n            (bool success,) = contractAddress.call(abi.encodeWithSignature(functionSignature, args));\n            \n            emit ConfirmNetworkTransaction(txId, success);\n            \n            lockManager.releaseLock(txId);\n            changeStatus(txId, 5);\n    }\n}",
  "sourcePath": "/Users/shri99/WebProjects/sidecar-contract-kit/sidemesh-solidity/contracts/transaction/NetworkTransactionManager.sol",
  "compiler": {
    "name": "solc",
    "version": "0.8.9+commit.e5eed63a.Emscripten.clang"
  },
  "schemaVersion": "3.4.11",
  "updatedAt": "2023-07-05T23:13:29.255Z",
  "devdoc": {
    "kind": "dev",
    "methods": {},
    "version": 1
  },
  "userdoc": {
    "kind": "user",
    "methods": {},
    "version": 1
  }
}