{
  "contractName": "NetworkTransactionManager",
  "abi": [
    {
      "inputs": [
        {
          "internalType": "address",
          "name": "_register",
          "type": "address"
        },
        {
          "internalType": "address",
          "name": "_lockManager",
          "type": "address"
        }
      ],
      "stateMutability": "nonpayable",
      "type": "constructor"
    },
    {
      "anonymous": false,
      "inputs": [
        {
          "indexed": false,
          "internalType": "string",
          "name": "txId",
          "type": "string"
        },
        {
          "indexed": false,
          "internalType": "bool",
          "name": "success",
          "type": "bool"
        },
        {
          "indexed": false,
          "internalType": "bytes",
          "name": "data",
          "type": "bytes"
        },
        {
          "indexed": false,
          "internalType": "string",
          "name": "primaryNetworkUrl",
          "type": "string"
        }
      ],
      "name": "ConfirmNetworkTransaction",
      "type": "event"
    },
    {
      "anonymous": false,
      "inputs": [
        {
          "indexed": false,
          "internalType": "string",
          "name": "txId",
          "type": "string"
        },
        {
          "indexed": false,
          "internalType": "enum NetworkTransactionManager.NetworkTransactionStatusType",
          "name": "status",
          "type": "uint8"
        },
        {
          "indexed": false,
          "internalType": "string",
          "name": "primaryNetworkUrl",
          "type": "string"
        }
      ],
      "name": "NetworkTxStatus",
      "type": "event"
    },
    {
      "inputs": [],
      "name": "ERROR_INO_ID_FOUND",
      "outputs": [
        {
          "internalType": "string",
          "name": "",
          "type": "string"
        }
      ],
      "stateMutability": "view",
      "type": "function"
    },
    {
      "inputs": [],
      "name": "ERROR_INO_ID_NOT_FOUND",
      "outputs": [
        {
          "internalType": "string",
          "name": "",
          "type": "string"
        }
      ],
      "stateMutability": "view",
      "type": "function"
    },
    {
      "inputs": [],
      "name": "ERROR_INVALID_STATUS",
      "outputs": [
        {
          "internalType": "string",
          "name": "",
          "type": "string"
        }
      ],
      "stateMutability": "view",
      "type": "function"
    },
    {
      "inputs": [],
      "name": "ERROR_LOCK_EXIST",
      "outputs": [
        {
          "internalType": "string",
          "name": "",
          "type": "string"
        }
      ],
      "stateMutability": "view",
      "type": "function"
    },
    {
      "inputs": [],
      "name": "ERROR_LOCK_NOT_EXIST",
      "outputs": [
        {
          "internalType": "string",
          "name": "",
          "type": "string"
        }
      ],
      "stateMutability": "view",
      "type": "function"
    },
    {
      "inputs": [],
      "name": "ERROR_LOCK_NOT_VALID",
      "outputs": [
        {
          "internalType": "string",
          "name": "",
          "type": "string"
        }
      ],
      "stateMutability": "view",
      "type": "function"
    },
    {
      "inputs": [],
      "name": "ERROR_REG_ID_FOUND",
      "outputs": [
        {
          "internalType": "string",
          "name": "",
          "type": "string"
        }
      ],
      "stateMutability": "view",
      "type": "function"
    },
    {
      "inputs": [],
      "name": "ERROR_REG_ID_NOT_FOUND",
      "outputs": [
        {
          "internalType": "string",
          "name": "",
          "type": "string"
        }
      ],
      "stateMutability": "view",
      "type": "function"
    },
    {
      "inputs": [],
      "name": "ERROR_TX_EXIST",
      "outputs": [
        {
          "internalType": "string",
          "name": "",
          "type": "string"
        }
      ],
      "stateMutability": "view",
      "type": "function"
    },
    {
      "inputs": [],
      "name": "ERROR_TX_NOT_EXIST",
      "outputs": [
        {
          "internalType": "string",
          "name": "",
          "type": "string"
        }
      ],
      "stateMutability": "view",
      "type": "function"
    },
    {
      "inputs": [
        {
          "internalType": "string",
          "name": "txId",
          "type": "string"
        }
      ],
      "name": "checkTxExist",
      "outputs": [
        {
          "internalType": "bool",
          "name": "",
          "type": "bool"
        }
      ],
      "stateMutability": "view",
      "type": "function"
    },
    {
      "inputs": [
        {
          "internalType": "string",
          "name": "txId",
          "type": "string"
        },
        {
          "internalType": "uint256",
          "name": "_status",
          "type": "uint256"
        }
      ],
      "name": "changeStatus",
      "outputs": [],
      "stateMutability": "nonpayable",
      "type": "function"
    },
    {
      "inputs": [
        {
          "internalType": "string",
          "name": "txId",
          "type": "string"
        },
        {
          "internalType": "string",
          "name": "primaryNetworkId",
          "type": "string"
        },
        {
          "internalType": "string",
          "name": "networkId",
          "type": "string"
        },
        {
          "internalType": "string",
          "name": "invocationId",
          "type": "string"
        },
        {
          "internalType": "bytes[]",
          "name": "args",
          "type": "bytes[]"
        }
      ],
      "name": "startNetworkTransaction",
      "outputs": [],
      "stateMutability": "nonpayable",
      "type": "function"
    },
    {
      "inputs": [
        {
          "internalType": "string",
          "name": "txId",
          "type": "string"
        }
      ],
      "name": "prepareNetworkTransaction",
      "outputs": [],
      "stateMutability": "nonpayable",
      "type": "function"
    },
    {
      "inputs": [
        {
          "internalType": "uint256",
          "name": "len",
          "type": "uint256"
        }
      ],
      "name": "paddedLength",
      "outputs": [
        {
          "internalType": "uint256",
          "name": "",
          "type": "uint256"
        }
      ],
      "stateMutability": "pure",
      "type": "function"
    },
    {
      "inputs": [
        {
          "internalType": "bytes4",
          "name": "selector",
          "type": "bytes4"
        },
        {
          "internalType": "bytes[]",
          "name": "args",
          "type": "bytes[]"
        }
      ],
      "name": "buildCalldata",
      "outputs": [
        {
          "internalType": "bytes",
          "name": "",
          "type": "bytes"
        }
      ],
      "stateMutability": "pure",
      "type": "function"
    },
    {
      "inputs": [
        {
          "internalType": "string",
          "name": "txId",
          "type": "string"
        }
      ],
      "name": "confirmNetworkTransaction",
      "outputs": [],
      "stateMutability": "nonpayable",
      "type": "function"
    }
  ],
  "bytecode": "0x60806040523480156200001157600080fd5b5060405162001cba38038062001cba833981016040819052620000349162000083565b600180546001600160a01b039384166001600160a01b03199182161790915560028054929093169116179055620000bb565b80516001600160a01b03811681146200007e57600080fd5b919050565b600080604083850312156200009757600080fd5b620000a28362000066565b9150620000b26020840162000066565b90509250929050565b611bef80620000cb6000396000f3fe608060405234801561001057600080fd5b506004361061011b5760003560e01c80636da0d921116100b2578063bab89cb111610081578063e034eb2f11610066578063e034eb2f14610343578063ee24e36a1461037f578063f3bf64aa1461039257600080fd5b8063bab89cb1146102ff578063c7fa89cb1461030757600080fd5b80636da0d9211461024357806380152de81461027f57806383ebc8b4146102bb578063b916419c146102f757600080fd5b8063315ef9aa116100ee578063315ef9aa146101b857806333137cef146101cd5780633d832f5f146101ee57806369746cae1461020157600080fd5b80630d000764146101205780631ea1238214610172578063232b60c91461017a578063277ec7ec146101a5575b600080fd5b61015c6040518060400160405280600e81526020017f4c6f636b206e6f7420657869737400000000000000000000000000000000000081525081565b6040516101699190611356565b60405180910390f35b61015c6103a5565b61015c6040518060400160405280600c81526020016b151e081b9bdd08195e1a5cdd60a21b81525081565b61015c6101b33660046114d1565b6103c1565b6101cb6101c6366004611566565b6106c6565b005b6101e06101db366004611638565b610941565b604051908152602001610169565b6101cb6101fc366004611651565b61096b565b61023361020f366004611651565b80516020918201206000908152908190526040902060040154610100900460ff1690565b6040519015158152602001610169565b61015c6040518060400160405280601e81526020017f5b496e766f636174696f6e5d2043616e742061626c652066696e64206964000081525081565b61015c6040518060400160405280601081526020017f547820616c72656164792065786973740000000000000000000000000000000081525081565b61015c6040518060400160405280601181526020017f4c6f636b206973206e6f742076616c696400000000000000000000000000000081525081565b61015c610dbc565b61015c610dd8565b61015c6040518060400160405280600e81526020017f496e76616c69642073746174757300000000000000000000000000000000000081525081565b61015c6040518060400160405280601c81526020017f5b52656769737465725d2043616e742061626c652066696e642069640000000081525081565b6101cb61038d366004611651565b610df4565b6101cb6103a036600461168e565b610f25565b604051806060016040528060388152602001611b486038913981565b60606000825160206103d391906116e9565b90506000835167ffffffffffffffff8111156103f1576103f1611370565b60405190808252806020026020018201604052801561041a578160200160208202803683370190505b5090508160005b8551811015610495578183828151811061043d5761043d611708565b60200260200101818152505061046c86828151811061045e5761045e611708565b602002602001015151610941565b61047790602061171e565b610481908361171e565b91508061048d81611736565b915050610421565b50604080517fffffffff000000000000000000000000000000000000000000000000000000008816602082015281516004818303018152602490910190915260005b835181101561054f57818482815181106104f3576104f3611708565b602002602001015160405160200161050d91815260200190565b60408051601f198184030181529082905261052b9291602001611751565b6040516020818303038152906040529150808061054790611736565b9150506104d7565b5060005b86518110156106bb578187828151811061056f5761056f611708565b60200260200101515160405160200161058a91815260200190565b60408051601f19818403018152908290526105a89291602001611751565b6040516020818303038152906040529150818782815181106105cc576105cc611708565b60200260200101516040516020016105e5929190611751565b6040516020818303038152906040529150600087828151811061060a5761060a611708565b60200260200101515161062889848151811061045e5761045e611708565b6106329190611780565b905080156106a85760008167ffffffffffffffff81111561065557610655611370565b6040519080825280601f01601f19166020018201604052801561067f576020820181803683370190505b5090508381604051602001610695929190611751565b6040516020818303038152906040529350505b50806106b381611736565b915050610553565b509695505050505050565b6001546040517f09865a48000000000000000000000000000000000000000000000000000000008152849184916001600160a01b03909116906309865a48906107159085908590600401611797565b60206040518083038186803b15801561072d57600080fd5b505afa158015610741573d6000803e3d6000fd5b505050506040513d601f19601f8201168201806040525081019061076591906117c5565b6040518060400160405280601e81526020017f5b496e766f636174696f6e5d2043616e742061626c652066696e642069640000815250906107c25760405162461bcd60e51b81526004016107b99190611356565b60405180910390fd5b50604080518082018252601081527f547820616c72656164792065786973740000000000000000000000000000000060208083019190915289518a8201206000908152908190529182206004015489929190610100900460ff1615819061083c5760405162461bcd60e51b81526004016107b99190611356565b5060008a60405160200161085091906117e7565b60408051601f1981840301815291815281516020928301206000818152808452919091208d519193509161088b9160018401918f01906111b2565b508a5161089e90829060208e01906111b2565b5060048101805461ff0019166101001790556000828152602081815260409091208b516108d3926002909201918d01906111b2565b506000828152602081815260409091208a516108f7926003909201918c01906111b2565b50600082815260208181526040909120895161091b926005909201918b0190611236565b5060048101805460ff191690556109338c6000610f25565b505050505050505050505050565b6000602061095083601f61171e565b61095a9190611819565b6109659060206116e9565b92915050565b8060016040518060400160405280600c81526020016b151e081b9bdd08195e1a5cdd60a21b815250816109c7576109c1838051602091820120600090815290819052604090206004015460ff6101009091041690565b156109f0565b6109f0838051602091820120600090815290819052604090206004015460ff6101009091041690565b8190610a0f5760405162461bcd60e51b81526004016107b99190611356565b50600084604051602001610a2391906117e7565b60408051601f1981840301815282825280516020918201206001546000828152928390529282207fd8d5796e000000000000000000000000000000000000000000000000000000008552909450909283926001600160a01b03169163d8d5796e91610a9b916002810191600390910190600401611916565b60006040518083038186803b158015610ab357600080fd5b505afa158015610ac7573d6000803e3d6000fd5b505050506040513d6000823e601f3d908101601f19168201604052610aef9190810190611980565b92509250506000818051906020012090506000610bf082600080888152602001908152602001600020600501805480602002602001604051908101604052809291908181526020016000905b82821015610be7578382906000526020600020018054610b5a9061183b565b80601f0160208091040260200160405190810160405280929190818152602001828054610b869061183b565b8015610bd35780601f10610ba857610100808354040283529160200191610bd3565b820191906000526020600020905b815481529060010190602001808311610bb657829003601f168201915b505050505081526020019060010190610b3b565b505050506103c1565b9050600080856001600160a01b031683604051610c0d91906117e7565b6000604051808303816000865af19150503d8060008114610c4a576040519150601f19603f3d011682016040523d82523d6000602084013e610c4f565b606091505b5060015460008a815260208190526040808220905163a3d4cd6960e01b8152949650929450926001600160a01b039091169163a3d4cd6991610c949190600401611a03565b60006040518083038186803b158015610cac57600080fd5b505afa158015610cc0573d6000803e3d6000fd5b505050506040513d6000823e601f3d908101601f19168201604052610ce89190810190611a16565b6002546040517f2919b4860000000000000000000000000000000000000000000000000000000081529194506001600160a01b03169250632919b4869150610d34908f90600401611356565b600060405180830381600087803b158015610d4e57600080fd5b505af1158015610d62573d6000803e3d6000fd5b50505050610d718c6002610f25565b7f7e481d0828229ffac2f3bde8ccaaea407af31d15c8564ca3380a787308e535878c848484604051610da69493929190611a87565b60405180910390a1505050505050505050505050565b6040518060600160405280603a8152602001611b80603a913981565b604051806060016040528060218152602001611b276021913981565b8060016040518060400160405280600c81526020016b151e081b9bdd08195e1a5cdd60a21b81525081610e5057610e4a838051602091820120600090815290819052604090206004015460ff6101009091041690565b15610e79565b610e79838051602091820120600090815290819052604090206004015460ff6101009091041690565b8190610e985760405162461bcd60e51b81526004016107b99190611356565b506002546040517fa075cd6b0000000000000000000000000000000000000000000000000000000081526001600160a01b039091169063a075cd6b90610ee2908790600401611356565b600060405180830381600087803b158015610efc57600080fd5b505af1158015610f10573d6000803e3d6000fd5b50505050610f1f846001610f25565b50505050565b8160016040518060400160405280600c81526020016b151e081b9bdd08195e1a5cdd60a21b81525081610f8157610f7b838051602091820120600090815290819052604090206004015460ff6101009091041690565b15610faa565b610faa838051602091820120600090815290819052604090206004015460ff6101009091041690565b8190610fc95760405162461bcd60e51b81526004016107b99190611356565b50600085604051602001610fdd91906117e7565b6040516020818303038152906040528051906020012090508460001480611032575060008181526020819052604090206004015460ff16600281111561102557611025611803565b611030600187611780565b145b6040518060400160405280600e81526020017f496e76616c696420737461747573000000000000000000000000000000000000815250906110865760405162461bcd60e51b81526004016107b99190611356565b5084600281111561109957611099611803565b6000828152602081905260409020600401805460ff191660018360028111156110c4576110c4611803565b0217905550600154600082815260208190526040808220905163a3d4cd6960e01b815291926001600160a01b03169163a3d4cd699161110591600401611a03565b60006040518083038186803b15801561111d57600080fd5b505afa158015611131573d6000803e3d6000fd5b505050506040513d6000823e601f3d908101601f191682016040526111599190810190611a16565b925050507f45d790e4df1e79d5c63c08fe9e7e674cba1d8724647adbca308a9a887a3feaa98787600281111561119157611191611803565b836040516111a193929190611ad3565b60405180910390a150505050505050565b8280546111be9061183b565b90600052602060002090601f0160209004810192826111e05760008555611226565b82601f106111f957805160ff1916838001178555611226565b82800160010185558215611226579182015b8281111561122657825182559160200191906001019061120b565b5061123292915061128f565b5090565b828054828255906000526020600020908101928215611283579160200282015b8281111561128357825180516112739184916020909101906111b2565b5091602001919060010190611256565b506112329291506112a4565b5b808211156112325760008155600101611290565b808211156112325760006112b882826112c1565b506001016112a4565b5080546112cd9061183b565b6000825580601f106112dd575050565b601f0160209004906000526020600020908101906112fb919061128f565b50565b60005b83811015611319578181015183820152602001611301565b83811115610f1f5750506000910152565b600081518084526113428160208601602086016112fe565b601f01601f19169290920160200192915050565b602081526000611369602083018461132a565b9392505050565b634e487b7160e01b600052604160045260246000fd5b604051601f8201601f1916810167ffffffffffffffff811182821017156113af576113af611370565b604052919050565b600067ffffffffffffffff8211156113d1576113d1611370565b50601f01601f191660200190565b60006113f26113ed846113b7565b611386565b905082815283838301111561140657600080fd5b828260208301376000602084830101529392505050565b600082601f83011261142e57600080fd5b8135602067ffffffffffffffff8083111561144b5761144b611370565b8260051b61145a838201611386565b938452858101830193838101908886111561147457600080fd5b84880192505b858310156114c5578235848111156114925760008081fd5b8801603f81018a136114a45760008081fd5b6114b58a87830135604084016113df565b835250918401919084019061147a565b98975050505050505050565b600080604083850312156114e457600080fd5b82357fffffffff000000000000000000000000000000000000000000000000000000008116811461151457600080fd5b9150602083013567ffffffffffffffff81111561153057600080fd5b61153c8582860161141d565b9150509250929050565b600082601f83011261155757600080fd5b611369838335602085016113df565b600080600080600060a0868803121561157e57600080fd5b853567ffffffffffffffff8082111561159657600080fd5b6115a289838a01611546565b965060208801359150808211156115b857600080fd5b6115c489838a01611546565b955060408801359150808211156115da57600080fd5b6115e689838a01611546565b945060608801359150808211156115fc57600080fd5b61160889838a01611546565b9350608088013591508082111561161e57600080fd5b5061162b8882890161141d565b9150509295509295909350565b60006020828403121561164a57600080fd5b5035919050565b60006020828403121561166357600080fd5b813567ffffffffffffffff81111561167a57600080fd5b61168684828501611546565b949350505050565b600080604083850312156116a157600080fd5b823567ffffffffffffffff8111156116b857600080fd5b6116c485828601611546565b95602094909401359450505050565b634e487b7160e01b600052601160045260246000fd5b6000816000190483118215151615611703576117036116d3565b500290565b634e487b7160e01b600052603260045260246000fd5b60008219821115611731576117316116d3565b500190565b600060001982141561174a5761174a6116d3565b5060010190565b600083516117638184602088016112fe565b8351908301906117778183602088016112fe565b01949350505050565b600082821015611792576117926116d3565b500390565b6040815260006117aa604083018561132a565b82810360208401526117bc818561132a565b95945050505050565b6000602082840312156117d757600080fd5b8151801515811461136957600080fd5b600082516117f98184602087016112fe565b9190910192915050565b634e487b7160e01b600052602160045260246000fd5b60008261183657634e487b7160e01b600052601260045260246000fd5b500490565b600181811c9082168061184f57607f821691505b6020821081141561187057634e487b7160e01b600052602260045260246000fd5b50919050565b8054600090600181811c908083168061189057607f831692505b60208084108214156118b257634e487b7160e01b600052602260045260246000fd5b838852602088018280156118cd57600181146118de57611909565b60ff19871682528282019750611909565b60008981526020902060005b87811015611903578154848201529086019084016118ea565b83019850505b5050505050505092915050565b6040815260006119296040830185611876565b82810360208401526117bc8185611876565b600082601f83011261194c57600080fd5b815161195a6113ed826113b7565b81815284602083860101111561196f57600080fd5b6116868260208301602087016112fe565b60008060006060848603121561199557600080fd5b835167ffffffffffffffff808211156119ad57600080fd5b6119b98783880161193b565b9450602086015191506001600160a01b03821682146119d757600080fd5b6040860151919350808211156119ec57600080fd5b506119f98682870161193b565b9150509250925092565b6020815260006113696020830184611876565b600080600060608486031215611a2b57600080fd5b835167ffffffffffffffff80821115611a4357600080fd5b611a4f8783880161193b565b94506020860151915080821115611a6557600080fd5b611a718783880161193b565b935060408601519150808211156119ec57600080fd5b608081526000611a9a608083018761132a565b85151560208401528281036040840152611ab4818661132a565b90508281036060840152611ac8818561132a565b979650505050505050565b606081526000611ae6606083018661132a565b60038510611b0457634e487b7160e01b600052602160045260246000fd5b8460208401528281036040840152611b1c818561132a565b969550505050505056fe4c6f636b20616c72656164792065786973742061742074696d657374616d703a205b52656769737465725d20494420616c72656164792065786973742c20706c656173652073656e64206120646966666572656e74206f6e655b496e766f636174696f6e5d20494420616c72656164792065786973742c20706c656173652073656e64206120646966666572656e74206f6e65a2646970667358221220285a15881c91de8a9f0bf9235814a7b6f9167f0d96afd3890c5071f4694a273864736f6c63430008090033",
  "immutableReferences": {},
  "source": "// SPDX-License-Identifier: GPL-3.0\npragma solidity >=0.7.0 <0.9.0;\n\nimport \"../resource/Register.sol\";\nimport \"../lock/LockManager.sol\";\n\ncontract NetworkTransactionManager {\n    bytes constant NULL = \"\";\n    string constant public ERROR_REG_ID_NOT_FOUND = \"[Register] Cant able find id\";\n    string constant public ERROR_REG_ID_FOUND = \"[Register] ID already exist, please send a different one\";\n    string constant public ERROR_INO_ID_NOT_FOUND = \"[Invocation] Cant able find id\";\n    string constant public ERROR_INO_ID_FOUND = \"[Invocation] ID already exist, please send a different one\";\n    string constant public ERROR_LOCK_NOT_VALID = \"Lock is not valid\";\n    string constant public ERROR_LOCK_EXIST = \"Lock already exist at timestamp: \";\n    string constant public ERROR_LOCK_NOT_EXIST = \"Lock not exist\";\n    string constant public ERROR_TX_EXIST = \"Tx already exist\";\n    string constant public ERROR_TX_NOT_EXIST = \"Tx not exist\";\n    string constant public ERROR_INVALID_STATUS = \"Invalid status\";\n\n    enum NetworkTransactionStatusType{\n        NETWORK_TRANSACTION_STARTED, // 0\n        NETWORK_TRANSACTION_PREPARED, // 1\n        NETWORK_TRANSACTION_COMMITTED // 2\n    }\n\n    struct Transaction{\n        string primaryNetworkId;\n        string txId;\n        string networkId;\n        string invocationId;\n        // string txProof;\n        NetworkTransactionStatusType status;\n        bool isValid;\n        bytes[] args;\n    }\n\n    event ConfirmNetworkTransaction(\n        string txId,\n        bool success,\n        bytes data,\n        string primaryNetworkUrl\n    );\n\n    event NetworkTxStatus(\n        string txId,\n        NetworkTransactionStatusType status,\n        string primaryNetworkUrl\n    );\n\n    mapping(bytes32 => Transaction) transactions;\n    \n    Register register;\n    LockManager lockManager;\n\n    constructor(address _register, address _lockManager){\n        register = Register(_register);\n        lockManager = LockManager(_lockManager);\n    }\n\n    modifier checkInvocationID(string memory networkID, string memory id){\n        require(register.checkInvocationIDExist(networkID, id), ERROR_INO_ID_NOT_FOUND);\n        _;\n    }\n\n    modifier checkTx(string memory txId, bool ifExist, string memory errMsg){\n        require((ifExist) ? checkTxExist(txId): !checkTxExist(txId), errMsg);\n        _;\n    }\n\n    function checkTxExist(string memory txId) public view returns(bool){\n        bytes32 hash = keccak256(bytes(txId));\n        return transactions[hash].isValid;\n    }\n\n    function changeStatus(string memory txId, uint _status) public checkTx(txId, true, ERROR_TX_NOT_EXIST){\n        bytes32 hash = keccak256(abi.encodePacked(txId));\n        require(_status == 0 || _status-1 == uint(transactions[hash].status), ERROR_INVALID_STATUS);\n        transactions[hash].status = NetworkTransactionStatusType(_status);\n\n        (, , string memory primaryNetworkUrl) = register.resolveNetwork(transactions[hash].primaryNetworkId);\n        emit NetworkTxStatus(txId, NetworkTransactionStatusType(_status), primaryNetworkUrl);\n    }\n\n    function startNetworkTransaction(\n        string memory txId,\n        string memory primaryNetworkId,\n        string memory networkId,\n        string memory invocationId,\n        bytes[] memory args)\n        external checkInvocationID(networkId, invocationId) checkTx(txId, false, ERROR_TX_EXIST) {            \n            bytes32 hash = keccak256(abi.encodePacked(txId));\n\n            Transaction storage tsx = transactions[hash];\n            tsx.txId = txId;\n            tsx.primaryNetworkId = primaryNetworkId;\n            tsx.isValid = true;\n            transactions[hash].networkId = networkId;\n            transactions[hash].invocationId = invocationId;\n            transactions[hash].args = args;\n            tsx.status = NetworkTransactionStatusType.NETWORK_TRANSACTION_STARTED;\n            \n            changeStatus(txId, 0);\n    }\n\n    function prepareNetworkTransaction(string memory txId) \n        external checkTx(txId, true, ERROR_TX_NOT_EXIST){\n            lockManager.putLock(txId);\n            changeStatus(txId, 1);\n    }\n\n    function paddedLength(uint256 len) public pure returns (uint256) {\n        return ((len + 31) / 32) * 32;\n    }\n\n    function buildCalldata(bytes4 selector, bytes[] memory args) public pure returns (bytes memory) {\n        uint256 baseOffset = args.length * 32;\n        uint256[] memory offsets = new uint256[](args.length);\n        uint256 currentOffset = baseOffset;\n        \n        for (uint i = 0; i < args.length; i++) {\n            offsets[i] = currentOffset;\n            // Each dynamic type needs: 32 bytes for length + padded data\n            currentOffset += 32 + paddedLength(args[i].length);\n        }\n        \n        // Build calldata: selector + offsets + encoded args\n        bytes memory callData = abi.encodePacked(selector);\n        \n        // Append all offsets\n        for (uint i = 0; i < offsets.length; i++) {\n            callData = abi.encodePacked(callData, abi.encode(offsets[i]));\n        }\n        \n        // Append all argument data with length prefix and padding\n        for (uint i = 0; i < args.length; i++) {\n            // Encode length (32 bytes) + data + padding\n            callData = abi.encodePacked(callData, abi.encode(args[i].length));\n            callData = abi.encodePacked(callData, args[i]);\n            \n            // Add padding to reach 32-byte boundary\n            uint256 padding = paddedLength(args[i].length) - args[i].length;\n            if (padding > 0) {\n                bytes memory paddingBytes = new bytes(padding);\n                callData = abi.encodePacked(callData, paddingBytes);\n            }\n        }\n        \n        return callData;\n    }\n    \n    function confirmNetworkTransaction(string memory txId)\n        external checkTx(txId, true, ERROR_TX_NOT_EXIST){\n            bytes32 hash = keccak256(abi.encodePacked(txId));\n\n            (, address contractAddress, string memory functionSignature) = register.resolveInvocation(transactions[hash].networkId, transactions[hash].invocationId);\n\n            bytes4 selector = bytes4(keccak256(bytes(functionSignature)));\n            bytes memory callData = buildCalldata(selector, transactions[hash].args);\n            \n            (bool success, bytes memory data) = contractAddress.call(callData);\n            (, , string memory url) = register.resolveNetwork(transactions[hash].primaryNetworkId);\n            \n            lockManager.releaseLock(txId);\n            changeStatus(txId, 2);\n\n            emit ConfirmNetworkTransaction(txId, success, data, url);\n    }\n}",
  "sourcePath": "/Users/rxshri99/Projects/Research/sidecar-contract-kit/sidemesh-solidity/contracts/transaction/NetworkTransactionManager.sol",
  "compiler": {
    "name": "solc",
    "version": "0.8.9+commit.e5eed63a.Emscripten.clang"
  },
  "schemaVersion": "3.4.16",
  "updatedAt": "2025-12-15T19:41:36.457Z",
  "devdoc": {
    "kind": "dev",
    "methods": {},
    "version": 1
  },
  "userdoc": {
    "kind": "user",
    "methods": {},
    "version": 1
  }
}