{
  "contractName": "NetworkTransactionManager",
  "abi": [
    {
      "inputs": [
        {
          "internalType": "address",
          "name": "_register",
          "type": "address"
        },
        {
          "internalType": "address",
          "name": "_lockManager",
          "type": "address"
        }
      ],
      "stateMutability": "nonpayable",
      "type": "constructor"
    },
    {
      "anonymous": false,
      "inputs": [
        {
          "indexed": false,
          "internalType": "string",
          "name": "txId",
          "type": "string"
        },
        {
          "indexed": false,
          "internalType": "bool",
          "name": "success",
          "type": "bool"
        }
      ],
      "name": "ConfirmNetworkTransaction",
      "type": "event"
    },
    {
      "anonymous": false,
      "inputs": [
        {
          "indexed": false,
          "internalType": "string",
          "name": "txId",
          "type": "string"
        },
        {
          "indexed": false,
          "internalType": "enum NetworkTransactionManager.NetworkTransactionStatusType",
          "name": "status",
          "type": "uint8"
        },
        {
          "indexed": false,
          "internalType": "string",
          "name": "primaryNetworkUrl",
          "type": "string"
        }
      ],
      "name": "NetworkTxStatus",
      "type": "event"
    },
    {
      "inputs": [
        {
          "internalType": "string",
          "name": "txId",
          "type": "string"
        }
      ],
      "name": "checkTxExist",
      "outputs": [
        {
          "internalType": "bool",
          "name": "",
          "type": "bool"
        }
      ],
      "stateMutability": "view",
      "type": "function",
      "constant": true
    },
    {
      "inputs": [
        {
          "internalType": "string",
          "name": "txId",
          "type": "string"
        },
        {
          "internalType": "uint256",
          "name": "_status",
          "type": "uint256"
        }
      ],
      "name": "changeStatus",
      "outputs": [],
      "stateMutability": "nonpayable",
      "type": "function"
    },
    {
      "inputs": [
        {
          "internalType": "string",
          "name": "txId",
          "type": "string"
        },
        {
          "internalType": "string",
          "name": "primaryNetworkId",
          "type": "string"
        },
        {
          "internalType": "string",
          "name": "networkId",
          "type": "string"
        },
        {
          "internalType": "string",
          "name": "invocationId",
          "type": "string"
        },
        {
          "internalType": "bytes",
          "name": "args",
          "type": "bytes"
        }
      ],
      "name": "startNetworkTransaction",
      "outputs": [],
      "stateMutability": "nonpayable",
      "type": "function"
    },
    {
      "inputs": [
        {
          "internalType": "string",
          "name": "txId",
          "type": "string"
        }
      ],
      "name": "prepareNetworkTransaction",
      "outputs": [],
      "stateMutability": "nonpayable",
      "type": "function"
    },
    {
      "inputs": [
        {
          "internalType": "string",
          "name": "txId",
          "type": "string"
        }
      ],
      "name": "confirmNetworkTransaction",
      "outputs": [],
      "stateMutability": "nonpayable",
      "type": "function"
    }
  ],
  "bytecode": "0x608060405234801561001057600080fd5b5060405161134b38038061134b83398101604081905261002f9161007c565b600180546001600160a01b039384166001600160a01b031991821617909155600280549290931691161790556100af565b80516001600160a01b038116811461007757600080fd5b919050565b6000806040838503121561008f57600080fd5b61009883610060565b91506100a660208401610060565b90509250929050565b61128d806100be6000396000f3fe608060405234801561001057600080fd5b50600436106100675760003560e01c806369746cae1161005057806369746cae14610094578063ee24e36a146100da578063f3bf64aa146100ed57600080fd5b80633d832f5f1461006c5780633e5ea75b14610081575b600080fd5b61007f61007a366004610cb4565b610100565b005b61007f61008f366004610cf1565b6104cc565b6100c66100a2366004610cb4565b80516020918201206000908152908190526040902060040154610100900460ff1690565b604051901515815260200160405180910390f35b61007f6100e8366004610cb4565b61078d565b61007f6100fb366004610dc3565b610955565b8060016040518060400160405280600c81526020016b151e081b9bdd08195e1a5cdd60a21b8152508161015c57610156838051602091820120600090815290819052604090206004015460ff6101009091041690565b15610185565b610185838051602091820120600090815290819052604090206004015460ff6101009091041690565b81906101ad5760405162461bcd60e51b81526004016101a49190610e64565b60405180910390fd5b5060006101de856040516020016101c49190610e7e565b604051602081830303815290604052805160209091012090565b9050600360008281526020819052604090206004015460ff16600581111561020857610208610e9a565b146040518060400160405280600e81526020017f496e76616c6964207374617475730000000000000000000000000000000000008152509061025d5760405162461bcd60e51b81526004016101a49190610e64565b5060015460008281526020819052604080822090517fd8d5796e0000000000000000000000000000000000000000000000000000000081529192839283926001600160a01b039092169163d8d5796e916102c4916002810191600390910190600401610f8b565b60006040518083038186803b1580156102dc57600080fd5b505afa1580156102f0573d6000803e3d6000fd5b505050506040513d6000823e601f3d908101601f191682016040526103189190810190611009565b935093509350506000836001600160a01b0316838360405160240161033d9190610e64565b60408051601f19818403018152908290529161035891610e7e565b60408051918290039091206020830180517bffffffffffffffffffffffffffffffffffffffffffffffffffffffff167fffffffff00000000000000000000000000000000000000000000000000000000909216919091179052516103bc9190610e7e565b6000604051808303816000865af19150503d80600081146103f9576040519150601f19603f3d011682016040523d82523d6000602084013e6103fe565b606091505b505090507f9f0e7a2d3cd22150fa994306cca99a3b5ebeac574d7ac2cba0124a7256c26b8289826040516104339291906110c5565b60405180910390a16002546040517f2919b4860000000000000000000000000000000000000000000000000000000081526001600160a01b0390911690632919b48690610484908c90600401610e64565b600060405180830381600087803b15801561049e57600080fd5b505af11580156104b2573d6000803e3d6000fd5b505050506104c1896005610955565b505050505050505050565b6001546040517f09865a48000000000000000000000000000000000000000000000000000000008152849184916001600160a01b03909116906309865a489061051b90859085906004016110e9565b60206040518083038186803b15801561053357600080fd5b505afa158015610547573d6000803e3d6000fd5b505050506040513d601f19601f8201168201806040525081019061056b919061110e565b6040518060400160405280601e81526020017f5b496e766f636174696f6e5d2043616e742061626c652066696e642069640000815250906105bf5760405162461bcd60e51b81526004016101a49190610e64565b50604080518082018252601081527f547820616c72656164792065786973740000000000000000000000000000000060208083019190915289518a8201206000908152908190529182206004015489929190610100900460ff161581906106395760405162461bcd60e51b81526004016101a49190610e64565b5060006106508b6040516020016101c49190610e7e565b6001546040517f5bdbb3ba0000000000000000000000000000000000000000000000000000000081529192506001600160a01b031690635bdbb3ba9061069e908c908c908c90600401611130565b600060405180830381600087803b1580156106b857600080fd5b505af11580156106cc573d6000803e3d6000fd5b5050506000828152602081815260409091208d519092506106f5916001840191908f0190610b56565b508a5161070890829060208e0190610b56565b5060048101805461ff0019166101001790556000828152602081815260409091208b5161073d926002909201918d0190610b56565b506000828152602081815260409091208a51610761926003909201918c0190610b56565b5060048101805460ff1916600290811790915561077f908d90610955565b505050505050505050505050565b8060016040518060400160405280600c81526020016b151e081b9bdd08195e1a5cdd60a21b815250816107e9576107e3838051602091820120600090815290819052604090206004015460ff6101009091041690565b15610812565b610812838051602091820120600090815290819052604090206004015460ff6101009091041690565b81906108315760405162461bcd60e51b81526004016101a49190610e64565b506000610848856040516020016101c49190610e7e565b9050600260008281526020819052604090206004015460ff16600581111561087257610872610e9a565b146040518060400160405280600e81526020017f496e76616c696420737461747573000000000000000000000000000000000000815250906108c75760405162461bcd60e51b81526004016101a49190610e64565b506002546040517fa075cd6b0000000000000000000000000000000000000000000000000000000081526001600160a01b039091169063a075cd6b90610911908890600401610e64565b600060405180830381600087803b15801561092b57600080fd5b505af115801561093f573d6000803e3d6000fd5b5050505061094e856003610955565b5050505050565b8160016040518060400160405280600c81526020016b151e081b9bdd08195e1a5cdd60a21b815250816109b1576109ab838051602091820120600090815290819052604090206004015460ff6101009091041690565b156109da565b6109da838051602091820120600090815290819052604090206004015460ff6101009091041690565b81906109f95760405162461bcd60e51b81526004016101a49190610e64565b506000610a10866040516020016101c49190610e7e565b9050846005811115610a2457610a24610e9a565b6000828152602081905260409020600401805460ff19166001836005811115610a4f57610a4f610e9a565b021790555060015460008281526020819052604080822090517fa3d4cd6900000000000000000000000000000000000000000000000000000000815291926001600160a01b03169163a3d4cd6991610aa991600401611173565b60006040518083038186803b158015610ac157600080fd5b505afa158015610ad5573d6000803e3d6000fd5b505050506040513d6000823e601f3d908101601f19168201604052610afd9190810190611186565b925050507f45d790e4df1e79d5c63c08fe9e7e674cba1d8724647adbca308a9a887a3feaa987876005811115610b3557610b35610e9a565b83604051610b459392919061120e565b60405180910390a150505050505050565b828054610b6290610eb0565b90600052602060002090601f016020900481019282610b845760008555610bca565b82601f10610b9d57805160ff1916838001178555610bca565b82800160010185558215610bca579182015b82811115610bca578251825591602001919060010190610baf565b50610bd6929150610bda565b5090565b5b80821115610bd65760008155600101610bdb565b634e487b7160e01b600052604160045260246000fd5b604051601f8201601f1916810167ffffffffffffffff81118282101715610c2e57610c2e610bef565b604052919050565b600067ffffffffffffffff821115610c5057610c50610bef565b50601f01601f191660200190565b600082601f830112610c6f57600080fd5b8135610c82610c7d82610c36565b610c05565b818152846020838601011115610c9757600080fd5b816020850160208301376000918101602001919091529392505050565b600060208284031215610cc657600080fd5b813567ffffffffffffffff811115610cdd57600080fd5b610ce984828501610c5e565b949350505050565b600080600080600060a08688031215610d0957600080fd5b853567ffffffffffffffff80821115610d2157600080fd5b610d2d89838a01610c5e565b96506020880135915080821115610d4357600080fd5b610d4f89838a01610c5e565b95506040880135915080821115610d6557600080fd5b610d7189838a01610c5e565b94506060880135915080821115610d8757600080fd5b610d9389838a01610c5e565b93506080880135915080821115610da957600080fd5b50610db688828901610c5e565b9150509295509295909350565b60008060408385031215610dd657600080fd5b823567ffffffffffffffff811115610ded57600080fd5b610df985828601610c5e565b95602094909401359450505050565b60005b83811015610e23578181015183820152602001610e0b565b83811115610e32576000848401525b50505050565b60008151808452610e50816020860160208601610e08565b601f01601f19169290920160200192915050565b602081526000610e776020830184610e38565b9392505050565b60008251610e90818460208701610e08565b9190910192915050565b634e487b7160e01b600052602160045260246000fd5b600181811c90821680610ec457607f821691505b60208210811415610ee557634e487b7160e01b600052602260045260246000fd5b50919050565b8054600090600181811c9080831680610f0557607f831692505b6020808410821415610f2757634e487b7160e01b600052602260045260246000fd5b83885260208801828015610f425760018114610f5357610f7e565b60ff19871682528282019750610f7e565b60008981526020902060005b87811015610f7857815484820152908601908401610f5f565b83019850505b5050505050505092915050565b604081526000610f9e6040830185610eeb565b8281036020840152610fb08185610eeb565b95945050505050565b6000610fc7610c7d84610c36565b9050828152838383011115610fdb57600080fd5b610e77836020830184610e08565b600082601f830112610ffa57600080fd5b610e7783835160208501610fb9565b6000806000806080858703121561101f57600080fd5b845167ffffffffffffffff8082111561103757600080fd5b61104388838901610fe9565b9550602087015191506001600160a01b038216821461106157600080fd5b60408701519194508082111561107657600080fd5b61108288838901610fe9565b9350606087015191508082111561109857600080fd5b508501601f810187136110aa57600080fd5b6110b987825160208401610fb9565b91505092959194509250565b6040815260006110d86040830185610e38565b905082151560208301529392505050565b6040815260006110fc6040830185610e38565b8281036020840152610fb08185610e38565b60006020828403121561112057600080fd5b81518015158114610e7757600080fd5b6060815260006111436060830186610e38565b82810360208401526111558186610e38565b905082810360408401526111698185610e38565b9695505050505050565b602081526000610e776020830184610eeb565b60008060006060848603121561119b57600080fd5b835167ffffffffffffffff808211156111b357600080fd5b6111bf87838801610fe9565b945060208601519150808211156111d557600080fd5b6111e187838801610fe9565b935060408601519150808211156111f757600080fd5b5061120486828701610fe9565b9150509250925092565b6060815260006112216060830186610e38565b6006851061123f57634e487b7160e01b600052602160045260246000fd5b84602084015282810360408401526111698185610e3856fea26469706673582212204598b2a0100c4b6ea7ca05a70251b2234b8641a44cb40ea8724d931fc9bc67f664736f6c63430008090033",
  "immutableReferences": {},
  "source": "// SPDX-License-Identifier: GPL-3.0\npragma solidity >=0.7.0 <0.9.0;\n\nimport \"../lib/Utils.sol\";\nimport \"../lib/Constants.sol\";\n\nimport \"../resource/Register.sol\";\nimport \"../lock/LockManager.sol\";\n\ncontract NetworkTransactionManager {\n\n    enum NetworkTransactionStatusType{\n        PRIMARY_TRANSACTION_STARTED, // 0\n        PRIMARY_TRANSACTION_PREPARED, // 1\n        NETWORK_TRANSACTION_STARTED, // 2\n        NETWORK_TRANSACTION_PREPARED, // 3\n        PRIMARY_TRANSACTION_COMMITTED, // 4\n        NETWORK_TRANSACTION_COMMITTED // 5\n    }\n\n    struct Transaction{\n        string primaryNetworkId;\n        string txId;\n        string networkId;\n        string invocationId;\n        // string txProof;\n        NetworkTransactionStatusType status;\n        bool isValid;\n    }\n\n    event ConfirmNetworkTransaction(\n        string txId,\n        bool success\n    );\n\n    event NetworkTxStatus(\n        string txId,\n        NetworkTransactionStatusType status,\n        string primaryNetworkUrl\n    );\n\n    mapping(bytes32 => Transaction) transactions;\n    \n    Register register;\n    LockManager lockManager;\n\n    constructor(address _register, address _lockManager){\n        register = Register(_register);\n        lockManager = LockManager(_lockManager);\n    }\n\n    modifier checkInvocationID(string memory networkID, string memory id){\n        require(register.checkInvocationIDExist(networkID, id), Constants.ERROR_INO_ID_NOT_FOUND);\n        _;\n    }\n\n    modifier checkTx(string memory txId, bool ifExist, string memory errMsg){\n        require((ifExist) ? checkTxExist(txId): !checkTxExist(txId), errMsg);\n        _;\n    }\n\n    function checkTxExist(string memory txId) public view returns(bool){\n        bytes32 hash = Utils.hash(bytes(txId));\n        return transactions[hash].isValid;\n    }\n\n    function changeStatus(string memory txId, uint _status) public checkTx(txId, true, Constants.ERROR_TX_NOT_EXIST){\n        bytes32 hash = Utils.hash(abi.encodePacked(txId));\n        \n        transactions[hash].status = NetworkTransactionStatusType(_status);\n\n        (, , string memory url) = register.resolveNetwork(transactions[hash].primaryNetworkId);\n        emit NetworkTxStatus(txId, NetworkTransactionStatusType(_status), url);\n    }\n\n    function startNetworkTransaction(\n        string memory txId,\n        string memory primaryNetworkId,\n        string memory networkId,\n        string memory invocationId,\n        bytes memory args)\n        external checkInvocationID(networkId, invocationId) checkTx(txId, false, Constants.ERROR_TX_EXIST) {            \n            bytes32 hash = Utils.hash(abi.encodePacked(txId));\n            // require(transactions[hash].status == NetworkTransactionStatusType.PRIMARY_TRANSACTION_PREPARED, Constants.ERROR_INVALID_STATUS);\n\n            register.addArgs(networkId, invocationId, args);\n\n            Transaction storage tsx = transactions[hash];\n            tsx.txId = txId;\n            tsx.primaryNetworkId = primaryNetworkId;\n            tsx.isValid = true;\n            transactions[hash].networkId = networkId;\n            transactions[hash].invocationId = invocationId;\n            tsx.status = NetworkTransactionStatusType.NETWORK_TRANSACTION_STARTED;\n            \n            changeStatus(txId, 2);\n    }\n\n    function prepareNetworkTransaction(string memory txId) \n        external checkTx(txId, true, Constants.ERROR_TX_NOT_EXIST){\n            bytes32 hash = Utils.hash(abi.encodePacked(txId));\n            require(transactions[hash].status == NetworkTransactionStatusType.NETWORK_TRANSACTION_STARTED, Constants.ERROR_INVALID_STATUS);\n\n            lockManager.putLock(txId);\n            changeStatus(txId, 3);\n    }\n\n    function confirmNetworkTransaction(string memory txId)\n        external checkTx(txId, true, Constants.ERROR_TX_NOT_EXIST){\n            bytes32 hash = Utils.hash(abi.encodePacked(txId));\n            require(transactions[hash].status == NetworkTransactionStatusType.NETWORK_TRANSACTION_PREPARED, Constants.ERROR_INVALID_STATUS);\n\n            (, address contractAddress, string memory functionSignature, bytes memory args) = register.resolveInvocation(transactions[hash].networkId, transactions[hash].invocationId);\n            \n            (bool success,) = contractAddress.call(abi.encodeWithSignature(functionSignature, args));\n            \n            emit ConfirmNetworkTransaction(txId, success);\n            \n            lockManager.releaseLock(txId);\n            changeStatus(txId, 5);\n    }\n}",
  "sourcePath": "/home/rxshri99/WebProjects/sidecar-contract-kit/sidemesh-solidity/contracts/transaction/NetworkTransactionManager.sol",
  "compiler": {
    "name": "solc",
    "version": "0.8.9+commit.e5eed63a.Emscripten.clang"
  },
  "schemaVersion": "3.4.11",
  "updatedAt": "2023-02-02T01:16:38.471Z",
  "networkType": "ethereum",
  "devdoc": {
    "kind": "dev",
    "methods": {},
    "version": 1
  },
  "userdoc": {
    "kind": "user",
    "methods": {},
    "version": 1
  }
}