{
  "contractName": "PrimaryTransactionManager",
  "abi": [
    {
      "inputs": [
        {
          "internalType": "address",
          "name": "_register",
          "type": "address"
        },
        {
          "internalType": "address",
          "name": "_lockManager",
          "type": "address"
        }
      ],
      "stateMutability": "nonpayable",
      "type": "constructor"
    },
    {
      "anonymous": false,
      "inputs": [
        {
          "indexed": false,
          "internalType": "string",
          "name": "txId",
          "type": "string"
        },
        {
          "indexed": false,
          "internalType": "string",
          "name": "primaryNetworkId",
          "type": "string"
        },
        {
          "indexed": false,
          "internalType": "string",
          "name": "networkId",
          "type": "string"
        },
        {
          "indexed": false,
          "internalType": "string",
          "name": "url",
          "type": "string"
        },
        {
          "indexed": false,
          "internalType": "string",
          "name": "invocationId",
          "type": "string"
        },
        {
          "indexed": false,
          "internalType": "bytes[]",
          "name": "args",
          "type": "bytes[]"
        }
      ],
      "name": "PreparePrimaryTransaction",
      "type": "event"
    },
    {
      "anonymous": false,
      "inputs": [
        {
          "indexed": false,
          "internalType": "string",
          "name": "txId",
          "type": "string"
        },
        {
          "indexed": false,
          "internalType": "enum PrimaryTransactionManager.PrimaryTransactionStatusType",
          "name": "status",
          "type": "uint8"
        },
        {
          "indexed": false,
          "internalType": "string",
          "name": "networkUrl",
          "type": "string"
        }
      ],
      "name": "PrimaryTxStatus",
      "type": "event"
    },
    {
      "inputs": [],
      "name": "CALLBACK",
      "outputs": [
        {
          "internalType": "string",
          "name": "",
          "type": "string"
        }
      ],
      "stateMutability": "view",
      "type": "function"
    },
    {
      "inputs": [],
      "name": "ERROR_CALLBACK_FAILED",
      "outputs": [
        {
          "internalType": "string",
          "name": "",
          "type": "string"
        }
      ],
      "stateMutability": "view",
      "type": "function"
    },
    {
      "inputs": [],
      "name": "ERROR_INO_ID_FOUND",
      "outputs": [
        {
          "internalType": "string",
          "name": "",
          "type": "string"
        }
      ],
      "stateMutability": "view",
      "type": "function"
    },
    {
      "inputs": [],
      "name": "ERROR_INO_ID_NOT_FOUND",
      "outputs": [
        {
          "internalType": "string",
          "name": "",
          "type": "string"
        }
      ],
      "stateMutability": "view",
      "type": "function"
    },
    {
      "inputs": [],
      "name": "ERROR_INVALID_STATUS",
      "outputs": [
        {
          "internalType": "string",
          "name": "",
          "type": "string"
        }
      ],
      "stateMutability": "view",
      "type": "function"
    },
    {
      "inputs": [],
      "name": "ERROR_LOCK_EXIST",
      "outputs": [
        {
          "internalType": "string",
          "name": "",
          "type": "string"
        }
      ],
      "stateMutability": "view",
      "type": "function"
    },
    {
      "inputs": [],
      "name": "ERROR_LOCK_NOT_EXIST",
      "outputs": [
        {
          "internalType": "string",
          "name": "",
          "type": "string"
        }
      ],
      "stateMutability": "view",
      "type": "function"
    },
    {
      "inputs": [],
      "name": "ERROR_LOCK_NOT_VALID",
      "outputs": [
        {
          "internalType": "string",
          "name": "",
          "type": "string"
        }
      ],
      "stateMutability": "view",
      "type": "function"
    },
    {
      "inputs": [],
      "name": "ERROR_REG_ID_FOUND",
      "outputs": [
        {
          "internalType": "string",
          "name": "",
          "type": "string"
        }
      ],
      "stateMutability": "view",
      "type": "function"
    },
    {
      "inputs": [],
      "name": "ERROR_REG_ID_NOT_FOUND",
      "outputs": [
        {
          "internalType": "string",
          "name": "",
          "type": "string"
        }
      ],
      "stateMutability": "view",
      "type": "function"
    },
    {
      "inputs": [],
      "name": "ERROR_TX_EXIST",
      "outputs": [
        {
          "internalType": "string",
          "name": "",
          "type": "string"
        }
      ],
      "stateMutability": "view",
      "type": "function"
    },
    {
      "inputs": [],
      "name": "ERROR_TX_NOT_EXIST",
      "outputs": [
        {
          "internalType": "string",
          "name": "",
          "type": "string"
        }
      ],
      "stateMutability": "view",
      "type": "function"
    },
    {
      "inputs": [
        {
          "internalType": "string",
          "name": "txId",
          "type": "string"
        }
      ],
      "name": "checkTxExist",
      "outputs": [
        {
          "internalType": "bool",
          "name": "",
          "type": "bool"
        }
      ],
      "stateMutability": "view",
      "type": "function"
    },
    {
      "inputs": [
        {
          "internalType": "string",
          "name": "txId",
          "type": "string"
        },
        {
          "internalType": "uint256",
          "name": "_status",
          "type": "uint256"
        }
      ],
      "name": "changeStatus",
      "outputs": [],
      "stateMutability": "nonpayable",
      "type": "function"
    },
    {
      "inputs": [
        {
          "internalType": "string",
          "name": "txId",
          "type": "string"
        },
        {
          "internalType": "string",
          "name": "primaryNetworkId",
          "type": "string"
        }
      ],
      "name": "startPrimaryTransaction",
      "outputs": [],
      "stateMutability": "nonpayable",
      "type": "function"
    },
    {
      "inputs": [
        {
          "internalType": "string",
          "name": "txId",
          "type": "string"
        },
        {
          "internalType": "string",
          "name": "networkId",
          "type": "string"
        },
        {
          "internalType": "string",
          "name": "invocationId",
          "type": "string"
        },
        {
          "internalType": "bytes[]",
          "name": "args",
          "type": "bytes[]"
        },
        {
          "internalType": "address",
          "name": "callerContract",
          "type": "address"
        }
      ],
      "name": "registerNetworkTransaction",
      "outputs": [],
      "stateMutability": "nonpayable",
      "type": "function"
    },
    {
      "inputs": [
        {
          "internalType": "string",
          "name": "txId",
          "type": "string"
        }
      ],
      "name": "preparePrimaryTransaction",
      "outputs": [],
      "stateMutability": "nonpayable",
      "type": "function"
    },
    {
      "inputs": [
        {
          "internalType": "string",
          "name": "txId",
          "type": "string"
        }
      ],
      "name": "confirmPrimaryTransaction",
      "outputs": [],
      "stateMutability": "nonpayable",
      "type": "function"
    },
    {
      "inputs": [
        {
          "internalType": "string",
          "name": "txId",
          "type": "string"
        },
        {
          "internalType": "bytes",
          "name": "data",
          "type": "bytes"
        }
      ],
      "name": "finishPrimaryTransaction",
      "outputs": [],
      "stateMutability": "nonpayable",
      "type": "function"
    }
  ],
  "bytecode": "0x60806040523480156200001157600080fd5b5060405162001c2c38038062001c2c833981016040819052620000349162000083565b600180546001600160a01b039384166001600160a01b03199182161790915560028054929093169116179055620000bb565b80516001600160a01b03811681146200007e57600080fd5b919050565b600080604083850312156200009757600080fd5b620000a28362000066565b9150620000b26020840162000066565b90509250929050565b611b6180620000cb6000396000f3fe608060405234801561001057600080fd5b50600436106101515760003560e01c806383ebc8b4116100cd578063bab89cb111610081578063c7fa89cb11610066578063c7fa89cb146103ba578063e034eb2f146103e7578063f3bf64aa1461042357600080fd5b8063bab89cb11461039f578063c4abb091146103a757600080fd5b80639ce27542116100b25780639ce2754214610348578063b6d856e41461035b578063b916419c1461039757600080fd5b806383ebc8b4146102d05780639792fde11461030c57600080fd5b80633cd58dc9116101245780636d681f11116101095780636d681f11146102455780636da0d9211461025857806380152de81461029457600080fd5b80633cd58dc9146101f057806369746cae1461020357600080fd5b80630d000764146101565780630e76ba06146101a85780631ea12382146101bd578063232b60c9146101c5575b600080fd5b6101926040518060400160405280600e81526020017f4c6f636b206e6f7420657869737400000000000000000000000000000000000081525081565b60405161019f919061136a565b60405180910390f35b6101bb6101b6366004611449565b610436565b005b6101926106a6565b6101926040518060400160405280600c81526020016b151e081b9bdd08195e1a5cdd60a21b81525081565b6101bb6101fe3660046114ad565b6106c2565b6102356102113660046114ad565b80516020918201206000908152908190526040902060040154610100900460ff1690565b604051901515815260200161019f565b6101bb61025336600461150f565b610890565b6101926040518060400160405280601e81526020017f5b496e766f636174696f6e5d2043616e742061626c652066696e64206964000081525081565b6101926040518060400160405280601081526020017f547820616c72656164792065786973740000000000000000000000000000000081525081565b6101926040518060400160405280601181526020017f4c6f636b206973206e6f742076616c696400000000000000000000000000000081525081565b6101926040518060400160405280601981526020017f43616c6c6261636b20657865637574696f6e206661696c65640000000000000081525081565b6101bb6103563660046114ad565b610b08565b6101926040518060400160405280601781526020017f5f63616c6c6261636b28737472696e672c62797465732900000000000000000081525081565b610192610e11565b610192610e2d565b6101bb6103b5366004611449565b610e49565b6101926040518060400160405280600e81526020016d496e76616c69642073746174757360901b81525081565b6101926040518060400160405280601c81526020017f5b52656769737465725d2043616e742061626c652066696e642069640000000081525081565b6101bb61043136600461164e565b610f3d565b8160016040518060400160405280600c81526020016b151e081b9bdd08195e1a5cdd60a21b815250816104925761048c838051602091820120600090815290819052604090206004015460ff6101009091041690565b156104bb565b6104bb838051602091820120600090815290819052604090206004015460ff6101009091041690565b81906104e35760405162461bcd60e51b81526004016104da919061136a565b60405180910390fd5b506000856040516020016104f79190611693565b60408051808303601f1901815282825280516020918201206000818152808352838120600401548585018552601786527f5f63616c6c6261636b28737472696e672c6279746573290000000000000000009386019390935292519094509192620100009091046001600160a01b031691610577908a908a906024016116af565b60408051601f19818403018152908290529161059291611693565b60408051918290039091206020830180517bffffffffffffffffffffffffffffffffffffffffffffffffffffffff167fffffffff00000000000000000000000000000000000000000000000000000000909216919091179052516105f69190611693565b6000604051808303816000865af19150503d8060008114610633576040519150601f19603f3d011682016040523d82523d6000602084013e610638565b606091505b50509050806040518060400160405280601981526020017f43616c6c6261636b20657865637574696f6e206661696c656400000000000000815250906106915760405162461bcd60e51b81526004016104da919061136a565b5061069d876003610f3d565b50505050505050565b604051806060016040528060388152602001611aba6038913981565b8060016040518060400160405280600c81526020016b151e081b9bdd08195e1a5cdd60a21b8152508161071e57610718838051602091820120600090815290819052604090206004015460ff6101009091041690565b15610747565b610747838051602091820120600090815290819052604090206004015460ff6101009091041690565b81906107665760405162461bcd60e51b81526004016104da919061136a565b5060008460405160200161077a9190611693565b60408051601f1981840301815291905280516020909101209050600160008281526020819052604090206004015460ff1660038111156107bc576107bc6116dd565b146040518060400160405280600e81526020016d496e76616c69642073746174757360901b815250906108025760405162461bcd60e51b81526004016104da919061136a565b506002546040517f2919b4860000000000000000000000000000000000000000000000000000000081526001600160a01b0390911690632919b4869061084c90889060040161136a565b600060405180830381600087803b15801561086657600080fd5b505af115801561087a573d6000803e3d6000fd5b50505050610889856002610f3d565b5050505050565b6001546040517f09865a48000000000000000000000000000000000000000000000000000000008152859185916001600160a01b03909116906309865a48906108df90859085906004016116af565b60206040518083038186803b1580156108f757600080fd5b505afa15801561090b573d6000803e3d6000fd5b505050506040513d601f19601f8201168201806040525081019061092f91906116f3565b6040518060400160405280601e81526020017f5b496e766f636174696f6e5d2043616e742061626c652066696e642069640000815250906109835760405162461bcd60e51b81526004016104da919061136a565b508660016040518060400160405280600c81526020016b151e081b9bdd08195e1a5cdd60a21b815250816109e0576109da838051602091820120600090815290819052604090206004015460ff6101009091041690565b15610a09565b610a09838051602091820120600090815290819052604090206004015460ff6101009091041690565b8190610a285760405162461bcd60e51b81526004016104da919061136a565b5060008a604051602001610a3c9190611693565b60408051601f1981840301815291815281516020928301206000818152808452919091208c51919350610a7892600190910191908d01906111c2565b506000818152602081815260409091208a51610a9c926002909201918c01906111c2565b506000818152602081815260409091206004810180547fffffffffffffffffffff0000000000000000000000000000000000000000ffff16620100006001600160a01b038c16021790558951610afa926005909201918b0190611246565b505050505050505050505050565b8060016040518060400160405280600c81526020016b151e081b9bdd08195e1a5cdd60a21b81525081610b6457610b5e838051602091820120600090815290819052604090206004015460ff6101009091041690565b15610b8d565b610b8d838051602091820120600090815290819052604090206004015460ff6101009091041690565b8190610bac5760405162461bcd60e51b81526004016104da919061136a565b50600084604051602001610bc09190611693565b60408051601f198184030181529082905280516020909101206002547fa075cd6b0000000000000000000000000000000000000000000000000000000083529092506001600160a01b03169063a075cd6b90610c2090889060040161136a565b600060405180830381600087803b158015610c3a57600080fd5b505af1158015610c4e573d6000803e3d6000fd5b505060018054600085815260208190526040808220905163a3d4cd6960e01b81529195508594506001600160a01b039092169263a3d4cd6992610c96929101906004016117f1565b60006040518083038186803b158015610cae57600080fd5b505afa158015610cc2573d6000803e3d6000fd5b505050506040513d6000823e601f3d908101601f19168201604052610cea9190810190611849565b6001805460008881526020819052604080822090517fd8d5796e000000000000000000000000000000000000000000000000000000008152969850939650946001600160a01b03909116935063d8d5796e92610d51928101916002909101906004016118d1565b60006040518083038186803b158015610d6957600080fd5b505afa158015610d7d573d6000803e3d6000fd5b505050506040513d6000823e601f3d908101601f19168201604052610da591908101906118f6565b50509050610db4886001610f3d565b6000848152602081905260409081902090517fa746535e248bd93beb7eb9f865e9c47a0c85162c7a914a8a1681c21595e0151491610dff918b91908790879087906005850190611956565b60405180910390a15050505050505050565b6040518060600160405280603a8152602001611af2603a913981565b604051806060016040528060218152602001611a996021913981565b604080518082018252601081527f547820616c7265616479206578697374000000000000000000000000000000006020808301919091528451858201206000908152908190529182206004015484929190610100900460ff16158190610ec25760405162461bcd60e51b81526004016104da919061136a565b50600085604051602001610ed69190611693565b60408051601f198184030181529181528151602092830120600081815280845291909120875191935091610f0e9183918901906111c2565b508651610f2490600383019060208a01906111c2565b50600401805461ffff1916610100179055505050505050565b8160016040518060400160405280600c81526020016b151e081b9bdd08195e1a5cdd60a21b81525081610f9957610f93838051602091820120600090815290819052604090206004015460ff6101009091041690565b15610fc2565b610fc2838051602091820120600090815290819052604090206004015460ff6101009091041690565b8190610fe15760405162461bcd60e51b81526004016104da919061136a565b50600085604051602001610ff59190611693565b604051602081830303815290604052805190602001209050846000148061104a575060008181526020819052604090206004015460ff16600381111561103d5761103d6116dd565b611048600187611a20565b145b6040518060400160405280600e81526020016d496e76616c69642073746174757360901b8152509061108f5760405162461bcd60e51b81526004016104da919061136a565b508460038111156110a2576110a26116dd565b6000828152602081905260409020600401805460ff191660018360038111156110cd576110cd6116dd565b021790555060018054600083815260208190526040808220905163a3d4cd6960e01b815291936001600160a01b039093169263a3d4cd699261111592909101906004016117f1565b60006040518083038186803b15801561112d57600080fd5b505afa158015611141573d6000803e3d6000fd5b505050506040513d6000823e601f3d908101601f191682016040526111699190810190611849565b925050507fad17d2607453ee20a628bd32d917bb644f44309b1bf9334aa0b1b3666f419479878760038111156111a1576111a16116dd565b836040516111b193929190611a45565b60405180910390a150505050505050565b8280546111ce90611715565b90600052602060002090601f0160209004810192826111f05760008555611236565b82601f1061120957805160ff1916838001178555611236565b82800160010185558215611236579182015b8281111561123657825182559160200191906001019061121b565b5061124292915061129f565b5090565b828054828255906000526020600020908101928215611293579160200282015b8281111561129357825180516112839184916020909101906111c2565b5091602001919060010190611266565b506112429291506112b4565b5b8082111561124257600081556001016112a0565b808211156112425760006112c882826112d1565b506001016112b4565b5080546112dd90611715565b6000825580601f106112ed575050565b601f01602090049060005260206000209081019061130b919061129f565b50565b60005b83811015611329578181015183820152602001611311565b83811115611338576000848401525b50505050565b6000815180845261135681602086016020860161130e565b601f01601f19169290920160200192915050565b60208152600061137d602083018461133e565b9392505050565b634e487b7160e01b600052604160045260246000fd5b604051601f8201601f1916810167ffffffffffffffff811182821017156113c3576113c3611384565b604052919050565b600067ffffffffffffffff8211156113e5576113e5611384565b50601f01601f191660200190565b600082601f83011261140457600080fd5b8135611417611412826113cb565b61139a565b81815284602083860101111561142c57600080fd5b816020850160208301376000918101602001919091529392505050565b6000806040838503121561145c57600080fd5b823567ffffffffffffffff8082111561147457600080fd5b611480868387016113f3565b9350602085013591508082111561149657600080fd5b506114a3858286016113f3565b9150509250929050565b6000602082840312156114bf57600080fd5b813567ffffffffffffffff8111156114d657600080fd5b6114e2848285016113f3565b949350505050565b6001600160a01b038116811461130b57600080fd5b803561150a816114ea565b919050565b600080600080600060a0868803121561152757600080fd5b853567ffffffffffffffff8082111561153f57600080fd5b61154b89838a016113f3565b965060209150818801358181111561156257600080fd5b61156e8a828b016113f3565b96505060408801358181111561158357600080fd5b61158f8a828b016113f3565b9550506060880135818111156115a457600080fd5b8801601f81018a136115b557600080fd5b8035828111156115c7576115c7611384565b8060051b6115d685820161139a565b918252828101850191858101908d8411156115f057600080fd5b86850192505b8383101561162c5782358681111561160e5760008081fd5b61161c8f89838901016113f3565b83525091860191908601906115f6565b80985050505050505050611642608087016114ff565b90509295509295909350565b6000806040838503121561166157600080fd5b823567ffffffffffffffff81111561167857600080fd5b611684858286016113f3565b95602094909401359450505050565b600082516116a581846020870161130e565b9190910192915050565b6040815260006116c2604083018561133e565b82810360208401526116d4818561133e565b95945050505050565b634e487b7160e01b600052602160045260246000fd5b60006020828403121561170557600080fd5b8151801515811461137d57600080fd5b600181811c9082168061172957607f821691505b6020821081141561174a57634e487b7160e01b600052602260045260246000fd5b50919050565b8054600090600181811c908083168061176a57607f831692505b602080841082141561178c57634e487b7160e01b600052602260045260246000fd5b8388528180156117a357600181146117b7576117e5565b60ff198616898301526040890196506117e5565b876000528160002060005b868110156117dd5781548b82018501529085019083016117c2565b8a0183019750505b50505050505092915050565b60208152600061137d6020830184611750565b600082601f83011261181557600080fd5b8151611823611412826113cb565b81815284602083860101111561183857600080fd5b6114e282602083016020870161130e565b60008060006060848603121561185e57600080fd5b835167ffffffffffffffff8082111561187657600080fd5b61188287838801611804565b9450602086015191508082111561189857600080fd5b6118a487838801611804565b935060408601519150808211156118ba57600080fd5b506118c786828701611804565b9150509250925092565b6040815260006118e46040830185611750565b82810360208401526116d48185611750565b60008060006060848603121561190b57600080fd5b835167ffffffffffffffff8082111561192357600080fd5b61192f87838801611804565b945060208601519150611941826114ea565b6040860151919350808211156118ba57600080fd5b60c08152600061196960c083018961133e565b60208382038185015261197c828a611750565b91508382036040850152611990828961133e565b915083820360608501526119a4828861133e565b915083820360808501526119b8828761133e565b915083820360a08501528185548084528284019150828160051b850101876000528360002060005b83811015611a0d57868303601f190185526119fb8383611750565b948601949250600191820191016119e0565b50909d9c50505050505050505050505050565b600082821015611a4057634e487b7160e01b600052601160045260246000fd5b500390565b606081526000611a58606083018661133e565b60048510611a7657634e487b7160e01b600052602160045260246000fd5b8460208401528281036040840152611a8e818561133e565b969550505050505056fe4c6f636b20616c72656164792065786973742061742074696d657374616d703a205b52656769737465725d20494420616c72656164792065786973742c20706c656173652073656e64206120646966666572656e74206f6e655b496e766f636174696f6e5d20494420616c72656164792065786973742c20706c656173652073656e64206120646966666572656e74206f6e65a2646970667358221220d54f74afaa646cbc7efb971d8a23650de28d53762890f226cf0db845f8daf1e864736f6c63430008090033",
  "immutableReferences": {},
  "source": "// SPDX-License-Identifier: GPL-3.0\npragma solidity >=0.7.0 <0.9.0;\n\nimport \"../resource/Register.sol\";\nimport \"../lock/LockManager.sol\";\n\ncontract PrimaryTransactionManager {\n\n    string constant public CALLBACK = \"_callback(string,bytes)\";\n\n    string constant public ERROR_REG_ID_NOT_FOUND = \"[Register] Cant able find id\";\n    string constant public ERROR_REG_ID_FOUND = \"[Register] ID already exist, please send a different one\";\n    string constant public ERROR_INO_ID_NOT_FOUND = \"[Invocation] Cant able find id\";\n    string constant public ERROR_INO_ID_FOUND = \"[Invocation] ID already exist, please send a different one\";\n    string constant public ERROR_LOCK_NOT_VALID = \"Lock is not valid\";\n    string constant public ERROR_LOCK_EXIST = \"Lock already exist at timestamp: \";\n    string constant public ERROR_LOCK_NOT_EXIST = \"Lock not exist\";\n    string constant public ERROR_TX_EXIST = \"Tx already exist\";\n    string constant public ERROR_TX_NOT_EXIST = \"Tx not exist\";\n    string constant public ERROR_INVALID_STATUS = \"Invalid status\";\n    string constant public ERROR_CALLBACK_FAILED = \"Callback execution failed\";\n\n    enum PrimaryTransactionStatusType{\n        PRIMARY_TRANSACTION_STARTED, // 0\n        PRIMARY_TRANSACTION_PREPARED, // 1\n        PRIMARY_TRANSACTION_COMMITTED, // 2\n        PRIMARY_TRANSACTION_FINISHED // 3\n    }\n\n    struct Transaction{\n        string primaryNetworkId;\n        string networkId;\n        string invocationId;\n        string txId;\n        // string txProof;\n        PrimaryTransactionStatusType status;\n        bool isValid;\n        address callerContract;\n        bytes[] args;\n    }\n\n    event PreparePrimaryTransaction(\n        string txId,\n        string primaryNetworkId,\n        string networkId,\n        string url,\n        string invocationId,\n        bytes[] args\n    );\n\n    event PrimaryTxStatus(\n        string txId,\n        PrimaryTransactionStatusType status,\n        string networkUrl\n    );\n\n    mapping(bytes32 => Transaction) transactions;\n    \n    Register register;\n    LockManager lockManager;\n\n    constructor(address _register, address _lockManager){\n        register = Register(_register);\n        lockManager = LockManager(_lockManager);\n    }\n\n    modifier checkInvocationID(string memory networkID, string memory id){\n        require(register.checkInvocationIDExist(networkID, id), ERROR_INO_ID_NOT_FOUND);\n        _;\n    }\n\n    modifier checkTx(string memory txId, bool ifExist, string memory errMsg){\n        require((ifExist) ? checkTxExist(txId): !checkTxExist(txId), errMsg);\n        _;\n    }\n\n    function checkTxExist(string memory txId) public view returns(bool){\n        bytes32 hash = keccak256(bytes(txId));\n        return transactions[hash].isValid;\n    }\n\n    function changeStatus(string memory txId, uint _status) \n        public checkTx(txId, true, ERROR_TX_NOT_EXIST){\n            bytes32 hash = keccak256(abi.encodePacked(txId));\n            require(_status == 0 || _status-1 == uint(transactions[hash].status), ERROR_INVALID_STATUS);\n            transactions[hash].status = PrimaryTransactionStatusType(_status);\n\n            (, , string memory networkUrl) = register.resolveNetwork(transactions[hash].networkId);\n            emit PrimaryTxStatus(txId, PrimaryTransactionStatusType(_status), networkUrl);\n    }\n\n    function startPrimaryTransaction(string memory txId, string memory primaryNetworkId)\n        external checkTx(txId, false, ERROR_TX_EXIST){\n            bytes32 hash = keccak256(abi.encodePacked(txId));\n            \n            Transaction storage tsx = transactions[hash];\n            tsx.primaryNetworkId = primaryNetworkId;\n            tsx.txId = txId;\n            tsx.isValid = true;\n            tsx.status = PrimaryTransactionStatusType.PRIMARY_TRANSACTION_STARTED;\n    }\n    \n    function registerNetworkTransaction(\n        string memory txId,\n        string memory networkId,\n        string memory invocationId,\n        bytes[] memory args,\n        address callerContract)\n        external checkInvocationID(networkId, invocationId) checkTx(txId, true, ERROR_TX_NOT_EXIST){\n            bytes32 hash = keccak256(abi.encodePacked(txId));\n            \n            transactions[hash].networkId = networkId;\n            transactions[hash].invocationId = invocationId;\n            transactions[hash].callerContract = callerContract;\n            transactions[hash].args = args;\n    }\n\n    function preparePrimaryTransaction(string memory txId)\n        external checkTx(txId, true, ERROR_TX_NOT_EXIST){\n        bytes32 hash = keccak256(abi.encodePacked(txId));\n            lockManager.putLock(txId);\n            \n            (string memory networkId, , string memory url) = register.resolveNetwork(transactions[hash].networkId);\n            \n            (string memory invocatonId, ,) = register.resolveInvocation(transactions[hash].networkId, transactions[hash].invocationId);\n            changeStatus(txId, 1);\n            emit PreparePrimaryTransaction(txId, transactions[hash].primaryNetworkId, networkId, url, invocatonId, transactions[hash].args);\n    }\n\n    function confirmPrimaryTransaction(string memory txId)\n        external checkTx(txId, true, ERROR_TX_NOT_EXIST){\n            bytes32 hash = keccak256(abi.encodePacked(txId));\n            require(transactions[hash].status == PrimaryTransactionStatusType.PRIMARY_TRANSACTION_PREPARED, ERROR_INVALID_STATUS);\n\n            lockManager.releaseLock(txId);\n            changeStatus(txId, 2);\n    }\n    function finishPrimaryTransaction(string memory txId, bytes memory data)external checkTx(txId, true, ERROR_TX_NOT_EXIST) {\n        bytes32 hash = keccak256(abi.encodePacked(txId));\n\n        (bool success, ) = transactions[hash].callerContract.call(abi.encodeWithSignature(CALLBACK, txId, data));\n        require(success, ERROR_CALLBACK_FAILED);\n        changeStatus(txId, 3);\n    }\n}",
  "sourcePath": "/Users/rxshri99/Projects/Research/sidecar-contract-kit/sidemesh-solidity/contracts/transaction/PrimaryTransactionManager.sol",
  "compiler": {
    "name": "solc",
    "version": "0.8.9+commit.e5eed63a.Emscripten.clang"
  },
  "schemaVersion": "3.4.16",
  "updatedAt": "2025-12-15T19:41:36.461Z",
  "devdoc": {
    "kind": "dev",
    "methods": {},
    "version": 1
  },
  "userdoc": {
    "kind": "user",
    "methods": {},
    "version": 1
  }
}