{
  "contractName": "PrimaryTransactionManager",
  "abi": [
    {
      "inputs": [
        {
          "internalType": "address",
          "name": "_register",
          "type": "address"
        },
        {
          "internalType": "address",
          "name": "_lockManager",
          "type": "address"
        }
      ],
      "stateMutability": "nonpayable",
      "type": "constructor"
    },
    {
      "anonymous": false,
      "inputs": [
        {
          "indexed": false,
          "internalType": "string",
          "name": "txId",
          "type": "string"
        },
        {
          "indexed": false,
          "internalType": "string",
          "name": "networkId",
          "type": "string"
        },
        {
          "indexed": false,
          "internalType": "string",
          "name": "invocatonId",
          "type": "string"
        },
        {
          "indexed": false,
          "internalType": "bytes",
          "name": "args",
          "type": "bytes"
        }
      ],
      "name": "PreparePrimaryTransaction",
      "type": "event"
    },
    {
      "anonymous": false,
      "inputs": [
        {
          "indexed": false,
          "internalType": "string",
          "name": "txId",
          "type": "string"
        },
        {
          "indexed": false,
          "internalType": "enum PrimaryTransactionManager.PrimaryTransactionStatusType",
          "name": "status",
          "type": "uint8"
        }
      ],
      "name": "PrimaryTxStatus",
      "type": "event"
    },
    {
      "inputs": [
        {
          "internalType": "string",
          "name": "txId",
          "type": "string"
        }
      ],
      "name": "checkTxExist",
      "outputs": [
        {
          "internalType": "bool",
          "name": "",
          "type": "bool"
        }
      ],
      "stateMutability": "view",
      "type": "function",
      "constant": true
    },
    {
      "inputs": [
        {
          "internalType": "string",
          "name": "txId",
          "type": "string"
        },
        {
          "internalType": "uint256",
          "name": "_status",
          "type": "uint256"
        }
      ],
      "name": "changeStatus",
      "outputs": [],
      "stateMutability": "nonpayable",
      "type": "function"
    },
    {
      "inputs": [
        {
          "internalType": "string",
          "name": "txId",
          "type": "string"
        }
      ],
      "name": "startPrimaryTransaction",
      "outputs": [],
      "stateMutability": "nonpayable",
      "type": "function"
    },
    {
      "inputs": [
        {
          "internalType": "string",
          "name": "txId",
          "type": "string"
        },
        {
          "internalType": "string",
          "name": "networkId",
          "type": "string"
        },
        {
          "internalType": "string",
          "name": "invocationId",
          "type": "string"
        },
        {
          "internalType": "bytes",
          "name": "args",
          "type": "bytes"
        }
      ],
      "name": "registerNetworkTransaction",
      "outputs": [],
      "stateMutability": "nonpayable",
      "type": "function"
    },
    {
      "inputs": [
        {
          "internalType": "string",
          "name": "txId",
          "type": "string"
        }
      ],
      "name": "preparePrimaryTransaction",
      "outputs": [],
      "stateMutability": "nonpayable",
      "type": "function"
    },
    {
      "inputs": [
        {
          "internalType": "string",
          "name": "txId",
          "type": "string"
        }
      ],
      "name": "confirmPrimaryTransaction",
      "outputs": [],
      "stateMutability": "nonpayable",
      "type": "function"
    }
  ],
  "bytecode": "0x608060405234801561001057600080fd5b5060405161133038038061133083398101604081905261002f9161007c565b600180546001600160a01b039384166001600160a01b031991821617909155600280549290931691161790556100af565b80516001600160a01b038116811461007757600080fd5b919050565b6000806040838503121561008f57600080fd5b61009883610060565b91506100a660208401610060565b90509250929050565b611272806100be6000396000f3fe608060405234801561001057600080fd5b50600436106100725760003560e01c8063821bf7b711610050578063821bf7b7146100e55780639ce27542146100f8578063f3bf64aa1461010b57600080fd5b80633cd58dc914610077578063515d400a1461008c57806369746cae1461009f575b600080fd5b61008a610085366004610c92565b61011e565b005b61008a61009a366004610ccf565b610309565b6100d16100ad366004610c92565b80516020918201206000908152908190526040902060030154610100900460ff1690565b604051901515815260200160405180910390f35b61008a6100f3366004610c92565b610588565b61008a610106366004610c92565b610664565b61008a610119366004610d90565b6109d4565b8060016040518060400160405280600c81526020016b151e081b9bdd08195e1a5cdd60a21b8152508161017a57610174838051602091820120600090815290819052604090206003015460ff6101009091041690565b156101a3565b6101a3838051602091820120600090815290819052604090206003015460ff6101009091041690565b81906101cb5760405162461bcd60e51b81526004016101c29190610e31565b60405180910390fd5b5060006101fc856040516020016101e29190610e44565b604051602081830303815290604052805160209091012090565b9050600360008281526020819052604090206003015460ff16600581111561022657610226610e60565b146040518060400160405280600e81526020017f496e76616c6964207374617475730000000000000000000000000000000000008152509061027b5760405162461bcd60e51b81526004016101c29190610e31565b506002546040517f2919b4860000000000000000000000000000000000000000000000000000000081526001600160a01b0390911690632919b486906102c5908890600401610e31565b600060405180830381600087803b1580156102df57600080fd5b505af11580156102f3573d6000803e3d6000fd5b505050506103028560046109d4565b5050505050565b6001546040517f09865a48000000000000000000000000000000000000000000000000000000008152849184916001600160a01b03909116906309865a48906103589085908590600401610e76565b60206040518083038186803b15801561037057600080fd5b505afa158015610384573d6000803e3d6000fd5b505050506040513d601f19601f820116820180604052508101906103a89190610ea4565b6040518060400160405280601e81526020017f5b496e766f636174696f6e5d2043616e742061626c652066696e642069640000815250906103fc5760405162461bcd60e51b81526004016101c29190610e31565b508560016040518060400160405280600c81526020016b151e081b9bdd08195e1a5cdd60a21b8152508161045957610453838051602091820120600090815290819052604090206003015460ff6101009091041690565b15610482565b610482838051602091820120600090815290819052604090206003015460ff6101009091041690565b81906104a15760405162461bcd60e51b81526004016101c29190610e31565b5060006104b88a6040516020016101e29190610e44565b6001546040517f5bdbb3ba0000000000000000000000000000000000000000000000000000000081529192506001600160a01b031690635bdbb3ba90610506908c908c908c90600401610ec6565b600060405180830381600087803b15801561052057600080fd5b505af1158015610534573d6000803e3d6000fd5b5050506000828152602081815260409091208b51610557935090918c0190610b25565b50600081815260208181526040909120895161057b926001909201918b0190610b25565b5050505050505050505050565b604080518082018252601081527f547820616c7265616479206578697374000000000000000000000000000000006020808301919091528351848201206000908152908190529182206003015483929190610100900460ff161581906106015760405162461bcd60e51b81526004016101c29190610e31565b506000610618856040516020016101e29190610e44565b60008181526020818152604090912087519293509161063f91600284019190890190610b25565b5060038101805461ffff191661010017905561065c8660006109d4565b505050505050565b8060016040518060400160405280600c81526020016b151e081b9bdd08195e1a5cdd60a21b815250816106c0576106ba838051602091820120600090815290819052604090206003015460ff6101009091041690565b156106e9565b6106e9838051602091820120600090815290819052604090206003015460ff6101009091041690565b81906107085760405162461bcd60e51b81526004016101c29190610e31565b50600061071f856040516020016101e29190610e44565b90506000808281526020819052604090206003015460ff16600581111561074857610748610e60565b146040518060400160405280600e81526020017f496e76616c6964207374617475730000000000000000000000000000000000008152509061079d5760405162461bcd60e51b81526004016101c29190610e31565b506002546040517fa075cd6b0000000000000000000000000000000000000000000000000000000081526001600160a01b039091169063a075cd6b906107e7908890600401610e31565b600060405180830381600087803b15801561080157600080fd5b505af1158015610815573d6000803e3d6000fd5b505060015460008481526020819052604080822090517fa3d4cd690000000000000000000000000000000000000000000000000000000081529194506001600160a01b03909216925063a3d4cd699161087091600401610fe4565b60006040518083038186803b15801561088857600080fd5b505afa15801561089c573d6000803e3d6000fd5b505050506040513d6000823e601f3d908101601f191682016040526108c49190810190611047565b50506001805460008581526020819052604080822090517fd8d5796e000000000000000000000000000000000000000000000000000000008152949550909384936001600160a01b039093169263d8d5796e926109289290918201906004016110cf565b60006040518083038186803b15801561094057600080fd5b505afa158015610954573d6000803e3d6000fd5b505050506040513d6000823e601f3d908101601f1916820160405261097c91908101906110f4565b9350505091507fd3ee7874787f2b74f87c69420d163bf5d750a9a313de1d7c501a4250b775927f888484846040516109b794939291906111a4565b60405180910390a16109ca8860016109d4565b5050505050505050565b8160016040518060400160405280600c81526020016b151e081b9bdd08195e1a5cdd60a21b81525081610a3057610a2a838051602091820120600090815290819052604090206003015460ff6101009091041690565b15610a59565b610a59838051602091820120600090815290819052604090206003015460ff6101009091041690565b8190610a785760405162461bcd60e51b81526004016101c29190610e31565b506000610a8f866040516020016101e29190610e44565b9050846005811115610aa357610aa3610e60565b6000828152602081905260409020600301805460ff19166001836005811115610ace57610ace610e60565b02179055507fab5bf21a52c91bd445cf90622dea947eedeafa67ab3bab10c8f567e9284fa3db86866005811115610b0757610b07610e60565b604051610b159291906111fc565b60405180910390a1505050505050565b828054610b3190610f09565b90600052602060002090601f016020900481019282610b535760008555610b99565b82601f10610b6c57805160ff1916838001178555610b99565b82800160010185558215610b99579182015b82811115610b99578251825591602001919060010190610b7e565b50610ba5929150610ba9565b5090565b5b80821115610ba55760008155600101610baa565b634e487b7160e01b600052604160045260246000fd5b604051601f8201601f1916810167ffffffffffffffff81118282101715610bfd57610bfd610bbe565b604052919050565b600067ffffffffffffffff821115610c1f57610c1f610bbe565b50601f01601f191660200190565b6000610c40610c3b84610c05565b610bd4565b9050828152838383011115610c5457600080fd5b828260208301376000602084830101529392505050565b600082601f830112610c7c57600080fd5b610c8b83833560208501610c2d565b9392505050565b600060208284031215610ca457600080fd5b813567ffffffffffffffff811115610cbb57600080fd5b610cc784828501610c6b565b949350505050565b60008060008060808587031215610ce557600080fd5b843567ffffffffffffffff80821115610cfd57600080fd5b610d0988838901610c6b565b95506020870135915080821115610d1f57600080fd5b610d2b88838901610c6b565b94506040870135915080821115610d4157600080fd5b610d4d88838901610c6b565b93506060870135915080821115610d6357600080fd5b508501601f81018713610d7557600080fd5b610d8487823560208401610c2d565b91505092959194509250565b60008060408385031215610da357600080fd5b823567ffffffffffffffff811115610dba57600080fd5b610dc685828601610c6b565b95602094909401359450505050565b60005b83811015610df0578181015183820152602001610dd8565b83811115610dff576000848401525b50505050565b60008151808452610e1d816020860160208601610dd5565b601f01601f19169290920160200192915050565b602081526000610c8b6020830184610e05565b60008251610e56818460208701610dd5565b9190910192915050565b634e487b7160e01b600052602160045260246000fd5b604081526000610e896040830185610e05565b8281036020840152610e9b8185610e05565b95945050505050565b600060208284031215610eb657600080fd5b81518015158114610c8b57600080fd5b606081526000610ed96060830186610e05565b8281036020840152610eeb8186610e05565b90508281036040840152610eff8185610e05565b9695505050505050565b600181811c90821680610f1d57607f821691505b60208210811415610f3e57634e487b7160e01b600052602260045260246000fd5b50919050565b8054600090600181811c9080831680610f5e57607f831692505b6020808410821415610f8057634e487b7160e01b600052602260045260246000fd5b83885260208801828015610f9b5760018114610fac57610fd7565b60ff19871682528282019750610fd7565b60008981526020902060005b87811015610fd157815484820152908601908401610fb8565b83019850505b5050505050505092915050565b602081526000610c8b6020830184610f44565b6000611005610c3b84610c05565b905082815283838301111561101957600080fd5b610c8b836020830184610dd5565b600082601f83011261103857600080fd5b610c8b83835160208501610ff7565b60008060006060848603121561105c57600080fd5b835167ffffffffffffffff8082111561107457600080fd5b61108087838801611027565b9450602086015191508082111561109657600080fd5b6110a287838801611027565b935060408601519150808211156110b857600080fd5b506110c586828701611027565b9150509250925092565b6040815260006110e26040830185610f44565b8281036020840152610e9b8185610f44565b6000806000806080858703121561110a57600080fd5b845167ffffffffffffffff8082111561112257600080fd5b61112e88838901611027565b9550602087015191506001600160a01b038216821461114c57600080fd5b60408701519194508082111561116157600080fd5b61116d88838901611027565b9350606087015191508082111561118357600080fd5b508501601f8101871361119557600080fd5b610d8487825160208401610ff7565b6080815260006111b76080830187610e05565b82810360208401526111c98187610e05565b905082810360408401526111dd8186610e05565b905082810360608401526111f18185610e05565b979650505050505050565b60408152600061120f6040830185610e05565b90506006831061122f57634e487b7160e01b600052602160045260246000fd5b826020830152939250505056fea26469706673582212203c47a8f91083410cb01cfd9f843060ccf5f2f911045367eed9a888a902fe12c564736f6c63430008090033",
  "immutableReferences": {},
  "source": "// SPDX-License-Identifier: GPL-3.0\npragma solidity >=0.7.0 <0.9.0;\n\nimport \"../lib/Utils.sol\";\nimport \"../lib/Constants.sol\";\n\nimport \"../resource/Register.sol\";\nimport \"../lock/LockManager.sol\";\n\ncontract PrimaryTransactionManager {\n\n    enum PrimaryTransactionStatusType{\n        PRIMARY_TRANSACTION_STARTED, // 0\n        PRIMARY_TRANSACTION_PREPARED, // 1\n        NETWORK_TRANSACTION_STARTED, // 2\n        NETWORK_TRANSACTION_PREPARED, // 3\n        PRIMARY_TRANSACTION_COMMITTED, // 4\n        NETWORK_TRANSACTION_COMMITTED // 5\n    }\n\n    struct Transaction{\n        string networkId;\n        string invocationId;\n        string txId;\n        // string txProof;\n        PrimaryTransactionStatusType status;\n        bool isValid;\n    }\n\n    event PreparePrimaryTransaction(\n        string txId,\n        string networkId,\n        string invocatonId,\n        bytes args\n    );\n\n    event PrimaryTxStatus(\n        string txId,\n        PrimaryTransactionStatusType status\n    );\n\n    mapping(bytes32 => Transaction) transactions;\n    \n    Register register;\n    LockManager lockManager;\n\n    constructor(address _register, address _lockManager){\n        register = Register(_register);\n        lockManager = LockManager(_lockManager);\n    }\n\n    modifier checkInvocationID(string memory networkID, string memory id){\n        require(register.checkInvocationIDExist(networkID, id), Constants.ERROR_INO_ID_NOT_FOUND);\n        _;\n    }\n\n    modifier checkTx(string memory txId, bool ifExist, string memory errMsg){\n        require((ifExist) ? checkTxExist(txId): !checkTxExist(txId), errMsg);\n        _;\n    }\n\n    function checkTxExist(string memory txId) public view returns(bool){\n        bytes32 hash = Utils.hash(bytes(txId));\n        return transactions[hash].isValid;\n    }\n\n    function changeStatus(string memory txId, uint _status) \n        public checkTx(txId, true, Constants.ERROR_TX_NOT_EXIST){\n            bytes32 hash = Utils.hash(abi.encodePacked(txId));\n            \n            transactions[hash].status = PrimaryTransactionStatusType(_status);\n            emit PrimaryTxStatus(txId, PrimaryTransactionStatusType(_status));\n    }\n\n    function startPrimaryTransaction(string memory txId)\n        external checkTx(txId, false, Constants.ERROR_TX_EXIST){\n            bytes32 hash = Utils.hash(abi.encodePacked(txId));\n            \n            Transaction storage tsx = transactions[hash];\n            tsx.txId = txId;\n            tsx.isValid = true;\n            tsx.status = PrimaryTransactionStatusType.PRIMARY_TRANSACTION_STARTED;\n            \n            changeStatus(txId, 0);\n    }\n    \n    function registerNetworkTransaction(\n        string memory txId,\n        string memory networkId,\n        string memory invocationId,\n        bytes memory args)\n        external checkInvocationID(networkId, invocationId) checkTx(txId, true, Constants.ERROR_TX_NOT_EXIST){\n            bytes32 hash = Utils.hash(abi.encodePacked(txId));\n            \n            register.addArgs(networkId, invocationId, args);\n\n            transactions[hash].networkId = networkId;\n            transactions[hash].invocationId = invocationId;\n    }\n\n    function preparePrimaryTransaction(string memory txId)\n        external checkTx(txId, true, Constants.ERROR_TX_NOT_EXIST){\n        bytes32 hash = Utils.hash(abi.encodePacked(txId));\n            require(transactions[hash].status == PrimaryTransactionStatusType.PRIMARY_TRANSACTION_STARTED, Constants.ERROR_INVALID_STATUS);\n\n            lockManager.putLock(txId);\n            \n            (string memory networkId, , ) = register.resolveNetwork(transactions[hash].networkId);\n            \n            (string memory invocatonId, , , bytes memory args) = register.resolveInvocation(transactions[hash].networkId, transactions[hash].invocationId);\n            \n            emit PreparePrimaryTransaction(txId, networkId, invocatonId, args);\n            \n            changeStatus(txId, 1);\n    }\n\n    function confirmPrimaryTransaction(string memory txId)\n        external checkTx(txId, true, Constants.ERROR_TX_NOT_EXIST){\n            bytes32 hash = Utils.hash(abi.encodePacked(txId));\n            require(transactions[hash].status == PrimaryTransactionStatusType.NETWORK_TRANSACTION_PREPARED, Constants.ERROR_INVALID_STATUS);\n\n            lockManager.releaseLock(txId);\n            changeStatus(txId, 4);\n    }\n}",
  "sourcePath": "/Users/shri99/WebProjects/sidecar-contract-kit/sidemesh-solidity/contracts/transaction/PrimaryTransactionManager.sol",
  "compiler": {
    "name": "solc",
    "version": "0.8.9+commit.e5eed63a.Emscripten.clang"
  },
  "schemaVersion": "3.4.11",
  "updatedAt": "2023-01-26T14:42:12.063Z",
  "networkType": "ethereum",
  "devdoc": {
    "kind": "dev",
    "methods": {},
    "version": 1
  },
  "userdoc": {
    "kind": "user",
    "methods": {},
    "version": 1
  }
}