{
  "contractName": "PrimaryTransactionManager",
  "abi": [
    {
      "inputs": [
        {
          "internalType": "address",
          "name": "_register",
          "type": "address"
        },
        {
          "internalType": "address",
          "name": "_lockManager",
          "type": "address"
        }
      ],
      "stateMutability": "nonpayable",
      "type": "constructor"
    },
    {
      "anonymous": false,
      "inputs": [
        {
          "indexed": false,
          "internalType": "string",
          "name": "txId",
          "type": "string"
        },
        {
          "indexed": false,
          "internalType": "string",
          "name": "primaryNetworkId",
          "type": "string"
        },
        {
          "indexed": false,
          "internalType": "string",
          "name": "networkId",
          "type": "string"
        },
        {
          "indexed": false,
          "internalType": "string",
          "name": "url",
          "type": "string"
        },
        {
          "indexed": false,
          "internalType": "string",
          "name": "invocatonId",
          "type": "string"
        },
        {
          "indexed": false,
          "internalType": "bytes",
          "name": "args",
          "type": "bytes"
        }
      ],
      "name": "PreparePrimaryTransaction",
      "type": "event"
    },
    {
      "anonymous": false,
      "inputs": [
        {
          "indexed": false,
          "internalType": "string",
          "name": "txId",
          "type": "string"
        },
        {
          "indexed": false,
          "internalType": "enum PrimaryTransactionManager.PrimaryTransactionStatusType",
          "name": "status",
          "type": "uint8"
        },
        {
          "indexed": false,
          "internalType": "string",
          "name": "networkUrl",
          "type": "string"
        }
      ],
      "name": "PrimaryTxStatus",
      "type": "event"
    },
    {
      "inputs": [
        {
          "internalType": "string",
          "name": "txId",
          "type": "string"
        }
      ],
      "name": "checkTxExist",
      "outputs": [
        {
          "internalType": "bool",
          "name": "",
          "type": "bool"
        }
      ],
      "stateMutability": "view",
      "type": "function",
      "constant": true
    },
    {
      "inputs": [
        {
          "internalType": "string",
          "name": "txId",
          "type": "string"
        },
        {
          "internalType": "uint256",
          "name": "_status",
          "type": "uint256"
        }
      ],
      "name": "changeStatus",
      "outputs": [],
      "stateMutability": "nonpayable",
      "type": "function"
    },
    {
      "inputs": [
        {
          "internalType": "string",
          "name": "txId",
          "type": "string"
        },
        {
          "internalType": "string",
          "name": "primaryNetworkId",
          "type": "string"
        }
      ],
      "name": "startPrimaryTransaction",
      "outputs": [],
      "stateMutability": "nonpayable",
      "type": "function"
    },
    {
      "inputs": [
        {
          "internalType": "string",
          "name": "txId",
          "type": "string"
        },
        {
          "internalType": "string",
          "name": "networkId",
          "type": "string"
        },
        {
          "internalType": "string",
          "name": "invocationId",
          "type": "string"
        },
        {
          "internalType": "bytes",
          "name": "args",
          "type": "bytes"
        }
      ],
      "name": "registerNetworkTransaction",
      "outputs": [],
      "stateMutability": "nonpayable",
      "type": "function"
    },
    {
      "inputs": [
        {
          "internalType": "string",
          "name": "txId",
          "type": "string"
        }
      ],
      "name": "preparePrimaryTransaction",
      "outputs": [],
      "stateMutability": "nonpayable",
      "type": "function"
    },
    {
      "inputs": [
        {
          "internalType": "string",
          "name": "txId",
          "type": "string"
        }
      ],
      "name": "confirmPrimaryTransaction",
      "outputs": [],
      "stateMutability": "nonpayable",
      "type": "function"
    }
  ],
  "bytecode": "0x608060405234801561001057600080fd5b5060405161151d38038061151d83398101604081905261002f9161007c565b600180546001600160a01b039384166001600160a01b031991821617909155600280549290931691161790556100af565b80516001600160a01b038116811461007757600080fd5b919050565b6000806040838503121561008f57600080fd5b61009883610060565b91506100a660208401610060565b90509250929050565b61145f806100be6000396000f3fe608060405234801561001057600080fd5b50600436106100725760003560e01c80639ce27542116100505780639ce27542146100e5578063c4abb091146100f8578063f3bf64aa1461010b57600080fd5b80633cd58dc914610077578063515d400a1461008c57806369746cae1461009f575b600080fd5b61008a610085366004610da3565b61011e565b005b61008a61009a366004610de0565b610309565b6100d16100ad366004610da3565b80516020918201206000908152908190526040902060040154610100900460ff1690565b604051901515815260200160405180910390f35b61008a6100f3366004610da3565b61058c565b61008a610106366004610ea1565b610902565b61008a610119366004610f05565b6109f2565b8060016040518060400160405280600c81526020016b151e081b9bdd08195e1a5cdd60a21b8152508161017a57610174838051602091820120600090815290819052604090206004015460ff6101009091041690565b156101a3565b6101a3838051602091820120600090815290819052604090206004015460ff6101009091041690565b81906101cb5760405162461bcd60e51b81526004016101c29190610fa6565b60405180910390fd5b5060006101fc856040516020016101e29190610fb9565b604051602081830303815290604052805160209091012090565b9050600360008281526020819052604090206004015460ff16600581111561022657610226610fd5565b146040518060400160405280600e81526020017f496e76616c6964207374617475730000000000000000000000000000000000008152509061027b5760405162461bcd60e51b81526004016101c29190610fa6565b506002546040517f2919b4860000000000000000000000000000000000000000000000000000000081526001600160a01b0390911690632919b486906102c5908890600401610fa6565b600060405180830381600087803b1580156102df57600080fd5b505af11580156102f3573d6000803e3d6000fd5b505050506103028560046109f2565b5050505050565b6001546040517f09865a48000000000000000000000000000000000000000000000000000000008152849184916001600160a01b03909116906309865a48906103589085908590600401610feb565b60206040518083038186803b15801561037057600080fd5b505afa158015610384573d6000803e3d6000fd5b505050506040513d601f19601f820116820180604052508101906103a89190611019565b6040518060400160405280601e81526020017f5b496e766f636174696f6e5d2043616e742061626c652066696e642069640000815250906103fc5760405162461bcd60e51b81526004016101c29190610fa6565b508560016040518060400160405280600c81526020016b151e081b9bdd08195e1a5cdd60a21b8152508161045957610453838051602091820120600090815290819052604090206004015460ff6101009091041690565b15610482565b610482838051602091820120600090815290819052604090206004015460ff6101009091041690565b81906104a15760405162461bcd60e51b81526004016101c29190610fa6565b5060006104b88a6040516020016101e29190610fb9565b6001546040517f5bdbb3ba0000000000000000000000000000000000000000000000000000000081529192506001600160a01b031690635bdbb3ba90610506908c908c908c9060040161103b565b600060405180830381600087803b15801561052057600080fd5b505af1158015610534573d6000803e3d6000fd5b5050506000828152602081815260409091208b5161055b93506001909101918c0190610c36565b50600081815260208181526040909120895161057f926002909201918b0190610c36565b5050505050505050505050565b8060016040518060400160405280600c81526020016b151e081b9bdd08195e1a5cdd60a21b815250816105e8576105e2838051602091820120600090815290819052604090206004015460ff6101009091041690565b15610611565b610611838051602091820120600090815290819052604090206004015460ff6101009091041690565b81906106305760405162461bcd60e51b81526004016101c29190610fa6565b506000610647856040516020016101e29190610fb9565b90506000808281526020819052604090206004015460ff16600581111561067057610670610fd5565b146040518060400160405280600e81526020017f496e76616c696420737461747573000000000000000000000000000000000000815250906106c55760405162461bcd60e51b81526004016101c29190610fa6565b506002546040517fa075cd6b0000000000000000000000000000000000000000000000000000000081526001600160a01b039091169063a075cd6b9061070f908890600401610fa6565b600060405180830381600087803b15801561072957600080fd5b505af115801561073d573d6000803e3d6000fd5b505060018054600085815260208190526040808220905163a3d4cd6960e01b81529195508594506001600160a01b039092169263a3d4cd699261078592910190600401611159565b60006040518083038186803b15801561079d57600080fd5b505afa1580156107b1573d6000803e3d6000fd5b505050506040513d6000823e601f3d908101601f191682016040526107d991908101906111bc565b6001805460008881526020819052604080822090517fd8d5796e000000000000000000000000000000000000000000000000000000008152969850939650948594506001600160a01b039091169263d8d5796e92610841929082019160020190600401611244565b60006040518083038186803b15801561085957600080fd5b505afa15801561086d573d6000803e3d6000fd5b505050506040513d6000823e601f3d908101601f191682016040526108959190810190611269565b6000898152602081905260409081902090519496509094507f1c4151160cdef7c7ad3bae8cc4bd48b96db72e163488a386cc1debb8d206a9c7936108e493508d92508890889088908890611319565b60405180910390a16108f78960016109f2565b505050505050505050565b604080518082018252601081527f547820616c7265616479206578697374000000000000000000000000000000006020808301919091528451858201206000908152908190529182206004015484929190610100900460ff1615819061097b5760405162461bcd60e51b81526004016101c29190610fa6565b506000610992866040516020016101e29190610fb9565b6000818152602081815260409091208751929350916109b691839190890190610c36565b5086516109cc90600383019060208a0190610c36565b5060048101805461ffff19166101001790556109e98760006109f2565b50505050505050565b8160016040518060400160405280600c81526020016b151e081b9bdd08195e1a5cdd60a21b81525081610a4e57610a48838051602091820120600090815290819052604090206004015460ff6101009091041690565b15610a77565b610a77838051602091820120600090815290819052604090206004015460ff6101009091041690565b8190610a965760405162461bcd60e51b81526004016101c29190610fa6565b506000610aad866040516020016101e29190610fb9565b9050846005811115610ac157610ac1610fd5565b6000828152602081905260409020600401805460ff19166001836005811115610aec57610aec610fd5565b021790555084610b45577fad17d2607453ee20a628bd32d917bb644f44309b1bf9334aa0b1b3666f41947986866005811115610b2a57610b2a610fd5565b604051610b389291906113bd565b60405180910390a1610c2e565b60018054600083815260208190526040808220905163a3d4cd6960e01b815291936001600160a01b039093169263a3d4cd6992610b889290910190600401611159565b60006040518083038186803b158015610ba057600080fd5b505afa158015610bb4573d6000803e3d6000fd5b505050506040513d6000823e601f3d908101601f19168201604052610bdc91908101906111bc565b925050507fad17d2607453ee20a628bd32d917bb644f44309b1bf9334aa0b1b3666f41947987876005811115610c1457610c14610fd5565b83604051610c24939291906113f7565b60405180910390a1505b505050505050565b828054610c429061107e565b90600052602060002090601f016020900481019282610c645760008555610caa565b82601f10610c7d57805160ff1916838001178555610caa565b82800160010185558215610caa579182015b82811115610caa578251825591602001919060010190610c8f565b50610cb6929150610cba565b5090565b5b80821115610cb65760008155600101610cbb565b634e487b7160e01b600052604160045260246000fd5b604051601f8201601f1916810167ffffffffffffffff81118282101715610d0e57610d0e610ccf565b604052919050565b600067ffffffffffffffff821115610d3057610d30610ccf565b50601f01601f191660200190565b6000610d51610d4c84610d16565b610ce5565b9050828152838383011115610d6557600080fd5b828260208301376000602084830101529392505050565b600082601f830112610d8d57600080fd5b610d9c83833560208501610d3e565b9392505050565b600060208284031215610db557600080fd5b813567ffffffffffffffff811115610dcc57600080fd5b610dd884828501610d7c565b949350505050565b60008060008060808587031215610df657600080fd5b843567ffffffffffffffff80821115610e0e57600080fd5b610e1a88838901610d7c565b95506020870135915080821115610e3057600080fd5b610e3c88838901610d7c565b94506040870135915080821115610e5257600080fd5b610e5e88838901610d7c565b93506060870135915080821115610e7457600080fd5b508501601f81018713610e8657600080fd5b610e9587823560208401610d3e565b91505092959194509250565b60008060408385031215610eb457600080fd5b823567ffffffffffffffff80821115610ecc57600080fd5b610ed886838701610d7c565b93506020850135915080821115610eee57600080fd5b50610efb85828601610d7c565b9150509250929050565b60008060408385031215610f1857600080fd5b823567ffffffffffffffff811115610f2f57600080fd5b610f3b85828601610d7c565b95602094909401359450505050565b60005b83811015610f65578181015183820152602001610f4d565b83811115610f74576000848401525b50505050565b60008151808452610f92816020860160208601610f4a565b601f01601f19169290920160200192915050565b602081526000610d9c6020830184610f7a565b60008251610fcb818460208701610f4a565b9190910192915050565b634e487b7160e01b600052602160045260246000fd5b604081526000610ffe6040830185610f7a565b82810360208401526110108185610f7a565b95945050505050565b60006020828403121561102b57600080fd5b81518015158114610d9c57600080fd5b60608152600061104e6060830186610f7a565b82810360208401526110608186610f7a565b905082810360408401526110748185610f7a565b9695505050505050565b600181811c9082168061109257607f821691505b602082108114156110b357634e487b7160e01b600052602260045260246000fd5b50919050565b8054600090600181811c90808316806110d357607f831692505b60208084108214156110f557634e487b7160e01b600052602260045260246000fd5b8388526020880182801561111057600181146111215761114c565b60ff1987168252828201975061114c565b60008981526020902060005b878110156111465781548482015290860190840161112d565b83019850505b5050505050505092915050565b602081526000610d9c60208301846110b9565b600061117a610d4c84610d16565b905082815283838301111561118e57600080fd5b610d9c836020830184610f4a565b600082601f8301126111ad57600080fd5b610d9c8383516020850161116c565b6000806000606084860312156111d157600080fd5b835167ffffffffffffffff808211156111e957600080fd5b6111f58783880161119c565b9450602086015191508082111561120b57600080fd5b6112178783880161119c565b9350604086015191508082111561122d57600080fd5b5061123a8682870161119c565b9150509250925092565b60408152600061125760408301856110b9565b828103602084015261101081856110b9565b6000806000806080858703121561127f57600080fd5b845167ffffffffffffffff8082111561129757600080fd5b6112a38883890161119c565b9550602087015191506001600160a01b03821682146112c157600080fd5b6040870151919450808211156112d657600080fd5b6112e28883890161119c565b935060608701519150808211156112f857600080fd5b508501601f8101871361130a57600080fd5b610e958782516020840161116c565b60c08152600061132c60c0830189610f7a565b828103602084015261133e81896110b9565b905082810360408401526113528188610f7a565b905082810360608401526113668187610f7a565b9050828103608084015261137a8186610f7a565b905082810360a084015261138e8185610f7a565b9998505050505050505050565b600681106113b957634e487b7160e01b600052602160045260246000fd5b9052565b6060815260006113d06060830185610f7a565b6113dd602084018561139b565b828103604084015260008152602081019150509392505050565b60608152600061140a6060830186610f7a565b611417602084018661139b565b82810360408401526110748185610f7a56fea26469706673582212205e674a42884b6b6f03b6eede06834e9e40880dc9f19813f9a316d6e2a83963ca64736f6c63430008090033",
  "immutableReferences": {},
  "source": "// SPDX-License-Identifier: GPL-3.0\npragma solidity >=0.7.0 <0.9.0;\n\nimport \"../lib/Utils.sol\";\nimport \"../lib/Constants.sol\";\n\nimport \"../resource/Register.sol\";\nimport \"../lock/LockManager.sol\";\n\ncontract PrimaryTransactionManager {\n\n    enum PrimaryTransactionStatusType{\n        PRIMARY_TRANSACTION_STARTED, // 0\n        PRIMARY_TRANSACTION_PREPARED, // 1\n        NETWORK_TRANSACTION_STARTED, // 2\n        NETWORK_TRANSACTION_PREPARED, // 3\n        PRIMARY_TRANSACTION_COMMITTED, // 4\n        NETWORK_TRANSACTION_COMMITTED // 5\n    }\n\n    struct Transaction{\n        string primaryNetworkId;\n        string networkId;\n        string invocationId;\n        string txId;\n        // string txProof;\n        PrimaryTransactionStatusType status;\n        bool isValid;\n    }\n\n    event PreparePrimaryTransaction(\n        string txId,\n        string primaryNetworkId,\n        string networkId,\n        string url,\n        string invocatonId,\n        bytes args\n    );\n\n    event PrimaryTxStatus(\n        string txId,\n        PrimaryTransactionStatusType status,\n        string networkUrl\n    );\n\n    mapping(bytes32 => Transaction) transactions;\n    \n    Register register;\n    LockManager lockManager;\n\n    constructor(address _register, address _lockManager){\n        register = Register(_register);\n        lockManager = LockManager(_lockManager);\n    }\n\n    modifier checkInvocationID(string memory networkID, string memory id){\n        require(register.checkInvocationIDExist(networkID, id), Constants.ERROR_INO_ID_NOT_FOUND);\n        _;\n    }\n\n    modifier checkTx(string memory txId, bool ifExist, string memory errMsg){\n        require((ifExist) ? checkTxExist(txId): !checkTxExist(txId), errMsg);\n        _;\n    }\n\n    function checkTxExist(string memory txId) public view returns(bool){\n        bytes32 hash = Utils.hash(bytes(txId));\n        return transactions[hash].isValid;\n    }\n\n    function changeStatus(string memory txId, uint _status) \n        public checkTx(txId, true, Constants.ERROR_TX_NOT_EXIST){\n            bytes32 hash = Utils.hash(abi.encodePacked(txId));\n            \n            transactions[hash].status = PrimaryTransactionStatusType(_status);\n            if(_status == 0){\n                emit PrimaryTxStatus(txId, PrimaryTransactionStatusType(_status), \"\");\n            }else{\n                (, , string memory url) = register.resolveNetwork(transactions[hash].networkId);\n                emit PrimaryTxStatus(txId, PrimaryTransactionStatusType(_status), url);\n            }\n    }\n\n    function startPrimaryTransaction(string memory txId, string memory primaryNetworkId)\n        external checkTx(txId, false, Constants.ERROR_TX_EXIST){\n            bytes32 hash = Utils.hash(abi.encodePacked(txId));\n            \n            Transaction storage tsx = transactions[hash];\n            tsx.primaryNetworkId = primaryNetworkId;\n            tsx.txId = txId;\n            tsx.isValid = true;\n            tsx.status = PrimaryTransactionStatusType.PRIMARY_TRANSACTION_STARTED;\n            \n            changeStatus(txId, 0);\n    }\n    \n    function registerNetworkTransaction(\n        string memory txId,\n        string memory networkId,\n        string memory invocationId,\n        bytes memory args)\n        external checkInvocationID(networkId, invocationId) checkTx(txId, true, Constants.ERROR_TX_NOT_EXIST){\n            bytes32 hash = Utils.hash(abi.encodePacked(txId));\n            \n            register.addArgs(networkId, invocationId, args);\n\n            transactions[hash].networkId = networkId;\n            transactions[hash].invocationId = invocationId;\n    }\n\n    function preparePrimaryTransaction(string memory txId)\n        external checkTx(txId, true, Constants.ERROR_TX_NOT_EXIST){\n        bytes32 hash = Utils.hash(abi.encodePacked(txId));\n            require(transactions[hash].status == PrimaryTransactionStatusType.PRIMARY_TRANSACTION_STARTED, Constants.ERROR_INVALID_STATUS);\n\n            lockManager.putLock(txId);\n            \n            (string memory networkId, , string memory url) = register.resolveNetwork(transactions[hash].networkId);\n            \n            (string memory invocatonId, , , bytes memory args) = register.resolveInvocation(transactions[hash].networkId, transactions[hash].invocationId);\n            \n            emit PreparePrimaryTransaction(txId, transactions[hash].primaryNetworkId, networkId, url, invocatonId, args);\n            \n            changeStatus(txId, 1);\n    }\n\n    function confirmPrimaryTransaction(string memory txId)\n        external checkTx(txId, true, Constants.ERROR_TX_NOT_EXIST){\n            bytes32 hash = Utils.hash(abi.encodePacked(txId));\n            require(transactions[hash].status == PrimaryTransactionStatusType.NETWORK_TRANSACTION_PREPARED, Constants.ERROR_INVALID_STATUS);\n\n            lockManager.releaseLock(txId);\n            changeStatus(txId, 4);\n    }\n}",
  "sourcePath": "/home/rxshri99/WebProjects/sidecar-contract-kit/sidemesh-solidity/contracts/transaction/PrimaryTransactionManager.sol",
  "compiler": {
    "name": "solc",
    "version": "0.8.9+commit.e5eed63a.Emscripten.clang"
  },
  "schemaVersion": "3.4.11",
  "updatedAt": "2023-02-02T01:16:13.472Z",
  "networkType": "ethereum",
  "devdoc": {
    "kind": "dev",
    "methods": {},
    "version": 1
  },
  "userdoc": {
    "kind": "user",
    "methods": {},
    "version": 1
  }
}