{
  "contractName": "PrimaryTransactionManager",
  "abi": [
    {
      "inputs": [
        {
          "internalType": "address",
          "name": "_register",
          "type": "address"
        },
        {
          "internalType": "address",
          "name": "_lockManager",
          "type": "address"
        }
      ],
      "stateMutability": "nonpayable",
      "type": "constructor"
    },
    {
      "anonymous": false,
      "inputs": [
        {
          "indexed": false,
          "internalType": "string",
          "name": "txId",
          "type": "string"
        },
        {
          "indexed": false,
          "internalType": "string",
          "name": "primaryNetworkId",
          "type": "string"
        },
        {
          "indexed": false,
          "internalType": "string",
          "name": "networkId",
          "type": "string"
        },
        {
          "indexed": false,
          "internalType": "string",
          "name": "url",
          "type": "string"
        },
        {
          "indexed": false,
          "internalType": "string",
          "name": "invocationId",
          "type": "string"
        },
        {
          "indexed": false,
          "internalType": "bytes",
          "name": "args",
          "type": "bytes"
        }
      ],
      "name": "PreparePrimaryTransaction",
      "type": "event"
    },
    {
      "anonymous": false,
      "inputs": [
        {
          "indexed": false,
          "internalType": "string",
          "name": "txId",
          "type": "string"
        },
        {
          "indexed": false,
          "internalType": "enum PrimaryTransactionManager.PrimaryTransactionStatusType",
          "name": "status",
          "type": "uint8"
        },
        {
          "indexed": false,
          "internalType": "string",
          "name": "networkUrl",
          "type": "string"
        }
      ],
      "name": "PrimaryTxStatus",
      "type": "event"
    },
    {
      "inputs": [],
      "name": "ERROR_INO_ID_FOUND",
      "outputs": [
        {
          "internalType": "string",
          "name": "",
          "type": "string"
        }
      ],
      "stateMutability": "view",
      "type": "function"
    },
    {
      "inputs": [],
      "name": "ERROR_INO_ID_NOT_FOUND",
      "outputs": [
        {
          "internalType": "string",
          "name": "",
          "type": "string"
        }
      ],
      "stateMutability": "view",
      "type": "function"
    },
    {
      "inputs": [],
      "name": "ERROR_INVALID_STATUS",
      "outputs": [
        {
          "internalType": "string",
          "name": "",
          "type": "string"
        }
      ],
      "stateMutability": "view",
      "type": "function"
    },
    {
      "inputs": [],
      "name": "ERROR_LOCK_EXIST",
      "outputs": [
        {
          "internalType": "string",
          "name": "",
          "type": "string"
        }
      ],
      "stateMutability": "view",
      "type": "function"
    },
    {
      "inputs": [],
      "name": "ERROR_LOCK_NOT_EXIST",
      "outputs": [
        {
          "internalType": "string",
          "name": "",
          "type": "string"
        }
      ],
      "stateMutability": "view",
      "type": "function"
    },
    {
      "inputs": [],
      "name": "ERROR_LOCK_NOT_VALID",
      "outputs": [
        {
          "internalType": "string",
          "name": "",
          "type": "string"
        }
      ],
      "stateMutability": "view",
      "type": "function"
    },
    {
      "inputs": [],
      "name": "ERROR_REG_ID_FOUND",
      "outputs": [
        {
          "internalType": "string",
          "name": "",
          "type": "string"
        }
      ],
      "stateMutability": "view",
      "type": "function"
    },
    {
      "inputs": [],
      "name": "ERROR_REG_ID_NOT_FOUND",
      "outputs": [
        {
          "internalType": "string",
          "name": "",
          "type": "string"
        }
      ],
      "stateMutability": "view",
      "type": "function"
    },
    {
      "inputs": [],
      "name": "ERROR_TX_EXIST",
      "outputs": [
        {
          "internalType": "string",
          "name": "",
          "type": "string"
        }
      ],
      "stateMutability": "view",
      "type": "function"
    },
    {
      "inputs": [],
      "name": "ERROR_TX_NOT_EXIST",
      "outputs": [
        {
          "internalType": "string",
          "name": "",
          "type": "string"
        }
      ],
      "stateMutability": "view",
      "type": "function"
    },
    {
      "inputs": [
        {
          "internalType": "string",
          "name": "txId",
          "type": "string"
        }
      ],
      "name": "checkTxExist",
      "outputs": [
        {
          "internalType": "bool",
          "name": "",
          "type": "bool"
        }
      ],
      "stateMutability": "view",
      "type": "function"
    },
    {
      "inputs": [
        {
          "internalType": "string",
          "name": "txId",
          "type": "string"
        },
        {
          "internalType": "uint256",
          "name": "_status",
          "type": "uint256"
        }
      ],
      "name": "changeStatus",
      "outputs": [],
      "stateMutability": "nonpayable",
      "type": "function"
    },
    {
      "inputs": [
        {
          "internalType": "string",
          "name": "txId",
          "type": "string"
        },
        {
          "internalType": "string",
          "name": "primaryNetworkId",
          "type": "string"
        }
      ],
      "name": "startPrimaryTransaction",
      "outputs": [],
      "stateMutability": "nonpayable",
      "type": "function"
    },
    {
      "inputs": [
        {
          "internalType": "string",
          "name": "txId",
          "type": "string"
        },
        {
          "internalType": "string",
          "name": "networkId",
          "type": "string"
        },
        {
          "internalType": "string",
          "name": "invocationId",
          "type": "string"
        },
        {
          "internalType": "bytes",
          "name": "args",
          "type": "bytes"
        }
      ],
      "name": "registerNetworkTransaction",
      "outputs": [],
      "stateMutability": "nonpayable",
      "type": "function"
    },
    {
      "inputs": [
        {
          "internalType": "string",
          "name": "txId",
          "type": "string"
        }
      ],
      "name": "preparePrimaryTransaction",
      "outputs": [],
      "stateMutability": "nonpayable",
      "type": "function"
    },
    {
      "inputs": [
        {
          "internalType": "string",
          "name": "txId",
          "type": "string"
        }
      ],
      "name": "confirmPrimaryTransaction",
      "outputs": [],
      "stateMutability": "nonpayable",
      "type": "function"
    }
  ],
  "bytecode": "0x608060405234801561001057600080fd5b50604051620017c5380380620017c58339810160408190526100319161007e565b600180546001600160a01b039384166001600160a01b031991821617909155600280549290931691161790556100b1565b80516001600160a01b038116811461007957600080fd5b919050565b6000806040838503121561009157600080fd5b61009a83610062565b91506100a860208401610062565b90509250929050565b61170480620000c16000396000f3fe608060405234801561001057600080fd5b50600436106101005760003560e01c806383ebc8b411610097578063c4abb09111610066578063c4abb091146102cb578063c7fa89cb146102de578063e034eb2f1461030b578063f3bf64aa1461034757600080fd5b806383ebc8b41461026c5780639ce27542146102a8578063b916419c146102bb578063bab89cb1146102c357600080fd5b8063515d400a116100d3578063515d400a1461019f57806369746cae146101b25780636da0d921146101f457806380152de81461023057600080fd5b80630d000764146101055780631ea1238214610157578063232b60c91461015f5780633cd58dc91461018a575b600080fd5b6101416040518060400160405280600e81526020017f4c6f636b206e6f7420657869737400000000000000000000000000000000000081525081565b60405161014e9190610f82565b60405180910390f35b61014161035a565b6101416040518060400160405280600c81526020016b151e081b9bdd08195e1a5cdd60a21b81525081565b61019d610198366004611069565b610376565b005b61019d6101ad3660046110a6565b61054d565b6101e46101c0366004611069565b80516020918201206000908152908190526040902060040154610100900460ff1690565b604051901515815260200161014e565b6101416040518060400160405280601e81526020017f5b496e766f636174696f6e5d2043616e742061626c652066696e64206964000081525081565b6101416040518060400160405280601081526020017f547820616c72656164792065786973740000000000000000000000000000000081525081565b6101416040518060400160405280601181526020017f4c6f636b206973206e6f742076616c696400000000000000000000000000000081525081565b61019d6102b6366004611069565b6107e3565b610141610b5f565b610141610b7b565b61019d6102d9366004611167565b610b97565b6101416040518060400160405280600e81526020016d496e76616c69642073746174757360901b81525081565b6101416040518060400160405280601c81526020017f5b52656769737465725d2043616e742061626c652066696e642069640000000081525081565b61019d6103553660046111cb565b610c8b565b60405180606001604052806038815260200161165d6038913981565b8060016040518060400160405280600c81526020016b151e081b9bdd08195e1a5cdd60a21b815250816103d2576103cc838051602091820120600090815290819052604090206004015460ff6101009091041690565b156103fb565b6103fb838051602091820120600090815290819052604090206004015460ff6101009091041690565b81906104235760405162461bcd60e51b815260040161041a9190610f82565b60405180910390fd5b506000846040516020016104379190611210565b60408051601f1981840301815291905280516020909101209050600360008281526020819052604090206004015460ff1660058111156104795761047961122c565b146040518060400160405280600e81526020016d496e76616c69642073746174757360901b815250906104bf5760405162461bcd60e51b815260040161041a9190610f82565b506002546040517f2919b4860000000000000000000000000000000000000000000000000000000081526001600160a01b0390911690632919b48690610509908890600401610f82565b600060405180830381600087803b15801561052357600080fd5b505af1158015610537573d6000803e3d6000fd5b50505050610546856004610c8b565b5050505050565b6001546040517f09865a48000000000000000000000000000000000000000000000000000000008152849184916001600160a01b03909116906309865a489061059c9085908590600401611242565b60206040518083038186803b1580156105b457600080fd5b505afa1580156105c8573d6000803e3d6000fd5b505050506040513d601f19601f820116820180604052508101906105ec9190611270565b6040518060400160405280601e81526020017f5b496e766f636174696f6e5d2043616e742061626c652066696e642069640000815250906106405760405162461bcd60e51b815260040161041a9190610f82565b508560016040518060400160405280600c81526020016b151e081b9bdd08195e1a5cdd60a21b8152508161069d57610697838051602091820120600090815290819052604090206004015460ff6101009091041690565b156106c6565b6106c6838051602091820120600090815290819052604090206004015460ff6101009091041690565b81906106e55760405162461bcd60e51b815260040161041a9190610f82565b506000896040516020016106f99190611210565b60408051601f198184030181529082905280516020909101206001547f5bdbb3ba0000000000000000000000000000000000000000000000000000000083529092506001600160a01b031690635bdbb3ba9061075d908c908c908c90600401611292565b600060405180830381600087803b15801561077757600080fd5b505af115801561078b573d6000803e3d6000fd5b5050506000828152602081815260409091208b516107b293506001909101918c0190610e8d565b5060008181526020818152604090912089516107d6926002909201918b0190610e8d565b5050505050505050505050565b8060016040518060400160405280600c81526020016b151e081b9bdd08195e1a5cdd60a21b8152508161083f57610839838051602091820120600090815290819052604090206004015460ff6101009091041690565b15610868565b610868838051602091820120600090815290819052604090206004015460ff6101009091041690565b81906108875760405162461bcd60e51b815260040161041a9190610f82565b5060008460405160200161089b9190611210565b60408051601f19818403018152919052805160209091012090506000808281526020819052604090206004015460ff1660058111156108dc576108dc61122c565b146040518060400160405280600e81526020016d496e76616c69642073746174757360901b815250906109225760405162461bcd60e51b815260040161041a9190610f82565b506002546040517fa075cd6b0000000000000000000000000000000000000000000000000000000081526001600160a01b039091169063a075cd6b9061096c908890600401610f82565b600060405180830381600087803b15801561098657600080fd5b505af115801561099a573d6000803e3d6000fd5b505060018054600085815260208190526040808220905163a3d4cd6960e01b81529195508594506001600160a01b039092169263a3d4cd69926109e2929101906004016113b0565b60006040518083038186803b1580156109fa57600080fd5b505afa158015610a0e573d6000803e3d6000fd5b505050506040513d6000823e601f3d908101601f19168201604052610a369190810190611413565b6001805460008881526020819052604080822090517fd8d5796e000000000000000000000000000000000000000000000000000000008152969850939650948594506001600160a01b039091169263d8d5796e92610a9e92908201916002019060040161149b565b60006040518083038186803b158015610ab657600080fd5b505afa158015610aca573d6000803e3d6000fd5b505050506040513d6000823e601f3d908101601f19168201604052610af291908101906114c0565b6000898152602081905260409081902090519496509094507f1c4151160cdef7c7ad3bae8cc4bd48b96db72e163488a386cc1debb8d206a9c793610b4193508d92508890889088908890611570565b60405180910390a1610b54896001610c8b565b505050505050505050565b6040518060600160405280603a8152602001611695603a913981565b60405180606001604052806021815260200161163c6021913981565b604080518082018252601081527f547820616c7265616479206578697374000000000000000000000000000000006020808301919091528451858201206000908152908190529182206004015484929190610100900460ff16158190610c105760405162461bcd60e51b815260040161041a9190610f82565b50600085604051602001610c249190611210565b60408051601f198184030181529181528151602092830120600081815280845291909120875191935091610c5c918391890190610e8d565b508651610c7290600383019060208a0190610e8d565b50600401805461ffff1916610100179055505050505050565b8160016040518060400160405280600c81526020016b151e081b9bdd08195e1a5cdd60a21b81525081610ce757610ce1838051602091820120600090815290819052604090206004015460ff6101009091041690565b15610d10565b610d10838051602091820120600090815290819052604090206004015460ff6101009091041690565b8190610d2f5760405162461bcd60e51b815260040161041a9190610f82565b50600085604051602001610d439190611210565b604051602081830303815290604052805190602001209050846005811115610d6d57610d6d61122c565b6000828152602081905260409020600401805460ff19166001836005811115610d9857610d9861122c565b021790555060018054600083815260208190526040808220905163a3d4cd6960e01b815291936001600160a01b039093169263a3d4cd6992610de092909101906004016113b0565b60006040518083038186803b158015610df857600080fd5b505afa158015610e0c573d6000803e3d6000fd5b505050506040513d6000823e601f3d908101601f19168201604052610e349190810190611413565b925050507fad17d2607453ee20a628bd32d917bb644f44309b1bf9334aa0b1b3666f41947987876005811115610e6c57610e6c61122c565b83604051610e7c939291906115f2565b60405180910390a150505050505050565b828054610e99906112d5565b90600052602060002090601f016020900481019282610ebb5760008555610f01565b82601f10610ed457805160ff1916838001178555610f01565b82800160010185558215610f01579182015b82811115610f01578251825591602001919060010190610ee6565b50610f0d929150610f11565b5090565b5b80821115610f0d5760008155600101610f12565b60005b83811015610f41578181015183820152602001610f29565b83811115610f50576000848401525b50505050565b60008151808452610f6e816020860160208601610f26565b601f01601f19169290920160200192915050565b602081526000610f956020830184610f56565b9392505050565b634e487b7160e01b600052604160045260246000fd5b604051601f8201601f1916810167ffffffffffffffff81118282101715610fdb57610fdb610f9c565b604052919050565b600067ffffffffffffffff821115610ffd57610ffd610f9c565b50601f01601f191660200190565b600061101e61101984610fe3565b610fb2565b905082815283838301111561103257600080fd5b828260208301376000602084830101529392505050565b600082601f83011261105a57600080fd5b610f958383356020850161100b565b60006020828403121561107b57600080fd5b813567ffffffffffffffff81111561109257600080fd5b61109e84828501611049565b949350505050565b600080600080608085870312156110bc57600080fd5b843567ffffffffffffffff808211156110d457600080fd5b6110e088838901611049565b955060208701359150808211156110f657600080fd5b61110288838901611049565b9450604087013591508082111561111857600080fd5b61112488838901611049565b9350606087013591508082111561113a57600080fd5b508501601f8101871361114c57600080fd5b61115b8782356020840161100b565b91505092959194509250565b6000806040838503121561117a57600080fd5b823567ffffffffffffffff8082111561119257600080fd5b61119e86838701611049565b935060208501359150808211156111b457600080fd5b506111c185828601611049565b9150509250929050565b600080604083850312156111de57600080fd5b823567ffffffffffffffff8111156111f557600080fd5b61120185828601611049565b95602094909401359450505050565b60008251611222818460208701610f26565b9190910192915050565b634e487b7160e01b600052602160045260246000fd5b6040815260006112556040830185610f56565b82810360208401526112678185610f56565b95945050505050565b60006020828403121561128257600080fd5b81518015158114610f9557600080fd5b6060815260006112a56060830186610f56565b82810360208401526112b78186610f56565b905082810360408401526112cb8185610f56565b9695505050505050565b600181811c908216806112e957607f821691505b6020821081141561130a57634e487b7160e01b600052602260045260246000fd5b50919050565b8054600090600181811c908083168061132a57607f831692505b602080841082141561134c57634e487b7160e01b600052602260045260246000fd5b838852602088018280156113675760018114611378576113a3565b60ff198716825282820197506113a3565b60008981526020902060005b8781101561139d57815484820152908601908401611384565b83019850505b5050505050505092915050565b602081526000610f956020830184611310565b60006113d161101984610fe3565b90508281528383830111156113e557600080fd5b610f95836020830184610f26565b600082601f83011261140457600080fd5b610f95838351602085016113c3565b60008060006060848603121561142857600080fd5b835167ffffffffffffffff8082111561144057600080fd5b61144c878388016113f3565b9450602086015191508082111561146257600080fd5b61146e878388016113f3565b9350604086015191508082111561148457600080fd5b50611491868287016113f3565b9150509250925092565b6040815260006114ae6040830185611310565b82810360208401526112678185611310565b600080600080608085870312156114d657600080fd5b845167ffffffffffffffff808211156114ee57600080fd5b6114fa888389016113f3565b9550602087015191506001600160a01b038216821461151857600080fd5b60408701519194508082111561152d57600080fd5b611539888389016113f3565b9350606087015191508082111561154f57600080fd5b508501601f8101871361156157600080fd5b61115b878251602084016113c3565b60c08152600061158360c0830189610f56565b82810360208401526115958189611310565b905082810360408401526115a98188610f56565b905082810360608401526115bd8187610f56565b905082810360808401526115d18186610f56565b905082810360a08401526115e58185610f56565b9998505050505050505050565b6060815260006116056060830186610f56565b6006851061162357634e487b7160e01b600052602160045260246000fd5b84602084015282810360408401526112cb8185610f5656fe4c6f636b20616c72656164792065786973742061742074696d657374616d703a205b52656769737465725d20494420616c72656164792065786973742c20706c656173652073656e64206120646966666572656e74206f6e655b496e766f636174696f6e5d20494420616c72656164792065786973742c20706c656173652073656e64206120646966666572656e74206f6e65a26469706673582212208ce4b5f2589d19b26a02745edf6845bda457480b70a564cf68e9a7367a753c7464736f6c63430008090033",
  "immutableReferences": {},
  "source": "// SPDX-License-Identifier: GPL-3.0\npragma solidity >=0.7.0 <0.9.0;\n\nimport \"../resource/Register.sol\";\nimport \"../lock/LockManager.sol\";\n\ncontract PrimaryTransactionManager {\n\n    string constant public ERROR_REG_ID_NOT_FOUND = \"[Register] Cant able find id\";\n    string constant public ERROR_REG_ID_FOUND = \"[Register] ID already exist, please send a different one\";\n    string constant public ERROR_INO_ID_NOT_FOUND = \"[Invocation] Cant able find id\";\n    string constant public ERROR_INO_ID_FOUND = \"[Invocation] ID already exist, please send a different one\";\n    string constant public ERROR_LOCK_NOT_VALID = \"Lock is not valid\";\n    string constant public ERROR_LOCK_EXIST = \"Lock already exist at timestamp: \";\n    string constant public ERROR_LOCK_NOT_EXIST = \"Lock not exist\";\n    string constant public ERROR_TX_EXIST = \"Tx already exist\";\n    string constant public ERROR_TX_NOT_EXIST = \"Tx not exist\";\n    string constant public ERROR_INVALID_STATUS = \"Invalid status\";\n\n    enum PrimaryTransactionStatusType{\n        PRIMARY_TRANSACTION_STARTED, // 0\n        PRIMARY_TRANSACTION_PREPARED, // 1\n        NETWORK_TRANSACTION_STARTED, // 2\n        NETWORK_TRANSACTION_PREPARED, // 3\n        PRIMARY_TRANSACTION_COMMITTED, // 4\n        NETWORK_TRANSACTION_COMMITTED // 5\n    }\n\n    struct Transaction{\n        string primaryNetworkId;\n        string networkId;\n        string invocationId;\n        string txId;\n        // string txProof;\n        PrimaryTransactionStatusType status;\n        bool isValid;\n    }\n\n    event PreparePrimaryTransaction(\n        string txId,\n        string primaryNetworkId,\n        string networkId,\n        string url,\n        string invocationId,\n        bytes args\n    );\n\n    event PrimaryTxStatus(\n        string txId,\n        PrimaryTransactionStatusType status,\n        string networkUrl\n    );\n\n    mapping(bytes32 => Transaction) transactions;\n    \n    Register register;\n    LockManager lockManager;\n\n    constructor(address _register, address _lockManager){\n        register = Register(_register);\n        lockManager = LockManager(_lockManager);\n    }\n\n    modifier checkInvocationID(string memory networkID, string memory id){\n        require(register.checkInvocationIDExist(networkID, id), ERROR_INO_ID_NOT_FOUND);\n        _;\n    }\n\n    modifier checkTx(string memory txId, bool ifExist, string memory errMsg){\n        require((ifExist) ? checkTxExist(txId): !checkTxExist(txId), errMsg);\n        _;\n    }\n\n    function checkTxExist(string memory txId) public view returns(bool){\n        bytes32 hash = keccak256(bytes(txId));\n        return transactions[hash].isValid;\n    }\n\n    function changeStatus(string memory txId, uint _status) \n        public checkTx(txId, true, ERROR_TX_NOT_EXIST){\n            bytes32 hash = keccak256(abi.encodePacked(txId));\n            \n            transactions[hash].status = PrimaryTransactionStatusType(_status);\n\n            (, , string memory url) = register.resolveNetwork(transactions[hash].networkId);\n            emit PrimaryTxStatus(txId, PrimaryTransactionStatusType(_status), url);\n    }\n\n    function startPrimaryTransaction(string memory txId, string memory primaryNetworkId)\n        external checkTx(txId, false, ERROR_TX_EXIST){\n            bytes32 hash = keccak256(abi.encodePacked(txId));\n            \n            Transaction storage tsx = transactions[hash];\n            tsx.primaryNetworkId = primaryNetworkId;\n            tsx.txId = txId;\n            tsx.isValid = true;\n            tsx.status = PrimaryTransactionStatusType.PRIMARY_TRANSACTION_STARTED;\n    }\n    \n    function registerNetworkTransaction(\n        string memory txId,\n        string memory networkId,\n        string memory invocationId,\n        bytes memory args)\n        external checkInvocationID(networkId, invocationId) checkTx(txId, true, ERROR_TX_NOT_EXIST){\n            bytes32 hash = keccak256(abi.encodePacked(txId));\n            \n            register.addArgs(networkId, invocationId, args);\n\n            transactions[hash].networkId = networkId;\n            transactions[hash].invocationId = invocationId;\n    }\n\n    function preparePrimaryTransaction(string memory txId)\n        external checkTx(txId, true, ERROR_TX_NOT_EXIST){\n        bytes32 hash = keccak256(abi.encodePacked(txId));\n            require(transactions[hash].status == PrimaryTransactionStatusType.PRIMARY_TRANSACTION_STARTED, ERROR_INVALID_STATUS);\n\n            lockManager.putLock(txId);\n            \n            (string memory networkId, , string memory url) = register.resolveNetwork(transactions[hash].networkId);\n            \n            (string memory invocatonId, , , bytes memory args) = register.resolveInvocation(transactions[hash].networkId, transactions[hash].invocationId);\n            \n            emit PreparePrimaryTransaction(txId, transactions[hash].primaryNetworkId, networkId, url, invocatonId, args);\n            \n            changeStatus(txId, 1);\n    }\n\n    function confirmPrimaryTransaction(string memory txId)\n        external checkTx(txId, true, ERROR_TX_NOT_EXIST){\n            bytes32 hash = keccak256(abi.encodePacked(txId));\n            require(transactions[hash].status == PrimaryTransactionStatusType.NETWORK_TRANSACTION_PREPARED, ERROR_INVALID_STATUS);\n\n            lockManager.releaseLock(txId);\n            changeStatus(txId, 4);\n    }\n}",
  "sourcePath": "/Users/shri99/WebProjects/sidecar-contract-kit/sidemesh-solidity/contracts/transaction/PrimaryTransactionManager.sol",
  "compiler": {
    "name": "solc",
    "version": "0.8.9+commit.e5eed63a.Emscripten.clang"
  },
  "schemaVersion": "3.4.11",
  "updatedAt": "2023-07-05T23:32:12.004Z",
  "devdoc": {
    "kind": "dev",
    "methods": {},
    "version": 1
  },
  "userdoc": {
    "kind": "user",
    "methods": {},
    "version": 1
  }
}