{
  "contractName": "PrimaryTransactionManager",
  "abi": [
    {
      "inputs": [
        {
          "internalType": "address",
          "name": "_register",
          "type": "address"
        },
        {
          "internalType": "address",
          "name": "_lockManager",
          "type": "address"
        }
      ],
      "stateMutability": "nonpayable",
      "type": "constructor"
    },
    {
      "anonymous": false,
      "inputs": [
        {
          "indexed": false,
          "internalType": "string",
          "name": "txId",
          "type": "string"
        },
        {
          "indexed": false,
          "internalType": "string",
          "name": "primaryNetworkId",
          "type": "string"
        },
        {
          "indexed": false,
          "internalType": "string",
          "name": "networkId",
          "type": "string"
        },
        {
          "indexed": false,
          "internalType": "string",
          "name": "url",
          "type": "string"
        },
        {
          "indexed": false,
          "internalType": "string",
          "name": "invocationId",
          "type": "string"
        },
        {
          "indexed": false,
          "internalType": "bytes",
          "name": "args",
          "type": "bytes"
        }
      ],
      "name": "PreparePrimaryTransaction",
      "type": "event"
    },
    {
      "anonymous": false,
      "inputs": [
        {
          "indexed": false,
          "internalType": "string",
          "name": "txId",
          "type": "string"
        },
        {
          "indexed": false,
          "internalType": "enum PrimaryTransactionManager.PrimaryTransactionStatusType",
          "name": "status",
          "type": "uint8"
        },
        {
          "indexed": false,
          "internalType": "string",
          "name": "primaryNetworkUrl",
          "type": "string"
        },
        {
          "indexed": false,
          "internalType": "string",
          "name": "networkUrl",
          "type": "string"
        }
      ],
      "name": "PrimaryTxStatus",
      "type": "event"
    },
    {
      "inputs": [],
      "name": "CALLBACK",
      "outputs": [
        {
          "internalType": "string",
          "name": "",
          "type": "string"
        }
      ],
      "stateMutability": "view",
      "type": "function"
    },
    {
      "inputs": [],
      "name": "ERROR_CALLBACK_FAILED",
      "outputs": [
        {
          "internalType": "string",
          "name": "",
          "type": "string"
        }
      ],
      "stateMutability": "view",
      "type": "function"
    },
    {
      "inputs": [],
      "name": "ERROR_INO_ID_FOUND",
      "outputs": [
        {
          "internalType": "string",
          "name": "",
          "type": "string"
        }
      ],
      "stateMutability": "view",
      "type": "function"
    },
    {
      "inputs": [],
      "name": "ERROR_INO_ID_NOT_FOUND",
      "outputs": [
        {
          "internalType": "string",
          "name": "",
          "type": "string"
        }
      ],
      "stateMutability": "view",
      "type": "function"
    },
    {
      "inputs": [],
      "name": "ERROR_INVALID_STATUS",
      "outputs": [
        {
          "internalType": "string",
          "name": "",
          "type": "string"
        }
      ],
      "stateMutability": "view",
      "type": "function"
    },
    {
      "inputs": [],
      "name": "ERROR_LOCK_EXIST",
      "outputs": [
        {
          "internalType": "string",
          "name": "",
          "type": "string"
        }
      ],
      "stateMutability": "view",
      "type": "function"
    },
    {
      "inputs": [],
      "name": "ERROR_LOCK_NOT_EXIST",
      "outputs": [
        {
          "internalType": "string",
          "name": "",
          "type": "string"
        }
      ],
      "stateMutability": "view",
      "type": "function"
    },
    {
      "inputs": [],
      "name": "ERROR_LOCK_NOT_VALID",
      "outputs": [
        {
          "internalType": "string",
          "name": "",
          "type": "string"
        }
      ],
      "stateMutability": "view",
      "type": "function"
    },
    {
      "inputs": [],
      "name": "ERROR_REG_ID_FOUND",
      "outputs": [
        {
          "internalType": "string",
          "name": "",
          "type": "string"
        }
      ],
      "stateMutability": "view",
      "type": "function"
    },
    {
      "inputs": [],
      "name": "ERROR_REG_ID_NOT_FOUND",
      "outputs": [
        {
          "internalType": "string",
          "name": "",
          "type": "string"
        }
      ],
      "stateMutability": "view",
      "type": "function"
    },
    {
      "inputs": [],
      "name": "ERROR_TX_EXIST",
      "outputs": [
        {
          "internalType": "string",
          "name": "",
          "type": "string"
        }
      ],
      "stateMutability": "view",
      "type": "function"
    },
    {
      "inputs": [],
      "name": "ERROR_TX_NOT_EXIST",
      "outputs": [
        {
          "internalType": "string",
          "name": "",
          "type": "string"
        }
      ],
      "stateMutability": "view",
      "type": "function"
    },
    {
      "inputs": [
        {
          "internalType": "string",
          "name": "txId",
          "type": "string"
        }
      ],
      "name": "checkTxExist",
      "outputs": [
        {
          "internalType": "bool",
          "name": "",
          "type": "bool"
        }
      ],
      "stateMutability": "view",
      "type": "function"
    },
    {
      "inputs": [
        {
          "internalType": "string",
          "name": "txId",
          "type": "string"
        },
        {
          "internalType": "uint256",
          "name": "_status",
          "type": "uint256"
        }
      ],
      "name": "changeStatus",
      "outputs": [],
      "stateMutability": "nonpayable",
      "type": "function"
    },
    {
      "inputs": [
        {
          "internalType": "string",
          "name": "txId",
          "type": "string"
        },
        {
          "internalType": "string",
          "name": "primaryNetworkId",
          "type": "string"
        }
      ],
      "name": "startPrimaryTransaction",
      "outputs": [],
      "stateMutability": "nonpayable",
      "type": "function"
    },
    {
      "inputs": [
        {
          "internalType": "string",
          "name": "txId",
          "type": "string"
        },
        {
          "internalType": "string",
          "name": "networkId",
          "type": "string"
        },
        {
          "internalType": "string",
          "name": "invocationId",
          "type": "string"
        },
        {
          "internalType": "bytes",
          "name": "args",
          "type": "bytes"
        },
        {
          "internalType": "address",
          "name": "callerContract",
          "type": "address"
        }
      ],
      "name": "registerNetworkTransaction",
      "outputs": [],
      "stateMutability": "nonpayable",
      "type": "function"
    },
    {
      "inputs": [
        {
          "internalType": "string",
          "name": "txId",
          "type": "string"
        }
      ],
      "name": "preparePrimaryTransaction",
      "outputs": [],
      "stateMutability": "nonpayable",
      "type": "function"
    },
    {
      "inputs": [
        {
          "internalType": "string",
          "name": "txId",
          "type": "string"
        }
      ],
      "name": "confirmPrimaryTransaction",
      "outputs": [],
      "stateMutability": "nonpayable",
      "type": "function"
    },
    {
      "inputs": [
        {
          "internalType": "string",
          "name": "txId",
          "type": "string"
        },
        {
          "internalType": "bytes",
          "name": "data",
          "type": "bytes"
        }
      ],
      "name": "finishPrimaryTransaction",
      "outputs": [],
      "stateMutability": "nonpayable",
      "type": "function"
    }
  ],
  "bytecode": "0x60806040523480156200001157600080fd5b5060405162001cd138038062001cd1833981016040819052620000349162000083565b600180546001600160a01b039384166001600160a01b03199182161790915560028054929093169116179055620000bb565b80516001600160a01b03811681146200007e57600080fd5b919050565b600080604083850312156200009757600080fd5b620000a28362000066565b9150620000b26020840162000066565b90509250929050565b611c0680620000cb6000396000f3fe608060405234801561001057600080fd5b50600436106101515760003560e01c806383ebc8b4116100cd578063bab89cb111610081578063c7fa89cb11610066578063c7fa89cb146103ba578063e034eb2f146103e7578063f3bf64aa1461042357600080fd5b8063bab89cb11461039f578063c4abb091146103a757600080fd5b80639ce27542116100b25780639ce2754214610348578063b6d856e41461035b578063b916419c1461039757600080fd5b806383ebc8b4146102d05780639792fde11461030c57600080fd5b80633cd58dc9116101245780636c66f842116101095780636c66f842146102455780636da0d9211461025857806380152de81461029457600080fd5b80633cd58dc9146101f057806369746cae1461020357600080fd5b80630d000764146101565780630e76ba06146101a85780631ea12382146101bd578063232b60c9146101c5575b600080fd5b6101926040518060400160405280600e81526020017f4c6f636b206e6f7420657869737400000000000000000000000000000000000081525081565b60405161019f919061142f565b60405180910390f35b6101bb6101b636600461150e565b610436565b005b6101926106a6565b6101926040518060400160405280600c81526020016b151e081b9bdd08195e1a5cdd60a21b81525081565b6101bb6101fe366004611572565b6106c2565b610235610211366004611572565b80516020918201206000908152908190526040902060040154610100900460ff1690565b604051901515815260200161019f565b6101bb6102533660046115c7565b610890565b6101926040518060400160405280601e81526020017f5b496e766f636174696f6e5d2043616e742061626c652066696e64206964000081525081565b6101926040518060400160405280601081526020017f547820616c72656164792065786973740000000000000000000000000000000081525081565b6101926040518060400160405280601181526020017f4c6f636b206973206e6f742076616c696400000000000000000000000000000081525081565b6101926040518060400160405280601981526020017f43616c6c6261636b20657865637574696f6e206661696c65640000000000000081525081565b6101bb610356366004611572565b610b73565b6101926040518060400160405280601781526020017f5f63616c6c6261636b28737472696e672c62797465732900000000000000000081525081565b610192610eee565b610192610f0a565b6101bb6103b536600461150e565b610f26565b6101926040518060400160405280600e81526020016d496e76616c69642073746174757360901b81525081565b6101926040518060400160405280601c81526020017f5b52656769737465725d2043616e742061626c652066696e642069640000000081525081565b6101bb610431366004611689565b61101a565b8160016040518060400160405280600c81526020016b151e081b9bdd08195e1a5cdd60a21b815250816104925761048c838051602091820120600090815290819052604090206004015460ff6101009091041690565b156104bb565b6104bb838051602091820120600090815290819052604090206004015460ff6101009091041690565b81906104e35760405162461bcd60e51b81526004016104da919061142f565b60405180910390fd5b506000856040516020016104f791906116ce565b60408051808303601f1901815282825280516020918201206000818152808352838120600401548585018552601786527f5f63616c6c6261636b28737472696e672c6279746573290000000000000000009386019390935292519094509192620100009091046001600160a01b031691610577908a908a906024016116ea565b60408051601f198184030181529082905291610592916116ce565b60408051918290039091206020830180517bffffffffffffffffffffffffffffffffffffffffffffffffffffffff167fffffffff00000000000000000000000000000000000000000000000000000000909216919091179052516105f691906116ce565b6000604051808303816000865af19150503d8060008114610633576040519150601f19603f3d011682016040523d82523d6000602084013e610638565b606091505b50509050806040518060400160405280601981526020017f43616c6c6261636b20657865637574696f6e206661696c656400000000000000815250906106915760405162461bcd60e51b81526004016104da919061142f565b5061069d87600661101a565b50505050505050565b604051806060016040528060388152602001611b5f6038913981565b8060016040518060400160405280600c81526020016b151e081b9bdd08195e1a5cdd60a21b8152508161071e57610718838051602091820120600090815290819052604090206004015460ff6101009091041690565b15610747565b610747838051602091820120600090815290819052604090206004015460ff6101009091041690565b81906107665760405162461bcd60e51b81526004016104da919061142f565b5060008460405160200161077a91906116ce565b60408051601f1981840301815291905280516020909101209050600360008281526020819052604090206004015460ff1660068111156107bc576107bc611718565b146040518060400160405280600e81526020016d496e76616c69642073746174757360901b815250906108025760405162461bcd60e51b81526004016104da919061142f565b506002546040517f2919b4860000000000000000000000000000000000000000000000000000000081526001600160a01b0390911690632919b4869061084c90889060040161142f565b600060405180830381600087803b15801561086657600080fd5b505af115801561087a573d6000803e3d6000fd5b5050505061088985600461101a565b5050505050565b6001546040517f09865a48000000000000000000000000000000000000000000000000000000008152859185916001600160a01b03909116906309865a48906108df90859085906004016116ea565b60206040518083038186803b1580156108f757600080fd5b505afa15801561090b573d6000803e3d6000fd5b505050506040513d601f19601f8201168201806040525081019061092f919061172e565b6040518060400160405280601e81526020017f5b496e766f636174696f6e5d2043616e742061626c652066696e642069640000815250906109835760405162461bcd60e51b81526004016104da919061142f565b508660016040518060400160405280600c81526020016b151e081b9bdd08195e1a5cdd60a21b815250816109e0576109da838051602091820120600090815290819052604090206004015460ff6101009091041690565b15610a09565b610a09838051602091820120600090815290819052604090206004015460ff6101009091041690565b8190610a285760405162461bcd60e51b81526004016104da919061142f565b5060008a604051602001610a3c91906116ce565b60408051601f198184030181529082905280516020909101206001547f5bdbb3ba0000000000000000000000000000000000000000000000000000000083529092506001600160a01b031690635bdbb3ba90610aa0908d908d908d90600401611750565b600060405180830381600087803b158015610aba57600080fd5b505af1158015610ace573d6000803e3d6000fd5b5050506000828152602081815260409091208c51610af593506001909101918d019061133a565b506000818152602081815260409091208a51610b19926002909201918c019061133a565b50600090815260208190526040902060040180546001600160a01b0390971662010000027fffffffffffffffffffff0000000000000000000000000000000000000000ffff90971696909617909555505050505050505050565b8060016040518060400160405280600c81526020016b151e081b9bdd08195e1a5cdd60a21b81525081610bcf57610bc9838051602091820120600090815290819052604090206004015460ff6101009091041690565b15610bf8565b610bf8838051602091820120600090815290819052604090206004015460ff6101009091041690565b8190610c175760405162461bcd60e51b81526004016104da919061142f565b50600084604051602001610c2b91906116ce565b60408051601f19818403018152919052805160209091012090506000808281526020819052604090206004015460ff166006811115610c6c57610c6c611718565b146040518060400160405280600e81526020016d496e76616c69642073746174757360901b81525090610cb25760405162461bcd60e51b81526004016104da919061142f565b506002546040517fa075cd6b0000000000000000000000000000000000000000000000000000000081526001600160a01b039091169063a075cd6b90610cfc90889060040161142f565b600060405180830381600087803b158015610d1657600080fd5b505af1158015610d2a573d6000803e3d6000fd5b505060018054600085815260208190526040808220905163a3d4cd6960e01b81529195508594506001600160a01b039092169263a3d4cd6992610d729291019060040161186e565b60006040518083038186803b158015610d8a57600080fd5b505afa158015610d9e573d6000803e3d6000fd5b505050506040513d6000823e601f3d908101601f19168201604052610dc691908101906118d1565b6001805460008881526020819052604080822090517fd8d5796e000000000000000000000000000000000000000000000000000000008152969850939650948594506001600160a01b039091169263d8d5796e92610e2e929082019160020190600401611959565b60006040518083038186803b158015610e4657600080fd5b505afa158015610e5a573d6000803e3d6000fd5b505050506040513d6000823e601f3d908101601f19168201604052610e82919081019061197e565b935050509150610e9389600161101a565b6000858152602081905260409081902090517f1c4151160cdef7c7ad3bae8cc4bd48b96db72e163488a386cc1debb8d206a9c791610edb918c91908890889088908890611a2e565b60405180910390a1505050505050505050565b6040518060600160405280603a8152602001611b97603a913981565b604051806060016040528060218152602001611b3e6021913981565b604080518082018252601081527f547820616c7265616479206578697374000000000000000000000000000000006020808301919091528451858201206000908152908190529182206004015484929190610100900460ff16158190610f9f5760405162461bcd60e51b81526004016104da919061142f565b50600085604051602001610fb391906116ce565b60408051601f198184030181529181528151602092830120600081815280845291909120875191935091610feb91839189019061133a565b50865161100190600383019060208a019061133a565b50600401805461ffff1916610100179055505050505050565b8160016040518060400160405280600c81526020016b151e081b9bdd08195e1a5cdd60a21b8152508161107657611070838051602091820120600090815290819052604090206004015460ff6101009091041690565b1561109f565b61109f838051602091820120600090815290819052604090206004015460ff6101009091041690565b81906110be5760405162461bcd60e51b81526004016104da919061142f565b506000856040516020016110d291906116ce565b60405160208183030381529060405280519060200120905084600014158015611129575060008181526020819052604090206004015460ff16600681111561111c5761111c611718565b611127600187611ab0565b145b6040518060400160405280600e81526020016d496e76616c69642073746174757360901b8152509061116e5760405162461bcd60e51b81526004016104da919061142f565b5084600681111561118157611181611718565b6000828152602081905260409020600401805460ff191660018360068111156111ac576111ac611718565b0217905550600154600082815260208190526040808220905163a3d4cd6960e01b815291926001600160a01b03169163a3d4cd69916111ed9160040161186e565b60006040518083038186803b15801561120557600080fd5b505afa158015611219573d6000803e3d6000fd5b505050506040513d6000823e601f3d908101601f1916820160405261124191908101906118d1565b60018054600087815260208190526040808220905163a3d4cd6960e01b81529497509095506001600160a01b03909116935063a3d4cd699261128a92919091019060040161186e565b60006040518083038186803b1580156112a257600080fd5b505afa1580156112b6573d6000803e3d6000fd5b505050506040513d6000823e601f3d908101601f191682016040526112de91908101906118d1565b925050507f3125a3286d3a63169a6b5ac7c14bd0557c554d0694da69f05ca2f671bf01daeb8888600681111561131657611316611718565b84846040516113289493929190611ad5565b60405180910390a15050505050505050565b82805461134690611793565b90600052602060002090601f01602090048101928261136857600085556113ae565b82601f1061138157805160ff19168380011785556113ae565b828001600101855582156113ae579182015b828111156113ae578251825591602001919060010190611393565b506113ba9291506113be565b5090565b5b808211156113ba57600081556001016113bf565b60005b838110156113ee5781810151838201526020016113d6565b838111156113fd576000848401525b50505050565b6000815180845261141b8160208601602086016113d3565b601f01601f19169290920160200192915050565b6020815260006114426020830184611403565b9392505050565b634e487b7160e01b600052604160045260246000fd5b604051601f8201601f1916810167ffffffffffffffff8111828210171561148857611488611449565b604052919050565b600067ffffffffffffffff8211156114aa576114aa611449565b50601f01601f191660200190565b600082601f8301126114c957600080fd5b81356114dc6114d782611490565b61145f565b8181528460208386010111156114f157600080fd5b816020850160208301376000918101602001919091529392505050565b6000806040838503121561152157600080fd5b823567ffffffffffffffff8082111561153957600080fd5b611545868387016114b8565b9350602085013591508082111561155b57600080fd5b50611568858286016114b8565b9150509250929050565b60006020828403121561158457600080fd5b813567ffffffffffffffff81111561159b57600080fd5b6115a7848285016114b8565b949350505050565b6001600160a01b03811681146115c457600080fd5b50565b600080600080600060a086880312156115df57600080fd5b853567ffffffffffffffff808211156115f757600080fd5b61160389838a016114b8565b9650602088013591508082111561161957600080fd5b61162589838a016114b8565b9550604088013591508082111561163b57600080fd5b61164789838a016114b8565b9450606088013591508082111561165d57600080fd5b5061166a888289016114b8565b925050608086013561167b816115af565b809150509295509295909350565b6000806040838503121561169c57600080fd5b823567ffffffffffffffff8111156116b357600080fd5b6116bf858286016114b8565b95602094909401359450505050565b600082516116e08184602087016113d3565b9190910192915050565b6040815260006116fd6040830185611403565b828103602084015261170f8185611403565b95945050505050565b634e487b7160e01b600052602160045260246000fd5b60006020828403121561174057600080fd5b8151801515811461144257600080fd5b6060815260006117636060830186611403565b82810360208401526117758186611403565b905082810360408401526117898185611403565b9695505050505050565b600181811c908216806117a757607f821691505b602082108114156117c857634e487b7160e01b600052602260045260246000fd5b50919050565b8054600090600181811c90808316806117e857607f831692505b602080841082141561180a57634e487b7160e01b600052602260045260246000fd5b83885260208801828015611825576001811461183657611861565b60ff19871682528282019750611861565b60008981526020902060005b8781101561185b57815484820152908601908401611842565b83019850505b5050505050505092915050565b60208152600061144260208301846117ce565b600061188f6114d784611490565b90508281528383830111156118a357600080fd5b6114428360208301846113d3565b600082601f8301126118c257600080fd5b61144283835160208501611881565b6000806000606084860312156118e657600080fd5b835167ffffffffffffffff808211156118fe57600080fd5b61190a878388016118b1565b9450602086015191508082111561192057600080fd5b61192c878388016118b1565b9350604086015191508082111561194257600080fd5b5061194f868287016118b1565b9150509250925092565b60408152600061196c60408301856117ce565b828103602084015261170f81856117ce565b6000806000806080858703121561199457600080fd5b845167ffffffffffffffff808211156119ac57600080fd5b6119b8888389016118b1565b9550602087015191506119ca826115af565b6040870151919450808211156119df57600080fd5b6119eb888389016118b1565b93506060870151915080821115611a0157600080fd5b508501601f81018713611a1357600080fd5b611a2287825160208401611881565b91505092959194509250565b60c081526000611a4160c0830189611403565b8281036020840152611a5381896117ce565b90508281036040840152611a678188611403565b90508281036060840152611a7b8187611403565b90508281036080840152611a8f8186611403565b905082810360a0840152611aa38185611403565b9998505050505050505050565b600082821015611ad057634e487b7160e01b600052601160045260246000fd5b500390565b608081526000611ae86080830187611403565b60078610611b0657634e487b7160e01b600052602160045260246000fd5b8560208401528281036040840152611b1e8186611403565b90508281036060840152611b328185611403565b97965050505050505056fe4c6f636b20616c72656164792065786973742061742074696d657374616d703a205b52656769737465725d20494420616c72656164792065786973742c20706c656173652073656e64206120646966666572656e74206f6e655b496e766f636174696f6e5d20494420616c72656164792065786973742c20706c656173652073656e64206120646966666572656e74206f6e65a2646970667358221220c767409f351c0dceb1b99d36ee42530dca66083d5cdcc6e017a7c38d34533ed164736f6c63430008090033",
  "immutableReferences": {},
  "source": "// SPDX-License-Identifier: GPL-3.0\npragma solidity >=0.7.0 <0.9.0;\n\nimport \"../resource/Register.sol\";\nimport \"../lock/LockManager.sol\";\n\ncontract PrimaryTransactionManager {\n\n    string constant public CALLBACK = \"_callback(string,bytes)\";\n\n    string constant public ERROR_REG_ID_NOT_FOUND = \"[Register] Cant able find id\";\n    string constant public ERROR_REG_ID_FOUND = \"[Register] ID already exist, please send a different one\";\n    string constant public ERROR_INO_ID_NOT_FOUND = \"[Invocation] Cant able find id\";\n    string constant public ERROR_INO_ID_FOUND = \"[Invocation] ID already exist, please send a different one\";\n    string constant public ERROR_LOCK_NOT_VALID = \"Lock is not valid\";\n    string constant public ERROR_LOCK_EXIST = \"Lock already exist at timestamp: \";\n    string constant public ERROR_LOCK_NOT_EXIST = \"Lock not exist\";\n    string constant public ERROR_TX_EXIST = \"Tx already exist\";\n    string constant public ERROR_TX_NOT_EXIST = \"Tx not exist\";\n    string constant public ERROR_INVALID_STATUS = \"Invalid status\";\n    string constant public ERROR_CALLBACK_FAILED = \"Callback execution failed\";\n\n    enum PrimaryTransactionStatusType{\n        PRIMARY_TRANSACTION_STARTED, // 0\n        PRIMARY_TRANSACTION_PREPARED, // 1\n        NETWORK_TRANSACTION_STARTED, // 2\n        NETWORK_TRANSACTION_PREPARED, // 3\n        PRIMARY_TRANSACTION_COMMITTED, // 4\n        NETWORK_TRANSACTION_COMMITTED, // 5\n        PRIMARY_TRANSACTION_FINISHED // 6\n    }\n\n    struct Transaction{\n        string primaryNetworkId;\n        string networkId;\n        string invocationId;\n        string txId;\n        // string txProof;\n        PrimaryTransactionStatusType status;\n        bool isValid;\n        address callerContract;\n    }\n\n    event PreparePrimaryTransaction(\n        string txId,\n        string primaryNetworkId,\n        string networkId,\n        string url,\n        string invocationId,\n        bytes args\n    );\n\n    event PrimaryTxStatus(\n        string txId,\n        PrimaryTransactionStatusType status,\n        string primaryNetworkUrl,\n        string networkUrl\n    );\n\n    mapping(bytes32 => Transaction) transactions;\n    \n    Register register;\n    LockManager lockManager;\n\n    constructor(address _register, address _lockManager){\n        register = Register(_register);\n        lockManager = LockManager(_lockManager);\n    }\n\n    modifier checkInvocationID(string memory networkID, string memory id){\n        require(register.checkInvocationIDExist(networkID, id), ERROR_INO_ID_NOT_FOUND);\n        _;\n    }\n\n    modifier checkTx(string memory txId, bool ifExist, string memory errMsg){\n        require((ifExist) ? checkTxExist(txId): !checkTxExist(txId), errMsg);\n        _;\n    }\n\n    function checkTxExist(string memory txId) public view returns(bool){\n        bytes32 hash = keccak256(bytes(txId));\n        return transactions[hash].isValid;\n    }\n\n    function changeStatus(string memory txId, uint _status) \n        public checkTx(txId, true, ERROR_TX_NOT_EXIST){\n            bytes32 hash = keccak256(abi.encodePacked(txId));\n            require(_status != 0 && _status-1 == uint(transactions[hash].status), ERROR_INVALID_STATUS);\n            transactions[hash].status = PrimaryTransactionStatusType(_status);\n\n            (, , string memory primaryNetworkUrl) = register.resolveNetwork(transactions[hash].primaryNetworkId);\n            (, , string memory networkUrl) = register.resolveNetwork(transactions[hash].networkId);\n            emit PrimaryTxStatus(txId, PrimaryTransactionStatusType(_status), primaryNetworkUrl, networkUrl);\n    }\n\n    function startPrimaryTransaction(string memory txId, string memory primaryNetworkId)\n        external checkTx(txId, false, ERROR_TX_EXIST){\n            bytes32 hash = keccak256(abi.encodePacked(txId));\n            \n            Transaction storage tsx = transactions[hash];\n            tsx.primaryNetworkId = primaryNetworkId;\n            tsx.txId = txId;\n            tsx.isValid = true;\n            tsx.status = PrimaryTransactionStatusType.PRIMARY_TRANSACTION_STARTED;\n    }\n    \n    function registerNetworkTransaction(\n        string memory txId,\n        string memory networkId,\n        string memory invocationId,\n        bytes memory args,\n        address callerContract)\n        external checkInvocationID(networkId, invocationId) checkTx(txId, true, ERROR_TX_NOT_EXIST){\n            bytes32 hash = keccak256(abi.encodePacked(txId));\n            \n            register.addArgs(networkId, invocationId, args);\n\n            transactions[hash].networkId = networkId;\n            transactions[hash].invocationId = invocationId;\n            transactions[hash].callerContract = callerContract;\n    }\n\n    function preparePrimaryTransaction(string memory txId)\n        external checkTx(txId, true, ERROR_TX_NOT_EXIST){\n        bytes32 hash = keccak256(abi.encodePacked(txId));\n            require(transactions[hash].status == PrimaryTransactionStatusType.PRIMARY_TRANSACTION_STARTED, ERROR_INVALID_STATUS);\n\n            lockManager.putLock(txId);\n            \n            (string memory networkId, , string memory url) = register.resolveNetwork(transactions[hash].networkId);\n            \n            (string memory invocatonId, , , bytes memory args) = register.resolveInvocation(transactions[hash].networkId, transactions[hash].invocationId);\n            changeStatus(txId, 1);\n            emit PreparePrimaryTransaction(txId, transactions[hash].primaryNetworkId, networkId, url, invocatonId, args);\n    }\n\n    function confirmPrimaryTransaction(string memory txId)\n        external checkTx(txId, true, ERROR_TX_NOT_EXIST){\n            bytes32 hash = keccak256(abi.encodePacked(txId));\n            require(transactions[hash].status == PrimaryTransactionStatusType.NETWORK_TRANSACTION_PREPARED, ERROR_INVALID_STATUS);\n\n            lockManager.releaseLock(txId);\n            changeStatus(txId, 4);\n    }\n    function finishPrimaryTransaction(string memory txId, bytes memory data)external checkTx(txId, true, ERROR_TX_NOT_EXIST) {\n        bytes32 hash = keccak256(abi.encodePacked(txId));\n        // require(transactions[hash].status == PrimaryTransactionStatusType.NETWORK_TRANSACTION_COMMITTED, ERROR_INVALID_STATUS);\n\n        (bool success, ) = transactions[hash].callerContract.call(abi.encodeWithSignature(CALLBACK, txId, data));\n        require(success, ERROR_CALLBACK_FAILED);\n        changeStatus(txId, 6);\n    }\n}",
  "sourcePath": "/Users/shri99/WebProjects/sidecar-contract-kit/sidemesh-solidity/contracts/transaction/PrimaryTransactionManager.sol",
  "compiler": {
    "name": "solc",
    "version": "0.8.9+commit.e5eed63a.Emscripten.clang"
  },
  "schemaVersion": "3.4.11",
  "updatedAt": "2023-07-13T02:29:27.717Z",
  "devdoc": {
    "kind": "dev",
    "methods": {},
    "version": 1
  },
  "userdoc": {
    "kind": "user",
    "methods": {},
    "version": 1
  }
}