{
  "contractName": "Register",
  "abi": [
    {
      "anonymous": false,
      "inputs": [
        {
          "indexed": false,
          "internalType": "string",
          "name": "networkId",
          "type": "string"
        },
        {
          "indexed": false,
          "internalType": "string",
          "name": "id",
          "type": "string"
        },
        {
          "indexed": false,
          "internalType": "address",
          "name": "contractAddress",
          "type": "address"
        },
        {
          "indexed": false,
          "internalType": "string",
          "name": "functionSignature",
          "type": "string"
        }
      ],
      "name": "InvocationRegisteredEvent",
      "type": "event"
    },
    {
      "anonymous": false,
      "inputs": [
        {
          "indexed": false,
          "internalType": "string",
          "name": "id",
          "type": "string"
        },
        {
          "indexed": false,
          "internalType": "string",
          "name": "name",
          "type": "string"
        },
        {
          "indexed": false,
          "internalType": "string",
          "name": "url",
          "type": "string"
        }
      ],
      "name": "NetworkRegisteredEvent",
      "type": "event"
    },
    {
      "inputs": [],
      "name": "ERROR_INO_ID_FOUND",
      "outputs": [
        {
          "internalType": "string",
          "name": "",
          "type": "string"
        }
      ],
      "stateMutability": "view",
      "type": "function",
      "constant": true
    },
    {
      "inputs": [],
      "name": "ERROR_INO_ID_NOT_FOUND",
      "outputs": [
        {
          "internalType": "string",
          "name": "",
          "type": "string"
        }
      ],
      "stateMutability": "view",
      "type": "function",
      "constant": true
    },
    {
      "inputs": [],
      "name": "ERROR_INVALID_STATUS",
      "outputs": [
        {
          "internalType": "string",
          "name": "",
          "type": "string"
        }
      ],
      "stateMutability": "view",
      "type": "function",
      "constant": true
    },
    {
      "inputs": [],
      "name": "ERROR_LOCK_EXIST",
      "outputs": [
        {
          "internalType": "string",
          "name": "",
          "type": "string"
        }
      ],
      "stateMutability": "view",
      "type": "function",
      "constant": true
    },
    {
      "inputs": [],
      "name": "ERROR_LOCK_NOT_EXIST",
      "outputs": [
        {
          "internalType": "string",
          "name": "",
          "type": "string"
        }
      ],
      "stateMutability": "view",
      "type": "function",
      "constant": true
    },
    {
      "inputs": [],
      "name": "ERROR_LOCK_NOT_VALID",
      "outputs": [
        {
          "internalType": "string",
          "name": "",
          "type": "string"
        }
      ],
      "stateMutability": "view",
      "type": "function",
      "constant": true
    },
    {
      "inputs": [],
      "name": "ERROR_REG_ID_FOUND",
      "outputs": [
        {
          "internalType": "string",
          "name": "",
          "type": "string"
        }
      ],
      "stateMutability": "view",
      "type": "function",
      "constant": true
    },
    {
      "inputs": [],
      "name": "ERROR_REG_ID_NOT_FOUND",
      "outputs": [
        {
          "internalType": "string",
          "name": "",
          "type": "string"
        }
      ],
      "stateMutability": "view",
      "type": "function",
      "constant": true
    },
    {
      "inputs": [],
      "name": "ERROR_TX_EXIST",
      "outputs": [
        {
          "internalType": "string",
          "name": "",
          "type": "string"
        }
      ],
      "stateMutability": "view",
      "type": "function",
      "constant": true
    },
    {
      "inputs": [],
      "name": "ERROR_TX_NOT_EXIST",
      "outputs": [
        {
          "internalType": "string",
          "name": "",
          "type": "string"
        }
      ],
      "stateMutability": "view",
      "type": "function",
      "constant": true
    },
    {
      "inputs": [
        {
          "internalType": "string",
          "name": "id",
          "type": "string"
        }
      ],
      "name": "checkNetworkIDExist",
      "outputs": [
        {
          "internalType": "bool",
          "name": "",
          "type": "bool"
        }
      ],
      "stateMutability": "view",
      "type": "function",
      "constant": true
    },
    {
      "inputs": [
        {
          "internalType": "string",
          "name": "networkID",
          "type": "string"
        },
        {
          "internalType": "string",
          "name": "id",
          "type": "string"
        }
      ],
      "name": "checkInvocationIDExist",
      "outputs": [
        {
          "internalType": "bool",
          "name": "",
          "type": "bool"
        }
      ],
      "stateMutability": "view",
      "type": "function",
      "constant": true
    },
    {
      "inputs": [
        {
          "internalType": "string",
          "name": "id",
          "type": "string"
        },
        {
          "internalType": "string",
          "name": "name",
          "type": "string"
        },
        {
          "internalType": "string",
          "name": "url",
          "type": "string"
        }
      ],
      "name": "registerNetwork",
      "outputs": [],
      "stateMutability": "nonpayable",
      "type": "function"
    },
    {
      "inputs": [
        {
          "internalType": "string",
          "name": "id",
          "type": "string"
        }
      ],
      "name": "resolveNetwork",
      "outputs": [
        {
          "internalType": "string",
          "name": "",
          "type": "string"
        },
        {
          "internalType": "string",
          "name": "",
          "type": "string"
        },
        {
          "internalType": "string",
          "name": "",
          "type": "string"
        }
      ],
      "stateMutability": "view",
      "type": "function",
      "constant": true
    },
    {
      "inputs": [
        {
          "internalType": "string",
          "name": "networkId",
          "type": "string"
        },
        {
          "internalType": "string",
          "name": "id",
          "type": "string"
        },
        {
          "internalType": "address",
          "name": "contractAddress",
          "type": "address"
        },
        {
          "internalType": "string",
          "name": "functionSignature",
          "type": "string"
        }
      ],
      "name": "registerInvocation",
      "outputs": [],
      "stateMutability": "nonpayable",
      "type": "function"
    },
    {
      "inputs": [
        {
          "internalType": "string",
          "name": "networkId",
          "type": "string"
        },
        {
          "internalType": "string",
          "name": "id",
          "type": "string"
        }
      ],
      "name": "resolveInvocation",
      "outputs": [
        {
          "internalType": "string",
          "name": "",
          "type": "string"
        },
        {
          "internalType": "address",
          "name": "",
          "type": "address"
        },
        {
          "internalType": "string",
          "name": "",
          "type": "string"
        },
        {
          "internalType": "bytes",
          "name": "",
          "type": "bytes"
        }
      ],
      "stateMutability": "view",
      "type": "function",
      "constant": true
    },
    {
      "inputs": [
        {
          "internalType": "string",
          "name": "networkId",
          "type": "string"
        },
        {
          "internalType": "string",
          "name": "id",
          "type": "string"
        },
        {
          "internalType": "bytes",
          "name": "args",
          "type": "bytes"
        }
      ],
      "name": "addArgs",
      "outputs": [],
      "stateMutability": "nonpayable",
      "type": "function"
    }
  ],
  "bytecode": "0x608060405234801561001057600080fd5b5061144d806100206000396000f3fe608060405234801561001057600080fd5b506004361061011b5760003560e01c806383ebc8b4116100b2578063bab89cb111610081578063d8d5796e11610066578063d8d5796e14610332578063e034eb2f14610355578063f1dd783f1461039157600080fd5b8063bab89cb1146102ee578063c7fa89cb146102f657600080fd5b806383ebc8b414610275578063991b53bf146102b1578063a3d4cd69146102c4578063b916419c146102e657600080fd5b8063487b9127116100ee578063487b9127146101d55780635bdbb3ba146101ea5780636da0d921146101fd57806380152de81461023957600080fd5b806309865a48146101205780630d000764146101485780631ea1238214610191578063232b60c914610199575b600080fd5b61013361012e366004610ece565b6103be565b60405190151581526020015b60405180910390f35b6101846040518060400160405280600e81526020017f4c6f636b206e6f7420657869737400000000000000000000000000000000000081525081565b60405161013f9190610f7f565b6101846104af565b6101846040518060400160405280600c81526020017f5478206e6f74206578697374000000000000000000000000000000000000000081525081565b6101e86101e3366004610f92565b6104cb565b005b6101e86101f836600461103b565b610639565b6101846040518060400160405280601e81526020017f5b496e766f636174696f6e5d2043616e742061626c652066696e64206964000081525081565b6101846040518060400160405280601081526020017f547820616c72656164792065786973740000000000000000000000000000000081525081565b6101846040518060400160405280601181526020017f4c6f636b206973206e6f742076616c696400000000000000000000000000000081525081565b6101e86102bf3660046110d7565b6106fe565b6102d76102d2366004611155565b61083d565b60405161013f93929190611192565b610184610ac5565b610184610ae1565b6101846040518060400160405280600e81526020017f496e76616c69642073746174757300000000000000000000000000000000000081525081565b610345610340366004610ece565b610afd565b60405161013f94939291906111d5565b6101846040518060400160405280601c81526020017f5b52656769737465725d2043616e742061626c652066696e642069640000000081525081565b61013361039f366004611155565b8051602091820120600090815290819052604090206003015460ff1690565b60008260016040518060400160405280601c81526020017f5b52656769737465725d2043616e742061626c652066696e64206964000000008152508161042757610421838051602091820120600090815290819052604090206003015460ff1690565b1561044a565b61044a838051602091820120600090815290819052604090206003015460ff1690565b81906104725760405162461bcd60e51b81526004016104699190610f7f565b60405180910390fd5b508551602080880191909120865187830120600091825281835260408083209183526004918201909352919020015460ff16935050505092915050565b6040518060600160405280603881526020016113a66038913981565b838360006040518060600160405280603a81526020016113de603a9139816104fd576104f784846103be565b15610507565b61050784846103be565b81906105265760405162461bcd60e51b81526004016104699190610f7f565b5087516020808a0191909120885189830190812060008381528085526040808220838352600401909552939093208a51929392909161056791839190610d82565b506001810180547fffffffffffffffffffffffff0000000000000000000000000000000000000000166001600160a01b038b1617905587516105b290600283019060208b0190610d82565b506004818101805460ff1916600190811790915560008581526020818152604080832087845290940190528290209081015491517fc9e4bb6785f43b39e79da98960ed530842ae6ee3486f4b33d8fa34a75316253d92610624928f9290916001600160a01b0316906002830190611303565b60405180910390a15050505050505050505050565b828260016040518060400160405280601e81526020017f5b496e766f636174696f6e5d2043616e742061626c652066696e642069640000815250816106885761068284846103be565b15610692565b61069284846103be565b81906106b15760405162461bcd60e51b81526004016104699190610f7f565b50865160208089019190912087518883012060008281528084526040808220838352600401855290208851929391926106f2926003909201918a0190610d82565b50505050505050505050565b8260006040518060600160405280603881526020016113a6603891398161074857610742838051602091820120600090815290819052604090206003015460ff1690565b1561076b565b61076b838051602091820120600090815290819052604090206003015460ff1690565b819061078a5760405162461bcd60e51b81526004016104699190610f7f565b508551602080880191822060008181529182905260409091208851919290916107b4918391610d82565b5086516107ca90600183019060208a0190610d82565b5085516107e09060028301906020890190610d82565b5060038101805460ff191660019081179091556040517f6adbfdd56d9836eb2acaf9d4022a62b5d3d6a0a5c6e1189b8ea43d5373c6a4a69161082b918491820190600283019061134b565b60405180910390a15050505050505050565b60608060608360016040518060400160405280601c81526020017f5b52656769737465725d2043616e742061626c652066696e6420696400000000815250816108a9576108a3838051602091820120600090815290819052604090206003015460ff1690565b156108cc565b6108cc838051602091820120600090815290819052604090206003015460ff1690565b81906108eb5760405162461bcd60e51b81526004016104699190610f7f565b5086516020808901919091206000818152918290526040909120805460018201906002830190839061091c90611228565b80601f016020809104026020016040519081016040528092919081815260200182805461094890611228565b80156109955780601f1061096a57610100808354040283529160200191610995565b820191906000526020600020905b81548152906001019060200180831161097857829003601f168201915b505050505092508180546109a890611228565b80601f01602080910402602001604051908101604052809291908181526020018280546109d490611228565b8015610a215780601f106109f657610100808354040283529160200191610a21565b820191906000526020600020905b815481529060010190602001808311610a0457829003601f168201915b50505050509150808054610a3490611228565b80601f0160208091040260200160405190810160405280929190818152602001828054610a6090611228565b8015610aad5780601f10610a8257610100808354040283529160200191610aad565b820191906000526020600020905b815481529060010190602001808311610a9057829003601f168201915b50505050509050965096509650505050509193909250565b6040518060600160405280603a81526020016113de603a913981565b6040518060600160405280602181526020016113856021913981565b60606000606080858560016040518060400160405280601e81526020017f5b496e766f636174696f6e5d2043616e742061626c652066696e64206964000081525081610b5357610b4d84846103be565b15610b5d565b610b5d84846103be565b8190610b7c5760405162461bcd60e51b81526004016104699190610f7f565b5089516020808c01919091208a518b8301206000828152808452604080822083835260040190945292909220600181015481549293926001600160a01b0390911690600283019060038401908490610bd390611228565b80601f0160208091040260200160405190810160405280929190818152602001828054610bff90611228565b8015610c4c5780601f10610c2157610100808354040283529160200191610c4c565b820191906000526020600020905b815481529060010190602001808311610c2f57829003601f168201915b50505050509350818054610c5f90611228565b80601f0160208091040260200160405190810160405280929190818152602001828054610c8b90611228565b8015610cd85780601f10610cad57610100808354040283529160200191610cd8565b820191906000526020600020905b815481529060010190602001808311610cbb57829003601f168201915b50505050509150808054610ceb90611228565b80601f0160208091040260200160405190810160405280929190818152602001828054610d1790611228565b8015610d645780601f10610d3957610100808354040283529160200191610d64565b820191906000526020600020905b815481529060010190602001808311610d4757829003601f168201915b50505050509050995099509950995050505050505092959194509250565b828054610d8e90611228565b90600052602060002090601f016020900481019282610db05760008555610df6565b82601f10610dc957805160ff1916838001178555610df6565b82800160010185558215610df6579182015b82811115610df6578251825591602001919060010190610ddb565b50610e02929150610e06565b5090565b5b80821115610e025760008155600101610e07565b634e487b7160e01b600052604160045260246000fd5b600067ffffffffffffffff80841115610e4c57610e4c610e1b565b604051601f8501601f19908116603f01168101908282118183101715610e7457610e74610e1b565b81604052809350858152868686011115610e8d57600080fd5b858560208301376000602087830101525050509392505050565b600082601f830112610eb857600080fd5b610ec783833560208501610e31565b9392505050565b60008060408385031215610ee157600080fd5b823567ffffffffffffffff80821115610ef957600080fd5b610f0586838701610ea7565b93506020850135915080821115610f1b57600080fd5b50610f2885828601610ea7565b9150509250929050565b6000815180845260005b81811015610f5857602081850181015186830182015201610f3c565b81811115610f6a576000602083870101525b50601f01601f19169290920160200192915050565b602081526000610ec76020830184610f32565b60008060008060808587031215610fa857600080fd5b843567ffffffffffffffff80821115610fc057600080fd5b610fcc88838901610ea7565b95506020870135915080821115610fe257600080fd5b610fee88838901610ea7565b9450604087013591506001600160a01b038216821461100c57600080fd5b9092506060860135908082111561102257600080fd5b5061102f87828801610ea7565b91505092959194509250565b60008060006060848603121561105057600080fd5b833567ffffffffffffffff8082111561106857600080fd5b61107487838801610ea7565b9450602086013591508082111561108a57600080fd5b61109687838801610ea7565b935060408601359150808211156110ac57600080fd5b508401601f810186136110be57600080fd5b6110cd86823560208401610e31565b9150509250925092565b6000806000606084860312156110ec57600080fd5b833567ffffffffffffffff8082111561110457600080fd5b61111087838801610ea7565b9450602086013591508082111561112657600080fd5b61113287838801610ea7565b9350604086013591508082111561114857600080fd5b506110cd86828701610ea7565b60006020828403121561116757600080fd5b813567ffffffffffffffff81111561117e57600080fd5b61118a84828501610ea7565b949350505050565b6060815260006111a56060830186610f32565b82810360208401526111b78186610f32565b905082810360408401526111cb8185610f32565b9695505050505050565b6080815260006111e86080830187610f32565b6001600160a01b038616602084015282810360408401526112098186610f32565b9050828103606084015261121d8185610f32565b979650505050505050565b600181811c9082168061123c57607f821691505b6020821081141561125d57634e487b7160e01b600052602260045260246000fd5b50919050565b8054600090600181811c908083168061127d57607f831692505b602080841082141561129f57634e487b7160e01b600052602260045260246000fd5b838852602088018280156112ba57600181146112cb576112f6565b60ff198716825282820197506112f6565b60008981526020902060005b878110156112f0578154848201529086019084016112d7565b83019850505b5050505050505092915050565b6080815260006113166080830187610f32565b82810360208401526113288187611263565b90506001600160a01b0385166040840152828103606084015261121d8185611263565b60608152600061135e6060830186611263565b82810360208401526113708186611263565b905082810360408401526111cb818561126356fe4c6f636b20616c72656164792065786973742061742074696d657374616d703a205b52656769737465725d20494420616c72656164792065786973742c20706c656173652073656e64206120646966666572656e74206f6e655b496e766f636174696f6e5d20494420616c72656164792065786973742c20706c656173652073656e64206120646966666572656e74206f6e65a2646970667358221220912f024cd8ed78079c3419b3e9615b8109b76051ef0d4925712ca45683e5b21564736f6c63430008090033",
  "immutableReferences": {},
  "source": "// SPDX-License-Identifier: GPL-3.0\npragma solidity >=0.7.0 <0.9.0;\n\ncontract Register{\n    string constant public ERROR_REG_ID_NOT_FOUND = \"[Register] Cant able find id\";\n    string constant public ERROR_REG_ID_FOUND = \"[Register] ID already exist, please send a different one\";\n    string constant public ERROR_INO_ID_NOT_FOUND = \"[Invocation] Cant able find id\";\n    string constant public ERROR_INO_ID_FOUND = \"[Invocation] ID already exist, please send a different one\";\n    string constant public ERROR_LOCK_NOT_VALID = \"Lock is not valid\";\n    string constant public ERROR_LOCK_EXIST = \"Lock already exist at timestamp: \";\n    string constant public ERROR_LOCK_NOT_EXIST = \"Lock not exist\";\n    string constant public ERROR_TX_EXIST = \"Tx already exist\";\n    string constant public ERROR_TX_NOT_EXIST = \"Tx not exist\";\n    string constant public ERROR_INVALID_STATUS = \"Invalid status\";\n\n    struct Invocation{\n        string id;\n        address contractAddress;\n        string functionSignature;\n        bytes args;\n        bool isValid;\n    }\n\n    struct Network{\n        string id;\n        string name;\n        string url;\n        // uint chainid;\n        bool isValid;\n        mapping(bytes32 => Invocation) invocations;\n    }\n\n    event InvocationRegisteredEvent(\n        string networkId,\n        string id,\n        address contractAddress,\n        string functionSignature\n    );\n\n    event NetworkRegisteredEvent(\n        string id,\n        string name,\n        string url\n    );\n\n    mapping(bytes32 => Network) registeredNetworks;\n\n    modifier checkNetworkID(string memory id, bool ifExist, string memory errorMsg){\n        require((ifExist) ? checkNetworkIDExist(id) : !checkNetworkIDExist(id), errorMsg);\n        _;\n    }\n    function checkNetworkIDExist(string memory id)public view returns(bool){\n        bytes32 hash = keccak256(bytes(id));\n        return registeredNetworks[hash].isValid;\n    }\n    \n    modifier checkInvocationID(string memory networkID, string memory id, bool ifExist, string memory errorMsg){\n        require((ifExist) ? checkInvocationIDExist(networkID, id) : !checkInvocationIDExist(networkID, id), errorMsg);\n        _;\n    }\n\n    function checkInvocationIDExist(string memory networkID, string memory id) \n        checkNetworkID(networkID, true, ERROR_REG_ID_NOT_FOUND) public view returns(bool){\n            bytes32 networkHash = keccak256(bytes(networkID));\n            bytes32 hash = keccak256(bytes(id));\n            return registeredNetworks[networkHash].invocations[hash].isValid;\n    }\n\n    function registerNetwork(\n        string memory id,\n        string memory name,\n        string memory url\n        // uint chainid\n        )\n        checkNetworkID(id, false, ERROR_REG_ID_FOUND)\n        external {\n            bytes32 hash = keccak256(bytes(id));\n            \n            Network storage network = registeredNetworks[hash];\n            network.id = id;\n            network.name = name;\n            network.url = url;\n            // network.chainid = chainid;\n            network.isValid = true;\n\n            emit NetworkRegisteredEvent(\n                network.id,\n                network.name,\n                network.url\n                // network.chainid\n            );\n    }\n    \n    function resolveNetwork(string memory id)\n        external view\n        checkNetworkID(id, true, ERROR_REG_ID_NOT_FOUND)\n        returns(string memory, string memory, string memory){\n            bytes32 hash = keccak256(bytes(id));\n            return (\n                registeredNetworks[hash].id,\n                registeredNetworks[hash].name,\n                registeredNetworks[hash].url\n                // registeredNetworks[hash].chainid\n            );    \n    }\n\n    function registerInvocation(\n        string memory networkId,\n        string memory id,\n        address contractAddress,\n        string memory functionSignature\n        ) external checkInvocationID(networkId, id, false, ERROR_INO_ID_FOUND){\n            bytes32 hashNetworkID = keccak256(bytes(networkId));\n            bytes32 hash = keccak256(bytes(id));\n\n            Invocation storage invocation = registeredNetworks[hashNetworkID].invocations[hash];\n            invocation.id = id;\n            invocation.contractAddress = contractAddress;\n            invocation.functionSignature = functionSignature;\n            invocation.isValid = true;\n            \n            emit InvocationRegisteredEvent(\n                networkId,\n                registeredNetworks[hashNetworkID].invocations[hash].id,\n                registeredNetworks[hashNetworkID].invocations[hash].contractAddress,\n                registeredNetworks[hashNetworkID].invocations[hash].functionSignature\n            );\n    }\n\n    function resolveInvocation(string memory networkId, string memory id)\n        external view\n        checkInvocationID(networkId, id, true, ERROR_INO_ID_NOT_FOUND)\n        returns(string memory, address, string memory, bytes memory){\n            bytes32 hashNetworkID = keccak256(bytes(networkId));\n            bytes32 hash = keccak256(bytes(id));\n\n            return (\n                registeredNetworks[hashNetworkID].invocations[hash].id,\n                registeredNetworks[hashNetworkID].invocations[hash].contractAddress,\n                registeredNetworks[hashNetworkID].invocations[hash].functionSignature,\n                registeredNetworks[hashNetworkID].invocations[hash].args\n            );    \n    }\n\n    function addArgs(string memory networkId, string memory id, bytes memory args)\n        external  checkInvocationID(networkId, id, true, ERROR_INO_ID_NOT_FOUND){\n            bytes32 hashNetworkID = keccak256(bytes(networkId));\n            bytes32 hash = keccak256(bytes(id));\n\n            registeredNetworks[hashNetworkID].invocations[hash].args = args;\n    }\n}",
  "sourcePath": "/Users/shri99/WebProjects/sidecar-contract-kit/sidemesh-solidity/contracts/resource/Register.sol",
  "compiler": {
    "name": "solc",
    "version": "0.8.9+commit.e5eed63a.Emscripten.clang"
  },
  "schemaVersion": "3.4.11",
  "updatedAt": "2023-06-15T15:34:24.904Z",
  "networkType": "ethereum",
  "devdoc": {
    "kind": "dev",
    "methods": {},
    "version": 1
  },
  "userdoc": {
    "kind": "user",
    "methods": {},
    "version": 1
  }
}