{
  "contractName": "Register",
  "abi": [
    {
      "anonymous": false,
      "inputs": [
        {
          "indexed": false,
          "internalType": "string",
          "name": "networkId",
          "type": "string"
        },
        {
          "indexed": false,
          "internalType": "string",
          "name": "id",
          "type": "string"
        },
        {
          "indexed": false,
          "internalType": "address",
          "name": "contractAddress",
          "type": "address"
        },
        {
          "indexed": false,
          "internalType": "string",
          "name": "functionSignature",
          "type": "string"
        }
      ],
      "name": "InvocationRegisteredEvent",
      "type": "event"
    },
    {
      "anonymous": false,
      "inputs": [
        {
          "indexed": false,
          "internalType": "string",
          "name": "id",
          "type": "string"
        },
        {
          "indexed": false,
          "internalType": "string",
          "name": "name",
          "type": "string"
        },
        {
          "indexed": false,
          "internalType": "string",
          "name": "url",
          "type": "string"
        }
      ],
      "name": "NetworkRegisteredEvent",
      "type": "event"
    },
    {
      "inputs": [
        {
          "internalType": "string",
          "name": "id",
          "type": "string"
        }
      ],
      "name": "checkNetworkIDExist",
      "outputs": [
        {
          "internalType": "bool",
          "name": "",
          "type": "bool"
        }
      ],
      "stateMutability": "view",
      "type": "function",
      "constant": true
    },
    {
      "inputs": [
        {
          "internalType": "string",
          "name": "networkID",
          "type": "string"
        },
        {
          "internalType": "string",
          "name": "id",
          "type": "string"
        }
      ],
      "name": "checkInvocationIDExist",
      "outputs": [
        {
          "internalType": "bool",
          "name": "",
          "type": "bool"
        }
      ],
      "stateMutability": "view",
      "type": "function",
      "constant": true
    },
    {
      "inputs": [
        {
          "internalType": "string",
          "name": "id",
          "type": "string"
        },
        {
          "internalType": "string",
          "name": "name",
          "type": "string"
        },
        {
          "internalType": "string",
          "name": "url",
          "type": "string"
        }
      ],
      "name": "registerNetwork",
      "outputs": [],
      "stateMutability": "nonpayable",
      "type": "function"
    },
    {
      "inputs": [
        {
          "internalType": "string",
          "name": "id",
          "type": "string"
        }
      ],
      "name": "resolveNetwork",
      "outputs": [
        {
          "internalType": "string",
          "name": "",
          "type": "string"
        },
        {
          "internalType": "string",
          "name": "",
          "type": "string"
        },
        {
          "internalType": "string",
          "name": "",
          "type": "string"
        }
      ],
      "stateMutability": "view",
      "type": "function",
      "constant": true
    },
    {
      "inputs": [
        {
          "internalType": "string",
          "name": "networkId",
          "type": "string"
        },
        {
          "internalType": "string",
          "name": "id",
          "type": "string"
        },
        {
          "internalType": "address",
          "name": "contractAddress",
          "type": "address"
        },
        {
          "internalType": "string",
          "name": "functionSignature",
          "type": "string"
        }
      ],
      "name": "registerInvocation",
      "outputs": [],
      "stateMutability": "nonpayable",
      "type": "function"
    },
    {
      "inputs": [
        {
          "internalType": "string",
          "name": "networkId",
          "type": "string"
        },
        {
          "internalType": "string",
          "name": "id",
          "type": "string"
        }
      ],
      "name": "resolveInvocation",
      "outputs": [
        {
          "internalType": "string",
          "name": "",
          "type": "string"
        },
        {
          "internalType": "address",
          "name": "",
          "type": "address"
        },
        {
          "internalType": "string",
          "name": "",
          "type": "string"
        },
        {
          "internalType": "bytes",
          "name": "",
          "type": "bytes"
        }
      ],
      "stateMutability": "view",
      "type": "function",
      "constant": true
    },
    {
      "inputs": [
        {
          "internalType": "string",
          "name": "networkId",
          "type": "string"
        },
        {
          "internalType": "string",
          "name": "id",
          "type": "string"
        },
        {
          "internalType": "bytes",
          "name": "args",
          "type": "bytes"
        }
      ],
      "name": "addArgs",
      "outputs": [],
      "stateMutability": "nonpayable",
      "type": "function"
    }
  ],
  "bytecode": "0x608060405234801561001057600080fd5b50611171806100206000396000f3fe608060405234801561001057600080fd5b506004361061007d5760003560e01c8063991b53bf1161005b578063991b53bf146100d2578063a3d4cd69146100e5578063d8d5796e14610107578063f1dd783f1461012a57600080fd5b806309865a4814610082578063487b9127146100aa5780635bdbb3ba146100bf575b600080fd5b610095610090366004610c13565b610157565b60405190151581526020015b60405180910390f35b6100bd6100b8366004610c77565b610248565b005b6100bd6100cd366004610d20565b6103b6565b6100bd6100e0366004610dbc565b61047b565b6100f86100f3366004610e3a565b6105ba565b6040516100a193929190610ec4565b61011a610115366004610c13565b610842565b6040516100a19493929190610f07565b610095610138366004610e3a565b8051602091820120600090815290819052604090206003015460ff1690565b60008260016040518060400160405280601c81526020017f5b52656769737465725d2043616e742061626c652066696e6420696400000000815250816101c0576101ba838051602091820120600090815290819052604090206003015460ff1690565b156101e3565b6101e3838051602091820120600090815290819052604090206003015460ff1690565b819061020b5760405162461bcd60e51b81526004016102029190610f5a565b60405180910390fd5b50508451602095860120845194860194909420600094855284865260408086209186526004918201909652949093209093015460ff169392505050565b838360006040518060600160405280603a8152602001611102603a91398161027a576102748484610157565b15610284565b6102848484610157565b81906102a35760405162461bcd60e51b81526004016102029190610f5a565b5087516020808a0191909120885189830190812060008381528085526040808220838352600401909552939093208a5192939290916102e491839190610ac7565b506001810180547fffffffffffffffffffffffff0000000000000000000000000000000000000000166001600160a01b038b16179055875161032f90600283019060208b0190610ac7565b506004818101805460ff1916600190811790915560008581526020818152604080832087845290940190528290209081015491517fc9e4bb6785f43b39e79da98960ed530842ae6ee3486f4b33d8fa34a75316253d926103a1928f9290916001600160a01b0316906002830190611048565b60405180910390a15050505050505050505050565b828260016040518060400160405280601e81526020017f5b496e766f636174696f6e5d2043616e742061626c652066696e64206964000081525081610405576103ff8484610157565b1561040f565b61040f8484610157565b819061042e5760405162461bcd60e51b81526004016102029190610f5a565b508651602080890191909120875188830120600082815280845260408082208383526004018552902088519293919261046f926003909201918a0190610ac7565b50505050505050505050565b8260006040518060600160405280603881526020016110ca60389139816104c5576104bf838051602091820120600090815290819052604090206003015460ff1690565b156104e8565b6104e8838051602091820120600090815290819052604090206003015460ff1690565b81906105075760405162461bcd60e51b81526004016102029190610f5a565b50855160208088019182206000818152918290526040909120885191929091610531918391610ac7565b50865161054790600183019060208a0190610ac7565b50855161055d9060028301906020890190610ac7565b5060038101805460ff191660019081179091556040517f6adbfdd56d9836eb2acaf9d4022a62b5d3d6a0a5c6e1189b8ea43d5373c6a4a6916105a89184918201906002830190611090565b60405180910390a15050505050505050565b60608060608360016040518060400160405280601c81526020017f5b52656769737465725d2043616e742061626c652066696e64206964000000008152508161062657610620838051602091820120600090815290819052604090206003015460ff1690565b15610649565b610649838051602091820120600090815290819052604090206003015460ff1690565b81906106685760405162461bcd60e51b81526004016102029190610f5a565b5086516020808901919091206000818152918290526040909120805460018201906002830190839061069990610f6d565b80601f01602080910402602001604051908101604052809291908181526020018280546106c590610f6d565b80156107125780601f106106e757610100808354040283529160200191610712565b820191906000526020600020905b8154815290600101906020018083116106f557829003601f168201915b5050505050925081805461072590610f6d565b80601f016020809104026020016040519081016040528092919081815260200182805461075190610f6d565b801561079e5780601f106107735761010080835404028352916020019161079e565b820191906000526020600020905b81548152906001019060200180831161078157829003601f168201915b505050505091508080546107b190610f6d565b80601f01602080910402602001604051908101604052809291908181526020018280546107dd90610f6d565b801561082a5780601f106107ff5761010080835404028352916020019161082a565b820191906000526020600020905b81548152906001019060200180831161080d57829003601f168201915b50505050509050965096509650505050509193909250565b60606000606080858560016040518060400160405280601e81526020017f5b496e766f636174696f6e5d2043616e742061626c652066696e64206964000081525081610898576108928484610157565b156108a2565b6108a28484610157565b81906108c15760405162461bcd60e51b81526004016102029190610f5a565b5089516020808c01919091208a518b8301206000828152808452604080822083835260040190945292909220600181015481549293926001600160a01b039091169060028301906003840190849061091890610f6d565b80601f016020809104026020016040519081016040528092919081815260200182805461094490610f6d565b80156109915780601f1061096657610100808354040283529160200191610991565b820191906000526020600020905b81548152906001019060200180831161097457829003601f168201915b505050505093508180546109a490610f6d565b80601f01602080910402602001604051908101604052809291908181526020018280546109d090610f6d565b8015610a1d5780601f106109f257610100808354040283529160200191610a1d565b820191906000526020600020905b815481529060010190602001808311610a0057829003601f168201915b50505050509150808054610a3090610f6d565b80601f0160208091040260200160405190810160405280929190818152602001828054610a5c90610f6d565b8015610aa95780601f10610a7e57610100808354040283529160200191610aa9565b820191906000526020600020905b815481529060010190602001808311610a8c57829003601f168201915b50505050509050995099509950995050505050505092959194509250565b828054610ad390610f6d565b90600052602060002090601f016020900481019282610af55760008555610b3b565b82601f10610b0e57805160ff1916838001178555610b3b565b82800160010185558215610b3b579182015b82811115610b3b578251825591602001919060010190610b20565b50610b47929150610b4b565b5090565b5b80821115610b475760008155600101610b4c565b634e487b7160e01b600052604160045260246000fd5b600067ffffffffffffffff80841115610b9157610b91610b60565b604051601f8501601f19908116603f01168101908282118183101715610bb957610bb9610b60565b81604052809350858152868686011115610bd257600080fd5b858560208301376000602087830101525050509392505050565b600082601f830112610bfd57600080fd5b610c0c83833560208501610b76565b9392505050565b60008060408385031215610c2657600080fd5b823567ffffffffffffffff80821115610c3e57600080fd5b610c4a86838701610bec565b93506020850135915080821115610c6057600080fd5b50610c6d85828601610bec565b9150509250929050565b60008060008060808587031215610c8d57600080fd5b843567ffffffffffffffff80821115610ca557600080fd5b610cb188838901610bec565b95506020870135915080821115610cc757600080fd5b610cd388838901610bec565b9450604087013591506001600160a01b0382168214610cf157600080fd5b90925060608601359080821115610d0757600080fd5b50610d1487828801610bec565b91505092959194509250565b600080600060608486031215610d3557600080fd5b833567ffffffffffffffff80821115610d4d57600080fd5b610d5987838801610bec565b94506020860135915080821115610d6f57600080fd5b610d7b87838801610bec565b93506040860135915080821115610d9157600080fd5b508401601f81018613610da357600080fd5b610db286823560208401610b76565b9150509250925092565b600080600060608486031215610dd157600080fd5b833567ffffffffffffffff80821115610de957600080fd5b610df587838801610bec565b94506020860135915080821115610e0b57600080fd5b610e1787838801610bec565b93506040860135915080821115610e2d57600080fd5b50610db286828701610bec565b600060208284031215610e4c57600080fd5b813567ffffffffffffffff811115610e6357600080fd5b610e6f84828501610bec565b949350505050565b6000815180845260005b81811015610e9d57602081850181015186830182015201610e81565b81811115610eaf576000602083870101525b50601f01601f19169290920160200192915050565b606081526000610ed76060830186610e77565b8281036020840152610ee98186610e77565b90508281036040840152610efd8185610e77565b9695505050505050565b608081526000610f1a6080830187610e77565b6001600160a01b03861660208401528281036040840152610f3b8186610e77565b90508281036060840152610f4f8185610e77565b979650505050505050565b602081526000610c0c6020830184610e77565b600181811c90821680610f8157607f821691505b60208210811415610fa257634e487b7160e01b600052602260045260246000fd5b50919050565b8054600090600181811c9080831680610fc257607f831692505b6020808410821415610fe457634e487b7160e01b600052602260045260246000fd5b83885260208801828015610fff57600181146110105761103b565b60ff1987168252828201975061103b565b60008981526020902060005b878110156110355781548482015290860190840161101c565b83019850505b5050505050505092915050565b60808152600061105b6080830187610e77565b828103602084015261106d8187610fa8565b90506001600160a01b03851660408401528281036060840152610f4f8185610fa8565b6060815260006110a36060830186610fa8565b82810360208401526110b58186610fa8565b90508281036040840152610efd8185610fa856fe5b52656769737465725d20494420616c72656164792065786973742c20706c656173652073656e64206120646966666572656e74206f6e655b496e766f636174696f6e5d20494420616c72656164792065786973742c20706c656173652073656e64206120646966666572656e74206f6e65a2646970667358221220ce1d647570e79908ec62e0c44a0fd707278b26568e092866b1f34e9aae1023a564736f6c63430008090033",
  "immutableReferences": {},
  "source": "// SPDX-License-Identifier: GPL-3.0\npragma solidity >=0.7.0 <0.9.0;\n\nimport \"../lib/Utils.sol\";\nimport \"../lib/Constants.sol\";\n\ncontract Register{\n\n    struct Invocation{\n        string id;\n        address contractAddress;\n        string functionSignature;\n        bytes args;\n        bool isValid;\n    }\n\n    struct Network{\n        string id;\n        string name;\n        string url;\n        // uint chainid;\n        bool isValid;\n        mapping(bytes32 => Invocation) invocations;\n    }\n\n    event InvocationRegisteredEvent(\n        string networkId,\n        string id,\n        address contractAddress,\n        string functionSignature\n    );\n\n    event NetworkRegisteredEvent(\n        string id,\n        string name,\n        string url\n    );\n\n    mapping(bytes32 => Network) registeredNetworks;\n\n    modifier checkNetworkID(string memory id, bool ifExist, string memory errorMsg){\n        require((ifExist) ? checkNetworkIDExist(id) : !checkNetworkIDExist(id), errorMsg);\n        _;\n    }\n    function checkNetworkIDExist(string memory id)public view returns(bool){\n        bytes32 hash = Utils.hash(bytes(id));\n        return registeredNetworks[hash].isValid;\n    }\n    \n    modifier checkInvocationID(string memory networkID, string memory id, bool ifExist, string memory errorMsg){\n        require((ifExist) ? checkInvocationIDExist(networkID, id) : !checkInvocationIDExist(networkID, id), errorMsg);\n        _;\n    }\n\n    function checkInvocationIDExist(string memory networkID, string memory id) \n        checkNetworkID(networkID, true, Constants.ERROR_REG_ID_NOT_FOUND) public view returns(bool){\n            bytes32 networkHash = Utils.hash(bytes(networkID));\n            bytes32 hash = Utils.hash(bytes(id));\n            return registeredNetworks[networkHash].invocations[hash].isValid;\n    }\n\n    function registerNetwork(\n        string memory id,\n        string memory name,\n        string memory url\n        // uint chainid\n        )\n        checkNetworkID(id, false, Constants.ERROR_REG_ID_FOUND)\n        external {\n            bytes32 hash = Utils.hash(bytes(id));\n            \n            Network storage network = registeredNetworks[hash];\n            network.id = id;\n            network.name = name;\n            network.url = url;\n            // network.chainid = chainid;\n            network.isValid = true;\n\n            emit NetworkRegisteredEvent(\n                network.id,\n                network.name,\n                network.url\n                // network.chainid\n            );\n    }\n    \n    function resolveNetwork(string memory id)\n        external view\n        checkNetworkID(id, true, Constants.ERROR_REG_ID_NOT_FOUND)\n        returns(string memory, string memory, string memory){\n            bytes32 hash = Utils.hash(bytes(id));\n            return (\n                registeredNetworks[hash].id,\n                registeredNetworks[hash].name,\n                registeredNetworks[hash].url\n                // registeredNetworks[hash].chainid\n            );    \n    }\n\n    function registerInvocation(\n        string memory networkId,\n        string memory id,\n        address contractAddress,\n        string memory functionSignature\n        ) external checkInvocationID(networkId, id, false, Constants.ERROR_INO_ID_FOUND){\n            bytes32 hashNetworkID = Utils.hash(bytes(networkId));\n            bytes32 hash = Utils.hash(bytes(id));\n\n            Invocation storage invocation = registeredNetworks[hashNetworkID].invocations[hash];\n            invocation.id = id;\n            invocation.contractAddress = contractAddress;\n            invocation.functionSignature = functionSignature;\n            invocation.isValid = true;\n            \n            emit InvocationRegisteredEvent(\n                networkId,\n                registeredNetworks[hashNetworkID].invocations[hash].id,\n                registeredNetworks[hashNetworkID].invocations[hash].contractAddress,\n                registeredNetworks[hashNetworkID].invocations[hash].functionSignature\n            );\n    }\n\n    function resolveInvocation(string memory networkId, string memory id)\n        external view\n        checkInvocationID(networkId, id, true, Constants.ERROR_INO_ID_NOT_FOUND)\n        returns(string memory, address, string memory, bytes memory){\n            bytes32 hashNetworkID = Utils.hash(bytes(networkId));\n            bytes32 hash = Utils.hash(bytes(id));\n\n            return (\n                registeredNetworks[hashNetworkID].invocations[hash].id,\n                registeredNetworks[hashNetworkID].invocations[hash].contractAddress,\n                registeredNetworks[hashNetworkID].invocations[hash].functionSignature,\n                registeredNetworks[hashNetworkID].invocations[hash].args\n            );    \n    }\n\n    function addArgs(string memory networkId, string memory id, bytes memory args)\n        external  checkInvocationID(networkId, id, true, Constants.ERROR_INO_ID_NOT_FOUND){\n            bytes32 hashNetworkID = Utils.hash(bytes(networkId));\n            bytes32 hash = Utils.hash(bytes(id));\n\n            registeredNetworks[hashNetworkID].invocations[hash].args = args;\n    }\n}",
  "sourcePath": "/home/rxshri99/WebProjects/sidecar-contract-kit/sidemesh-solidity/contracts/resource/Register.sol",
  "compiler": {
    "name": "solc",
    "version": "0.8.9+commit.e5eed63a.Emscripten.clang"
  },
  "schemaVersion": "3.4.11",
  "updatedAt": "2023-02-01T20:39:16.791Z",
  "networkType": "ethereum",
  "devdoc": {
    "kind": "dev",
    "methods": {},
    "version": 1
  },
  "userdoc": {
    "kind": "user",
    "methods": {},
    "version": 1
  }
}