{
  "contractName": "Register",
  "abi": [
    {
      "anonymous": false,
      "inputs": [
        {
          "indexed": false,
          "internalType": "string",
          "name": "networkId",
          "type": "string"
        },
        {
          "indexed": false,
          "internalType": "string",
          "name": "id",
          "type": "string"
        },
        {
          "indexed": false,
          "internalType": "address",
          "name": "contractAddress",
          "type": "address"
        },
        {
          "indexed": false,
          "internalType": "string",
          "name": "functionSignature",
          "type": "string"
        }
      ],
      "name": "InvocationRegisteredEvent",
      "type": "event"
    },
    {
      "anonymous": false,
      "inputs": [
        {
          "indexed": false,
          "internalType": "string",
          "name": "id",
          "type": "string"
        },
        {
          "indexed": false,
          "internalType": "string",
          "name": "name",
          "type": "string"
        },
        {
          "indexed": false,
          "internalType": "string",
          "name": "url",
          "type": "string"
        }
      ],
      "name": "NetworkRegisteredEvent",
      "type": "event"
    },
    {
      "inputs": [],
      "name": "ERROR_INO_ID_FOUND",
      "outputs": [
        {
          "internalType": "string",
          "name": "",
          "type": "string"
        }
      ],
      "stateMutability": "view",
      "type": "function"
    },
    {
      "inputs": [],
      "name": "ERROR_INO_ID_NOT_FOUND",
      "outputs": [
        {
          "internalType": "string",
          "name": "",
          "type": "string"
        }
      ],
      "stateMutability": "view",
      "type": "function"
    },
    {
      "inputs": [],
      "name": "ERROR_INVALID_STATUS",
      "outputs": [
        {
          "internalType": "string",
          "name": "",
          "type": "string"
        }
      ],
      "stateMutability": "view",
      "type": "function"
    },
    {
      "inputs": [],
      "name": "ERROR_LOCK_EXIST",
      "outputs": [
        {
          "internalType": "string",
          "name": "",
          "type": "string"
        }
      ],
      "stateMutability": "view",
      "type": "function"
    },
    {
      "inputs": [],
      "name": "ERROR_LOCK_NOT_EXIST",
      "outputs": [
        {
          "internalType": "string",
          "name": "",
          "type": "string"
        }
      ],
      "stateMutability": "view",
      "type": "function"
    },
    {
      "inputs": [],
      "name": "ERROR_LOCK_NOT_VALID",
      "outputs": [
        {
          "internalType": "string",
          "name": "",
          "type": "string"
        }
      ],
      "stateMutability": "view",
      "type": "function"
    },
    {
      "inputs": [],
      "name": "ERROR_REG_ID_FOUND",
      "outputs": [
        {
          "internalType": "string",
          "name": "",
          "type": "string"
        }
      ],
      "stateMutability": "view",
      "type": "function"
    },
    {
      "inputs": [],
      "name": "ERROR_REG_ID_NOT_FOUND",
      "outputs": [
        {
          "internalType": "string",
          "name": "",
          "type": "string"
        }
      ],
      "stateMutability": "view",
      "type": "function"
    },
    {
      "inputs": [],
      "name": "ERROR_TX_EXIST",
      "outputs": [
        {
          "internalType": "string",
          "name": "",
          "type": "string"
        }
      ],
      "stateMutability": "view",
      "type": "function"
    },
    {
      "inputs": [],
      "name": "ERROR_TX_NOT_EXIST",
      "outputs": [
        {
          "internalType": "string",
          "name": "",
          "type": "string"
        }
      ],
      "stateMutability": "view",
      "type": "function"
    },
    {
      "inputs": [
        {
          "internalType": "string",
          "name": "id",
          "type": "string"
        }
      ],
      "name": "checkNetworkIDExist",
      "outputs": [
        {
          "internalType": "bool",
          "name": "",
          "type": "bool"
        }
      ],
      "stateMutability": "view",
      "type": "function"
    },
    {
      "inputs": [
        {
          "internalType": "string",
          "name": "networkID",
          "type": "string"
        },
        {
          "internalType": "string",
          "name": "id",
          "type": "string"
        }
      ],
      "name": "checkInvocationIDExist",
      "outputs": [
        {
          "internalType": "bool",
          "name": "",
          "type": "bool"
        }
      ],
      "stateMutability": "view",
      "type": "function"
    },
    {
      "inputs": [
        {
          "internalType": "string",
          "name": "id",
          "type": "string"
        },
        {
          "internalType": "string",
          "name": "name",
          "type": "string"
        },
        {
          "internalType": "string",
          "name": "url",
          "type": "string"
        }
      ],
      "name": "registerNetwork",
      "outputs": [],
      "stateMutability": "nonpayable",
      "type": "function"
    },
    {
      "inputs": [
        {
          "internalType": "string",
          "name": "id",
          "type": "string"
        }
      ],
      "name": "resolveNetwork",
      "outputs": [
        {
          "internalType": "string",
          "name": "",
          "type": "string"
        },
        {
          "internalType": "string",
          "name": "",
          "type": "string"
        },
        {
          "internalType": "string",
          "name": "",
          "type": "string"
        }
      ],
      "stateMutability": "view",
      "type": "function"
    },
    {
      "inputs": [
        {
          "internalType": "string",
          "name": "networkId",
          "type": "string"
        },
        {
          "internalType": "string",
          "name": "id",
          "type": "string"
        },
        {
          "internalType": "address",
          "name": "contractAddress",
          "type": "address"
        },
        {
          "internalType": "string",
          "name": "functionSignature",
          "type": "string"
        }
      ],
      "name": "registerInvocation",
      "outputs": [],
      "stateMutability": "nonpayable",
      "type": "function"
    },
    {
      "inputs": [
        {
          "internalType": "string",
          "name": "networkId",
          "type": "string"
        },
        {
          "internalType": "string",
          "name": "id",
          "type": "string"
        }
      ],
      "name": "resolveInvocation",
      "outputs": [
        {
          "internalType": "string",
          "name": "",
          "type": "string"
        },
        {
          "internalType": "address",
          "name": "",
          "type": "address"
        },
        {
          "internalType": "string",
          "name": "",
          "type": "string"
        }
      ],
      "stateMutability": "view",
      "type": "function"
    }
  ],
  "bytecode": "0x608060405234801561001057600080fd5b50611211806100206000396000f3fe608060405234801561001057600080fd5b50600436106101005760003560e01c8063991b53bf11610097578063c7fa89cb11610066578063c7fa89cb146102c8578063d8d5796e14610304578063e034eb2f14610326578063f1dd783f1461036257600080fd5b8063991b53bf14610283578063a3d4cd6914610296578063b916419c146102b8578063bab89cb1146102c057600080fd5b8063487b9127116100d3578063487b9127146101ba5780636da0d921146101cf57806380152de81461020b57806383ebc8b41461024757600080fd5b806309865a48146101055780630d0007641461012d5780631ea1238214610176578063232b60c91461017e575b600080fd5b610118610113366004610d31565b61038f565b60405190151581526020015b60405180910390f35b6101696040518060400160405280600e81526020017f4c6f636b206e6f7420657869737400000000000000000000000000000000000081525081565b6040516101249190610de2565b61016961047c565b6101696040518060400160405280600c81526020017f5478206e6f74206578697374000000000000000000000000000000000000000081525081565b6101cd6101c8366004610dfc565b610498565b005b6101696040518060400160405280601e81526020017f5b496e766f636174696f6e5d2043616e742061626c652066696e64206964000081525081565b6101696040518060400160405280601081526020017f547820616c72656164792065786973740000000000000000000000000000000081525081565b6101696040518060400160405280601181526020017f4c6f636b206973206e6f742076616c696400000000000000000000000000000081525081565b6101cd610291366004610ea5565b610607565b6102a96102a4366004610f2d565b610746565b60405161012493929190610f6a565b6101696109ce565b6101696109ea565b6101696040518060400160405280600e81526020017f496e76616c69642073746174757300000000000000000000000000000000000081525081565b610317610312366004610d31565b610a06565b60405161012493929190610fad565b6101696040518060400160405280601c81526020017f5b52656769737465725d2043616e742061626c652066696e642069640000000081525081565b610118610370366004610f2d565b8051602091820120600090815290819052604090206003015460ff1690565b60008260016040518060400160405280601c81526020017f5b52656769737465725d2043616e742061626c652066696e6420696400000000815250816103f8576103f2838051602091820120600090815290819052604090206003015460ff1690565b1561041b565b61041b838051602091820120600090815290819052604090206003015460ff1690565b81906104435760405162461bcd60e51b815260040161043a9190610de2565b60405180910390fd5b50508451602095860120845194860194909420600094855284865260408086209186526004909101909552505050206003015460ff1690565b60405180606001604052806038815260200161116a6038913981565b838360006040518060600160405280603a81526020016111a2603a9139816104ca576104c4848461038f565b156104d4565b6104d4848461038f565b81906104f35760405162461bcd60e51b815260040161043a9190610de2565b5087516020808a0191909120885189830190812060008381528085526040808220838352600401909552939093208a51929392909161053491839190610bf5565b506001810180547fffffffffffffffffffffffff0000000000000000000000000000000000000000166001600160a01b038b16179055875161057f90600283019060208b0190610bf5565b5060038101805460ff19166001908117909155600084815260208181526040808320868452600401909152908190209182015490517fc9e4bb6785f43b39e79da98960ed530842ae6ee3486f4b33d8fa34a75316253d926105f2928f926001600160a01b039091169060028301906110bc565b60405180910390a15050505050505050505050565b82600060405180606001604052806038815260200161116a60389139816106515761064b838051602091820120600090815290819052604090206003015460ff1690565b15610674565b610674838051602091820120600090815290819052604090206003015460ff1690565b81906106935760405162461bcd60e51b815260040161043a9190610de2565b508551602080880191822060008181529182905260409091208851919290916106bd918391610bf5565b5086516106d390600183019060208a0190610bf5565b5085516106e99060028301906020890190610bf5565b5060038101805460ff191660019081179091556040517f6adbfdd56d9836eb2acaf9d4022a62b5d3d6a0a5c6e1189b8ea43d5373c6a4a691610734918491820190600283019061110f565b60405180910390a15050505050505050565b60608060608360016040518060400160405280601c81526020017f5b52656769737465725d2043616e742061626c652066696e6420696400000000815250816107b2576107ac838051602091820120600090815290819052604090206003015460ff1690565b156107d5565b6107d5838051602091820120600090815290819052604090206003015460ff1690565b81906107f45760405162461bcd60e51b815260040161043a9190610de2565b5086516020808901919091206000818152918290526040909120805460018201906002830190839061082590610fe1565b80601f016020809104026020016040519081016040528092919081815260200182805461085190610fe1565b801561089e5780601f106108735761010080835404028352916020019161089e565b820191906000526020600020905b81548152906001019060200180831161088157829003601f168201915b505050505092508180546108b190610fe1565b80601f01602080910402602001604051908101604052809291908181526020018280546108dd90610fe1565b801561092a5780601f106108ff5761010080835404028352916020019161092a565b820191906000526020600020905b81548152906001019060200180831161090d57829003601f168201915b5050505050915080805461093d90610fe1565b80601f016020809104026020016040519081016040528092919081815260200182805461096990610fe1565b80156109b65780601f1061098b576101008083540402835291602001916109b6565b820191906000526020600020905b81548152906001019060200180831161099957829003601f168201915b50505050509050965096509650505050509193909250565b6040518060600160405280603a81526020016111a2603a913981565b6040518060600160405280602181526020016111496021913981565b606060006060848460016040518060400160405280601e81526020017f5b496e766f636174696f6e5d2043616e742061626c652066696e64206964000081525081610a5b57610a55848461038f565b15610a65565b610a65848461038f565b8190610a845760405162461bcd60e51b815260040161043a9190610de2565b5088516020808b019190912089518a8301206000828152808452604080822083835260040190945292909220600181015481549293926001600160a01b039091169060028301908390610ad690610fe1565b80601f0160208091040260200160405190810160405280929190818152602001828054610b0290610fe1565b8015610b4f5780601f10610b2457610100808354040283529160200191610b4f565b820191906000526020600020905b815481529060010190602001808311610b3257829003601f168201915b50505050509250808054610b6290610fe1565b80601f0160208091040260200160405190810160405280929190818152602001828054610b8e90610fe1565b8015610bdb5780601f10610bb057610100808354040283529160200191610bdb565b820191906000526020600020905b815481529060010190602001808311610bbe57829003601f168201915b505050505090509850985098505050505050509250925092565b828054610c0190610fe1565b90600052602060002090601f016020900481019282610c235760008555610c69565b82601f10610c3c57805160ff1916838001178555610c69565b82800160010185558215610c69579182015b82811115610c69578251825591602001919060010190610c4e565b50610c75929150610c79565b5090565b5b80821115610c755760008155600101610c7a565b634e487b7160e01b600052604160045260246000fd5b600082601f830112610cb557600080fd5b813567ffffffffffffffff80821115610cd057610cd0610c8e565b604051601f8301601f19908116603f01168101908282118183101715610cf857610cf8610c8e565b81604052838152866020858801011115610d1157600080fd5b836020870160208301376000602085830101528094505050505092915050565b60008060408385031215610d4457600080fd5b823567ffffffffffffffff80821115610d5c57600080fd5b610d6886838701610ca4565b93506020850135915080821115610d7e57600080fd5b50610d8b85828601610ca4565b9150509250929050565b6000815180845260005b81811015610dbb57602081850181015186830182015201610d9f565b81811115610dcd576000602083870101525b50601f01601f19169290920160200192915050565b602081526000610df56020830184610d95565b9392505050565b60008060008060808587031215610e1257600080fd5b843567ffffffffffffffff80821115610e2a57600080fd5b610e3688838901610ca4565b95506020870135915080821115610e4c57600080fd5b610e5888838901610ca4565b9450604087013591506001600160a01b0382168214610e7657600080fd5b90925060608601359080821115610e8c57600080fd5b50610e9987828801610ca4565b91505092959194509250565b600080600060608486031215610eba57600080fd5b833567ffffffffffffffff80821115610ed257600080fd5b610ede87838801610ca4565b94506020860135915080821115610ef457600080fd5b610f0087838801610ca4565b93506040860135915080821115610f1657600080fd5b50610f2386828701610ca4565b9150509250925092565b600060208284031215610f3f57600080fd5b813567ffffffffffffffff811115610f5657600080fd5b610f6284828501610ca4565b949350505050565b606081526000610f7d6060830186610d95565b8281036020840152610f8f8186610d95565b90508281036040840152610fa38185610d95565b9695505050505050565b606081526000610fc06060830186610d95565b6001600160a01b03851660208401528281036040840152610fa38185610d95565b600181811c90821680610ff557607f821691505b6020821081141561101657634e487b7160e01b600052602260045260246000fd5b50919050565b8054600090600181811c908083168061103657607f831692505b602080841082141561105857634e487b7160e01b600052602260045260246000fd5b838852602088018280156110735760018114611084576110af565b60ff198716825282820197506110af565b60008981526020902060005b878110156110a957815484820152908601908401611090565b83019850505b5050505050505092915050565b6080815260006110cf6080830187610d95565b82810360208401526110e1818761101c565b90506001600160a01b03851660408401528281036060840152611104818561101c565b979650505050505050565b606081526000611122606083018661101c565b8281036020840152611134818661101c565b90508281036040840152610fa3818561101c56fe4c6f636b20616c72656164792065786973742061742074696d657374616d703a205b52656769737465725d20494420616c72656164792065786973742c20706c656173652073656e64206120646966666572656e74206f6e655b496e766f636174696f6e5d20494420616c72656164792065786973742c20706c656173652073656e64206120646966666572656e74206f6e65a2646970667358221220d012a975f5cc68b97c266d93a8a125ff8a170004b6faf278ff5329a2430a531a64736f6c63430008090033",
  "immutableReferences": {},
  "source": "// SPDX-License-Identifier: GPL-3.0\npragma solidity >=0.7.0 <0.9.0;\n\ncontract Register{\n    string constant public ERROR_REG_ID_NOT_FOUND = \"[Register] Cant able find id\";\n    string constant public ERROR_REG_ID_FOUND = \"[Register] ID already exist, please send a different one\";\n    string constant public ERROR_INO_ID_NOT_FOUND = \"[Invocation] Cant able find id\";\n    string constant public ERROR_INO_ID_FOUND = \"[Invocation] ID already exist, please send a different one\";\n    string constant public ERROR_LOCK_NOT_VALID = \"Lock is not valid\";\n    string constant public ERROR_LOCK_EXIST = \"Lock already exist at timestamp: \";\n    string constant public ERROR_LOCK_NOT_EXIST = \"Lock not exist\";\n    string constant public ERROR_TX_EXIST = \"Tx already exist\";\n    string constant public ERROR_TX_NOT_EXIST = \"Tx not exist\";\n    string constant public ERROR_INVALID_STATUS = \"Invalid status\";\n\n    struct Invocation{\n        string id;\n        address contractAddress;\n        string functionSignature;\n        bool isValid;\n    }\n\n    struct Network{\n        string id;\n        string name;\n        string url;\n        // uint chainid;\n        bool isValid;\n        mapping(bytes32 => Invocation) invocations;\n    }\n\n    event InvocationRegisteredEvent(\n        string networkId,\n        string id,\n        address contractAddress,\n        string functionSignature\n    );\n\n    event NetworkRegisteredEvent(\n        string id,\n        string name,\n        string url\n    );\n\n    mapping(bytes32 => Network) registeredNetworks;\n\n    modifier checkNetworkID(string memory id, bool ifExist, string memory errorMsg){\n        require((ifExist) ? checkNetworkIDExist(id) : !checkNetworkIDExist(id), errorMsg);\n        _;\n    }\n    function checkNetworkIDExist(string memory id)public view returns(bool){\n        bytes32 hash = keccak256(bytes(id));\n        return registeredNetworks[hash].isValid;\n    }\n    \n    modifier checkInvocationID(string memory networkID, string memory id, bool ifExist, string memory errorMsg){\n        require((ifExist) ? checkInvocationIDExist(networkID, id) : !checkInvocationIDExist(networkID, id), errorMsg);\n        _;\n    }\n\n    function checkInvocationIDExist(string memory networkID, string memory id) \n        checkNetworkID(networkID, true, ERROR_REG_ID_NOT_FOUND) public view returns(bool){\n            bytes32 networkHash = keccak256(bytes(networkID));\n            bytes32 hash = keccak256(bytes(id));\n            return registeredNetworks[networkHash].invocations[hash].isValid;\n    }\n\n    function registerNetwork(\n        string memory id,\n        string memory name,\n        string memory url\n        // uint chainid\n        )\n        checkNetworkID(id, false, ERROR_REG_ID_FOUND)\n        external {\n            bytes32 hash = keccak256(bytes(id));\n            \n            Network storage network = registeredNetworks[hash];\n            network.id = id;\n            network.name = name;\n            network.url = url;\n            // network.chainid = chainid;\n            network.isValid = true;\n\n            emit NetworkRegisteredEvent(\n                network.id,\n                network.name,\n                network.url\n                // network.chainid\n            );\n    }\n    \n    function resolveNetwork(string memory id)\n        external view\n        checkNetworkID(id, true, ERROR_REG_ID_NOT_FOUND)\n        returns(string memory, string memory, string memory){\n            bytes32 hash = keccak256(bytes(id));\n            return (\n                registeredNetworks[hash].id,\n                registeredNetworks[hash].name,\n                registeredNetworks[hash].url\n                // registeredNetworks[hash].chainid\n            );    \n    }\n\n    function registerInvocation(\n        string memory networkId,\n        string memory id,\n        address contractAddress,\n        string memory functionSignature\n        ) external checkInvocationID(networkId, id, false, ERROR_INO_ID_FOUND){\n            bytes32 hashNetworkID = keccak256(bytes(networkId));\n            bytes32 hash = keccak256(bytes(id));\n\n            Invocation storage invocation = registeredNetworks[hashNetworkID].invocations[hash];\n            invocation.id = id;\n            invocation.contractAddress = contractAddress;\n            invocation.functionSignature = functionSignature;\n            invocation.isValid = true;\n            \n            emit InvocationRegisteredEvent(\n                networkId,\n                registeredNetworks[hashNetworkID].invocations[hash].id,\n                registeredNetworks[hashNetworkID].invocations[hash].contractAddress,\n                registeredNetworks[hashNetworkID].invocations[hash].functionSignature\n            );\n    }\n\n    function resolveInvocation(string memory networkId, string memory id)\n        external view\n        checkInvocationID(networkId, id, true, ERROR_INO_ID_NOT_FOUND)\n        returns(string memory, address, string memory){\n            bytes32 hashNetworkID = keccak256(bytes(networkId));\n            bytes32 hash = keccak256(bytes(id));\n\n            return (\n                registeredNetworks[hashNetworkID].invocations[hash].id,\n                registeredNetworks[hashNetworkID].invocations[hash].contractAddress,\n                registeredNetworks[hashNetworkID].invocations[hash].functionSignature\n            );    \n    }\n}",
  "sourcePath": "/Users/rxshri99/Projects/Research/sidecar-contract-kit/sidemesh-solidity/contracts/resource/Register.sol",
  "compiler": {
    "name": "solc",
    "version": "0.8.9+commit.e5eed63a.Emscripten.clang"
  },
  "schemaVersion": "3.4.16",
  "updatedAt": "2025-12-15T19:41:36.454Z",
  "devdoc": {
    "kind": "dev",
    "methods": {},
    "version": 1
  },
  "userdoc": {
    "kind": "user",
    "methods": {},
    "version": 1
  }
}