{
  "contractName": "SimpleStorage",
  "abi": [
    {
      "anonymous": false,
      "inputs": [
        {
          "indexed": true,
          "internalType": "address",
          "name": "from",
          "type": "address"
        },
        {
          "indexed": false,
          "internalType": "bytes",
          "name": "value",
          "type": "bytes"
        }
      ],
      "name": "Changed",
      "type": "event"
    },
    {
      "inputs": [
        {
          "internalType": "bytes",
          "name": "newValue",
          "type": "bytes"
        }
      ],
      "name": "set",
      "outputs": [
        {
          "internalType": "bytes",
          "name": "",
          "type": "bytes"
        }
      ],
      "stateMutability": "nonpayable",
      "type": "function"
    },
    {
      "inputs": [],
      "name": "get",
      "outputs": [
        {
          "internalType": "bytes",
          "name": "",
          "type": "bytes"
        }
      ],
      "stateMutability": "view",
      "type": "function"
    }
  ],
  "bytecode": "0x608060405234801561001057600080fd5b5061041b806100206000396000f3fe608060405234801561001057600080fd5b50600436106100365760003560e01c80630399321e1461003b5780636d4ce63c14610064575b600080fd5b61004e6100493660046102a4565b61006c565b60405161005b9190610355565b60405180910390f35b61004e610163565b80516060906100829060009060208501906101f5565b503373ffffffffffffffffffffffffffffffffffffffff167f0299154d56118e427e4328a11703ac96e95ded8158ba78814299b98cc25c86df836040516100c99190610355565b60405180910390a2600080546100de906103aa565b80601f016020809104026020016040519081016040528092919081815260200182805461010a906103aa565b80156101575780601f1061012c57610100808354040283529160200191610157565b820191906000526020600020905b81548152906001019060200180831161013a57829003601f168201915b50505050509050919050565b606060008054610172906103aa565b80601f016020809104026020016040519081016040528092919081815260200182805461019e906103aa565b80156101eb5780601f106101c0576101008083540402835291602001916101eb565b820191906000526020600020905b8154815290600101906020018083116101ce57829003601f168201915b5050505050905090565b828054610201906103aa565b90600052602060002090601f0160209004810192826102235760008555610269565b82601f1061023c57805160ff1916838001178555610269565b82800160010185558215610269579182015b8281111561026957825182559160200191906001019061024e565b50610275929150610279565b5090565b5b80821115610275576000815560010161027a565b634e487b7160e01b600052604160045260246000fd5b6000602082840312156102b657600080fd5b813567ffffffffffffffff808211156102ce57600080fd5b818401915084601f8301126102e257600080fd5b8135818111156102f4576102f461028e565b604051601f8201601f19908116603f0116810190838211818310171561031c5761031c61028e565b8160405282815287602084870101111561033557600080fd5b826020860160208301376000928101602001929092525095945050505050565b600060208083528351808285015260005b8181101561038257858101830151858201604001528201610366565b81811115610394576000604083870101525b50601f01601f1916929092016040019392505050565b600181811c908216806103be57607f821691505b602082108114156103df57634e487b7160e01b600052602260045260246000fd5b5091905056fea2646970667358221220b5ac672b43f322e020760966d1bda850dcf6b817119c871a3e7e3646f87fa29f64736f6c63430008090033",
  "immutableReferences": {},
  "source": "// SPDX-License-Identifier: Apache-2.0\npragma solidity >=0.7.0 <0.9.0;\n\n// Declares a new contract\ncontract SimpleStorage {\n    // Storage. Persists in between transactions\n    bytes x;\n\n    // Allows the unsigned integer stored to be changed\n    function set(bytes memory newValue) public returns(bytes memory){\n        x = newValue;\n        emit Changed(msg.sender, newValue);\n        return x;\n    }\n\n    // Returns the currently stored unsigned integer\n    function get() public view returns (bytes memory) {\n        return x;\n    }\n\n    event Changed(address indexed from, bytes value);\n}",
  "sourcePath": "/Users/shri99/WebProjects/sidecar-contract-kit/sidemesh-solidity/contracts/SimpleStorage.sol",
  "compiler": {
    "name": "solc",
    "version": "0.8.9+commit.e5eed63a.Emscripten.clang"
  },
  "schemaVersion": "3.4.11",
  "updatedAt": "2023-07-12T23:43:10.585Z",
  "devdoc": {
    "kind": "dev",
    "methods": {},
    "version": 1
  },
  "userdoc": {
    "kind": "user",
    "methods": {},
    "version": 1
  }
}