{
  "contractName": "SimpleStorage",
  "abi": [
    {
      "anonymous": false,
      "inputs": [
        {
          "indexed": true,
          "internalType": "address",
          "name": "from",
          "type": "address"
        },
        {
          "indexed": false,
          "internalType": "bytes",
          "name": "key",
          "type": "bytes"
        },
        {
          "indexed": false,
          "internalType": "bytes",
          "name": "value",
          "type": "bytes"
        }
      ],
      "name": "Changed",
      "type": "event"
    },
    {
      "inputs": [
        {
          "internalType": "bytes",
          "name": "",
          "type": "bytes"
        }
      ],
      "name": "map",
      "outputs": [
        {
          "internalType": "bytes",
          "name": "",
          "type": "bytes"
        }
      ],
      "stateMutability": "view",
      "type": "function"
    },
    {
      "inputs": [
        {
          "internalType": "bytes",
          "name": "key",
          "type": "bytes"
        },
        {
          "internalType": "bytes",
          "name": "value",
          "type": "bytes"
        }
      ],
      "name": "set",
      "outputs": [],
      "stateMutability": "nonpayable",
      "type": "function"
    },
    {
      "inputs": [
        {
          "internalType": "bytes",
          "name": "key",
          "type": "bytes"
        }
      ],
      "name": "get",
      "outputs": [
        {
          "internalType": "bytes",
          "name": "",
          "type": "bytes"
        }
      ],
      "stateMutability": "view",
      "type": "function"
    }
  ],
  "bytecode": "0x608060405234801561001057600080fd5b50610581806100206000396000f3fe608060405234801561001057600080fd5b50600436106100415760003560e01c8063a18c751e14610046578063b6c4c6ff1461005b578063d6d7d52514610084575b600080fd5b6100596100543660046103af565b610097565b005b61006e610069366004610413565b61011e565b60405161007b91906104ac565b60405180910390f35b61006e610092366004610413565b6101c3565b806000836040516100a891906104c6565b908152602001604051809103902090805190602001906100c9929190610273565b503373ffffffffffffffffffffffffffffffffffffffff167f112aee68af8fac654799dba7605436b0bfec9c717a7c9d9f94ed168318822f1283836040516101129291906104e2565b60405180910390a25050565b80516020818301810180516000825292820191909301209152805461014290610510565b80601f016020809104026020016040519081016040528092919081815260200182805461016e90610510565b80156101bb5780601f10610190576101008083540402835291602001916101bb565b820191906000526020600020905b81548152906001019060200180831161019e57829003601f168201915b505050505081565b60606000826040516101d591906104c6565b908152602001604051809103902080546101ee90610510565b80601f016020809104026020016040519081016040528092919081815260200182805461021a90610510565b80156102675780601f1061023c57610100808354040283529160200191610267565b820191906000526020600020905b81548152906001019060200180831161024a57829003601f168201915b50505050509050919050565b82805461027f90610510565b90600052602060002090601f0160209004810192826102a157600085556102e7565b82601f106102ba57805160ff19168380011785556102e7565b828001600101855582156102e7579182015b828111156102e75782518255916020019190600101906102cc565b506102f39291506102f7565b5090565b5b808211156102f357600081556001016102f8565b634e487b7160e01b600052604160045260246000fd5b600082601f83011261033357600080fd5b813567ffffffffffffffff8082111561034e5761034e61030c565b604051601f8301601f19908116603f011681019082821181831017156103765761037661030c565b8160405283815286602085880101111561038f57600080fd5b836020870160208301376000602085830101528094505050505092915050565b600080604083850312156103c257600080fd5b823567ffffffffffffffff808211156103da57600080fd5b6103e686838701610322565b935060208501359150808211156103fc57600080fd5b5061040985828601610322565b9150509250929050565b60006020828403121561042557600080fd5b813567ffffffffffffffff81111561043c57600080fd5b61044884828501610322565b949350505050565b60005b8381101561046b578181015183820152602001610453565b8381111561047a576000848401525b50505050565b60008151808452610498816020860160208601610450565b601f01601f19169290920160200192915050565b6020815260006104bf6020830184610480565b9392505050565b600082516104d8818460208701610450565b9190910192915050565b6040815260006104f56040830185610480565b82810360208401526105078185610480565b95945050505050565b600181811c9082168061052457607f821691505b6020821081141561054557634e487b7160e01b600052602260045260246000fd5b5091905056fea264697066735822122024ca28ab62d01617dfd085845d770f2eda0b6c7834a801ecb011c1a6540ca05564736f6c63430008090033",
  "immutableReferences": {},
  "source": "// SPDX-License-Identifier: Apache-2.0\npragma solidity >=0.7.0 <0.9.0;\n\n// Declares a new contract\ncontract SimpleStorage {\n    // Storage. Persists in between transactions\n    mapping(bytes => bytes) public map;\n\n    // Allows the unsigned integer stored to be changed\n    function set(bytes memory key, bytes memory value)public{\n        map[key] = value;\n        emit Changed(msg.sender, key, value);\n    }\n\n    // Returns the currently stored unsigned integer\n    function get(bytes memory key) public view returns (bytes memory) {\n        return map[key];\n    }\n\n    event Changed(address indexed from, bytes key, bytes value);\n}",
  "sourcePath": "/Users/rxshri99/Projects/Research/sidecar-contract-kit/sidemesh-solidity/contracts/SimpleStorage.sol",
  "compiler": {
    "name": "solc",
    "version": "0.8.9+commit.e5eed63a.Emscripten.clang"
  },
  "schemaVersion": "3.4.16",
  "updatedAt": "2025-12-15T10:45:17.341Z",
  "devdoc": {
    "kind": "dev",
    "methods": {},
    "version": 1
  },
  "userdoc": {
    "kind": "user",
    "methods": {},
    "version": 1
  }
}